:020000040800F2
:1000000028040020A1010008DB0300087503000894
:10001000D903000871020008C50A000800000000AA
:10002000000000000000000000000000F5050008CE
:10003000A902000800000000FD040008CD06000829
:10004000BB010008BB010008BB010008BB010008A0
:10005000BB010008BB010008BB010008BB01000890
:10006000BB010008BB010008BB010008BB01000880
:10007000BB010008BB010008BB010008BB01000870
:10008000BB010008BB010008BB010008BB01000860
:10009000BB010008BB010008BB010008BB01000850
:1000A000BB010008BB010008BB010008BB01000840
:1000B000BB010008BB010008BB010008BB01000830
:1000C000BB010008BB010008BB010008BB01000820
:1000D000BB010008BB010008BB010008BB01000810
:1000E000BB010008BB010008BB010008BB01000800
:1000F000BB010008BB010008BB010008BB010008F0
:10010000BB010008BB010008BB010008BB010008DF
:10011000BB010008BB01000835070008BB0100084F
:10012000BB010008BB010008BB010008BB010008BF
:10013000BB010008BB010008BB010008BB010008AF
:10014000BB010008BB010008BB010008BB0100089F
:10015000BB010008BB010008BB010008BB0100088F
:10016000BB010008BB010008BB010008BB0100087F
:10017000BB010008BB010008BB010008BB0100086F
:10018000BB010008BB010008DFF810D000F030F818
:1001900000480047810C0008AFF3008028040020CD
:1001A0000648804706480047FEE7FEE7FEE7FEE711
:1001B000FEE7FEE7FEE7FEE7FEE7FEE7D106000802
:1001C0008901000830B50B46014600202022012499
:1001D00009E021FA02F59D4205D303FA02F5491B15
:1001E00004FA02F52844151EA2F10102F1DC30BD2B
:1001F000064C074D06E0E06840F0010394E8070074
:1002000098471034AC42F6D3FFF7C2FFE80C000861
:10021000080D00087FB504460D460121102000F0AE
:100220007DF90026ADF806606D1E0295641EADF8DE
:1002300004400E4C01A9204600F04CFB012211465F
:10024000204600F002FB36218DF8001001218DF8C8
:1002500003108DF801108DF80260684600F0BEF8BA
:100260000121204600F0D9FA7FBD000000100040B7
:10027000FEE700001CB50446002C03D1012108460E
:1002800000F03EF9064830F81400009000208DF888
:1002900004000448694650F8240000F006F81CBD2C
:1002A000E60C00081400002070472DE9F041002200
:1002B00001274FF0030C07FA02F50B682B40AB4205
:1002C0002CD1066853000CFA03F4A64306600E799D
:1002D000D0F800809E4046EA080606600E79012E9E
:1002E00001D0022E12D18668A64386604E79D0F8DE
:1002F00008809E4046EA080686604668AE4346602F
:1003000045688E799640B6B235434560C568A543C9
:10031000C560CC799C40C3681C43C460521C102A41
:10032000C9D3BDE8F08110B54B07DB0E9A40C90870
:1003300000EB8100016A0F249C40A1430162016A25
:100340001143016210BD0246002012690A4200D02A
:100350000120704742694A40426170470349044A9C
:1003600031F8101052F82000FFF7EDBFE60C00083E
:1003700014000020FEE700001CB50446002C03D149
:100380000121022000F0BCF80B4830F81400009066
:1003900001208DF8040000208DF8060003208DF860
:1003A000050002208DF807000448694650F8240033
:1003B000FFF77BFF1CBD0000E40C000810000020CC
:1003C0000349044A31F8101052F82000FFF7C2BF69
:1003D000E40C000810000020FEE7704730B50F2342
:1003E000C27801250178002A1FD0154A126802F44C
:1003F000E062C2F5E062C2F30722C2F10404D34016
:100400004278A24084781C401443220101F1E0218B
:1004100081F80024007800F01F018D404009800021
:1004200000F1E020C0F8005130BD01F01F00854010
:100430004809800000F1E020C0F8805130BD000084
:100440000CED00E0024908430249086070470000D3
:100450000000FA050CED00E030B589B005460C4609
:1004600000F02CF80121084600F058F80794ADF888
:1004700018500024ADF81A404FF0804506A92846D0
:1004800000F028FA6021ADF804100121ADF8061043
:100490000394ADF8104001A9284600F0E1F90821C5
:1004A000284600F011FA0121284600F0A7F90121A1
:1004B000284600F0B2F909B030BD00001CB501219A
:1004C000084600F01DF82020009002208DF804005E
:1004D00001208DF8050000208DF806008DF807003A
:1004E000054C69462046FFF7E0FE01220521204623
:1004F000FFF719FF1CBD000000000240704700001C
:10050000054A002903D01168014311607047116842
:10051000814311607047000030380240054A0029CD
:1005200003D0116801431160704711688143116065
:100530007047000040380240054A002903D0116886
:1005400001431160704711688143116070470000DA
:100550004438024070B5244B196801F00C01234C5B
:1005600000291ED0661004291DD008291DD0046062
:10057000196801F0F00109091D4A545C0168E14065
:1005800041601C6804F4E054A40A145D21FA04F4E8
:1005900084601B6803F460435B0BD25CD140C16094
:1005A00070BD0460E4E70660E2E70F4A121F1168BD
:1005B000C1F38055116801F03F0135B1B6FBF1F18F
:1005C0001468C4F38814614305E0B4FBF1F11468C6
:1005D000C4F3881461431268C2F30142521C5200F2
:1005E000B1FBF2F10160C3E7083802400024F400D7
:1005F00000000020704700000CB50022019200921C
:100600002749086840F4803008604FF4A043086828
:1006100000F4003000900198401C0190009810B93F
:1006200001989842F3D10868800302D50120009018
:1006300000E000920098012831D11948403002684A
:1006400042F0805202601748026842F44042026061
:100650001348083002680260026842F400420260F7
:10066000026842F4A0520260021F0F4B13600A6836
:1006700042F080720A600A689201FCD50B4A40F28F
:1006800005711160016821F003010160016841F00A
:10069000020101600168C1F381010229FAD10CBD98
:1006A000003802400070004008544007003C0240FF
:1006B0004FF0E021042804D0086920F0040008610C
:1006C0007047086940F004000861704770470000F7
:1006D00010B51248016841F47001016010480168CA
:1006E00041F0010101600E4A0021083211600268E8
:1006F0000C4B1A400260031D0B4A1A60026822F478
:100700008022026006480C300160FFF775FF034944
:100710004FF000608039086010BD000088ED00E0F7
:1007200000380240FFFFF6FE103000246FF0040096
:10073000FFF7BEBFF8B5224E0121304600F079F830
:1007400001283CD10020FFF709FE00251D4C01289F
:1007500001D1607820B10020FFF700FE30B106E043
:100760002078401C20700120607000E06570607887
:1007700010B1A068401CA060A088401C81B2A1807C
:10078000B1F57A7F08D3A580E0780090A36822783D
:10079000E1880DA000F098F9A07850B1E088401CE5
:1007A00081B2E180B1F5FA6F03D3E580A5602570D1
:1007B000A5703046BDE8F840012100F02BB8F8BD27
:1007C000001000401800002052756E5F54696D657E
:1007D0003A25642C4B65795F436E743A25642C503E
:1007E000726573735F54696D653A25642C53746147
:1007F0007475733A25640D0A00000000002904D0C6
:10080000018841F0800101807047018821F080015A
:1008100001807047C94301827047002904D00188D4
:1008200041F0010101807047018821F00101018040
:10083000704702460020138A0B4092890A40002B21
:1008400002D0002A00D001207047002A03D08289FC
:100850000A438281704782898A43828170470000FF
:1008600030B5028C22F001020284058C8388028B51
:1008700022F0700222F003020C88144325F00202D9
:100880008D8915434A882A430D4DA84202D00D4D4B
:10089000A8420FD122F00805CA892A4322F0040594
:1008A0008A882A4323F4807323F400730D8A1D433E
:1008B0004B8A2B438380048389684163028430BD63
:1008C0000000014000040140028B22F008020A43AC
:1008D0000283704730B50288164C174DA0420DD0E8
:1008E000A8420BD0B0F1804F08D0144B984205D0ED
:1008F000134B984202D0134B984203D122F070035D
:100900004A881A43104B984206D0104B984203D0A5
:1009100022F440730A891A4302804A68C2620A8834
:100920000285A04201D0A84201D1897A0186012125
:10093000818230BD000001400004014000040040FD
:1009400000080040000C004000100040001400406F
:1009500070B586B0054601210846FFF7D1FD01219B
:100960001020FFF7E9FD4FF4C060049002208DF8DD
:10097000140003208DF8150000248DF816408DF822
:100980001740134E04A93046FFF78FFC07220921B8
:100990003046FFF7C8FC07220A213046FFF7C3FCA8
:1009A0000095ADF80C400C20ADF80A00ADF80840F9
:1009B000ADF80640ADF80440064C6946204600F00C
:1009C0001FF80121204600F007F806B070BD0000B6
:1009D0000000024000100140002904D0818941F448
:1009E000005181817047818921F4005181817047D4
:1009F0000246002012880A4200D001207047000001
:100A00007FB504460D46208A20F44051E88808430B
:100A10002082A08941F20C618843A9882A89114368
:100A20006A8902431143A181A08A20F44071A889F8
:100A30000843A0826846FFF78DFD1E48844202D01D
:100A40001D48844201D1039800E00298A18909045D
:100A500008D500EBC00101EB001029684900B0FB8C
:100A6000F1F007E000EBC00101EB001029688900FC
:100A7000B0FBF1F06422B0FBF2F109010B096FF059
:100A800018056B4300EB8300A3891D044FF032036C
:100A900007D503EBC000B0FBF2F000F007000843FD
:100AA00006E003EB0010B0FBF2F000F00F0008438B
:100AB00020817FBD0010014000140140C1F30801F6
:100AC00081807047FEE700000FB4054B10B503A905
:100AD000044A029800F018F810BC5DF814FB0000FE
:100AE0005D0C00082400002002E008C8121F08C1A5
:100AF000002AFAD170477047002001E001C1121F9F
:100B0000002AFBD1704700002DE9FF4F89B09B46BA
:100B10000446002506E025280BD05A460B9990473D
:100B2000641C6D1C20780028F5D10DB02846BDE866
:100B3000F08F0027B8460122474900E0074314F828
:100B4000013F203B02FA03F00842F7D120782E281B
:100B500019D114F8010F47F004072A280ED06FF0BE
:100B60002F022078A0F1300109290CD808EB880168
:100B700002EB410100EB0108641CF2E70A98641CD7
:100B800050F8048B0A9020780028CED0642808D032
:100B9000692806D075281ED05A460B9990476D1CBF
:100BA00058E00A994FF00A0901C90A91002802DAAF
:100BB00040422D2102E0390504D52B218DF820106B
:100BC000012103E0F90704D02021F7E78A4608AEA7
:100BD0000DE00021FAE70A994FF00A0901C90A91CC
:100BE000F7E74946FFF7EEFA303106F8011D002815
:100BF000F7D1ADEB060000F12009780701D44FF0E2
:100C00000108C84502DDA8EB090000E0002080468D
:100C1000002706E008A85A46C05D0B9990476D1C56
:100C20007F1C5745F6DB04E030205A460B9990476D
:100C30006D1CB8F10001A8F10108F5DC05E016F81B
:100C4000010B5A460B9990476D1CB9F10001A9F1AF
:100C50000109F4DC641C65E70928010070B504464D
:100C6000064DE1B22846FFF729FF40212846FFF74D
:100C7000BFFE0028F9D0204670BD000000100140E2
:100C80004FF4C060FFF7DEFB0020FFF775FB00208C
:100C9000FFF7F0FAFFF74AFD4FF47A715420FFF79F
:100CA000B9FA64215420FFF7D7FB4FF4E130FFF786
:100CB0004FFE06A0FFF708FF094C01252078012808
:100CC000FCD1E5700020FFF77BFBF7E7416C6C205F
:100CD000496E697469616C206973204F4B0D0A007D
:100CE0001800002004000100080D0008000000208A
:100CF00028000000E80A0008300D00082800002045
:100D000000040000F80A00080000000001020304CB
:100D10000102030406070809000402400000024023
:100D200000000000000000000000000000000000C3
:040000050800018965
:00000001FF
