:020000040800F2
:1000000030170020A1010008DD2600087116000845
:10001000CD25000845110008754B000800000000C0
:100020000000000000000000000000001144000873
:1000300045120008000000006D3A00082145000844
:10004000BB010008BB010008BB01000835410008E6
:10005000BB010008BB010008BB010008BB01000890
:10006000BB010008BB010008BB010008BB01000880
:10007000BB010008BB010008BB010008BB01000870
:10008000BB010008BB010008BB010008BB01000860
:10009000BB010008BB010008BB010008BB01000850
:1000A000BB010008BB010008BB010008BB01000840
:1000B000BB01000889450008BB010008BB0100081E
:1000C000BB010008BB010008BB010008BB01000820
:1000D000BB010008BB0100088D490008BB010008F6
:1000E000BB010008553C0008BB010008BB0100082B
:1000F000BB010008BB010008BB010008BB010008F0
:10010000BB010008BB010008BB010008BB010008DF
:10011000BB010008BB01000849460008BB010008FC
:10012000BB010008BB010008BB010008BB010008BF
:10013000BB010008BB010008BB010008BB010008AF
:10014000BB010008BB010008BB010008BB0100089F
:10015000BB010008BB010008BB010008BB0100088F
:10016000BB010008BB010008BB010008BB0100087F
:10017000BB010008BB010008BB010008BB0100086F
:10018000BB010008BB010008DFF810D000F050FCF4
:10019000004800476D600008AFF300803017002072
:1001A0000648804706480047FEE7FEE7FEE7FEE711
:1001B000FEE7FEE7FEE7FEE7FEE7FEE7254500086F
:1001C00089010008D2B201E000F8012B491EFBD2E0
:1001D00070470022F6E710B513460A460446194652
:1001E000FFF7F0FF204610BD10B5044604E00B7881
:1001F00000F8013B03B1491C521EF8D2204610BD45
:1002000010B5002200E0521C835C8C5CA34201D13B
:10021000002BF8D1D8B2E1B2401A10BD30B5054676
:100220000020034600E05B1C934205D2EC5CC85CF6
:10023000201A01D1002CF6D130BD000070B50F4D51
:1002400000B92868002412E00A4602E09E4203D06A
:10025000521C1378002BF9D1DAB2224305D02BB10E
:1002600024B1002100F8011B04E00446401C06787C
:10027000002EE9D12860204670BD000068000020F3
:1002800070B5064604F0D6FC046805460A22002133
:10029000304600F0A5FA2C6070BD2DE9FE4F804677
:1002A00081EA0300C00F0C46009021F0004123F0CA
:1002B0000045B8EB0200A94105D2404621469046D0
:1002C0001C460B46024623F00040104347D0270D42
:1002D000C7F30A00C3F30A510290401A0190402864
:1002E0006BDAC3F3130040F4801B0098924620B1F0
:1002F0000023D2EB030A63EB0B0B01985946C0F1C4
:100300004002504600F03BFA06460D46504659461C
:10031000019A00F053FA10EB08006141002487EACB
:10032000115284EAE7731A4340D0009A62B3019AEB
:10033000012A4FEA075215DC001B61EB02014FF066
:10034000004202EA0752CDE90042001C41F580114B
:1003500032462B4600F0C2FA03B0BDE8F08F4046AB
:100360002146F9E7001B61EB0201001C41F58013F7
:1003700000185B412018A2F5001747EB030140EA83
:10038000D570B6196D4111E06D084FEA360645EAA1
:10039000C0754FEA0752001B61EB0201001C41F5DA
:1003A000801149084FEA30000019514132462B466E
:1003B00003B0BDE8F04F00F082BA0098012240007F
:1003C0000023D0EB020263EBE073009821464FEA72
:1003D000E074B8EB000061EB0401E9E783F000434F
:1003E0005BE781F0004158E72DE9FE4F81EA030405
:1003F00004F0004421F0004100944FF0000B23F082
:10040000004350EA01045ED052EA03045BD0C3F318
:100410000A54C1F30A552C44A4F2F3340194A0FB0E
:100420000254C1F3130141F48011C3F3130343F4E5
:10043000801301FB024400FB034E840A970A44EA3E
:10044000815447EA8357A4FB076802958D0A05FB90
:1004500007854FEA932C04FB0C542705029D4FEAB5
:10046000065847EA1637B5EB08056EEB070C870E02
:10047000920E47EA811742EA8312A7FB0201B6EB0C
:100480000B0164EB00042B0D43EA0C335E1844EBC4
:100490001C50DA465146E7FB0201C5F313044FEA4C
:1004A0000B3343EA14534FEA0432019C43EA060338
:1004B000A4F10C040294009CCDE900B400F00EFA03
:1004C00003B0BDE8F08F00200146F9E72DE9F04DBB
:1004D00081EA030404F0004B21F0004514464FF07C
:1004E000000A23F0004150EA050220D054EA01023C
:1004F0001DD0C5F30A570246C5F31303C1F3130019
:10050000C1F30A5640F4801543F48013A7EB0608A4
:10051000101BD64608F2FD3873EB050002D308F134
:10052000010801E092185B41B8F1000F03DA0020E6
:100530000146BDE8F08D00204FF480110646844648
:100540000EE0171B73EB050705D3121B63EB0503C6
:1005500006434CEA010C49084FEA300092185B410F
:1005600050EA0107EDD152EA030012D082EA0400FA
:1005700083EA0501084305D0101BAB4106D20122D6
:10058000002306E000224FF0004302E06FF001027A
:1005900053101AEB06004CEB085110EB0A0041EB2C
:1005A0000B01BDE8F04D00F08AB90EB5C10F80EA2D
:1005B000E0700844CA07002140F233438DE80E0082
:1005C0000A460B4600F08AF903B000BD0EB540F2B2
:1005D000334102910021CDE900110A460B4600F09B
:1005E0007DF903B000BD70B5C1F30A5201F00045BA
:1005F0000024C1F3130140F2FF3341F480119A4209
:1006000001DA002070BD40F233439A42A2F2334235
:1006100003DC524200F0C2F800E090402C43F1D0DD
:10062000404270BDC1F30A5210B5C1F3130140F24C
:10063000FF3341F480119A4201DA002010BD40F2EC
:1006400033439A42A2F2334203DC524200F0A6F84E
:1006500010BD904010BD000030B5041E71F10004C3
:1006600004DB4FF00044404264EB0101141E73F1BF
:10067000000405DB1C464FF00043524263EB0403C9
:100680008B4208BF824230BD30B5041E71F10004B8
:1006900004DB4FF00044404264EB0101141E73F18F
:1006A000000405DB1C464FF00043524263EB040399
:1006B000994208BF904230BD01F0004330B421F0B0
:1006C000004150EA010206D00A0DA2F56072C1F3A2
:1006D0001301002A02DC30BC00207047440F44EABA
:1006E000C104C100E01830BC00EBC25000F0B0B84B
:1006F00030B50B46014600202022012409E021FAF2
:1007000002F59D4205D303FA02F5491B04FA02F5EE
:100710002844151EA2F10102F1DC30BD2DE9F05F85
:100720000546002092469B46884606468146402460
:100730001BE0284641464746224600F02FF8534624
:100740005A46C01A914110D311461846224600F06D
:1007500016F82D1A67EB01084F46224601200021AA
:1007600000F00DF817EB00094E41201EA4F1010422
:10077000DFDC484631462A464346BDE8F09F202A42
:1007800004DB203A00FA02F1002070479140C2F1E8
:10079000200320FA03F3194390407047202A04DB1A
:1007A000203A21FA02F00021704721FA02F3D040EA
:1007B000C2F120029140084319467047202A06DB07
:1007C000CB17203A41FA02F043EAE07306E041FA1F
:1007D00002F3D040C2F1200291400843194670470D
:1007E0002DE9F04791460F4680460446002614F84E
:1007F000015B2DB100F02EF90068405DC007F6D115
:100800002B2D02D02D2D18D0641E4A463946204685
:1008100000F024F927B13968A14201D1C7F800805E
:1008200071054FF002040BD54042002803DD04F0AF
:1008300001FA0460A007BDE8F08746F48066E4E7AB
:100840000028F8DA04F0F6F904606FF00040F2E7EF
:100850000029A8BF7047401C490008BF20F00100D4
:10086000704710B4B0FA80FC00FA0CF050EA0104B2
:1008700004BF10BC704749B1CCF1200421FA04F444
:1008800011FA0CF118BF012121430843A3EB0C011D
:10089000CB1D4FEA00614FEA102042BF002010BC80
:1008A000704700EBC35010440029A4BF10BC704730
:1008B000401C490008BF20F0010010BC704710B573
:1008C000141E73F1000408DA401C41F10001921873
:1008D0005B411A4301D120F0010010BD2DE9F04D1C
:1008E00092469B4611B1B1FA81F202E0B0FA80F271
:1008F00020329046FFF743FF04460F4640EA0A00C5
:1009000041EA0B0153465A46084313D0114653EAB5
:10091000010019D0C8F140025046FFF73FFF0546DD
:100920000E46504659464246FFF729FF084305D078
:10093000012004E020463946BDE8F08D0020054343
:1009400046EAE0762C4337430A986305E40AA0EBB5
:1009500008000022FD0A44EA47540A3002D500206C
:100960000146E9E7010510196941DDE9084500196B
:100970006941BDE8F04DA2E72DE9F041054621F0BF
:1009800000400C46284309D0C4F30A5040F23341DA
:10099000884205DD28462146BDE8F0812846FBE770
:1009A00040F2FE31884210DC0CDB4FEA043040EAB2
:1009B000155050EA053105D0104804F000410143BC
:1009C0000020E9E700200146E6E7A0F23340464276
:1009D000C6F1400228462146FFF7D1FE0746884669
:1009E000284621463246FFF7D9FE43463A46FFF7EE
:1009F00066FF3246BDE8F041FFF7C1BE0000F03FA0
:100A0000C1F30A52C1F3130140F2FF3341F48011E4
:100A10009A4202DA00200146704740F233439A427C
:100A2000A2F2334202DC5242FFF7B8BEFFF7A7BE84
:100A3000064C074D06E0E06840F0010394E807002B
:100A400098471034AC42F6D3FFF7A2FBF06E0008D3
:100A5000106F000800487047EC6E00082DE9F05F49
:100A600082460078002715468B460AF10104B946F4
:100A7000302801D09DB113E014F8010B012778282C
:100A800003D0582801D045B10AE00DB1102D07D18F
:100A90000027102514F8010B02E0082500E00A25C4
:100AA0000026B0460EE005FB080005FB06F1012715
:100AB00001EB10461FFA80F8B6F5803F00D3B94627
:100AC00014F8010B294600F018F80028EBDABBF106
:100AD000000F05D00FB1641E00E05446CBF8004073
:100AE000B9F1000F06D004F0A5F802210160C81E7C
:100AF000BDE8F09F48EA0640FAE73A2800D23038CD
:100B000020F02002412A01D3A2F13700884201D30C
:100B10004FF0FF307047002904D0816841F0010197
:100B200081607047816821F0010181607047000099
:100B300010B5074C226807490A40D0E90013194351
:100B4000D0E90230034319431143216010BD000076
:100B500004230140E030FCFF002904D0816841F407
:100B6000807181607047816821F480718160704775
:100B7000002904D0816841F4007181607047816868
:100B800021F40071816070471CB50121084602F014
:100B90006FFF0820009003208DF8040000208DF8DE
:100BA00007006946014800F058FC1CBD00000240E7
:100BB00030B542680F4B1A400C790B6842EA0422A8
:100BC0001343436083680C4A1340D1E90342224334
:100BD0004D798C6844EA450422431A438260C26A14
:100BE00022F47002097D491EC9B242EA0151C16274
:100BF00030BD0000FFFEFFFCFDF7FFC070B507260B
:100C000009290AD9C568A1F10A0404EB4404A640E5
:100C1000B543A3401D43C56007E0056901EB4104EE
:100C2000A640B543A3401D4305611F23072A09D2EF
:100C3000446B521E02EB820293409C4391400C4352
:100C4000446370BD0D2A09D2046BD21F02EB8202ED
:100C500093409C4391400C43046370BDC46A0D3AB9
:100C600002EB820293409C4391400C43C46270BDEE
:100C7000816841F080418160704700000849002888
:100C800006D0D1F8040340F40000C1F80403704713
:100C9000D1F8040320F40000C1F8040370470000F9
:100CA000002001407FB5082295030021284601F06D
:100CB0008EFC01220221292001F050FD6C1200213E
:100CC000204602F099FF104AD3788DF8003013794E
:100CD0008DF8013050798DF80200E00501906A46E8
:100CE0002146002003F0E8F80121080303F090F802
:100CF0000121204602F080FF204602F0FDFF284639
:100D000000F0C6FA7FBD0000500000202DE9F0473A
:100D100007460E4614469846DDF820900FE0082C52
:100D200001D3082500E025464B4642463146384669
:100D300000F08CF82F44701986B2601B84B2002C2E
:100D4000EDD1BDE8F08700002DE9F04106461446DC
:100D500001294DD03A4D012155F8240000F0B6FC90
:100D6000384F2046394600F07DFD55F8240000221A
:100D7000A02100F024FD3449204600F073FDF1B2BB
:100D800055F8240000F024FD2F492046891C00F06E
:100D900069FD55F82400012100F098FC39462046F1
:100DA00000F060FD55F824000122A02100F007FDAD
:100DB000791C204600F056FD55F82400002100F073
:100DC00058FC55F82400012100F08CFC1D492046F8
:100DD0003F3100F047FD55F8240000F0EDFC0646D9
:100DE00055F82400012100F044FC3046BDE8F081B4
:100DF000204600F017FF2146A02000F081FE20468B
:100E000000F0A8FFF0B2214600F07AFE204600F084
:100E1000A1FF204600F006FF2146A12000F070FE51
:100E2000204600F097FF204600F036FE0646214699
:100E3000002000F0F7FD204600F040FFD5E700005D
:100E40003800002001000300820007002DE9F04176
:100E500005460E46174698460024301980B2424691
:100E60003946FFF771FF2855641C082CF5DBBDE8F7
:100E7000F0812DE9F84F07460A9C0E469A4606F087
:100E80000700C0F10808C2F3C70502F0070B0028ED
:100E900017D006F00700C0F1080006EB000975B393
:100EA000A2EB0800C0F3C70500F0070B534642460B
:100EB00031463846009400F0B7F81FFA89F64744E7
:100EC00044E08DB9534631463846009400F0ACF802
:100ED000BDE8F88F5346082231463846009400F0AA
:100EE000A3F80836B6B208376D1EEDB2F2D25346FB
:100EF0005A4631463846009400F096F8E8E7C34574
:100F000013D9ABEB0800C5B25346424631463846CA
:100F1000009400F089F81FFA89F107EB08005346A6
:100F20002A46009400F080F8D2E75346314638460E
:100F3000009400F079F8CBE7534608223146384652
:100F4000009400F071F80836B6B208376D1EEDB2A5
:100F5000F2D2BBF1000FBBD053465A463146384659
:100F6000009400F061F8B3E72DE9F04107460E4622
:100F70001C46012A31D0294D012155F8240000F0EA
:100F8000A5FB2749204600F06DFC55F824000022FF
:100F9000A02100F014FC2349204600F063FCF1B2CC
:100FA00055F8240000F014FC1E492046891E00F06C
:100FB00059FC55F82400394600F00AFC194920462E
:100FC000891C00F04FFC55F82400012100F08AFB39
:100FD000BDE8F041022000F036B9204600F022FEC4
:100FE0002146A02000F08CFD204600F0B3FEF0B2B8
:100FF000214600F085FD204600F0ACFE2146384633
:1010000000F07EFD204600F0A5FE204600F056FED2
:10101000BDE8F041022000F016B9000038000020C1
:1010200001000300820007002DE9F0410546DDF8CC
:1010300018800E4614461F46082C0AD9082408E0DA
:1010400015F8010B43463A463146FFF78DFF761CF3
:10105000B6B2641EA4B2F3D2BDE8F0817FB50446F7
:101060000D460121102002F011FD0026ADF80660AA
:101070006D1E0295641EADF804400E4C01A9204679
:1010800003F06CFB01221146204603F01AFB3621C7
:101090008DF8001001218DF803108DF801108DF8E6
:1010A0000260684601F01CFB0121204603F0EFFAC4
:1010B0007FBD0000001000403EB505460C460922E9
:1010C00019A12846FFF7AAF820B11AA003F078FD6D
:1010D00000203EBD082205F109016846FFF784F8AB
:1010E00000208DF8080012A16846FFF7A7F8A0B10C
:1010F000FFF7C6F820600EA10020FFF79FF870B13F
:10110000FFF7BEF860600AA10020FFF797F840B132
:10111000FFF7B6F8A06001203EBD00203EBD0020D4
:101120003EBD00203EBD00007365742D74696D6581
:101130003A00000054686973207365742044617933
:101140000D0A0000FEE700001CB50446002C03D188
:101150000121084602F08CFC064830F8140000908B
:1011600000208DF804000448694650F8240000F07F
:1011700074F91CBDB26D000840000020002904D0A5
:10118000016841F0010101607047016821F001012F
:101190000160704710B590B00121880502F068FC2D
:1011A000022005900020019004900E4903910E90BA
:1011B0004FF400510991C910079189100A910A4909
:1011C00002910F90C9140891069088010B90074C6A
:1011D00001A9204600F00CF801212046FFF7CEFFC0
:1011E00010B010BDC00400204C200140106402402B
:1011F00030B50368124A1340CC680A682243D1E92B
:1012000005452C432243CC6922430C6A22434C6A95
:1012100022438C6A22434C6B22438C6B22431A4339
:101220000260426922F00703D1E90B2422431A43EA
:1012300042610A6942604A6882608968C16030BD63
:101240003F801CF070474FF0E02100220A6140F619
:10125000412358434B1703EBC00048618A610120CA
:1012600008610869C003FCD50A6170474FF0E021AE
:1012700000220A61C0EBC00000EB4000401E486144
:101280008A61012008610869C003FCD50A617047C2
:101290000149086070470000143C014030B51B4A0A
:1012A00083790168002B2AD013688B431360111DCA
:1012B0000B680468A3430B60017911440B68046850
:1012C00023430B60114C0834216803689943216063
:1012D000231D19680568A94319604179102905D0B3
:1012E00011440A68006802430A6030BD2168026840
:1012F00011432160196800680143196030BD00790D
:10130000104402688A43026030BD0000003C014086
:1013100001490860704700000C3C024070B5064669
:101320000025002905D0012927D0022928D04FF413
:10133000407500F081F809281ED1134C206820F474
:1013400040702060206828432060206820F0F8006A
:101350002060206846F0020108432060206840F4C5
:101360008030206000F068F8216821F002012160DF
:10137000216821F0F801216070BD4FF48075D8E735
:101380004FF40075D5E70000103C024009200D49DC
:101390000A68D20301D5012070470A68D20601D538
:1013A000062070470A68D20501D5022070470A68F6
:1013B00012F0E00F01D00720704709688907FBD5BC
:1013C000082070470C3C02400248016841F000418F
:1013D00001607047103C024070B505460E4600F0B3
:1013E0002BF8092813D10A4C206820F440702060A3
:1013F000206840F400702060206840F00100206008
:101400002E6000F019F8216821F00101216070BD03
:10141000103C024005480068002805DA03480449EA
:101420000C3801600349016070470000103C024025
:1014300023016745AB89EFCD08B509200090FFF780
:10144000A5FF009002E0FFF7A1FF00909DF80000CB
:101450000128F8D09DF8000008BD2DE9F0410022D8
:1014600001274FF0030C07FA02F50B682B40AB4243
:101470002CD1066853000CFA03F4A64306600E79DB
:10148000D0F800809E4046EA080606600E79012EDC
:1014900001D0022E12D18668A64386604E79D0F81C
:1014A00008809E4046EA080686604668AE4346606D
:1014B00045688E799640B6B235434560C568A54308
:1014C000C560CC799C40C3681C43C460521C102A80
:1014D000C9D3BDE8F08110B54B07DB0E9A40C908AF
:1014E00000EB8100016A0F249C40A1430162016A64
:1014F0001143016210BD0246002012690A4200D069
:101500000120704742694A4042617047002A01D079
:101510008161704709048161704700000146002025
:10152000A1F100624FF480439A4204D3164A0A4460
:101530009A4201D208207047144A0A449A4201D2C2
:1015400010207047124A0A449A4201D2182070476C
:10155000104A0A44B2F5803F01D2202070470E4A5B
:101560004FF400330A449A4201D2282070470B4AB4
:101570000A449A4201D230207047094A11449942E4
:10158000FAD238207047000000C0FFF70080FFF754
:101590000040FFF70000FFF70000FEF70000FCF737
:1015A0000000FAF70349044A31F8101052F82000FD
:1015B000FFF7A1BFB26D00084000002010B504463F
:1015C0000020208005E0228823891A442280401CC4
:1015D000C0B28842F7D3012904D92088B0FBF1F0CA
:1015E000608001E0208860806088FEF7EFFF9FED5B
:1015F000141B53EC112BFEF7F7FE9FED131B53EC5E
:10160000112BFEF7F1FE9FED121B53EC112BFEF791
:10161000E5FE9FED111B53EC112BFEF7E5FE9FED50
:10162000101B53EC112BFEF751FF9FED0F1B53ECDA
:10163000112BFEF732FEFFF73FF8606010BD00008F
:10164000000000000000303F6666666666660A407D
:1016500052B81E85EB51E83F0000000000408F406B
:1016600000000000000004400000000000003940BD
:10167000FEE7002904D0018841F4806101807047B1
:10168000018821F480610180704730B50346002055
:101690009A8A02F0020422F010052C4308D01B8B1A
:1016A0001B041A4322F07F42914300D1012030BD38
:1016B000002030BD002904D0018841F001010180E3
:1016C0007047018821F0010101807047002904D092
:1016D000018841F4807101807047018821F4807194
:1016E00001807047002904D0018841F40071018015
:1016F0007047018821F40071018070477FB504466E
:101700000D46A08820F03F06684602F0DBF90298FB
:101710002749B0FBF1F189B20E43A680228822F05E
:1017200001022280234B2A689A4209D85200B0FB5A
:10173000F2F080B2042800D20420491C218423E066
:10174000EB88A3F53F46FF3E0BD002EBC20303EB51
:101750000212B0FBF2F080B240F48040020506D0E5
:1017600007E002EB4202B0FBF2F080B2F6E740F095
:10177000010040F400404FF4967251434FF47A72E6
:10178000B1FBF2F1491C2184A083208840F00100C4
:10179000208020884FF6F5310840A9886A891143D6
:1017A00001432180A8892989084320817FBD000049
:1017B00040420F00A0860100008AC0B27047002A94
:1017C00002D041F0010101E001F0FE010182704709
:1017D0000182704710B5FFF7A1FE0446FFF71AFE1D
:1017E000F320FFF795FD02212046FFF797FD00F05B
:1017F00013F8BDE81040FFF7E7BD10B500290AD087
:10180000002808D0002304E051F8234040F823408A
:101810005B1C9342F8D310BD10B5FFF70DFE0928ED
:10182000FBD110BD2DE9F04106460D461746FFF7E6
:10183000F1FDF320FFF76CFD00240CE056F82410B6
:1018400005EB8400FFF7C8FDFFF7E6FFFFF79EFDFD
:10185000092802D1641CBC42F0D3BDE8F041FFF777
:10186000B3BD00002DE9F04106460F4642F2107468
:10187000064D02E0641E002C06D055F826003946BD
:10188000FFF703FF0128F5D1BDE8F0813800002003
:101890002DE9FC4705460C46002C02D0012C05D052
:1018A00008E00121022002F0E3F803E00121022018
:1018B00002F0DEF84FF4807714B9012D05D00097BF
:1018C0004FF48068012C04D007E04FF44070009082
:1018D000F6E7012D07D0CDF8008001200221012D6F
:1018E00005D03DB108E04FF440600090F5E78DF879
:1018F000040001E08DF804108DF805108DF8060045
:1019000000208DF80700264E694656F82400FFF7A0
:10191000A4FD4FF400794FF4006A25BB14B1012CEB
:1019200011D020E0CDF8009069463068FFF795FDB2
:10193000042208213068FFF7CEFD04220921306817
:10194000FFF7C9FD0FE0CDF800A069467068FFF70A
:1019500084FD04220A217068FFF7BDFD04220B21DB
:101960007068FFF7B8FD012D0DD10E4D6CB1012C43
:1019700009D1012241462846FFF7C8FD0122514600
:101980002846FFF7C3FDBDE8FC87012239462846FB
:10199000FFF7BCFD012249462846FFF7B7FDF2E7F5
:1019A00030000020000402407FB505460C46214669
:1019B0002846FFF76DFF002D2FD114B1012C05D063
:1019C00008E00121480502F061F803E001218805E3
:1019D00002F05CF84FF48060ADF80A000001ADF849
:1019E0000C000E4800904BF6FF70ADF8060000208A
:1019F000ADF80400BE20ADF80800094D694655F861
:101A00002400FFF77BFE55F824000121FFF752FE6A
:101A100055F824000121FFF72CFE7FBDA0860100B0
:101A2000380000202DE9F041044600292FD1194D3E
:101A30004FF48076002231462846FFF767FD6F1588
:101A4000002239462846FFF761FD012C19D00122FA
:101A500039462846FFF75AFD0520FFF707FC01220B
:101A600031462846FFF752FD0520FFF7FFFB002215
:101A700031462846FFF74AFDBDE8F0410520FFF753
:101A8000F5BB002239462846FFF740FDE4E7BDE8F4
:101A9000F0810000000402402DE9F0470025174FB7
:101AA0004FF48078002241463846FFF72FFD00248E
:101AB0004FF4007A4FF00109012241463846FFF702
:101AC00025FD0520FFF7D2FB51463846FFF713FDF1
:101AD00028B1C4F1070009FA00F62E43F5B200223E
:101AE00041463846FFF712FD0520FFF7BFFB641C97
:101AF000E4B2082CE0D32846BDE8F0870004024099
:101B00002DE9F04705460127454E00291CD0012943
:101B10007ED14FF48068002241463046FFF7F6FC44
:101B20004FF40069002249463046FFF7EFFC0024DD
:101B3000C4F1070107FA01F0284246D001224946C4
:101B40003046FFF7E3FC45E04FF480780022414641
:101B50003046FFF7DBFC4FF400790022494630465F
:101B6000FFF7D4FC0024C4F1070107FA01F0284272
:101B700005D0012249463046FFF7C8FC04E00022A8
:101B800049463046FFF7C2FC0520FFF76FFB0122F4
:101B900041463046FFF7BAFC0520FFF767FB0022FD
:101BA00041463046FFF7B2FC0520FFF75FFB641C9F
:101BB000E4B2082CD7D3012241463046FFF7A6FCF9
:101BC000BDE8F0470520FFF751BB002249463046EB
:101BD000FFF79CFC0520FFF749FB012241463046F8
:101BE000FFF794FC0520FFF741FB002241463046F9
:101BF000FFF78CFC0520FFF739FB641CE4B2082CCE
:101C000096D3012241463046FFF780FC052000E0D4
:101C100003E0BDE8F047FFF729BBBDE8F08700000F
:101C20000004024070B5244C002822D0012841D184
:101C30008502012229462046FFF768FC0122D602D0
:101C400031462046FFF762FC0520FFF70FFB00221C
:101C500031462046FFF75AFC0520FFF707FB00221C
:101C600029462046FFF752FCBDE870400520FFF7EB
:101C7000FDBA0122150229462046FFF747FC012242
:101C8000560231462046FFF741FC0520FFF7EEFAE9
:101C9000002231462046FFF739FC0520FFF7E6FA1F
:101CA000002229462046FFF731FCBDE870400520A0
:101CB000FFF7DCBA70BD00000004024070B5244C90
:101CC000002822D0012842D1850200222946204640
:101CD000FFF71CFCE614002231462046FFF716FCF5
:101CE0000520FFF7C3FA012229462046FFF70EFC24
:101CF0000520FFF7BBFA012231462046FFF706FC1C
:101D0000BDE870400520FFF7B1BA4FF4807500229E
:101D100029462046FFF7FAFB6E0000223146204696
:101D2000FFF7F4FB0520FFF7A1FA01222946204620
:101D3000FFF7ECFB0520FFF799FA01223146204618
:101D4000FFF7E4FBBDE870400520FFF78FBA70BDD8
:101D5000000402402DE9F0410024264D002802D065
:101D6000012822D042E00122560231462846FFF7E0
:101D7000CDFB0520FFF77AFA0122170239462846E3
:101D8000FFF7C4FB0520FFF771FA31462846FFF73D
:101D9000B2FB012800D00124002239462846FFF773
:101DA000B5FB0520FFF762FA20E00122D60231469A
:101DB0002846FFF7ABFB0520FFF758FA01229702F0
:101DC00039462846FFF7A2FB0520FFF74FFA3146B8
:101DD0002846FFF790FB012800D001240022394655
:101DE0002846FFF793FB0520FFF740FA2046BDE8A1
:101DF000F0810000000402402DE9FC41064601216B
:101E0000022001F035FE4020009001258DF804509D
:101E10008DF8055000248DF806408DF807401D4FC1
:101E200069463846FFF719FB012E2BD10820009098
:101E30008DF8045002268DF805608DF806408DF867
:101E4000074069463846FFF708FB102000908DF8E0
:101E500004408DF8074069463846FFF7FEFA202017
:101E600000908DF804508DF805608DF806408DF8CF
:101E7000074069463846FFF7F0FA00220821384645
:101E8000FFF744FB012240213846FFF73FFBBDE846
:101E9000FC8100000004024030B587B004460121F7
:101EA000022001F0E5FD2046FFF7A6FF002C40D1FF
:101EB0003820059002208DF8180001208DF81900B7
:101EC0008DF81A408DF81B401B4D05A92846FFF7D9
:101ED000C4FA052203212846FFF7FDFA0522042152
:101EE0002846FFF7F8FA052211462846FFF7F3FACD
:101EF0000121080301F0D8FD1020ADF80C00ADF869
:101F00000840ADF80640ADF80440ADF80040ADF82B
:101F10000E404FF48270ADF802006815ADF80A006B
:101F2000064C6946204602F0A6F90121204602F03F
:101F30008BF907B030BD00000004024000300140C2
:101F40001CB50446002C03D10121022001F090FDB4
:101F50000B4830F81400009001208DF80400002098
:101F60008DF8060003208DF8050002208DF807008B
:101F70000448694650F82400FFF76FFA1CBD0000C2
:101F8000A86D0008140000200349044A31F810101D
:101F900052F82000FFF7B6BAA86D00081400002020
:101FA00010B504462146142000F02BF9800706D115
:101FB00022460321BDE81040142000F095B910BD61
:101FC0002DE9F04188B007468846002408214246A2
:101FD000084600F09AF8424600210D2000F06FFA02
:101FE000424680210E2000F090F893208DF80C00DE
:101FF00020208DF80D0007A8CDE9000803AB0222D0
:1020000003A90C2000F080F9064630000CD1002313
:1020100003A8C55CFD546C405B1CDBB2042BF8D3F9
:10202000C05CA04200D00226424680210E2000F073
:102030005BF908B03046BDE8F08170B588B00C9D02
:102040008DF80C008DF80D10002003AC2618115CE3
:10205000B170401CC0B20628F8D300202218195CC9
:102060001172401CC0B20628F8D307A8CDE90005BC
:1020700003AB0C2203A90E2000F046F904462CB94C
:102080002946082000F0BDF8000700D4022408B05B
:10209000204670BD2DE9F0410746884615461E468C
:1020A00032460421052000F030F83246002101209C
:1020B00000F02AFA324680210A2000F015F90024A7
:1020C00006E0395D3246092000F0F9F9641CE4B2FB
:1020D0004445F6D332460321012000F0F0F9FF24F5
:1020E0003146052000F08DF8641EE4B20CB14007C3
:1020F000F6D53146222000F084F8287031462120A0
:1021000000F07FF86870BDE8F08170B506460C46B7
:1021100015462946304600F074F820EA04012A46A4
:102120003046BDE8704000F0CAB9000010B5044662
:10213000204600F09AF82146012000F062F8C0061F
:10214000F9D422463D21112000F0B9F922461E2182
:102150002D2000F0B4F9224600212C2000F0AFF928
:1021600022468D212A2000F0AAF922463E212B206A
:1021700000F0A5F922464021152000F0A0F92246E2
:102180007021262000F09BF92046FFF709FFBDE8EB
:10219000104001A002F014BD4D4652433532325F6B
:1021A000496E6974206973204F6B0D0A00000000AE
:1021B00070B588B00D46164630218DF80C108DF89C
:1021C0000D0003AC3346A21C022103A8FFF762FFF7
:1021D00007A8CDE9000603AB042203A90C2000F0F8
:1021E00093F818B9BDF81C10902902D0022008B04D
:1021F00070BD0022A15CA954521CD2B2102AF9D39E
:10220000F5E77E2202EA400040F0800000F05CB971
:1022100070B588B005460C46164608213246084679
:10222000FFF773FF324607210D2000F048F93246D0
:102230000321142000F058F88DF8105003A8CDE9C0
:10224000000604AB012204A90C2000F05DF8002870
:1022500009D1BDF80C10102905D19DF8101021707E
:102260009DF81110617008B070BD02460F21012069
:1022700000F025B970B588B00E4693218DF8101086
:1022800070218DF8111000218DF81610002204AC79
:10229000A318815C99709DF81650815C4D408DF8B3
:1022A0001650521CD2B2042AF2D33346E21D072143
:1022B00004A8FFF7EFFE082132460846FFF725FF86
:1022C00003A8CDE9000604AB092204A90C2000F004
:1022D0001BF818B9BDF80C00182802D0002008B06F
:1022E00070BD9DF81000FAE770B506460C4615461D
:1022F00029463046FFF785FF40EA04012A4630466A
:10230000BDE8704000F0DBB82DE9F05F82460D4675
:102310009346984602270026B146BAF10C0F06D024
:10232000BAF10E0F06D112264FF0100902E07726FF
:102330004FF0300946F0800102200B9A00F0BFF800
:10234000802104200B9AFFF7E0FE80210A200B9ADF
:10235000FFF7CAFF002101200B9A00F0B0F800241B
:1023600006E0295D09200B9A00F0A9F8641CA4B2CC
:102370005C45F6D3514601200B9A00F0A0F8BAF163
:102380000C0F04D180210D200B9AFFF7ADFF4FF405
:10239000FA6404200B99FFF734FF0546641EA4B2CB
:1023A00024B1E80702D115EA090FF2D080210D20EF
:1023B0000B9AFFF7AAFE3CB106200B99FFF721FF0D
:1023C00010F01B0F03D002273846BDE8F09F00270E
:1023D0003540E80700D00127BAF10C0FF4D10A20EC
:1023E0000B99FFF70EFF05460C200B99FFF709FF2D
:1023F00000F0070028B1691E00EBC1000A990880AF
:1024000002E00A98E900018005B90125102D00D9E4
:102410001025002407E009200B99FFF7F2FE08F8C9
:102420000400641CA4B2AC42F5D3CDE7F0B587B08C
:102430000D461646A0218DF808108DF8090002AC53
:102440003346A21C022102A8FFF724FE06AFCDE905
:10245000007602AB042202A90C20FFF755FF48B911
:10246000BDF81810042905D19DF8081001F00F01DE
:102470000A2900D0022000281FD1295C2154401CC9
:10248000C0B21028F9D3334606AA102102A8FFF7DC
:1024900001FECDE9007602AB122202A90C20FFF763
:1024A00033FF48B9BDF81810042905D19DF808106C
:1024B00001F00F010A2900D0022007B0F0BD7E23F1
:1024C00003EA400000F020B870B505460C460D4EFA
:1024D000002240213046FFF719F82146284601F036
:1024E00011FF4CB101F0E4FE0446012240213046C8
:1024F000FFF70CF8204670BD2146002001F002FFD6
:102500000446F2E7000402402DE9F04107460D467B
:1025100016460A4C002240212046FEF7F7FF3146BE
:10252000384601F0EFFE3146284601F0EBFE20462A
:10253000BDE8F04101224021FEF7E8BF000402405F
:1025400010B58AB0FEF720FBFEF724FE0121080239
:1025500001F0AAFA0024089406944FF48030079002
:10256000099406A8FEF7E4FA01208DF8050004940A
:10257000029402218DF8141000948DF80400124C7E
:1025800069462046FEF714FB032301221021204652
:10259000FEF734FB0323022219462046FEF72EFBEA
:1025A0000120FEF76BFB01212046FEF7E1FA012135
:1025B0002046FEF7D1FA01212046FEF7ACFA20466C
:1025C000FEF756FB0AB010BD00200140FEE71CB527
:1025D00003460C461846FEF75BFE00938DF8044058
:1025E0008DF8052001208DF806006846FEF756FE9E
:1025F0001CBD000070B504460D4601F05AFB022CCC
:1026000001D102F0B8FA012D01D1FEF74BFB0120F8
:1026100001F048FC0849884203D0BDE8704001F051
:102620005DBD0121080701F031FA012001F018FA1F
:10263000BDE8704001F094BD6652684570B58AB03F
:1026400004460D46204801AE90E80E00C0680EC654
:10265000049004F126012A460E465220FFF7D8FDC9
:1026600084F82A0030B12A4631465220FFF7D0FDC7
:1026700084F82A0094F82A00002823D129463046FD
:10268000FFF79EFC00281DD129463046FFF7F2FDDA
:1026900084F82B0033460D4A062161200095FFF790
:1026A000CCFC2A4601A90620FFF7C0FE002809D16C
:1026B0002A4605A90620FFF77BFD9DF8161004A009
:1026C00002F07EFA0AB070BD3464000800000020F9
:1026D000524541443A25640D0A000000704700004D
:1026E00030B50F23C27801250178002A1FD0154A82
:1026F000126802F4E062C2F5E062C2F30722C2F19E
:102700000404D3404278A24084781C401443220140
:1027100001F1E02181F80024007800F01F018D40D4
:102720004009800000F1E020C0F8005130BD01F008
:102730001F0085404809800000F1E020C0F880516A
:1027400030BD00000CED00E002490843024908607A
:10275000704700000000FA050CED00E008B58DF8A8
:10276000000001208DF803008DF801108DF8022083
:102770006846FFF7B5FF08BD10B50021074C0022E1
:10278000002004EBC1131A54401CC0B28028FAD3B5
:10279000491CC9B20829F3D310BD00007400002001
:1027A0002DE9F041CF1823E0044686181CE07F2C69
:1027B00018D8002916DB3F2914DCCB1701EB537323
:1027C000DD104FEAC51C0C4D23F007036544A1EB57
:1027D000030815F804C0012303FA08F32CEA030CDC
:1027E00005F804C0641C24B2A642E0DC491C09B20E
:1027F0008F42D9DCBDE8F081740000202DE9FF5F35
:1028000007460E46C2F1010A002514462146284615
:102810000E9B039A00F03CFD0FFA87F820B13019A7
:1028200001B2404600F0E0FB604201B24FF0000B05
:10283000894658460E9B039A00F02AFD20B1301BB2
:1028400001B2404600F0D0FB294620460E9B039A79
:1028500000F01EFD0FFA86F820B13819414600B28B
:1028600000F0C2FB594648460E9B039A00F010FD4B
:1028700020B1381B414600B200F0B6FB0F9800288B
:1028800014D0C84610E0414600200E9B039A00F089
:10289000FFFC28B106EB080001B2384600F0A4FBAB
:1028A00008F101080FFA88F8A045ECDBCAE06D1CBE
:1028B0002DB2BAF1000F05DA0AEB4500401C0FFA01
:1028C00080FA07E0641E24B2281B0AEB4000401C7B
:1028D0000FFA80FA214628460E9B039A00F0D8FC96
:1028E00028B1301901B2781900B200F07DFB2946F9
:1028F00020460E9B039A00F0CBFC28B1701901B260
:10290000381900B200F070FB604201B2684200B2B8
:10291000894683460E9B039A00F0BAFC28B1301B0F
:1029200001B2781B00B200F05FFB594648460E9B8F
:10293000039A00F0ADFC28B1701B01B2381B00B245
:1029400000F052FB494628460E9B039A00F0A0FC7B
:1029500028B1301B01B2781900B200F045FB59468E
:1029600020460E9B039A00F093FC28B1701B01B225
:10297000381900B200F038FB214658460E9B039AE6
:1029800000F086FC28B1301901B2781B00B200F0CB
:102990002BFB294648460E9B039A00F079FC28B190
:1029A000701901B2381B00B200F01EFB0F98E8B39B
:1029B000C8461FE0414628460E9B039A00F068FC7B
:1029C00030B106EB080001B2781900B200F00CFB40
:1029D000414658460E9B039A00F05AFC30B106EB74
:1029E000080001B2781B00B200F0FEFA08F10108FD
:1029F0000FFA88F8A045DDDBD84621E0414648467D
:102A00000E9B039A00F044FC30B106EB080001B2C3
:102A1000381B00B200F0E8FA414620460E9B039AAC
:102A200000F036FC40B106EB080000E00AE001B21D
:102A3000381900B200F0D8FA08F101080FFA88F846
:102A4000A845DBDBA542FFF632AFBDE8FF9F2DE9CD
:102A5000FF4F88B080460E46C2F10109002514469A
:102A6000301901B20FFA88F0074600F0BDFA301BAA
:102A700001B2384600F0B8FA31B208EB04000F4654
:102A800000B200F0B1FAA8EB0400394600B200F041
:102A9000ABFA0B9800287CD0604207B206E0F01930
:102AA00001B2404600F0A0FA7F1C3FB2A742F6DB1D
:102AB0006FE06D1C2DB2B9F1000F05DA09EB45008E
:102AC000401C0FFA80F907E0641E24B2281B09EBB2
:102AD0004000401C0FFA80F9301901B208EB0500E4
:102AE0000FFA80FA5046079100F07EFA701901B291
:102AF00008EB040007B2CDE90571384600F074FA1E
:102B0000301B01B2A8EB05000FFA80FBCDE903B141
:102B1000584600F069FA701B01B2A8EB040000B23D
:102B2000CDE90101009000F05FFA5046049900F0F1
:102B30005BFA3846029900F057FA5846079900F0B8
:102B400053FA0699009800F04FFA0B9808B36042C8
:102B500007B20BE0F01901B28B46504600F044FA80
:102B60005946039800F040FA7F1C3FB2A742F1DBC0
:102B7000684207B20BE0F01901B28A46019800F0F2
:102B800033FA5146059800F02FFA7F1C3FB2AF424E
:102B9000F1DBA5428DDB0CB0BDE8F08F2DE9F04FE5
:102BA00006462DED088B93B00F4691469A460025B8
:102BB0005446CAF100008346FDF7F7FC9FEDB5AB24
:102BC00053EC1A2BFDF769FB41EC180B09FB09F9D3
:102BD0004846FDF7EAFCCDE9111053EC182BFDF740
:102BE00003FC41EC180B0AFB0AF84046FDF7DDFC3C
:102BF000CDE90F1053EC182BFDF74FFBFDF75CFDF3
:102C000008EE100A249898B10FFA8BFB0EE007EB40
:102C10000B0001B230460E9100F0E6F930460E99F5
:102C200000F0E2F90BF1010B0FFA8BFBA345EEDB91
:102C3000381901B2701900B2CDE90C0100F0D4F9D5
:102C4000381B0FFA80FB701B00B259460B9000F046
:102C5000CBF90D990B9800F0C7F959460C9800F084
:102C6000C3F95BE0B5EEC08AF1EE10FA0BD8032091
:102C700000EB450008FB00F000EE100AB8EEC00AB9
:102C800030EE088A12E00320624200EB4500022188
:102C900008FB00F001EB420109FB010000EE100A05
:102CA000B8EEC00A30EE088A641E24B20FFA8BF523
:102CB0002498D0B160420FFA80FB701900B20990DD
:102CC000701B00B208900EE007EB0B0001B20A91F6
:102CD000099800F089F90A99089800F085F90BF134
:102CE000010B0FFA8BFBA345EEDB38190FFA80FBC3
:102CF000701900B25946079000F076F9381B01B2FE
:102D0000701B00B2CDE9050100F06EF95946059837
:102D100000F06AF9DDE9061000F066F92046FDF7DB
:102D200044FC53EC1A2BFDF759FB41EC110BDDE988
:102D3000111053EC112BFDF757FB41EC190B05F16A
:102D4000010B08FB0BF0FDF730FC53EC192BFDF7E2
:102D500083FC87D309FB0AF000FB0AF0FDF725FC92
:102D600041EC180B601E09FB00F14843FDF71DFC08
:102D700041EC190B2846FDF718FC8B46824653ECB4
:102D80001A2BFDF78AFA4BEC10AB41EC1B0B53EC02
:102D90001A2B51EC100BFDF780FA41EC100BDDE91A
:102DA0000F1053EC102BFDF71FFB53EC1B2BFDF703
:102DB0001BFB53EC192BFDF770FA53EC182BFDF7A6
:102DC0000DFBFDF779FC00EE100A5CE0B5EEC00AE1
:102DD000F1EE10FA13D80220624200EB4500032105
:102DE00008FB00F001EB420109FB010000EE900A34
:102DF000F8EEE00A30EE800A6D1C2DB20BE0624264
:102E0000032101EB420109FB01F000EE900AF8EE0C
:102E1000E00A30EE800A641E24B22498D0B16042E9
:102E20000FFA80FA701900B20490701B00B2039080
:102E30000EE007EB0A0001B28B46049800F0D4F8CC
:102E40005946039800F0D0F80AF1010A0FFA8AFAFD
:102E5000A245EEDB38190FFA80FA701900B28346EA
:102E6000514600F0C1F8381B01B2701B00B2CDE929
:102E7000010100F0B9F85146019800F0B5F8584644
:102E8000029900F0B1F8002CA0DC13B0BDEC088B67
:102E9000BDE8F08F000000000000E03F2DE9F04F9A
:102EA00007460C4616461D464FF00008C146AC4288
:102EB0000FD1B74209DD38463746064605E02146C0
:102EC000384600F091F87F1C3FB2B742F7DDBDE80D
:102ED000F08FB7420ED1AC4209DD20462C460546A4
:102EE00005E02146384600F07FF8641C24B2AC426D
:102EF000F7DDECE705DD38463746064620462C462A
:102F00000546AC4205DD604204B2684205B24FF0AE
:102F10000108281BF11B884207DD38462746044676
:102F200030462E4605464FF00109F11B281B420092
:102F30000FFA82FA421A52000FFA82FBC1EB4000EC
:102F400005B2B8F1000F08D0B9F1000F05D07842F2
:102F500001B2204600F048F843E0B8F1000F05D078
:102F6000604201B2384600F03FF83AE0B9F1000F94
:102F700004D03946204600F037F832E02146384682
:102F800000F032F82DE07F1C3FB2002D03DA05EB94
:102F90000A0005B204E0641C24B205EB0B0005B284
:102FA000B8F1000F08D0B9F1000F05D0784201B296
:102FB000204600F019F814E0B8F1000F05D0604287
:102FC00001B2384600F010F80BE0B9F1000F04D060
:102FD0003946204600F008F803E02146384600F064
:102FE00003F8B742CFDB72E710B57F2812D800296B
:102FF00010DB3F290EDCCA1701EB5272D310DC0143
:10300000054B22F0070223448A1A1C5C01219140DF
:103010000C431C5410BD0000740000202DE9F04347
:1030200081460798884608EB030609EB020700284B
:1030300001D04D462DE04D46701E04B209E04146D8
:103040002846FFF7D1FF21462846FFF7CDFF6D1C2C
:103050002DB2AF42F3DC44467F1E3DB209E021466B
:103060004846FFF7C1FF28462146FFF7BDFF641C15
:1030700024B2A642F3DCBDE8F083444605E02146D5
:103080002846FFF7B1FF641C24B2A642F7DC6D1C92
:103090002DB2AF42F1DCEEE72DE9F04785B00D46E9
:1030A000DDE90D9A0F9906461446984630462F469C
:1030B000ADF80C60ADF80E40ADF81090ADF80450CE
:1030C000ADF80680ADF808A0002919D0844200DAD6
:1030D0002046814500DA4846B84500DA4746BA45F9
:1030E00000DA5746B44200DD2646B14500DD4E46C3
:1030F000A84500DD4546AA4500DD554680462AE044
:103100004346224629463046FFF7C8FE53464A4604
:1031100029463046FFF7C2FE53464A4641462046FE
:10312000FFF7BCFE05B0BDE8F0873C460DE0434626
:1031300001AA03A90320009400F008FC18B121465D
:103140004046FFF751FF641C24B2AC42EFDD08F1AA
:1031500001080FFA88F8B045E7DDE3E710B57F28EE
:1031600014D8002912DB3F2910DCCA1701EB527278
:10317000D310074C22F0070204EBC3138A1A185C21
:1031800001219140084201D0012010BD002010BD56
:103190007400002070B504460D462A462146AE2034
:1031A00000F016FB2A462146D52000F011FB2A46E6
:1031B0002146802000F00CFB2A462146A82000F082
:1031C00007FB2A4621463F2000F002FB2A46214603
:1031D000D32000F0FDFA2A462146002000F0F8FA3C
:1031E0002A462146402000F0F3FA2A462146A12033
:1031F00000F0EEFA2A462146C82000F0E9FA2A46F5
:103200002146DA2000F0E4FA2A462146122000F096
:10321000DFFA2A462146812000F0DAFA2A462146C2
:10322000FF2000F0D5FA2A462146D92000F0D0FA36
:103230002A462146F12000F0CBFA2A462146DB201F
:1032400000F0C6FA2A462146302000F0C1FA2A468C
:103250002146A42000F0BCFA2A462146A62000F010
:10326000B7FA2A4621468D2000F0B2FA2A462146B6
:10327000142000F0ADFA2A462146AF2000F0A8FA4B
:10328000FFF77AFA29462046BDE8704000F084BA7C
:1032900070B50E462DED028B14461D46FDF785F9DF
:1032A00041EC180B3046FDF780F941EC100BB0EE05
:1032B000481AF0EE681A01F02FFE9FED111B51EC39
:1032C000100B53EC112BFDF701F99FED0F1B53EC85
:1032D000112BFDF789F8FDF786F900B2AC4207DA49
:1032E000A0420BDBA84209DC0120BDEC028B70BDC3
:1032F000A04201DAA84201DC0120F6E70020F4E751
:103300001F85EB51B81E0940000000000080664098
:103310000346012000E05843491E4A1CFBD1704778
:103320000FB470B5C0B005460E46144648AA6846AC
:10333000479901F055FC23466A463146284600F07D
:10334000B1F940B070BC5DF814FB70B50C46154681
:103350001E4640F0B0003246294600F039FA1020EF
:1033600040EA14103246294600F032FA04F00F0009
:1033700032462946BDE8704000F02ABA2DE9F043F4
:103380000646DDF81C80894617461D46002412E0DB
:10339000291B491E0220FFF7BBFFB7FBF0F000F02E
:1033A000010204FB0860303200B24346494600F097
:1033B00007F8641CE4B2AC42EAD3BDE8F083000035
:1033C00008B5203A082B0CD0062B09D1094B02EB8B
:1033D000420203EB420200920823062200F0B0F8FA
:1033E00008BD054B03EB021200921023082200F0E7
:1033F000A7F808BD346A0008446400082DE9F04FBE
:1034000005462DED028B81B08A460C9CB0EE408AB9
:10341000F0EE608A164699469FED300B51EC180B82
:1034200053EC102BFDF730F906D823462B225146DA
:103430002846FFF7C5FF0BE023462D2251462846BC
:10344000FFF7BEFF51EC180B81F0004141EC180B67
:1034500051EC180BFDF7E6F880464046FDF7B6F84C
:1034600053EC182BFCF7BDFF41EC180B49460A2022
:10347000FFF74EFF07463846FDF7A8F853EC182B28
:10348000FCF7B2FF41EC100B01F046FE51EC100BC3
:10349000FDF7C8F88346BBFBF7F000EB08022819DC
:1034A00000B233465146009400F0A4F8701C00FBB3
:1034B000045000B223462E225146FFF781FFB61C6E
:1034C00006FB045000B24B465A465146009400F0A9
:1034D00091F801B0BDEC028BBDE8F08F0000000058
:1034E000000000002DE9F0470646DDF820808A46FE
:1034F00091461F4600241FE0391B491E1020FFF78C
:1035000007FFB9FBF0F000F00F050A2D09D204FB0C
:1035100008603035EAB200B243465146FFF750FF2B
:1035200008E004FB08603735EAB200B24346514672
:10353000FFF746FF641CE4B2BC42DDD3BDE8F08770
:103540002DE9FF4F0F46DDF8349090461D460024CC
:103550002B46424639460098FFF722F96D1EE817C0
:1035600005EB50700121DFF888C001EBE00A3BE079
:10357000002035E000990D187F2D2FD8F91707EBA3
:103580005171CA1016B221F007017B1A002F03DA1D
:10359000761E36B208331BB2311907290DD804FB49
:1035A00008FB09EB000E0CEBC1121BF80EB0565DC8
:1035B0000BFA03FB46EA0B065655491C07290DD8A2
:1035C00004FB08F609EB000B0CEBC11116F80B60BD
:1035D0004A5DC3F10803DE4032434A55401CC0B285
:1035E0004045C7D3641CE4B2A245C1DCBDE8FF8FEF
:1035F000740000202DE9F04F8046DDF824A08B46B2
:1036000091461F4600240A2514E0391B491E0A2052
:10361000FFF77EFEB9FBF0F6B6FBF5F005FB106296
:1036200004FB0A80303200B253465946FFF7C8FE09
:10363000641CE4B2BC42E8D3BDE8F08F2DE9F0474A
:103640008046DDF820908A4616461F46002E06DB8F
:103650004B462B2251464046FFF7B2FE06E04B4652
:103660002D2251464046FFF7ABFE764200240A2544
:1036700014E0391B491E0A20FFF74AFEB6FBF0F0A2
:10368000B0FBF5F105FB1102641C04FB098030322C
:1036900000B24B465146FFF793FEE4B2BC42E8D37A
:1036A000BDE8F0872DE9FF4F83B0814617469A4663
:1036B00000250024DFF8D8B064E000060AD4012118
:1036C00028466D1C385CADB28DF8040000208DF8E2
:1036D000050010E00221681C7A5D80B28DF804209C
:1036E0003A5C002A51D0421C385C95B28DF8050036
:1036F00000208DF80600012901D0002613E009EB17
:1037000004009DF8042000B253460499FFF758FEC8
:1037100004EB0A0084B235E0404601A9FCF770FDD5
:1037200068B1761CB6B2C6EBC60000EB800000EBB9
:103730000B0818A14046FCF763FD0028ECD1BAF154
:10374000080F03D0BAF1060F1CD111E0C6EBC6007A
:1037500000EB80005844C01C009009EB04001023CB
:1037600000B21A460499FFF7EBFE1034A4B209E048
:1037700009EB040000B206233F220499FFF720FE64
:10378000A41DA4B2785D002897D107B0BDE8F08FE2
:103790006E6C0008000000002DE9F04106460F465F
:1037A00000240A4D3B46324600212046FFF7CDFD5E
:1037B00005EBC4103B463246802100F061F8641CE2
:1037C000E4B2082CEED3BDE8F081000074000020C4
:1037D00070B50646144601292ED0264D012155F814
:1037E0002400FDF773FF24492046FEF73BF855F807
:1037F000240000227821FDF7E2FF20492046FEF751
:1038000031F855F824000021FDF7E2FF1B4920465E
:10381000891EFEF727F855F824003146FDF7D8FF3A
:1038200016492046891CFEF71DF855F82400BDE80E
:1038300070400121FDF756BF2046FEF7F3F92146FF
:103840007820FEF75DF92046FEF784FA2146002035
:10385000FEF756F92046FEF77DFA21463046FEF780
:103860004FF92046FEF776FA2046BDE87040FEF795
:1038700025BA000038000020010003008200070084
:103880002DE9F04706460F461D46012A21D0DFF8F4
:10389000B080012158F82500FDF718FF2949284676
:1038A000FDF7E0FF58F8250000227821FDF787FF9B
:1038B000DFF8949028464946FDF7D4FF58F82500D4
:1038C0004021FDF785FF49462846FDF7CBFF002440
:1038D0002DE02846FEF7A6F929467820FEF710F9D4
:1038E0002846FEF737FA29464020FEF709F9284610
:1038F000FEF730FA002408E0305D2946FEF700F9B3
:103900002846FEF727FA641CE4B2BC42F4D32846EA
:10391000BDE8F047FEF7D2B9315D58F82500FDF754
:1039200057FF49462846FDF79DFF641CE4B2BC42A0
:10393000F2D358F82500BDE8F0470121FDF7D2BECB
:103940003800002001000300800007002DE9F04747
:10395000089F00260024451E29E032F914C0BC450A
:1039600002DD4FF0010901E04FF0000932F9158046
:10397000B84502DD4FF0010A01E04FF0000AD145E1
:1039800012D031F9159031F91450A7EB0C0AA9EBBC
:10399000050909FB0AF9A8EB0C0C99FBFCFC654432
:1039A0009D4201DD46B100262546641C24B28442B6
:1039B000D3DBF0B2BDE8F0870126F5E730B589B07A
:1039C00005460C4600F02CF80121084600F05EF890
:1039D0000794ADF818500024ADF81A404FF0804518
:1039E00006A9284600F0BAFE6021ADF804100121B6
:1039F000ADF806100394ADF8104001A9284600F078
:103A00006BFE0821284600F0A1FE0121284600F0A7
:103A10002FFE0121284600F03AFE09B030BD00001B
:103A20001CB50121084600F023F820200090022058
:103A30008DF8040001208DF8050000208DF80600A7
:103A40008DF80700054C69462046FDF706FD01226A
:103A500005212046FDF73FFD1CBD0000000002408F
:103A6000014908627047000000000E4270470000E4
:103A7000054A002903D0116801431160704711689D
:103A8000814311607047000030380240054A002928
:103A900003D01168014311607047116881431160C0
:103AA0007047000040380240054A002903D01168E1
:103AB0000143116070471168814311607047000035
:103AC0004438024070B5244B196801F00C01234CB6
:103AD00000291ED0661004291DD008291DD00460BD
:103AE000196801F0F00109091D4A545C0168E140C0
:103AF00041601C6804F4E054A40A145D21FA04F443
:103B000084601B6803F460435B0BD25CD140C160EE
:103B100070BD0460E4E70660E2E70F4A121F116817
:103B2000C1F38055116801F03F0135B1B6FBF1F1E9
:103B30001468C4F38814614305E0B4FBF1F1146820
:103B4000C4F3881461431268C2F30142521C52004C
:103B5000B1FBF2F10160C3E7083802400024F40031
:103B60005600002002460020510901290BD00229ED
:103B70000DD00949096802F01F02012393400B424E
:103B800000D001207047044974390968F3E70249FD
:103B9000091F0968EFE70000743802400649002257
:103BA0000A700A70012804D0042801D10520087089
:103BB0007047012008707047703802400149086062
:103BC000704700003C0E4742C0F30121032907D192
:103BD000074B196821F4F812064901401143196096
:103BE000034A68321168C0F30B000143116070474B
:103BF00008380240FFFCFF0F38B500220092144C39
:103C0000CA22226053222260114A1C3A002904D0A1
:103C1000116801431160012015E0116881431160B2
:103C20000B4A183A9513116801EA1021009B5B1C9E
:103C30000093009BAB4201D00029F4D0116811EA37
:103C4000102F03D00120FF21216038BD0020FAE7AA
:103C50002428004010B54FF48054204600F092F81C
:103C600028B1204600F056F86001FDF711FBBDE8D1
:103C7000104001A000F0A4BF54696D655F417272ED
:103C80006976650D0A000000010901EB8101490018
:103C900000F00F000844C0B27047002103E0491C47
:103CA000C9B20A38C0B20A28F9D2090740EA11603D
:103CB00070470EB501210807FFF7E8FE0120FFF766
:103CC000CFFE0120FFF76AFF4120FFF74BFF0128DD
:103CD000FAD10002FFF778FF0120FFF76FFF00F035
:103CE0003FFA7F200190FF2002900020009068465C
:103CF00000F0B0F80EBD000080B240F08000C1437B
:103D00000348026802F0800211430160704700001E
:103D10000C280040000980B240F08000C1430348F5
:103D2000026802F080021143016070470C280040D5
:103D300008B5002000900E490868400615D44FF0E1
:103D4000FF3008608B13086800F04000009A521C96
:103D50000092009A9A4201D00028F4D008684006E8
:103D600001D5012008BD002008BD012008BD0000CC
:103D70000C2800400248016821F080010160704772
:103D80000C28004010B500210D4A126802F0040210
:103D90000B4B383B1B6802EAD0340340234302EA52
:103DA00010421343064A343A126802EA1010002BFC
:103DB00003D00004000C00D00121084610BD000013
:103DC0004028004010B502460C460F4801680F48D5
:103DD0000140C1F305402070C1F30623637001F078
:103DE0007F03A37001F48001090CE170002A0AD15D
:103DF000FFF74AFF20706078FFF746FF6070A078F9
:103E0000FFF742FFA07010BD002800407F7F7F00B9
:103E100030B50F4DCA222A6053222A600C4C0C4B3D
:103E20001C3C20F004021C3300F00400002906D0E2
:103E300021681143216019680143196005E0216878
:103E400091432160196881431960FF20286030BDCB
:103E50002428004070B504460025114ECA20306069
:103E600053203060FFF764FFA8B10D481C3801688B
:103E700021F0400101600168226811430160084897
:103E8000A168143801600168A28841EA024101601A
:103E9000FFF770FF0125FF203060284670BD00004D
:103EA0002428004008B5034901EB800000900098E9
:103EB000006808BD5028004070B505460E461446FF
:103EC00000202B49002D06D00968490608D5207826
:103ED000FFF7DAFE05E00968490607D4E07005E05F
:103EE000E070A068A8B1207BFFF7CEFEADB1A0784E
:103EF0002178E27840EA01406178090241EA024112
:103F00000843217B40EA0160A168084361680843D7
:103F10001CE0207BFFF7B8FEE8E72078FFF7BDFE46
:103F200005046078FFF7B9FE45EA0025A078FFF7A1
:103F3000B4FE0543E07845EA0045207BFFF7ADFE7F
:103F4000A16845EA00600843616808430849CA223D
:103F50001C310A6053220A60B6F5807F04D00A1F24
:103F60001060FF20086070BD014A14321060F8E74D
:103F70000828004070B505460C460026002D06D1E5
:103F80006078C10603D520F010000A3060702DB1B2
:103F90006078FFF779FEA078FFF776FE55B1A0783C
:103FA000E17840EA014560782178000240EA41303A
:103FB00005430FE0E078FFF770FE05046078FFF737
:103FC0006CFE45EA0025A078FFF767FE05432078E0
:103FD00045EA40350E4CCA20206053202060FFF790
:103FE000A7FE88B10B480540094820380560FFF757
:103FF000C1FE07481C380068800604D400F0B0F801
:1040000010B1012600E00126FF202060304670BD7F
:10401000242800403FFFFF002DE9F04105460C46F3
:1040200000260020244F002D06D03968490608D507
:104030002078FFF729FE05E03968490602D4E070D0
:1040400000E0E07055B1A078217840EA0145607841
:10405000E178000240EA014005430FE02078FFF7D5
:104060001CFE05046078FFF718FE45EA0025A078DD
:10407000FFF713FE0543E07845EA00450E4CCA20E1
:104080001C34206053202060FFF752FE78B10B48AB
:104090000540094808380560FFF76CFE386880065F
:1040A00004D400F05DF810B1012600E00126FF20E5
:1040B00020603046BDE8F081082800407F7F7F0007
:1040C0000549CA220A6053220A60034A103A106066
:1040D000FF20086070470000242800407CB50020C5
:1040E0008DF807000C208DF804000A248DF8054097
:1040F0008DF8064001A90020FFF78EFF0C4D01202E
:10410000294600F097F81F208DF802008DF8014035
:1041100004208DF8000018208DF803006946002067
:10412000FFF728FF2946012000F084F87CBD00003D
:104130006652684510B54FF480442046FFF722FED2
:1041400000280AD00549012008702046FFF7E2FD4B
:104150002002BDE81040FDF79BB810BD44000020D0
:1041600018B500200090104BCA201860532018602A
:104170000D491839086820F0A00008604FF4003499
:10418000086800F02000009A521C0092009AA24297
:1041900001D00028F4D00868800601D5012000E095
:1041A0000020FF21196018BD24280040084ACA21B8
:1041B00011605321116006491C390B6823F0070375
:1041C0000B600B6803430B60FF201060704700001A
:1041D0002428004018B500210091154BCA21196010
:1041E0005321196012491C39002805D0086840F491
:1041F00080600860012017E0086820F48060086093
:104200000B4A183A9413106800F004000099491CF6
:1042100000910099A14201D00028F4D01068400715
:1042200001D4002000E00120FF21196018BD00002A
:104230002428004008B5034A02EB80000090009853
:10424000016008BD50280040002904D0018841F0D9
:10425000400101807047018821F0400101807047D2
:104260000246002012890A4200D00120704780894E
:1042700070478181704730B5028802F441530A8843
:104280004C88CD8822438C882C4322430C892243BE
:104290004C8922438C892243CC8922431A430280D1
:1042A000828B22F400628283098A018230BD000081
:1042B0002DE9F04100250024114E0127012208219B
:1042C0003046FDF723F90A20FCF7D0FF10213046D5
:1042D000FDF711F928B1C4F1070107FA01F02843ED
:1042E000C5B2002208213046FDF710F90A20FCF77C
:1042F000BDFF641CE4B2082CE0D32846BDE8F08181
:10430000000402402DE9F04106462F4C4FF4805541
:10431000256000290ED000242C4D0127C4F107018F
:1043200007FA01F0304231D0012220212846FDF762
:10433000EDF830E0264F09E02268501E206005D2DB
:10434000002000F047F8C0B2BDE8F08102213846F5
:10435000FFF786FF0128EFD131463846FFF789FF86
:10436000256008E02168481E206004D2012000F08A
:1043700031F8C0B2E8E701213846FFF771FF0128A4
:10438000F0D13846FFF773FFC0B2DDE700222021ED
:104390002846FDF7BBF80A20FCF768FF0122082138
:1043A0002846FDF7B3F80A20FCF760FF0022082139
:1043B0002846FDF7ABF80A20FCF758FF641CE4B26E
:1043C000082CABD30020BFE72C00002000040240E3
:1043D0000030014010B5014602A000F0F1FB0020C2
:1043E00010BD00003C3C2D5350492D4552524F52B8
:1043F0002D3E3E205350495F576169744572726F7C
:1044000072436F6465203D2025640D0A00000000A2
:10441000704770B504460D464FF480760021304653
:10442000FFF7EAFB2878207028796070287AA0705E
:10443000F0056060224631460020FFF73DFD304622
:10444000BDE870400121FFF7D7BB00000CB500228A
:10445000019200922749086840F4803008604FF4C8
:10446000A043086800F4003000900198401C0190BF
:10447000009810B901989842F3D10868800302D5DA
:104480000120009000E000920098012831D11948E5
:104490004030026842F0805202601748026842F4DD
:1044A000404202601348083002680260026842F429
:1044B00000420260026842F4A0520260021F0F4BE9
:1044C00013600A6842F080720A600A689201FCD5A3
:1044D0000B4A40F205711160016821F0030101608F
:1044E000016841F0020101600168C1F38101022904
:1044F000FAD10CBD0038024000700040085440075B
:10450000003C02404FF0E021042804D0086920F06C
:10451000040008617047086940F0040008617047B2
:104520007047000010B51248016841F47001016045
:104530001048016841F0010101600E4A0021083273
:10454000116002680C4B1A400260031D0B4A1A608E
:10455000026822F48022026006480C300160FFF7F6
:1045600075FF03494FF000608039086010BD0000FE
:1045700088ED00E000380240FFFFF6FE1030002416
:104580006FF00400FFF7BEBF70B52D4C20782D4DA5
:1045900000064ED40121284600F087F8012809D1F1
:1045A0002078400606D52078C043800609D02178BF
:1045B000491C21700221284600F077F8012812D00A
:1045C00037E020482030018821F0020101800021DD
:1045D000284600F0B5F8207840F0800020704FF6B3
:1045E000FF706080E6E7207840060CD5207840F028
:1045F00080002070284600F056F860800021284690
:1046000000F09EF815E0002121706180207840F0D4
:1046100040002070284600F03AF80021284600F0BB
:104620009BF80221284600F08BF80121284600F073
:104630002EF82846BDE87040032100F025B80000A0
:10464000480000200004004010B5084C012120461D
:1046500000F02BF8012807D100F0DAF82046BDE879
:104660001040012100F010B810BD00000010004003
:10467000002904D0018841F0800101807047018841
:1046800021F0800101807047C943018270470029F1
:1046900004D0018841F0010101807047018821F0B8
:1046A000010101807047406B704702460020138A69
:1046B0000B4092890A40002B02D0002A00D0012032
:1046C0007047002A03D082890A4382817047828919
:1046D0008A4382817047000030B5028C22F00102CB
:1046E0000284058C8388028B22F0700222F0030280
:1046F0000C88144325F002028D8915434A882A4309
:104700000D4DA84202D00D4DA8420FD122F0080550
:10471000CA892A4322F004058A882A4323F4807335
:1047200023F400730D8A1D434B8A2B43838004833B
:1047300089684163028430BD0000014000040140EB
:10474000028C22F002020A4302847047028B22F09C
:1047500008020A43028370474162704730B50288FD
:10476000164C174DA0420DD0A8420BD0B0F1804F8F
:1047700008D0144B984205D0134B984202D0134BEB
:10478000984203D122F070034A881A43104B984292
:1047900006D0104B984203D022F440730A891A4382
:1047A00002804A68C2620A880285A04201D0A842FB
:1047B00001D1897A01860121818230BD000001404A
:1047C000000401400004004000080040000C0040CC
:1047D000001000400014004001218140024842883E
:1047E0008A434280704700000C0000200121814074
:1047F00001484088084070470C000020012181409A
:104800000248428811434180704700000C0000209C
:1048100070B5104C6068401C6060002020700E4D28
:1048200013E02078616855F82000B1FBF0F200FB3E
:10483000121038B92078FFF7E1FF2078012801D164
:1048400001F09AFA2078401C207020780928E8D3DB
:1048500070BD00000C000020846D0008F0B587B02A
:104860000446002C02D0012C05D008E001210846A6
:10487000FFF7FEF803E001210820FFF7F9F814B173
:10488000012C05D008E001211020FFF70DF903E00D
:1048900001214804FFF7FAF814B1012C04D005E017
:1048A0004FF4C060059001E06020059002208DF873
:1048B000180003208DF8190000258DF81A508DF886
:1048C0001B50304E05A956F82400FCF7C6FD2E4FAC
:1048D00014B1012C0BD014E03A7809213068FCF7B0
:1048E000FAFD3A780A213068FCF7F5FD09E07A789C
:1048F00005217068FCF7EFFD7A7806217068FCF7F7
:10490000EAFD14B1012C04D006E04FF4E13001902F
:1049100002E04FF416500190ADF810500C20ADF8A5
:104920000E00ADF80C50ADF80A50ADF80850154D1A
:1049300001A9083555F8240000F0B6F8012C1AD169
:10494000012240F22551686800F093F80E48801C5F
:1049500040788DF8000001208DF803000A48001D02
:1049600040788DF801000848801D40788DF80200DD
:104970006846FDF7B5FE55F82400012100F046F821
:1049800007B0F0BD1C000020AA6D000870B5184CDF
:1049900040F225552946204600F04BF8002817D054
:1049A0002946204600F02AF8204600F0DBF8C0B285
:1049B000104A0124517861B10F4B01290DD0022911
:1049C00006D1242804D183F8FF4000205070907055
:1049D00070BD5328FCD1547070BD452804D0917827
:1049E0005854491C917070BD0220507070BD000079
:1049F00000440040440000202C06002040F66A12CB
:104A00000A0A01219140C94301807047002904D05E
:104A1000818941F4005181817047818921F40051DD
:104A2000818170470246002012880A4200D001208E
:104A3000704770B5002440F66A12C1F3421301F0CA
:104A40001F05012606FA05F2012B0CD0022B0DD012
:104A5000838A1340090A8E40008830400BB100B1B0
:104A60000124204670BD83891340F3E7038A134075
:104A7000F0E710B540F66A13C1F3421301F01F04CA
:104A80000121A140012B07D0022B07D014303AB1ED
:104A900002680A43026010BD0C30F8E71030F6E7F8
:104AA00002688A43026010BD7FB504460D46208A25
:104AB00020F44051E88808432082A08941F20C612B
:104AC0008843A9882A8911436A8902431143A18135
:104AD000A08A20F44071A8890843A0826846FEF7A6
:104AE000F1FF1E48844202D01D48844201D1039840
:104AF00000E00298A189090408D500EBC00101EB90
:104B0000001029684900B0FBF1F007E000EBC0019C
:104B100001EB001029688900B0FBF1F06422B0FBC2
:104B2000F2F109010B096FF018056B4300EB8300EC
:104B3000A3891D044FF0320307D503EBC000B0FB7F
:104B4000F2F000F00700084306E003EB0010B0FBB2
:104B5000F2F000F00F00084320817FBD00100140FB
:104B6000001401408088C0F308007047C1F30801B9
:104B700081807047FEE770B50822D40400212046EA
:104B8000FDF725FD002202210320FDF7E7FD0020AF
:104B9000FFF720FB0420FFF709FB0020FFF790FA46
:104BA0000120FFF717FB01218D032846FFF730F99D
:104BB0002846FFF7AFF82046BDE87040FCF768BB19
:104BC0000FB4054B10B503A9044A029800F08CFC01
:104BD00010BC5DF814FB0000AD5D00086C00002007
:104BE00037B514460846064B6A46214600F07CFC61
:104BF00004466946002000F0FAFF20463EBD000052
:104C0000EF5B000803B401984100009850EAC1200E
:104C100018BF04204A0D18BF40F0010040F2FF7297
:104C2000B2EB515F08BF40F00200012808BF052029
:104C300002B070470048704770000020000000007C
:104C400070B59B482DED020B2DED068B079D25F0D1
:104C50000044A04218DC9748844202DC0AD106983E
:104C600040B19DED060BBDEC068B02B0BDE8704077
:104C700000F03EBB002DCCBF9FED8F0B9FED900B46
:104C8000BDEC068B02B070BD8F48A04215DD8F4889
:104C9000A042D8BF4FF0FF3458DD9DED060B51EC1C
:104CA000100BFFF7AFFF042808BF00F035FB9DEDA8
:104CB000060BBDEC068B02B070BD9DED060B51ECF2
:104CC000100B01F067F8CDE9060181489FED828B5A
:104CD000A0423CDD8248A0421FDD00249FED82AB54
:104CE0009DED060B53EC1A2B51EC100BFBF7D5FA8C
:104CF0009DED060B41EC190B53EC1A2B51EC100BEC
:104D0000FBF772FB53EC182BFBF768FB53EC192BEA
:104D1000FBF7DCFBCDE9060149E09DED060B012424
:104D200053EC182B51EC100BFBF7B7FA9DED060B6B
:104D300041EC190B53EC182B51EC100BFBF74EFB0D
:104D400053EC192BFBF7C2FBCDE906012FE06848B5
:104D5000A0421FDD02249FED689B9DED060B53ECE6
:104D6000192B51EC100BFBF73FFB53EC182BFBF707
:104D700094FA9DED060B41EC180B53EC192B51ECFA
:104D8000100BFBF72BFB53EC182BFBF79FFBCDE92C
:104D900006010CE09DED060B032453EC102B9FED58
:104DA000580B51EC100BFBF791FBCDE906019DED83
:104DB000060B53EC102B51EC100BFBF715FB41ECE1
:104DC000180B53EC182BFBF70FFB41EC190B4E485B
:104DD0000621B0EE490AF0EE690A784400F00CFAB8
:104DE00053EC182B51EC100BFBF7FEFA41EC180BAF
:104DF0004648B0EE490AF0EE690A0521784400F011
:104E0000FBF953EC192B51EC100BFBF7EDFA41ECCD
:104E1000100B51EC180B53EC102B002C0EDAFBF797
:104E20003CFA9DED061B53EC112BFBF7DDFA9DEDD3
:104E3000061B53EC112BFBF7D4FA35E0FBF72DFAE8
:104E40009DED061B53EC112BFBF7CEFA41EC100B3A
:104E50002F48784400EBC40090ED001B51EC100B80
:104E600053EC112BFBF7BAFA9DED061B53EC112BFB
:104E7000FBF7B4FA41EC100B2648784400EBC40071
:104E800090ED001B51EC100B53EC112BFBF7A9FA22
:104E900041EC100B002DA2BFBDEC068B02B070BD23
:104EA00051EC100B81F0004141EC100B01E70000C8
:104EB000000010440000F07F182D4454FB21F93FFE
:104EC000182D4454FB21F9BF0000DC3F0000203EB8
:104ED0000000F33F00000000000000000000F03F71
:104EE0000000E63F0000000000000000000000405D
:104EF0000080034000000000000000000000F83FB8
:104F0000000000000000F0BF522000000820000058
:104F1000921F00004A1F000070B56F4E2DED040B6C
:104F20002DED048B82B0DDF824C0DDE907235C425F
:104F30002CF000411C4341EAD474069D22F000404D
:104F4000B44205D86C422C4340EAD474B4420BD925
:104F50009DED081B9DED060B02B0BDEC048B04B06B
:104F6000BDE8704000F0CEB9ACF14054A4F17F64CC
:104F70001C430BD0022404EAAC7444EAD274054307
:104F80009FED578B9FED582B07D015E09DED060B3D
:104F900051EC100B00F030FE42E0002C11BF012C50
:104FA0009DED060B02B0BDEC048B04BF04B070BDD8
:104FB000022C38D0032C3BD00B439FED4D1B9FEDB3
:104FC0004E0B0AD0B14218D1B04209D121F0804134
:104FD00020F08040099107900FE0002A15DA10E0D8
:104FE000474B7B44002C08BF93ED000B0DD0012CE8
:104FF00010D0022C17D0032C1AD0B0421DD1002A99
:1050000003DAB0EE410AF0EE610A02B0BDEC048BA7
:1050100004B070BD93ED000B51EC100B81F000411A
:1050200041EC100BF1E7B0EE480AF0EE680AECE74D
:10503000B0EE420AF0EE620AE7E7401A00159FED73
:10504000329B3C28C8BF8DED000B17DCBCF1000F74
:10505000BCBF10F13C0F8DED009B0FDB9DED080BED
:1050600053EC102B9DED060B51EC100BFBF72EFAB9
:1050700000F090FE00F0C0FDCDE90001B4B1012CBC
:1050800010D0022C9FED220B53EC102B9DED000B4A
:1050900051EC100B19D0FBF7A1F953EC182BFBF7CF
:1050A0009DF9BDE7019880F0004001909DED000B57
:1050B00053EC192B51EC100BFBF7CEFA04BF022076
:1050C00000F04AF99DED000B9FE7FBF787F953ECE1
:1050D000182BFBF786F9A3E70000F07F0000000023
:1050E000182D4454FB210940182D4454FB2109C0BC
:1050F000182D4454FB21F9BF182D4454FB21F93FCE
:105100007A1E000000000000000000000000000007
:10511000075C143326A6A13C10B52DED020B2DED36
:10512000088B84B09DED0C0B51EC100BFBF724FCAD
:1051300041EC180B9DED0C0B53EC182B51EC100BA4
:10514000FBF74CF941EC190B0D989FED290B10F072
:10515000004F53EC102B51EC190B9FED21AB9FED41
:1051600022BB0ED0FBF778FA0ED953EC1B2B51EC77
:10517000190BFBF789FA1CD214E000BF41EC180BA5
:1051800017E0FBF769FA06D253EC1A2B51EC180B17
:10519000FBF724F9F2E753EC1B2B51EC190BFBF74F
:1051A00073FA06D853EC1A2B51EC180BFBF775F871
:1051B000E4E78DED028B9DED0C0B18EE901A10EECE
:1051C000900A8DED000B61F31E0003909DED020B24
:1051D00004B0BDEC088B02B010BD00000000000060
:1051E000000000000000F03F000000000000E03F71
:1051F000000000000000E0BF70B504462DED028BFA
:105200004D1E00EBC500B0EE408AF0EE608A90EDD6
:10521000000B35F0060017D053EC182B51EC100B97
:10522000FBF7E2F841EC100B6D1E04EBC50090EDAE
:10523000001B51EC100B53EC112BFBF72EF841EC3B
:10524000100B35F00600E7D1022D36D0042D1CD00E
:10525000062D1CBFBDEC028B70BD53EC182B51EC1E
:10526000100BFBF7C1F894ED0A1B53EC112BFBF765
:1052700014F853EC182BFBF7B7F894ED081B53EC1C
:10528000112BFBF70AF841EC100B53EC182B51ECE7
:10529000100BFBF7A9F894ED061B53EC112BFAF752
:1052A000FCFF53EC182BFBF79FF894ED040B53EC29
:1052B000102BFAF7F2FF41EC100B53EC182B51ECCA
:1052C000100BFBF791F894ED021B53EC112BFAF73E
:1052D000E4FF53EC182BFBF787F894ED001B53EC1D
:1052E000112BFAF7DAFFBDEC028B41EC100B70BD0D
:1052F00010B553EC102B51EC100BFAF7CEFF41EC2C
:10530000100B10BD10B553EC112B51EC100BFAF72C
:10531000C4FF41EC100B10BD9FED050B10B553EC15
:10532000102B51EC100BFBF75FF841EC100B10BD8C
:10533000000000000000001002E008C8121F08C1B1
:10534000002AFAD170477047002001E001C1121F06
:10535000002AFBD170470000014908607047000037
:10536000700000202DE9FF5F82B00021DDE90430EC
:10537000020DDDF840B0034318D044F61050A2F2FD
:10538000FF3242431514119801281FD0A5EB0B00E2
:10539000401C5FEA000A4FF000064E4FDFF83891DC
:1053A000B046504615D5CAF1000413E01198012407
:1053B0004AA3012801D16FEA0B010298119AC0E9B2
:1053C0000031C0E9024206B0BDE8F09FCBF1000019
:1053D000DFE704460021404A491842EB0450CDE97A
:1053E000001012E0E00707D032463B4640464946EF
:1053F000FAF7FAFF8046894632463B461046194680
:10540000FAF7F2FF06460F466410002CEAD1DDE9F8
:105410000401DDE90023BAF1000F06DAFAF7E4FF30
:1054200042464B46FAF7E0FF05E0FBF74FF84246ED
:105430004B46FBF74BF804460E460022284BFBF781
:1054400023F903D84FF0FF30014607E00022254B37
:1054500020463146FAF721FFFBF7D2FA102409E083
:10546000002C0ADB0A220023FBF758F9039B303299
:105470001A55641E50EA0102F2D1641C039AC4F169
:1054800011031444119A012A03D0012208430DD1BB
:105490000AE0084304D000204FF0110B119072E78E
:1054A000A3EB0B056D1E0DE05B4504DD4FF0000224
:1054B00005F1010504E003DA4FF00002A5F1010552
:1054C000002AECD002981199C0E90231C0E90045E8
:1054D00079E70000000014400000F03F30000000B9
:1054E0000000F0430000E03F2DE9FF4F95B09A46E1
:1054F000884606460025EEE1252877D10024274678
:10550000F94A0121039400E0044316F8013F203BCF
:1055100001FA03F01042F7D130782A2811D06FF049
:105520002F033078A0F13002092A16D8039A44F0EC
:10553000020402EB820203EB42021044761C039049
:10554000EFE758F8042B0392002A03DA504244F4A0
:105550000054039044F00204761C30782E2816D1B3
:1055600016F8010F44F004042A280DD06FF02F0222
:105570003078A0F13003092B09D807EB870302EB41
:105580004303C718761CF3E758F8047B761C307881
:105590006C280FD006DC4C2817D068280DD06A285C
:1055A00014D104E0742810D07A280FD10DE044F40F
:1055B00000140AE044F4801401E044F440147278CA
:1055C000824202D104F58014761C761C307866285D
:1055D0000BD013DC582877D009DC002875D045287B
:1055E000F6D04628F4D047281AD193E118E0632872
:1055F00035D0642879D0652812D18BE1702873D01A
:1056000008DC6728F1D069286FD06E280DD06F288C
:1056100006D1ACE073282CD0752874D0782853D0EC
:105620005246179990476D1C54E1C4F3025002286A
:1056300009D003280DD0D8F8001004280DD00D6033
:1056400008F1040846E1D8F80010EA17C1E9005251
:10565000F6E7D8F800100D80F2E70D70F0E718F8C3
:10566000041B8DF8001000208DF80100EB4601208E
:1056700003E058F804BB4FF0FF3061074FF0000122
:1056800002D40DE009F101018946B9420FDA8145E2
:10569000F8DB1BF809100029F4D108E009F1010139
:1056A00089468142FADB1BF809100029F6D10398DC
:1056B0005346A0EB090721463846179A00F080FAB6
:1056C000284400EB090507E044E008E10DE01BF881
:1056D000010B524617999047B9F10109F7D2534689
:1056E00021463846179AF2E039E00A21C4F3025203
:1056F0004FF0000B0091022A06D058F8040BC11796
:10570000032A09D00AE023E008F1070020F007028D
:10571000F2E80201904605E000B2C117042A01D167
:1057200040B2C117002906DA0A460021404261EB67
:1057300002012D2202E0220504D52B228DF804203F
:10574000012203E0E20701D02022F7E7914657E06B
:105750000A2100E010214FF0000B00910BE0102116
:105760004FF0000B44F004040827009103E00820E8
:105770004FF0000B0090C4F30252022A05D058F8F3
:10578000040B0021032A08D008E008F1070020F0EC
:105790000702F2E80201904603E080B2042A00D139
:1057A000C0B24FF0000922072AD53278702A07D0FC
:1057B000DDF800C08CF0100C5CEA0B0C05D00EE09C
:1057C00040228DF80420012208E050EA010306D0AF
:1057D00030238DF804308DF8052002229146009B7D
:1057E00083F0080353EA0B030AD150EA010201D106
:1057F000620705D530228DF804204FF001097F1E85
:105800003278582A04D039A20C920CAA02920BE0EA
:105810003BA2F9E75B46009AFAF780FF0C9B9B5C82
:10582000029A521E0292137050EA0102F2D10298BB
:1058300004A9081A00F1200B600702D524F4803473
:1058400000E001275F4502DDA7EB0B0000E0002030
:1058500000EB0B01009003984944401A0390E003C9
:1058600006D453462146179A039800F0A9F9054437
:10587000002706E001A85246C05D179990476D1CAD
:105880007F1C4F45F6DBE0030CD553462146179AA3
:10589000039800F095F9054404E03020524617992A
:1058A00090476D1C0099481E00900029F5DC08E027
:1058B0000298029952460078491C02911799904724
:1058C0006D1CBBF10001ABF1010BF1DC5BE100F001
:1058D00065F90544761C307800287FF40DAE19B0C8
:1058E0002846BDE8F08F000009280100303132332E
:1058F000343536373839616263646566000000000C
:1059000030313233343536373839414243444546F5
:1059100000000000600700D4062708F1070020F00F
:105920000700F0E80223804603F0004C5FEA0C0019
:1059300001D097A009E0200501D596A005E0E00779
:1059400001D095A001E0AFF24C001390307823F025
:10595000004365280CD006DC452809D046281DD018
:1059600047287FD13BE0662818D067287AD136E0F7
:105970000021112F01DB112000E0781CCDE900018E
:1059800004A90CA8FFF7EEFCDDE90D010C9A4FF01D
:10599000000B07F10109109200914EE04FF000401A
:1059A0000097CDE9011004A90CA8FFF7DBFCDDE9A5
:1059B0000D020C9B0F994FF0000B91461093009233
:1059C00011B9791C00EB0109B7EB090003D4C0F150
:1059D000FF3B07F10109A9EB0700019042E0012F0D
:1059E00000DA01270021112F01DD112000E03846E7
:1059F000CDE9000104A90CA8FFF7B4FCDDE90D0115
:105A00000C9A00914FF0000BB946109221070FD469
:105A1000009A4A4503DA914601E0A9F10109B9F17A
:105A2000010F05DD109AA9F10101515C3029F4D074
:105A3000B84202DA10F1040F03DA0121CDE90110B6
:105A400010E0002803DC8344A9EB000102E0411CC4
:105A5000494500DD8946A0EB0B00401C01904FF04A
:105A600000400290200705D40198484502DB4FF022
:105A7000FF30019000208DF84B0002980DF14B078C
:105A8000B0F1004F25D002200C902B200D900298F1
:105A900000280CDA404202902D200D9007E00A21E8
:105AA0000298FAF725FE3031029007F8011D0C9993
:105AB000481E0C900029F2DC02980028EFD1791ED4
:105AC0000D980870307800F0200040F0450007F88D
:105AD000020D11A8C01BC01D02901398007800B1E0
