:020000040800F2
:1000000018040020A10100085F030008C9020008CD
:100010005D030008E9010008710500080000000008
:10002000000000000000000000000000FD030008C8
:10003000EB01000800000000DD03000801050008D6
:10004000BB010008BB010008BB010008BB010008A0
:10005000BB010008BB01000809020008BB01000841
:10006000BB010008BB010008BB010008BB01000880
:10007000BB010008BB010008BB010008BB01000870
:10008000BB010008BB010008BB010008BB01000860
:10009000BB010008BB010008BB010008BB01000850
:1000A000BB010008BB010008BB010008BB01000840
:1000B000BB010008BB010008BB010008BB01000830
:1000C000BB010008BB010008BB010008BB01000820
:1000D000BB010008BB010008BB010008BB01000810
:1000E000BB010008BB010008BB010008BB01000800
:1000F000BB010008BB010008BB010008BB010008F0
:10010000BB010008BB010008BB010008BB010008DF
:10011000BB010008BB010008BB010008BB010008CF
:10012000BB010008BB010008BB010008BB010008BF
:10013000BB010008BB010008BB010008BB010008AF
:10014000BB010008BB010008BB010008BB0100089F
:10015000BB010008BB010008BB010008BB0100088F
:10016000BB010008BB010008BB010008BB0100087F
:10017000BB010008BB010008BB010008BB0100086F
:10018000BB010008BB010008DFF810D000F01AF82E
:100190000048004791050008AFF3008018040020D4
:1001A0000648804706480047FEE7FEE7FEE7FEE711
:1001B000FEE7FEE7FEE7FEE7FEE7FEE715050008BF
:1001C00089010008064C074D06E0E06840F0010395
:1001D00094E8070098471034AC42F6D3FFF7D8FFF5
:1001E000EC0500080C060008FEE7704701B54FF467
:1001F0007A70009941430348016001680029FCD1ED
:1002000008BD00001400002010B5012000F014F813
:10021000012808D10421044800F052F8BDE810403C
:10022000012000F003B810BD00040240014908603D
:1002300070470000143C014001460020024A126849
:100240000A4200D001207047143C014030B51B4ADF
:1002500083790168002B2AD013688B431360111D2A
:100260000B680468A3430B60017911440B680468B0
:1002700023430B60114C08342168036899432160C3
:10028000231D19680568A94319604179102905D013
:1002900011440A68006802430A6030BD21680268A0
:1002A00011432160196800680143196030BD00796D
:1002B000104402688A43026030BD0000003C0140E7
:1002C00042694A4042617047FEE700003EB515486A
:1002D000016841F0010101600121880300F080F80C
:1002E000012401948DF80A4000208DF808000820B0
:1002F0008DF8090001A8FFF7A9FF0021084600F0CA
:100300007FF806208DF800008DF803408DF801403D
:100310008DF80240684600F023F84FF4C06000F00A
:1003200053F83EBD303802400A48016841F00201EE
:1003300001600948016841F0100101600648083079
:10034000016841F030010160001D016841F02001A9
:10035000016070473038024000040240FEE77047F9
:1003600030B50F23C27801250178002A1FD0154A25
:10037000126802F4E062C2F5E062C2F30722C2F141
:100380000404D3404278A24084781C4014432201E4
:1003900001F1E02181F80024007800F01F018D4078
:1003A0004009800000F1E020C0F8005130BD01F0AC
:1003B0001F0085404809800000F1E020C0F880510E
:1003C00030BD00000CED00E002490843024908601E
:1003D000704700000000FA050CED00E070470000D7
:1003E000054A002903D01168014311607047116864
:1003F000814311607047000044380240704700009C
:1004000010B58A07120F0F23934021F00304064909
:10041000214401F608010C689C430C600B68904075
:1004200003430B6010BD0000003001400CB50022FA
:10043000019200922749086840F4803008604FF428
:10044000A043086800F4003000900198401C01901F
:10045000009810B901989842F3D10868800302D53A
:100460000120009000E000920098012831D1194845
:100470004030026842F0805202601748026842F43D
:10048000404202601348083002680260026842F489
:1004900000420260026842F4A0520260021F0F4B49
:1004A00013600A6842F080720A600A689201FCD503
:1004B0000B4A40F205711160016821F003010160EF
:1004C000016841F0020101600168C1F38101022964
:1004D000FAD10CBD003802400070004008544007BB
:1004E000003C02404FF0E021042804D0086920F0CD
:1004F000040008617047086940F004000861704713
:1005000003480168002902D00168491E0160704754
:100510001400002010B51248016841F47001016018
:100520001048016841F0010101600E4A00210832C3
:10053000116002680C4B1A400260031D0B4A1A60DE
:10054000026822F48022026006480C300160FFF746
:100550006DFF03494FF000608039086010BD000056
:1005600088ED00E000380240FFFFF6FE1030002466
:10057000FEE702E008C8121F08C1002AFAD170473E
:100580007047002001E001C1121F002AFBD1704713
:10059000FFF7CAFEFFF79AFE6FF00400FFF7A2FF15
:1005A0000E480F490068B0FBF1F0401EB0F1807FAB
:1005B00009D24FF0E02148610A4AF0201070002073
:1005C000886103200861084C4FF47A7504212046A5
:1005D000FFF776FE2846FFF709FEF7E70000002048
:1005E00000127A0023ED00E0000402400C0600082F
:1005F0000000002018000000720500082406000812
:10060000180000200004000082050008007A030A98
:1006100000000000000000000102030406070809B2
:0406200000000000D6
:040000050800018965
:00000001FF
