:020000040800F2
:1000000028040020A1010008E70A0008990A000856
:10001000E50A0008490800088D13000800000000E8
:100020000000000000000000000000004D0D00086E
:100030008108000800000000090C0008250E0008D7
:10004000BB010008BB010008BB010008BB010008A0
:10005000BB010008BB010008BB010008BB01000890
:10006000BB010008BB010008BB010008BB01000880
:10007000BB010008BB010008BB010008BB01000870
:10008000BB010008BB010008BB010008BB01000860
:10009000BB010008BB010008BB010008BB01000850
:1000A000BB010008BB010008BB010008BB01000840
:1000B000BB010008BB010008BB010008BB01000830
:1000C000BB010008BB010008BB010008BB01000820
:1000D000BB010008BB010008BB010008BB01000810
:1000E000BB010008BB010008BB010008BB01000800
:1000F000BB010008BB010008BB010008BB010008F0
:10010000BB010008BB010008BB010008BB010008DF
:10011000BB010008BB010008590F0008BB01000823
:10012000BB010008BB010008BB010008BB010008BF
:10013000BB010008BB010008BB010008BB010008AF
:10014000BB010008BB010008BB010008BB0100089F
:10015000BB010008BB010008BB010008BB0100088F
:10016000BB010008BB010008BB010008BB0100087F
:10017000BB010008BB010008BB010008BB0100086F
:10018000BB010008BB010008DFF810D000F0EAFA5C
:1001900000480047811C0008AFF3008028040020BD
:1001A0000648804706480047FEE7FEE7FEE7FEE711
:1001B000FEE7FEE7FEE7FEE7FEE7FEE7290E0008A2
:1001C000890100082DE9FE4F81EA030404F0004490
:1001D00021F0004100944FF0000B23F0004350EA5F
:1001E00001045ED052EA03045BD0C3F30A54C1F3A6
:1001F0000A552C44A4F2F3340194A0FB0254C1F339
:10020000130141F48011C3F3130343F4801301FB82
:10021000024400FB034E840A970A44EA815447EAE9
:100220008357A4FB076802958D0A05FB07854FEAF3
:10023000932C04FB0C542705029D4FEA065847EA0D
:100240001637B5EB08056EEB070C870E920E47EAE2
:10025000811742EA8312A7FB0201B6EB0B0164EBA4
:1002600000042B0D43EA0C335E1844EB1C50DA46B5
:100270005146E7FB0201C5F313044FEA0B3343EA8F
:1002800014534FEA0432019C43EA0603A4F10C0420
:100290000294009CCDE900B400F03EF903B0BDE843
:1002A000F08F00200146F9E72DE9F04D81EA0304C3
:1002B00004F0004B21F0004514464FF0000A23F0F3
:1002C000004150EA050220D054EA01021DD0C5F3D6
:1002D0000A570246C5F31303C1F31300C1F30A56CC
:1002E00040F4801543F48013A7EB0608101BD64694
:1002F00008F2FD3873EB050002D308F1010801E0B4
:1003000092185B41B8F1000F03DA00200146BDE806
:10031000F08D00204FF48011064684460EE0171B36
:1003200073EB050705D3121B63EB050306434CEA89
:10033000010C49084FEA300092185B4150EA01076E
:10034000EDD152EA030012D082EA040083EA0501EB
:10035000084305D0101BAB4106D20122002306E062
:1003600000224FF0004302E06FF0010253101AEB3D
:1003700006004CEB085110EB0A0041EB0B01BDE805
:10038000F04D00F0BAB80EB540F2334102910021B1
:10039000CDE900110A460B4600F0BEF803B000BDDF
:1003A00000F0004230F000400AD0C10D01F560714C
:1003B000C0F3160042EA0151C208400711437047DA
:1003C00000200146704701F0004330B421F00041A5
:1003D00050EA010206D00A0DA2F56072C1F31301C2
:1003E000002A02DC30BC00207047440F44EAC104FC
:1003F000C100E01830BC00EBC25000F047B830B587
:100400000B46014600202022012409E021FA02F5D2
:100410009D4205D303FA02F5491B04FA02F528446C
:10042000151EA2F10102F1DC30BD2DE9F05F054699
:10043000002092469B4688460646814640241BE0A3
:10044000284641464746224600F0ADF953465A46F3
:10045000C01A914110D311461846224600F094F973
:100460002D1A67EB01084F4622460120002100F0BB
:100470008BF917EB00094E41201EA4F10104DFDCCB
:10048000484631462A464346BDE8F09F0029A8BFAA
:100490007047401C490008BF20F00100704710B4AD
:1004A000B0FA80FC00FA0CF050EA010404BF10BC62
:1004B000704749B1CCF1200421FA04F411FA0CF18F
:1004C00018BF012121430843A3EB0C01CB1D4FEAC8
:1004D00000614FEA102042BF002010BC704700EBC3
:1004E000C35010440029A4BF10BC7047401C4900F1
:1004F00008BF20F0010010BC704710B5141E73F146
:10050000000408DA401C41F1000192185B411A43D3
:1005100001D120F0010010BD2DE9F04D92469B461F
:1005200011B1B1FA81F202E0B0FA80F220329046C5
:1005300000F02AF904460F4640EA0A0041EA0B019E
:1005400053465A46084313D0114653EA010019D0C6
:10055000C8F14002504600F026F905460E465046C6
:100560005946424600F010F9084305D0012004E046
:1005700020463946BDE8F08D0020054346EAE07686
:100580002C4337430A986305E40AA0EB08000022D5
:10059000FD0A44EA47540A3002D500200146E9E743
:1005A000010510196941DDE9084500196941BDE8F7
:1005B000F04DA2E72DE9FE4F804681EA0300C00F0F
:1005C0000C46009021F0004123F00045B8EB0200FA
:1005D000A94105D24046214690461C460B4602469C
:1005E00023F00040104347D0270DC7F30A00C3F3A0
:1005F0000A510290401A019040286BDAC3F31300AD
:1006000040F4801B0098924620B10023D2EB030AED
:1006100063EB0B0B01985946C0F14002504600F0C5
:10062000B3F806460D4650465946019A00F0CBF8FD
:1006300010EB08006141002487EA115284EAE77355
:100640001A4340D0009A62B3019A012A4FEA075236
:1006500015DC001B61EB02014FF0004202EA075279
:10066000CDE90042001C41F5801132462B46FFF7D0
:1006700053FF03B0BDE8F08F40462146F9E7001B69
:1006800061EB0201001C41F5801300185B4120184A
:10069000A2F5001747EB030140EAD570B6196D418A
:1006A00011E06D084FEA360645EAC0754FEA075279
:1006B000001B61EB0201001C41F5801149084FEA63
:1006C00030000019514132462B4603B0BDE8F04FCF
:1006D000FFF713BF0098012240000023D0EB020275
:1006E00063EBE073009821464FEAE074B8EB00003A
:1006F00061EB0401E9E783F000435BE781F000412F
:1007000058E7C1F30A52C1F3130140F2FF3341F439
:1007100080119A4202DA00200146704740F23343CA
:100720009A42A2F2334202DC524200F03CB800F09E
:100730002BB8000030B5041E71F1000404DB4FF04B
:100740000044404264EB0101141E73F1000405DB18
:100750001C464FF00043524263EB0403994208BF2A
:10076000904230BD064C074D06E0E06840F00103C2
:1007700094E8070098471034AC42F6D3FFF708FD21
:10078000501D0008701D0008202A04DB203A00FAE2
:1007900002F1002070479140C2F1200320FA03F3D8
:1007A000194390407047202A04DB203A21FA02F0D6
:1007B0000021704721FA02F3D040C2F1200291409B
:1007C000084319467047202A06DBCB17203A41FA26
:1007D00002F043EAE07306E041FA02F3D040C2F1CE
:1007E0002002914008431946704700007FB5044637
:1007F0000D460121102000F017FA0026ADF8066022
:100800006D1E0295641EADF804400E4C01A92046F1
:1008100000F088FC01221146204600F009FC362138
:100820008DF8001001218DF803108DF801108DF85E
:100830000260684600F058F90121204600F0AFFB45
:100840007FBD000000100040FEE700001CB504461C
:10085000002C03D10121084600F0D8F9064830F8F1
:100860001400009000208DF804000448694650F8F8
:10087000240000F018F81CBD4E1D00081C000020CC
:1008800070474FF0E02100220A61C0EBC00000EB8E
:100890004000401E48618A61012008610869C00368
:1008A000FCD50A6170472DE9F041002201274FF085
:1008B000030C07FA02F50B682B40AB422CD10668FB
:1008C00053000CFA03F4A64306600E79D0F80080BA
:1008D0009E4046EA080606600E79012E01D0022EDF
:1008E00012D18668A64386604E79D0F808809E4073
:1008F00046EA080686604668AE43466045688E79DB
:100900009640B6B235434560C568A543C560CC790D
:100910009C40C3681C43C460521C102AC9D3BDE864
:10092000F08110B54B07DB0E9A40C90800EB81003F
:10093000016A0F249C40A1430162016A11430162D4
:1009400010BD0246002012690A4200D00120704703
:10095000002A01D08161704709048161704700005D
:10096000F0B587B00121080400F06CF90024ADF85F
:100970001840ADF812404FF6FF700590A720ADF873
:1009800010008DF81A40194F04A9384600F0CAFB30
:10099000ADF804400F26ADF80C60ADF80640ADF898
:1009A0000A400125ADF8085001A9384600F00FFBB8
:1009B0000420ADF80400ADF80C600220ADF806008C
:1009C000ADF80A40ADF8085001A9384600F0FFFA2A
:1009D0005021384600F070FB0421384600F072FBCD
:1009E0000121384600F0DBFA07B0F0BD00400140BD
:1009F0002DE9F041214D012202212846FFF7A8FFF1
:100A00001420FFF73EFF002202212846FFF7A0FF37
:100A100008212846FFF795FF0028F9D04FF0E02481
:100A2000002727616FF07F46A66166610120206183
:100A300008212846FFF785FF0128F9D02761A06922
:100A40001521301AB0FBF1F0FFF79DFC9FED0C1B58
:100A500053EC112BFFF728FC9FED0B1B53EC112BD4
:100A6000FFF7B0FB9FED0A1B53EC112BFFF7AAFB1E
:100A7000FFF7A9FC00EE100ABDE8F081000002407B
:100A80000000000080842E4100000000004065400E
:100A90000000000000005940FEE700001CB50446BD
:100AA000002C03D10121022000F0B0F80B4830F8EF
:100AB0001400009001208DF8040000208DF806003D
:100AC00003208DF8050002208DF8070004486946D0
:100AD00050F82400FFF7E7FE1CBD00004C1D000885
:100AE00018000020FEE7704730B50F23C2780125BB
:100AF0000178002A1FD0154A126802F4E062C2F59C
:100B0000E062C2F30722C2F10404D3404278A2405B
:100B100084781C401443220101F1E02181F8002473
:100B2000007800F01F018D404009800000F1E020B6
:100B3000C0F8005130BD01F01F0085404809800019
:100B400000F1E020C0F8805130BD00000CED00E065
:100B50000249084302490860704700000000FA0596
:100B60000CED00E030B589B005460C4600F02CF8DD
:100B70000121084600F058F80794ADF818500024F9
:100B8000ADF81A404FF0804506A9284600F0CAFA91
:100B90006021ADF804100121ADF806100394ADF802
:100BA000104001A9284600F04DFA0821284600F01F
:100BB0007DFA0121284600F0E3F90121284600F0E2
:100BC000EEF909B030BD00001CB50121084600F067
:100BD0001DF82020009002208DF8040001208DF8DF
:100BE000050000208DF806008DF80700054C6946C9
:100BF0002046FFF758FE012205212046FFF791FE0F
:100C00001CBD00000000024070470000054A00299A
:100C100003D011680143116070471168814311606E
:100C20007047000030380240054A002903D011689F
:100C300001431160704711688143116070470000E3
:100C400040380240054A002903D011680143116071
:100C500070471168814311607047000044380240BA
:100C600070B5244B196801F00C01234C00291ED0EB
:100C7000661004291DD008291DD00460196801F0F0
:100C8000F00109091D4A545C0168E14041601C689B
:100C900004F4E054A40A145D21FA04F484601B688F
:100CA00003F460435B0BD25CD140C16070BD046053
:100CB000E4E70660E2E70F4A121F1168C1F38055AE
:100CC000116801F03F0135B1B6FBF1F11468C4F3CE
:100CD0008814614305E0B4FBF1F11468C4F388148F
:100CE00061431268C2F30142521C5200B1FBF2F19F
:100CF0000160C3E7083802400024F400000000202F
:100D00007CB501210846FFF781FF01210220FFF792
:100D10007DFF0A20009000248DF8064001208DF808
:100D2000040003208DF805008DF80740064D694644
:100D30002846FFF7B8FD8DF807408DF80440694656
:100D40002846FFF7B0FD7CBD000002407047000060
:100D50000CB50022019200922749086840F48030C7
:100D600008604FF4A043086800F400300090019838
:100D7000401C0190009810B901989842F3D108687E
:100D8000800302D50120009000E000920098012825
:100D900031D119484030026842F080520260174851
:100DA000026842F440420260134808300268026060
:100DB000026842F400420260026842F4A0520260FB
:100DC000021F0F4B13600A6842F080720A600A68C3
:100DD0009201FCD50B4A40F205711160016821F0C7
:100DE00003010160016841F0020101600168C1F383
:100DF00081010229FAD10CBD003802400070004088
:100E000008544007003C02404FF0E021042804D081
:100E1000086920F0040008617047086940F0040088
:100E2000086170477047000010B51248016841F42E
:100E3000700101601048016841F0010101600E4A33
:100E400000210832116002680C4B1A400260031D39
:100E50000B4A1A60026822F48022026006480C30B5
:100E60000160FFF775FF03494FF0006080390860AB
:100E700010BD000088ED00E000380240FFFFF6FEE4
:100E8000103000246FF00400FFF7BEBF70B5048C73
:100E900024F001040484058B048C25F0F3054FF63F
:100EA000FF7606EA031313432B4324F00A020A4396
:100EB00042F001010383018470BD70B5048C24F0FD
:100EC00010040484058B068C4FF6FF7404EA0111AC
:100ED00025F4734504EA03332B4304EA02221A4340
:100EE00026F0A0030B4343F010010283018470BD80
:100EF000F0B5048C24F480740484868B058C4FF642
:100F0000FF7707EA012426F0F30607EA03111143ED
:100F1000314325F42062224342F4807281830284AB
:100F2000F0BD70B5048C24F480540484858B068C49
:100F30004FF6FF7404EA013125F4734504EA0222F6
:100F40002A4304EA0333134326F420420A4342F4BB
:100F500080518383018470BD10B5084C0121204667
:100F600000F029F8012807D100F036F92046BDE845
:100F70001040012100F010B810BD0000001000402A
:100F8000002904D0018841F0800101807047018868
:100F900021F0800101807047C94301827047002918
:100FA00004D0018841F0010101807047018821F0DF
:100FB00001010180704702460020138A0B4092898C
:100FC0000A40002B02D0002A00D00120704770B5E3
:100FD00006460C4625886188A2882389002D0CD0FE
:100FE000042D13D0082D1AD03046FFF79AFFE18860
:100FF0003046BDE8704000F089B83046FFF746FF44
:10100000E1883046BDE8704000F064B83046FFF734
:1010100054FFE1883046BDE8704000F063B83046C8
:10102000FFF766FFE1883046BDE8704000F066B823
:10103000002A03D082890A438281704782898A43C9
:101040008281704730B5028C22F001020284058C47
:101050008388028B22F0700222F003020C88144372
:1010600025F002028D8915434A882A430D4DA84276
:1010700002D00D4DA8420FD122F00805CA892A439B
:1010800022F004058A882A4323F4807323F4007332
:101090000D8A1D434B8A2B438380048389684163F7
:1010A000028430BD0000014000040140028B22F0A8
:1010B00008020A4302837047028922F070020A4341
:1010C00002817047028922F00702028102890A43E5
:1010D00002817047028B22F00C020283028B0A43CA
:1010E00002837047028B22F440620283028B4FF628
:1010F000FF7303EA01210A4302837047828B22F0C7
:101100000C028283828B0A4382837047828B22F493
:1011100040628283828B4FF6FF7303EA01210A4308
:101120008283704730B50288164C174DA0420DD00F
:10113000A8420BD0B0F1804F08D0144B984205D094
:10114000134B984202D0134B984203D122F0700304
:101150004A881A43104B984206D0104B984203D04D
:1011600022F440730A891A4302804A68C2620A88DC
:101170000285A04201D0A84201D1897A01860121CD
:10118000818230BD000001400004014000040040A5
:1011900000080040000C0040001000400014004017
:1011A00001218140024802788A43027070470000A2
:1011B000100000200121814001480078084070475C
:1011C0001000002001218140024802781143017083
:1011D000704700001000002010B50D4B5868401CEF
:1011E0005860002058700B4C0EE05878596854F83D
:1011F0002000B1FBF0F200FB121010B95878FFF795
:10120000E1FF5878401C587058780828EDD310BD7D
:10121000100000202C1D000870B586B00546012185
:101220000846FFF7F3FC01211020FFF70BFD4FF4F8
:10123000C060049002208DF8140003208DF8150082
:1012400000248DF816408DF81740134E04A930463F
:10125000FFF729FB072209213046FFF762FB07222F
:101260000A213046FFF75DFB0095ADF80C400C20DD
:10127000ADF80A00ADF80840ADF80640ADF80440FE
:10128000064C6946204600F01FF80121204600F078
:1012900007F806B070BD00000000024000100140D9
:1012A000002904D0818941F40051818170478189EE
:1012B00021F40051818170470246002012880A42C1
:1012C00000D00120704700007FB504460D46208AFB
:1012D00020F44051E88808432082A08941F20C6143
:1012E0008843A9882A8911436A8902431143A1814D
:1012F000A08A20F44071A8890843A0826846FFF7BD
:10130000AFFC1E48844202D01D48844201D103989C
:1013100000E00298A189090408D500EBC00101EBA7
:10132000001029684900B0FBF1F007E000EBC001B4
:1013300001EB001029688900B0FBF1F06422B0FBDA
:10134000F2F109010B096FF018056B4300EB830004
:10135000A3891D044FF0320307D503EBC000B0FB97
:10136000F2F000F00700084306E003EB0010B0FBCA
:10137000F2F000F00F00084320817FBD0010014013
:1013800000140140C1F3080181807047FEE70000AE
:101390000FB4054B10B503A9044A029800F0DAF81F
:1013A00010BC5DF814FB00005D1C00082400002048
:1013B00002E008C8121F08C1002AFAD1704770471E
:1013C000002001E001C1121F002AFBD1704700007C
:1013D0002DE9FF5F82B00021DDE90430020DDDF868
:1013E00040B0034318D044F61050A2F2FF324243FB
:1013F0001514119801281FD0A5EB0B00401C5FEAC3
:10140000000A4FF000064E4FDFF83891B0465046C4
:1014100015D5CAF1000413E0119801244AA301284C
:1014200001D16FEA0B010298119AC0E90031C0E9BD
:10143000024206B0BDE8F09FCBF10000DFE70446B2
:101440000021404A491842EB0450CDE9001012E057
:10145000E00707D032463B4640464946FEF7B2FE1B
:101460008046894632463B4610461946FEF7AAFE9C
:1014700006460F466410002CEAD1DDE90401DDE9DF
:101480000023BAF1000F06DAFEF79CFE42464B46F7
:10149000FEF798FE05E0FEF707FF42464B46FEF7D3
:1014A00003FF04460E460022284BFFF743F903D8FA
:1014B0004FF0FF30014607E00022254B2046314621
:1014C000FFF778F8FFF71DF9102409E0002C0ADB7C
:1014D0000A220023FEF7A9FF039B30321A55641E2F
:1014E00050EA0102F2D1641C039AC4F111031444BE
:1014F000119A012A03D0012208430DD10AE00843C2
:1015000004D000204FF0110B119072E7A3EB0B05F4
:101510006D1E0DE05B4504DD4FF0000205F1010595
:1015200004E003DA4FF00002A5F10105002AECD037
:1015300002981199C0E90231C0E9004579E700003D
:10154000000014400000F03F300000000000F043B5
:101550000000E03F2DE9FF4F95B09A4688460646C9
:101560000025EEE1252877D100242746F94A0121FC
:10157000039400E0044316F8013F203B01FA03F016
:101580001042F7D130782A2811D06FF02F0330782D
:10159000A0F13002092A16D8039A44F0020402EBA3
:1015A000820203EB42021044761C0390EFE758F8E6
:1015B000042B0392002A03DA504244F400540390AF
:1015C00044F00204761C30782E2816D116F8010F4C
:1015D00044F004042A280DD06FF02F023078A0F1D7
:1015E0003003092B09D807EB870302EB4303C71825
:1015F000761CF3E758F8047B761C30786C280FD003
:1016000006DC4C2817D068280DD06A2814D104E0D5
:10161000742810D07A280FD10DE044F400140AE0A9
:1016200044F4801401E044F440147278824202D100
:1016300004F58014761C761C307866280BD013DCF9
:10164000582877D009DC002875D04528F6D04628E0
:10165000F4D047281AD193E118E0632835D06428E4
:1016600079D0652812D18BE1702873D008DC672807
:10167000F1D069286FD06E280DD06F2806D1ACE06C
:1016800073282CD0752874D0782853D052461799D7
:1016900090476D1C54E1C4F30250022809D003287E
:1016A0000DD0D8F8001004280DD00D6008F1040802
:1016B00046E1D8F80010EA17C1E90052F6E7D8F879
:1016C00000100D80F2E70D70F0E718F8041B8DF89C
:1016D000001000208DF80100EB46012003E058F8CF
:1016E00004BB4FF0FF3061074FF0000102D40DE062
:1016F00009F101018946B9420FDA8145F8DB1BF88F
:1017000009100029F4D108E009F10101894681425C
:10171000FADB1BF809100029F6D103985346A0EB19
:10172000090721463846179A00F080FA284400EB52
:10173000090507E044E008E10DE01BF8010B524603
:1017400017999047B9F10109F7D253462146384617
:10175000179AF2E039E00A21C4F302524FF0000B6D
:101760000091022A06D058F8040BC117032A09D0A9
:101770000AE023E008F1070020F00702F2E8020186
:10178000904605E000B2C117042A01D140B2C1174A
:10179000002906DA0A460021404261EB02012D22AF
:1017A00002E0220504D52B228DF80420012203E05B
:1017B000E20701D02022F7E7914657E00A2100E036
:1017C00010214FF0000B00910BE010214FF0000BA7
:1017D00044F004040827009103E008204FF0000BB8
:1017E0000090C4F30252022A05D058F8040B0021DD
:1017F000032A08D008E008F1070020F00702F2E809
:101800000201904603E080B2042A00D1C0B24FF03A
:10181000000922072AD53278702A07D0DDF800C0E7
:101820008CF0100C5CEA0B0C05D00EE040228DF819
:101830000420012208E050EA010306D030238DF88D
:1018400004308DF8052002229146009B83F00803A6
:1018500053EA0B030AD150EA010201D1620705D510
:1018600030228DF804204FF001097F1E3278582A6B
:1018700004D039A20C920CAA02920BE03BA2F9E729
:101880005B46009AFEF7D1FD0C9B9B5C029A521EB0
:101890000292137050EA0102F2D1029804A9081AC8
:1018A00000F1200B600702D524F4803400E001270A
:1018B0005F4502DDA7EB0B0000E0002000EB0B0111
:1018C000009003984944401A0390E00306D453461D
:1018D0002146179A039800F0A9F90544002706E06D
:1018E00001A85246C05D179990476D1C7F1C4F455B
:1018F000F6DBE0030CD553462146179A039800F017
:1019000095F9054404E030205246179990476D1C24
:101910000099481E00900029F5DC08E00298029921
:1019200052460078491C0291179990476D1CBBF1F3
:101930000001ABF1010BF1DC5BE100F065F905445E
:10194000761C307800287FF40DAE19B02846BDE82B
:10195000F08F00000928010030313233343536373A
:1019600038396162636465660000000030313233EB
:10197000343536373839414243444546000000008B
:10198000600700D4062708F1070020F00700F0E800
:101990000223804603F0004C5FEA0C0001D097A0C0
:1019A00009E0200501D596A005E0E00701D095A04B
:1019B00001E0AFF24C001390307823F0004365282B
:1019C0000CD006DC452809D046281DD047287FD1F9
:1019D0003BE0662818D067287AD136E00021112F25
:1019E00001DB112000E0781CCDE9000104A90CA85E
:1019F000FFF7EEFCDDE90D010C9A4FF0000B07F14B
:101A00000109109200914EE04FF000400097CDE99F
:101A1000011004A90CA8FFF7DBFCDDE90D020C9B0B
:101A20000F994FF0000B91461093009211B9791C59
:101A300000EB0109B7EB090003D4C0F1FF3B07F14C
:101A40000109A9EB0700019042E0012F00DA01270C
:101A50000021112F01DD112000E03846CDE9000101
:101A600004A90CA8FFF7B4FCDDE90D010C9A009164
:101A70004FF0000BB946109221070FD4009A4A4547
:101A800003DA914601E0A9F10109B9F1010F05DD81
:101A9000109AA9F10101515C3029F4D0B84202DA60
:101AA00010F1040F03DA0121CDE9011010E0002844
:101AB00003DC8344A9EB000102E0411C494500DD41
:101AC0008946A0EB0B00401C01904FF000400290B3
:101AD000200705D40198484502DB4FF0FF30019004
:101AE00000208DF84B0002980DF14B07B0F1004F2C
:101AF00025D002200C902B200D90029800280CDAA3
:101B0000404202902D200D9007E00A210298FEF736
:101B100076FC3031029007F8011D0C99481E0C909C
:101B20000029F2DC02980028EFD1791E0D98087088
:101B3000307800F0200040F0450007F8020D11A8B1
:101B4000C01BC01D02901398007800B1012000EB6B
:101B50000901019801EBE071029801440398401AD1
:101B6000401E0390E00306D453462146179A03987B
:101B700000F05CF805441398007818B152461799A4
:101B800090476D1CE00323D553462146179A0398CE
:101B900000F04CF805441BE0BBF1000F07DB009898
:101BA000584504DD1098179910F80B0001E01799BB
:101BB00030205246904701980BF1010B401E05F171
:101BC0000105019004D12E205246179990476D1CB3
:101BD000B9F10001A9F10109DEDC05E017F8010BFC
:101BE0005246179990476D1C0299481E0290002991
:101BF000F4DC53462146179A03989EE62D00000018
:101C00002B000000200000002DE9F04104460025D3
:101C10001E461746880404D405E039462020B04704
:101C20006D1C641EF9D52846BDE8F0812DE9F04110
:101C3000044600251E469046C80301D5302700E023
:101C40002027880404D505E041463846B0476D1C7E
:101C5000641EF9D52846BDE8F081000070B5044641
:101C6000064DE1B22846FFF78DFB40212846FFF7DD
:101C700023FB0028F9D0204670BD00000010014071
:101C80004FF4C060FEF764FF0020FEF707FF00205E
:101C9000FEF7DCFDFFF7F6F84FF47A715420FEF7FB
:101CA000A5FD64215420FEF75DFF4FF4E130FFF7FE
:101CB000B3FAFFF725F8FEF753FE11A0FFF768FB14
:101CC000144C0720FFF776FA60B10720FFF768FA97
:101CD0002068FEF765FB41EC100B0FA053EC102BB6
:101CE000FFF756FB0420FFF765FA0028E9D004202F
:101CF000FFF756FAFEF77CFE84ED000AE1E70000EC
:101D0000416C6C20496E697469616C206973204F65
:101D10004B0D0A0020000020536F6E69635F446919
:101D20007374616E63653A25660D0A000100000058
:101D30000A000000140000003200000064000000EF
:101D4000C8000000F4010000E803000004000100E6
:101D5000701D00080000002028000000B0130008DB
:101D6000981D00082800002000040000C01300088F
:101D70000000000001020304010203040607080931
:101D800000000000000000000004024000000240CB
:081D900000000000000000004B
:040000050800018965
:00000001FF
