:020000040800F2
:10000000C8180020A101000875180008CD0E0008CE
:1000100001160008BD0A0008FD26000800000000C7
:100020000000000000000000000000001D2000088B
:10003000150B000800000000111D00083721000802
:10004000BB010008BB010008BB010008DD1F000860
:10005000BB010008BB010008BB010008BB01000890
:10006000BB010008BB010008BB010008BB01000880
:10007000BB010008BB010008BB010008BB01000870
:10008000BB010008BB010008BB010008BB01000860
:10009000BB010008BB010008BB010008BB01000850
:1000A000BB010008BB010008BB010008BB01000840
:1000B000BB0100089D210008BB010008BB0100082E
:1000C000BB010008BB010008BB010008BB01000820
:1000D000BB010008BB01000815250008BB01000892
:1000E000BB010008651E0008BB010008BB01000839
:1000F000BB010008BB010008BB010008BB010008F0
:10010000BB010008BB010008BB010008BB010008DF
:10011000BB010008BB0100085D220008BB0100080C
:10012000BB010008BB010008BB010008BB010008BF
:10013000BB010008BB010008BB010008BB010008AF
:10014000BB010008BB010008BB010008BB0100089F
:10015000BB010008BB010008BB010008BB0100088F
:10016000BB010008BB010008BB010008BB0100087F
:10017000BB010008BB010008BB010008BB0100086F
:10018000BB010008BB010008DFF810D000F0AEFB97
:100190000048004715350008AFF30080C81800205C
:1001A0000648804706480047FEE7FEE7FEE7FEE711
:1001B000FEE7FEE7FEE7FEE7FEE7FEE7392100087F
:1001C0008901000840EA01039B0703D009E008C940
:1001D000121F08C0042AFAD203E011F8013B00F80C
:1001E000013B521EF9D27047D2B201E000F8012B58
:1001F000491EFBD270470022F6E710B513460A46A7
:1002000004461946FFF7F0FF204610BD10B504461E
:1002100004E00B7800F8013B03B1491C521EF8D2F0
:10022000204610BD30B505460020034600E05B1CAB
:10023000934205D2EC5CC85C201A01D1002CF6D1A7
:1002400030BD000070B50F4D00B92868002412E0E1
:100250000A4602E09E4203D0521C1378002BF9D1CB
:10026000DAB2224305D02BB124B1002100F8011BE2
:1002700004E00446401C0678002EE9D128602046A0
:1002800070BD0000BC00002070B5064602F048FAC0
:10029000046805460A220021304600F043FA2C602B
:1002A00070BD2DE9FE4F804681EA0300C00F0C4669
:1002B000009021F0004123F00045B8EB0200A94175
:1002C00005D24046214690461C460B46024623F086
:1002D0000040104347D0270DC7F30A00C3F30A516B
:1002E0000290401A019040286BDAC3F3130040F4E7
:1002F000801B0098924620B10023D2EB030A63EBE7
:100300000B0B01985946C0F14002504600F0D9F954
:1003100006460D4650465946019A00F0F1F910EB99
:1003200008006141002487EA115284EAE7731A4306
:1003300040D0009A62B3019A012A4FEA075215DCB5
:10034000001B61EB02014FF0004202EA0752CDE9C7
:100350000042001C41F5801132462B4600F060FA45
:1003600003B0BDE8F08F40462146F9E7001B61EB82
:100370000201001C41F5801300185B412018A2F512
:10038000001747EB030140EAD570B6196D4111E043
:100390006D084FEA360645EAC0754FEA0752001B62
:1003A00061EB0201001C41F5801149084FEA300061
:1003B0000019514132462B4603B0BDE8F04F00F022
:1003C00020BA0098012240000023D0EB020263EB28
:1003D000E073009821464FEAE074B8EB000061EB4F
:1003E0000401E9E783F000435BE781F0004158E74F
:1003F0002DE9FE4F81EA030404F0004421F000419E
:1004000000944FF0000B23F0004350EA01045ED04B
:1004100052EA03045BD0C3F30A54C1F30A552C44D7
:10042000A4F2F3340194A0FB0254C1F3130141F48C
:100430008011C3F3130343F4801301FB024400FB58
:10044000034E840A970A44EA815447EA8357A4FB7F
:10045000076802958D0A05FB07854FEA932C04FB7C
:100460000C542705029D4FEA065847EA1637B5EBAC
:1004700008056EEB070C870E920E47EA811742EAD9
:100480008312A7FB0201B6EB0B0164EB00042B0DFA
:1004900043EA0C335E1844EB1C50DA465146E7FB46
:1004A0000201C5F313044FEA0B3343EA14534FEA36
:1004B0000432019C43EA0603A4F10C040294009C5C
:1004C000CDE900B400F0ACF903B0BDE8F08F002036
:1004D0000146F9E72DE9F04D81EA030404F0004BF1
:1004E00021F0004514464FF0000A23F0004150EA85
:1004F000050220D054EA01021DD0C5F30A57024676
:10050000C5F31303C1F31300C1F30A5640F4801579
:1005100043F48013A7EB0608101BD64608F2FD38FB
:1005200073EB050002D308F1010801E092185B416A
:10053000B8F1000F03DA00200146BDE8F08D00207D
:100540004FF48011064684460EE0171B73EB050737
:1005500005D3121B63EB050306434CEA010C490863
:100560004FEA300092185B4150EA0107EDD152EAA0
:10057000030012D082EA040083EA0501084305D093
:10058000101BAB4106D20122002306E000224FF0EF
:10059000004302E06FF0010253101AEB06004CEB2F
:1005A000085110EB0A0041EB0B01BDE8F04D00F0E3
:1005B00028B90EB540F2334102910021CDE9001176
:1005C0000A460B4600F02CF903B000BD30B5041EFE
:1005D00071F1000404DB4FF00044404264EB010180
:1005E000141E73F1000405DB1C464FF00043524219
:1005F00063EB0403994208BF904230BD01F0004311
:1006000030B421F0004150EA010206D00A0DA2F5F3
:100610006072C1F31301002A02DC30BC0020704775
:10062000440F44EAC104C100E01830BC00EBC250E2
:1006300000F0B0B830B50B4601460020202201245E
:1006400009E021FA02F59D4205D303FA02F5491BA0
:1006500004FA02F52844151EA2F10102F1DC30BDB6
:100660002DE9F05F0546002092469B4688460646E7
:10067000814640241BE0284641464746224600F07A
:100680002FF853465A46C01A914110D311461846C6
:10069000224600F016F82D1A67EB01084F46224655
:1006A0000120002100F00DF817EB00094E41201E3B
:1006B000A4F10104DFDC484631462A464346BDE842
:1006C000F09F202A04DB203A00FA02F10020704754
:1006D0009140C2F1200320FA03F319439040704780
:1006E000202A04DB203A21FA02F00021704721FA87
:1006F00002F3D040C2F120029140084319467047EE
:10070000202A06DBCB17203A41FA02F043EAE073D5
:1007100006E041FA02F3D040C2F1200291400843C2
:10072000194670472DE9F04791460F46804604462A
:10073000002614F8015B2DB100F0EAF80068405D76
:10074000C007F6D12B2D02D02D2D18D0641E4A469D
:100750003946204600F0E0F827B13968A14201D1BE
:10076000C7F8008071054FF002040BD54042002805
:1007700003DD01F0D5FF0460A007BDE8F08746F473
:100780008066E4E70028F8DA01F0CAFF04606FF041
:100790000040F2E70029A8BF7047401C490008BF8D
:1007A00020F00100704710B4B0FA80FC00FA0CF0A1
:1007B00050EA010404BF10BC704749B1CCF12004D9
:1007C00021FA04F411FA0CF118BF01212143084366
:1007D000A3EB0C01CB1D4FEA00614FEA102042BF92
:1007E000002010BC704700EBC35010440029A4BF88
:1007F00010BC7047401C490008BF20F0010010BC2D
:10080000704710B5141E73F1000408DA401C41F162
:10081000000192185B411A4301D120F0010010BD84
:100820002DE9F04D92469B4611B1B1FA81F202E0FA
:10083000B0FA80F220329046FFF743FF04460F469D
:1008400040EA0A0041EA0B0153465A46084313D0D6
:10085000114653EA010019D0C8F140025046FFF793
:100860003FFF05460E46504659464246FFF729FFD0
:10087000084305D0012004E020463946BDE8F08D4C
:100880000020054346EAE0762C4337430A98630587
:10089000E40AA0EB08000022FD0A44EA47540A30AB
:1008A00002D500200146E9E7010510196941DDE99B
:1008B000084500196941BDE8F04DA2E7C1F30A52AD
:1008C000C1F3130140F2FF3341F480119A4202DA7E
:1008D00000200146704740F233439A42A2F233426D
:1008E00002DC5242FFF7FCBEFFF7EBBE064C074DA1
:1008F00006E0E06840F0010394E8070098471034F0
:10090000AC42F6D3FFF744FCD4520008F45200087E
:1009100000487047805200082DE9F05F8246007859
:10092000002715468B460AF10104B946302801D04C
:100930009DB113E014F8010B0127782803D0582843
:1009400001D045B10AE00DB1102D07D100271025C7
:1009500014F8010B02E0082500E00A250026B04645
:100960000EE005FB080005FB06F1012701EB104630
:100970001FFA80F8B6F5803F00D3B94614F8010B92
:10098000294600F018F80028EBDABBF1000F05D07B
:100990000FB1641E00E05446CBF80040B9F1000FDF
:1009A00006D001F0BDFE02210160C81EBDE8F09F27
:1009B00048EA0640FAE73A2800D2303820F0200210
:1009C000412A01D3A2F13700884201D34FF0FF3012
:1009D000704700007FB504460D460121102001F04C
:1009E000A7F90026ADF806606D1E0295641EADF8ED
:1009F00004400E4C01A9204601F074FC012211466E
:100A0000204601F05CFC36218DF8001001218DF8A4
:100A100003108DF801108DF80260684600F02CFF7D
:100A20000121204601F031FC7FBD00000010004094
:100A30003EB505460C46092219A12846FFF7F2FBF0
:100A400020B11AA001F05CFE00203EBD082205F195
:100A500009016846FFF7DAFB00208DF8080012A1B3
:100A60006846FFF7EFFBA0B1FFF70EFC20600EA178
:100A70000020FFF7E7FB70B1FFF706FC60600AA1FA
:100A80000020FFF7DFFB40B1FFF7FEFBA060012075
:100A90003EBD00203EBD00203EBD00203EBD00000A
:100AA0007365742D74696D653A000000546869734C
:100AB00020736574204461790D0A0000FEE7000090
:100AC0001CB50446002C04D0012C07D0022C0AD0FF
:100AD0000DE00121084601F01DF908E00121042084
:100AE00001F018F903E00121042001F013F907488F
:100AF00030F81400009000208DF804000448694686
:100B000050F8240000F0D7F81CBD0000F651000892
:100B10009000002070474FF0E02100220A6140F66B
:100B2000412358434B1703EBC00048618A61012001
:100B300008610869C003FCD50A6170474FF0E021E5
:100B400000220A61C0EBC00000EB4000401E48617B
:100B50008A61012008610869C003FCD50A617047F9
:100B60000149086070470000143C014001490860D9
:100B7000704700000C3C024070B506460025002975
:100B800005D0012927D0022928D04FF4407500F064
:100B900081F809281ED1134C206820F44070206091
:100BA000206828432060206820F0F800206020683A
:100BB00046F0020108432060206840F48030206045
:100BC00000F068F8216821F002012160216821F01D
:100BD000F801216070BD4FF48075D8E74FF40075BF
:100BE000D5E70000103C024009200D490A68D203F5
:100BF00001D5012070470A68D20601D5062070474A
:100C00000A68D20501D5022070470A6812F0E00F89
:100C100001D00720704709688907FBD50820704775
:100C20000C3C02400248016841F0004101607047FD
:100C3000103C024070B505460E4600F02BF809281E
:100C400013D10A4C206820F440702060206840F4E2
:100C500000702060206840F0010020602E6000F0ED
:100C600019F8216821F00101216070BD103C02409B
:100C700005480068002805DA034804490C3801607B
:100C80000349016070470000103C024023016745A2
:100C9000AB89EFCD08B509200090FFF7A5FF0090C4
:100CA00002E0FFF7A1FF00909DF800000128F8D0B6
:100CB0009DF8000008BD2DE9F041002201274FF00A
:100CC000030C07FA02F50B682B40AB422CD10668E7
:100CD00053000CFA03F4A64306600E79D0F80080A6
:100CE0009E4046EA080606600E79012E01D0022ECB
:100CF00012D18668A64386604E79D0F808809E405F
:100D000046EA080686604668AE43466045688E79C6
:100D10009640B6B235434560C568A543C560CC79F9
:100D20009C40C3681C43C460521C102AC9D3BDE850
:100D3000F08110B54B07DB0E9A40C90800EB81002B
:100D4000016A0F249C40A1430162016A11430162C0
:100D500010BD0246002012690A4200D001207047EF
:100D600042694A4042617047002A01D08161704760
:100D7000090481617047000001460020A1F1006272
:100D80004FF480439A4204D3164A0A449A4201D24D
:100D900008207047144A0A449A4201D21020704732
:100DA000124A0A449A4201D218207047104A0A4453
:100DB000B2F5803F01D2202070470E4A4FF4003335
:100DC0000A449A4201D2282070470B4A0A449A42A8
:100DD00001D230207047094A11449942FAD2382092
:100DE0007047000000C0FFF70080FFF70040FFF7EA
:100DF0000000FFF70000FEF70000FCF70000FAF724
:100E00000349044A31F8101052F82000FFF7A1BF3F
:100E1000F65100089000002010B504460020208004
:100E200005E0228823891A442280401CC0B28842EF
:100E3000F7D3012904D92088B0FBF1F0608001E0EC
:100E4000208860806088FFF7B4FB9FED141B53EC93
:100E5000112BFFF7CDFA9FED131B53EC112BFFF76E
:100E6000C7FA9FED121B53EC112BFFF7BBFA9FED56
:100E7000111B53EC112BFFF7BBFA9FED101B53EC2A
:100E8000112BFFF727FB9FED0F1B53EC112BFFF7E7
:100E900008FAFFF7B3FB606010BD0000000000001F
:100EA0000000303F6666666666660A4052B81E8578
:100EB000EB51E83F0000000000408F4000000000C0
:100EC000000004400000000000003940FEE7002957
:100ED00004D0018841F4806101807047018821F4C9
:100EE00080610180704730B5034600209A8A02F085
:100EF000020422F010052C4308D01B8B1B041A435C
:100F000022F07F42914300D1012030BD002030BD4E
:100F1000002904D0018841F0010101807047018857
:100F200021F0010101807047002904D0018841F4BB
:100F3000807101807047018821F4807101807047C1
:100F4000002904D0018841F40071018070470188B4
:100F500021F40071018070477FB504460D46A088DA
:100F600020F03F06684600F0FFFE02982749B0FBDC
:100F7000F1F189B20E43A680228822F0010222807C
:100F8000234B2A689A4209D85200B0FBF2F080B293
:100F9000042800D20420491C218423E0EB88A3F517
:100FA0003F46FF3E0BD002EBC20303EB0212B0FB45
:100FB000F2F080B240F48040020506D007E002EB78
:100FC0004202B0FBF2F080B2F6E740F0010040F4DC
:100FD00000404FF4967251434FF47A72B1FBF2F134
:100FE000491C2184A083208840F0010020802088B3
:100FF0004FF6F5310840A9886A89114301432180E1
:10100000A8892989084320817FBD000040420F0044
:10101000A0860100002A02D041F0010101E001F0A8
:10102000FE01018270470182704710B5FFF7A4FEF0
:101030000446FFF71DFEF320FFF798FD022120462E
:10104000FFF79AFD00F013F8BDE81040FFF7EABD86
:1010500010B500290AD0002808D0002304E051F878
:10106000234040F823405B1C9342F8D310BD10B5D9
:10107000FFF710FE0928FBD110BD2DE9F04106460F
:101080000D461746FFF7F4FDF320FFF76FFD002430
:101090000CE056F8241005EB8400FFF7CBFDFFF7BA
:1010A000E6FFFFF7A1FD092802D1641CBC42F0D382
:1010B000BDE8F041FFF7B6BD1FB50748002201218A
:1010C0008368CDE901320391C168009106C8002010
:1010D00000F032FB1FBD0000D004002010B5054910
:1010E0000120487100F006FC0121BDE810400020FD
:1010F00000F034BDD00400207047704770470000F6
:101100002DE9F04106460F4642F21074064D02E00A
:10111000641E002C06D055F826003946FFF7E3FE82
:101120000128F5D1BDE8F081880000200120FFF7FB
:1011300005BD00002DE9FC4705460C46002C02D0F9
:10114000012C05D008E00121022000F0E3FD03E0BE
:101150000121022000F0DEFD4FF4807714B9012D4B
:1011600005D000974FF48068012C04D007E04FF4BD
:1011700040700090F6E7012D06D0CDF800800120E8
:10118000012D05D03DB109E04FF440600090F6E735
:101190008DF8040002E002218DF8041003218DF87F
:1011A00005108DF8060000208DF80700264E6946D0
:1011B00056F82400FFF77FFD4FF400794FF4006AE2
:1011C00025BB14B1012C11D020E0CDF80090694668
:1011D0003068FFF770FD042208213068FFF7A9FD91
:1011E000042209213068FFF7A4FD0FE0CDF800A02C
:1011F00069467068FFF75FFD04220A217068FFF7F7
:1012000098FD04220B217068FFF793FD012D0DD18D
:101210000E4D6CB1012C09D1012241462846FFF741
:10122000A3FD012251462846FFF79EFDBDE8FC873D
:10123000012239462846FFF797FD012249462846F4
:10124000FFF792FDF2E7000080000020000402405A
:101250007FB505460C4621462846FFF76BFF002D5B
:101260002FD114B1012C05D008E00121480500F070
:101270005FFD03E00121880500F05AFD4FF4806016
:10128000ADF80A000001ADF80C000E4800904BF6D6
:10129000FF70ADF806000020ADF80400BE20ADF8E8
:1012A0000800094D694655F82400FFF755FE55F82A
:1012B00024000121FFF72CFE55F824000121FFF73F
:1012C00006FE7FBDA0860100880000202DE9F047C2
:1012D00005460127DFF8D880002912D0012965D101
:1012E00000244FF400694FF4806AC4F1070007FA44
:1012F00000F62E4238D0012249464046FFF734FD21
:1013000037E000244FF400794FF48076C4F10701F0
:1013100007FA01F0284205D0012249464046FFF76E
:1013200023FD04E0002249464046FFF71DFDFFF77C
:10133000FDFE012231464046FFF716FDFFF7F6FE9F
:10134000002231464046FFF70FFDFFF7EFFE641C19
:10135000E4B2082CDAD3012231464046FFF704FDFF
:10136000BDE8F047FFF7E2BE002249464046FFF7DE
:10137000FBFCFFF7DBFE012251464046FFF7F4FC81
:10138000FFF7D4FE002251464046FFF7EDFCFFF781
:10139000CDFE641CE4B2082CA7D30122514640467E
:1013A000FFF7E2FCBDE8F047FFF7C0BEBDE8F087FD
:1013B0000004024070B5214C00281FD001283BD109
:1013C0008502012229462046FFF7CEFC0122D602E3
:1013D00031462046FFF7C8FCFFF7A8FE0022314641
:1013E0002046FFF7C1FCFFF7A1FE00222946204658
:1013F000FFF7BAFCBDE87040FFF798BE0122150266
:1014000029462046FFF7B0FC01225602314620460D
:10141000FFF7AAFCFFF78AFE002231462046FFF7BD
:10142000A3FCFFF783FE002229462046FFF79CFC21
:10143000BDE87040FFF77ABE70BD000000040240B6
:1014400070B5214C00281FD001283CD18502002214
:1014500029462046FFF788FCE61400223146204644
:10146000FFF782FCFFF762FE012229462046FFF7C4
:101470007BFCFFF75BFE012231462046FFF774FC40
:10148000BDE87040FFF752BE4FF480750022294638
:101490002046FFF769FC6E00002231462046FFF728
:1014A00063FCFFF743FE012229462046FFF75CFC60
:1014B000FFF73CFE012231462046FFF755FCBDE810
:1014C0007040FFF733BE70BD000402402DE9F041CB
:1014D0000024234D002802D001281FD03CE0012227
:1014E000560231462846FFF73FFCFFF71FFE012258
:1014F000170239462846FFF737FCFFF717FE31463B
:101500002846FFF726FC012800D001240022394696
:101510002846FFF729FCFFF709FE1DE00122D6024D
:1015200031462846FFF720FCFFF700FE0122970214
:1015300039462846FFF718FCFFF7F8FD31462846E4
:10154000FFF707FC012800D0012400223946284675
:10155000FFF70AFCFFF7EAFD2046BDE8F081000036
:10156000000402401CB50446002C03D101210220D6
:1015700000F0D0FB0B4830F81400009001208DF8EB
:10158000040000208DF8060003208DF805000220DD
:101590008DF807000448694650F82400FFF78BFBDC
:1015A0001CBD0000EC510008680000200349044AFB
:1015B00031F8101052F82000FFF7D2BBEC510008B0
:1015C0006800002070B50D4C0B4820600526267180
:1015D00000256571A571102002F026F8A06038B1D1
:1015E000054928310160A0680671A068457170BD89
:1015F000BDE8704001F0C6BD10000020D0040020FE
:10160000FEE70000F0B58FB006461822454909A84C
:10161000FEF7D8FD434906ACD1E9072388690DC41C
:10162000D1E90A23486A02AC096B0DC405913E4F0B
:10163000B97921B1012904D0022904D004E009AC10
:1016400002E006AC00E002AC21B1012904D002297D
:1016500004D004E0062502E0032500E00425AE42A4
:101660005ED254F82600402300901A460021202024
:1016700000F01AFA2D4C20231A4610210020009465
:1016800000F012FA2A4D20231A46102160200095FE
:1016900000F00AFA0121002000F060FA254E787966
:1016A0007178884236D0401A002817D54FF02003B1
:1016B0001A464FF010014FF0000000F02FF9012101
:1016C000002000F04BFA6420FFF725FA20231A4689
:1016D00010210020009400F0E7F917E016DD4FF02C
:1016E00020031A464FF010014FF0600000F016F989
:1016F0000121002000F032FA6420FFF70CFA2023C9
:101700001A4610216020009500F0CEF9012100203A
:1017100000F024FA787970700121002000F01EFAA0
:101720000FB0F0BD94510008D004002014510008FF
:1017300094500008040000200FB42DE9F041DDE9C9
:101740000C760B9D0D4C6071022E0BD2102001F017
:101750006BFF0B4941F8260020B107A991E80E1054
:10176000A0E80E100FCD84E80F006771A671BDE8E8
:10177000F0015DF814EB00F005B80000D004002083
:101780000800002001484079FFF73CBFD00400204A
:1017900030B410480022104B8179012902D002296F
:1017A0000AD013E0596891E83800C96880E8380029
:1017B000C1604271827109E0996891E83800C96896
:1017C00080E83800C16042710121817130BCFFF7AF
:1017D000D9BF0000D0040020080000207FB5244BB2
:1017E00006285A7919682DD2DFE800F00307113571
:1017F000193DBDE87F40FFF7C5BF1879401E824202
:1018000020DA521C5A71BDE87F40FFF7BBBF002AA7
:1018100018D0521E5A71BDE87F40FFF7B3BF9C79C4
:10182000022C0FD2124B00255A68D8689B6854B11D
:10183000012C07D1CDE9010502240090039400207A
:10184000FFF77AFF7FBD8DE8290001240394002073
:10185000FFF772FF7FBD042000EBC200085804B000
:10186000BDE870400047BDE87F40FFF791BF000032
:10187000D00400207047000030B50F23C278012546
:101880000178002A1FD0154A126802F4E062C2F5FE
:10189000E062C2F30722C2F10404D3404278A240BE
:1018A00084781C401443220101F1E02181F80024D6
:1018B000007800F01F018D404009800000F1E02019
:1018C000C0F8005130BD01F01F008540480980007C
:1018D00000F1E020C0F8805130BD00000CED00E0C8
:1018E0000249084302490860704700000000FA05F9
:1018F0000CED00E010B50021074C0022002004EBA5
:10190000C1131A54401CC0B28028FAD3491CC9B272
:101910000829F3D310BD0000D00000202DE9F041CC
:10192000CF1823E0044686181CE07F2C18D8002925
:1019300016DB3F2914DCCB1701EB5373DD104FEAA4
:10194000C51C0C4D23F007036544A1EB030815F8F3
:1019500004C0012303FA08F32CEA030C05F804C0C1
:10196000641C24B2A642E0DC491C09B28F42D9DCD7
:10197000BDE8F081D000002070B504460D462A462F
:101980002146AE2000F006F92A462146D52000F077
:1019900001F92A462146802000F0FCF82A4621461B
:1019A000A82000F0F7F82A4621463F2000F0F2F880
:1019B0002A462146D32000F0EDF82A462146002091
:1019C00000F0E8F82A462146402000F0E3F82A46D5
:1019D0002146A12000F0DEF82A462146C82000F06A
:1019E000D9F82A462146DA2000F0D4F82A462146C2
:1019F000122000F0CFF82A462146812000F0CAF8D4
:101A00002A462146FF2000F0C5F82A462146D92063
:101A100000F0C0F82A462146F12000F0BBF82A4623
:101A20002146DB2000F0B6F82A462146302000F09F
:101A3000B1F82A462146A42000F0ACF82A462146F7
:101A4000A62000F0A7F82A4621468D2000F0A2F833
:101A50002A462146142000F09DF82A462146AF2050
:101A600000F098F8FFF746FF29462046BDE8704091
:101A700000F074B870B50C4615461E4640F0B00034
:101A80003246294600F086F8102040EA141032460B
:101A9000294600F07FF804F00F0032462946BDE8E1
:101AA000704000F077B800002DE9FF4F0F46DDF8D9
:101AB000349090461D4600242B46424639460098F5
:101AC000FFF72CFF6D1EE81705EB50700121DFF8C2
:101AD00088C001EBE00A3BE0002035E000990D18DA
:101AE0007F2D2FD8F91707EB5171CA1016B221F0CC
:101AF00007017B1A002F03DA761E36B208331BB2B9
:101B0000311907290DD804FB08FB09EB000E0CEB7B
:101B1000C1121BF80EB0565D0BFA03FB46EA0B062A
:101B20005655491C07290DD804FB08F609EB000B94
:101B30000CEBC11116F80B604A5DC3F10803DE40DF
:101B400032434A55401CC0B24045C7D3641CE4B27E
:101B5000A245C1DCBDE8FF8FD00000202DE9F04197
:101B600006460F4600240A4D3B46324600212046D9
:101B7000FFF780FF05EBC4103B463246802100F0A2
:101B800061F8641CE4B2082CEED3BDE8F0810000DB
:101B9000D000002070B50646144601292ED0264DEF
:101BA000012155F82400FFF7BFF924492046FFF72B
:101BB000A7FA55F8240000227821FFF72BFA2049D4
:101BC0002046FFF79DFA55F824000021FFF72BFA75
:101BD0001B492046891EFFF793FA55F82400314629
:101BE000FFF721FA16492046891CFFF789FA55F8B4
:101BF0002400BDE870400121FFF7A2B92046FFF79D
:101C0000D9FB21467820FFF761FB2046FFF75EFCF9
:101C100021460020FFF75AFB2046FFF757FC2146DC
:101C20003046FFF753FB2046FFF750FC2046BDE847
:101C30007040FFF705BC0000880000200100030091
:101C4000820007002DE9F04706460F461D46012A8F
:101C500021D0DFF8B080012158F82500FFF764F9A2
:101C600029492846FFF74CFA58F825000022782128
:101C7000FFF7D0F9DFF8949028464946FFF740FA7D
:101C800058F825004021FFF7CEF949462846FFF7CE
:101C900037FA00242DE02846FFF78CFB29467820F0
:101CA000FFF714FB2846FFF711FC29464020FFF7F9
:101CB0000DFB2846FFF70AFC002408E0305D2946AA
:101CC000FFF704FB2846FFF701FC641CE4B2BC42AA
:101CD000F4D32846BDE8F047FFF7B2BB315D58F8B2
:101CE0002500FFF7A0F949462846FFF709FA641CCA
:101CF000E4B2BC42F2D358F82500BDE8F047012118
:101D0000FFF71EB9880000200100030080000700D3
:101D100070470000054A002903D011680143116093
:101D200070471168814311607047000030380240ED
:101D3000054A002903D011680143116070471168FA
:101D4000814311607047000040380240054A002975
:101D500003D011680143116070471168814311601D
:101D6000704700004438024070B5244B196801F0F8
:101D70000C01234C00291ED0661004291DD008290F
:101D80001DD00460196801F0F00109091D4A545C76
:101D90000168E14041601C6804F4E054A40A145D49
:101DA00021FA04F484601B6803F460435B0BD25C8B
:101DB000D140C16070BD0460E4E70660E2E70F4A0D
:101DC000121F1168C1F38055116801F03F0135B150
:101DD000B6FBF1F11468C4F38814614305E0B4FB69
:101DE000F1F11468C4F3881461431268C2F301422C
:101DF000521C5200B1FBF2F10160C3E70838024007
:101E00000024F400AA00002038B500220092144CEF
:101E1000CA22226053222260114A1C3A002904D0AF
:101E2000116801431160012015E0116881431160C0
:101E30000B4A183A9513116801EA1021009B5B1CAC
:101E40000093009BAB4201D00029F4D0116811EA45
:101E5000102F03D00120FF21216038BD0020FAE7B8
:101E60002428004010B54FF48054204600F038F884
:101E700028B1204600F026F86001FEF771FEBDE8AB
:101E8000104001A000F03CBC54696D655F41727266
:101E90006976650D0A000000010901EB8101490026
:101EA00000F00F000844C0B27047002103E0491C55
:101EB000C9B20A38C0B20A28F9D2090740EA11604B
:101EC00070470000000980B240F08000C143034821
:101ED000026802F080021143016070470C28004044
:101EE00010B500210D4A126802F004020B4B383B7A
:101EF0001B6802EAD0340340234302EA1042134332
:101F0000064A343A126802EA1010002B03D000048B
:101F1000000C00D00121084610BD00004028004000
:101F200070B505460E46144600202B49002D06D0FC
:101F30000968490608D52078FFF7AEFF05E0096873
:101F4000490607D4E07005E0E070A068A8B1207BE6
:101F5000FFF7A2FFADB1A0782178E27840EA014016
:101F60006178090241EA02410843217B40EA0160AD
:101F7000A1680843616808431CE0207BFFF78CFFE1
:101F8000E8E72078FFF791FF05046078FFF78DFF01
:101F900045EA0025A078FFF788FF0543E07845EA89
:101FA0000045207BFFF781FFA16845EA00600843F8
:101FB000616808430849CA221C310A6053220A603A
:101FC000B6F5807F04D00A1F1060FF20086070BD46
:101FD000014A14321060F8E70828004010B54FF4A9
:101FE00080442046FFF77CFF00280AD005490120E5
:101FF00008702046FFF766FF2002BDE81040FEF79C
:10200000AFBD10BD9C00002008B5034A02EB800064
:1020100000900098016008BD50280040704770B5DE
:1020200004460D464FF4807600213046FFF7ECFE63
:102030002878207028796070287AA070F005606098
:10204000224631460020FFF76BFF3046BDE8704066
:102050000121FFF7D9BE00000CB5002201920092C9
:102060002749086840F4803008604FF4A0430868AE
:1020700000F4003000900198401C0190009810B9C5
:1020800001989842F3D10868800302D5012000909E
:1020900000E000920098012831D1194840300268D0
:1020A00042F0805202601748026842F440420260E7
:1020B0001348083002680260026842F4004202607D
:1020C000026842F4A0520260021F0F4B13600A68BC
:1020D00042F080720A600A689201FCD50B4A40F215
:1020E00005711160016821F003010160016841F090
:1020F000020101600168C1F381010229FAD10CBD1E
:10210000003802400070004008544007003C024084
:10211000704770477047704770474FF0E0210428C0
:1021200004D0086920F0040008617047086940F095
:10213000040008617047704710B51248016841F407
:10214000700101601048016841F0010101600E4A10
:1021500000210832116002680C4B1A400260031D16
:102160000B4A1A60026822F48022026006480C3092
:102170000160FFF771FF03494FF00060803908608C
:1021800010BD000088ED00E000380240FFFFF6FEC1
:10219000103000246FF00400FFF7BFBF70B52D4C66
:1021A00020782D4D00064ED40121284600F07BF802
:1021B000012809D12078400606D52078C043800642
:1021C00009D02178491C21700221284600F06BF8C3
:1021D000012812D037E020482030018821F0020188
:1021E00001800021284600F074F8207840F080003B
:1021F00020704FF6FF706080E6E7207840060CD52F
:10220000207840F080002070284600F04AF8608076
:102210000021284600F05DF815E000212170618062
:10222000207840F040002070284600F02EF8002171
:10223000284600F054F80221284600F04AF801210F
:10224000284600F022F82846BDE87040032100F03F
:1022500019B80000A00000200004004010B5084C90
:102260000121204600F01FF8012807D100F094F862
:102270002046BDE81040012100F004B810BD000068
:1022800000100040C94301827047002904D0018832
:1022900041F0010101807047018821F001010180B6
:1022A0007047406B704702460020138A0B409289AA
:1022B0000A40002B02D0002A00D001207047002ADB
:1022C00003D082890A438281704782898A4382814E
:1022D0007047028C22F002020A4302847047416276
:1022E0007047000030B50288164C174DA0420DD043
:1022F000A8420BD0B0F1804F08D0144B984205D0C3
:10230000134B984202D0134B984203D122F0700332
:102310004A881A43104B984206D0104B984203D07B
:1023200022F440730A891A4302804A68C2620A880A
:102330000285A04201D0A84201D1897A01860121FB
:10234000818230BD000001400004014000040040D3
:1023500000080040000C0040001000400014004045
:1023600001218140024842888A4342807047000030
:1023700060000020012181400148408808407047EA
:1023800060000020012181400248428811434180C1
:10239000704700006000002070B5104C6068401C61
:1023A0006060002020700E4D13E02078616855F8C1
:1023B0002000B1FBF0F200FB121038B92078FFF7D3
:1023C000E1FF2078012801D100F0BCFE2078401CFC
:1023D000207020780928E8D370BD0000600000203C
:1023E000C8510008F0B587B00446002C02D0012C7B
:1023F00005D008E001210846FFF78CFC03E001212D
:102400000820FFF787FC14B1012C05D008E001215A
:102410001020FFF79BFC03E001214804FFF788FC34
:1024200014B1012C04D005E04FF4C060059001E028
:102430006020059002208DF8180003208DF8190007
:1024400000258DF81A508DF81B50304E05A956F80E
:102450002400FEF730FC2E4F14B1012C0BD014E0F9
:102460003A7809213068FEF764FC3A780A2130682E
:10247000FEF75FFC09E07A7805217068FEF759FCE9
:102480007A7806217068FEF754FC14B1012C04D050
:1024900006E04FF4E130019002E04FF41650019055
:1024A000ADF810500C20ADF80E00ADF80C50ADF8A2
:1024B0000A50ADF80850154D01A9083555F824000B
:1024C00000F0B6F8012C1AD1012240F225516868BB
:1024D00000F093F80E48801C40788DF80000012031
:1024E0008DF803000A48001D40788DF80100084867
:1024F000801D40788DF802006846FFF7BDF955F859
:102500002400012100F046F807B0F0BD7000002063
:10251000EE51000870B5184C40F22555294620466A
:1025200000F04BF8002817D02946204600F02AF882
:10253000204600F0DBF8C0B2104A0124517861B1A6
:102540000F4B01290DD0022906D1242804D183F88C
:10255000FF4000205070907070BD5328FCD1547023
:1025600070BD452804D091785854491C917070BDB5
:102570000220507070BD0000004400409C0000200C
:10258000C805002040F66A120A0A01219140C94399
:1025900001807047002904D0818941F40051818174
:1025A0007047818921F400518181704702460020E3
:1025B00012880A4200D00120704770B5002440F60E
:1025C0006A12C1F3421301F01F05012606FA05F253
:1025D000012B0CD0022B0DD0838A1340090A8E40A8
:1025E000008830400BB100B10124204670BD8389C2
:1025F0001340F3E7038A1340F0E710B540F66A137F
:10260000C1F3421301F01F040121A140012B07D0A7
:10261000022B07D014303AB102680A43026010BDA1
:102620000C30F8E71030F6E702688A43026010BD0C
:102630007FB504460D46208A20F44051E8880843BF
:102640002082A08941F20C618843A9882A8911431C
:102650006A8902431143A181A08A20F44071A889AC
:102660000843A0826846FFF77FFB1E48844202D0E1
:102670001D48844201D1039800E00298A189090411
:1026800008D500EBC00101EB001029684900B0FB40
:10269000F1F007E000EBC00101EB001029688900B0
:1026A000B0FBF1F06422B0FBF2F109010B096FF00D
:1026B00018056B4300EB8300A3891D044FF0320320
:1026C00007D503EBC000B0FBF2F000F007000843B1
:1026D00006E003EB0010B0FBF2F000F00F0008433F
:1026E00020817FBD00100140001401408088C0F3AC
:1026F00008007047C1F3080181807047FEE70000C1
:102700000FB4054B10B503A9044A029800F0DEF897
:1027100010BC5DF814FB000061310008C00000200F
:1027200000487047CC00002002E008C8121F08C112
:10273000002AFAD170477047002001E001C1121F42
:10274000002AFBD1704700002DE9FF5F82B0002115
:10275000DDE90430020DDDF840B0034318D044F643
:102760001050A2F2FF3242431514119801281FD0D5
:10277000A5EB0B00401C5FEA000A4FF000064E4F2D
:10278000DFF83891B046504615D5CAF1000413E081
:10279000119801244AA3012801D16FEA0B01029884
:1027A000119AC0E90031C0E9024206B0BDE8F09FCD
:1027B000CBF10000DFE704460021404A491842EB14
:1027C0000450CDE9001012E0E00707D032463B4646
:1027D00040464946FDF70CFE8046894632463B4658
:1027E00010461946FDF704FE06460F466410002CFD
:1027F000EAD1DDE90401DDE90023BAF1000F06DAD0
:10280000FDF7F6FD42464B46FDF7F2FD05E0FDF70C
:1028100061FE42464B46FDF75DFE04460E46002231
:10282000284BFDF7D3FE03D84FF0FF30014607E0F9
:102830000022254B20463146FDF733FDFEF73EF8DA
:10284000102409E0002C0ADB0A220023FDF708FF10
:10285000039B30321A55641E50EA0102F2D1641C07
:10286000039AC4F111031444119A012A03D00122DE
:1028700008430DD10AE0084304D000204FF0110BAB
:10288000119072E7A3EB0B056D1E0DE05B4504DDB7
:102890004FF0000205F1010504E003DA4FF00002F9
:1028A000A5F10105002AECD002981199C0E9023186
:1028B000C0E9004579E70000000014400000F03F47
:1028C000300000000000F0430000E03F2DE9FF4F22
:1028D00095B09A46884606460025EEE1252877D130
:1028E00000242746F94A0121039400E0044316F826
:1028F000013F203B01FA03F01042F7D130782A283B
:1029000011D06FF02F033078A0F13002092A16D8C9
:10291000039A44F0020402EB820203EB42021044E9
:10292000761C0390EFE758F8042B0392002A03DA91
:10293000504244F40054039044F00204761C307872
:102940002E2816D116F8010F44F004042A280DD0C1
:102950006FF02F023078A0F13003092B09D807EB74
:10296000870302EB4303C718761CF3E758F8047B90
:10297000761C30786C280FD006DC4C2817D06828DD
:102980000DD06A2814D104E0742810D07A280FD111
:102990000DE044F400140AE044F4801401E044F42F
:1029A00040147278824202D104F58014761C761CA1
:1029B000307866280BD013DC582877D009DC002843
:1029C00075D04528F6D04628F4D047281AD193E18F
:1029D00018E0632835D0642879D0652812D18BE1BE
:1029E000702873D008DC6728F1D069286FD06E2872
:1029F0000DD06F2806D1ACE073282CD0752874D088
:102A0000782853D05246179990476D1C54E1C4F36F
:102A10000250022809D003280DD0D8F8001004284D
:102A20000DD00D6008F1040846E1D8F80010EA174F
:102A3000C1E90052F6E7D8F800100D80F2E70D70FA
:102A4000F0E718F8041B8DF8001000208DF8010045
:102A5000EB46012003E058F804BB4FF0FF3061075C
:102A60004FF0000102D40DE009F101018946B9429D
:102A70000FDA8145F8DB1BF809100029F4D108E0D2
:102A800009F1010189468142FADB1BF8091000298E
:102A9000F6D103985346A0EB090721463846179A0A
:102AA00000F080FA284400EB090507E044E008E163
:102AB0000DE01BF8010B524617999047B9F1010937
:102AC000F7D2534621463846179AF2E039E00A21F8
:102AD000C4F302524FF0000B0091022A06D058F8BE
:102AE000040BC117032A09D00AE023E008F107000C
:102AF00020F00702F2E80201904605E000B2C1179B
:102B0000042A01D140B2C117002906DA0A46002181
:102B1000404261EB02012D2202E0220504D52B2266
:102B20008DF80420012203E0E20701D02022F7E71C
:102B3000914657E00A2100E010214FF0000B009170
:102B40000BE010214FF0000B44F004040827009123
:102B500003E008204FF0000B0090C4F30252022A59
:102B600005D058F8040B0021032A08D008E008F12A
:102B7000070020F00702F2E80201904603E080B26D
:102B8000042A00D1C0B24FF0000922072AD53278BA
:102B9000702A07D0DDF800C08CF0100C5CEA0B0C3A
:102BA00005D00EE040228DF80420012208E050EA12
:102BB000010306D030238DF804308DF80520022261
:102BC0009146009B83F0080353EA0B030AD150EAB5
:102BD000010201D1620705D530228DF804204FF0A3
:102BE00001097F1E3278582A04D039A20C920CAA0F
:102BF00002920BE03BA2F9E75B46009AFDF730FD3D
:102C00000C9B9B5C029A521E0292137050EA0102C6
:102C1000F2D1029804A9081A00F1200B600702D52E
:102C200024F4803400E001275F4502DDA7EB0B00B0
:102C300000E0002000EB0B01009003984944401A8B
:102C40000390E00306D453462146179A039800F0F8
:102C5000A9F90544002706E001A85246C05D17996E
:102C600090476D1C7F1C4F45F6DBE0030CD55346A7
:102C70002146179A039800F095F9054404E03020A6
:102C80005246179990476D1C0099481E00900029E4
:102C9000F5DC08E00298029952460078491C02913E
:102CA000179990476D1CBBF10001ABF1010BF1DCF2
:102CB0005BE100F065F90544761C307800287FF46C
:102CC0000DAE19B02846BDE8F08F000009280100BC
:102CD0003031323334353637383961626364656692
:102CE0000000000030313233343536373839414254
:102CF0004344454600000000600700D4062708F161
:102D0000070020F00700F0E80223804603F0004CA3
:102D10005FEA0C0001D097A009E0200501D596A03C
:102D200005E0E00701D095A001E0AFF24C00139060
:102D3000307823F0004365280CD006DC452809D004
:102D400046281DD047287FD13BE0662818D0672849
:102D50007AD136E00021112F01DB112000E0781C30
:102D6000CDE9000104A90CA8FFF7EEFCDDE90D0197
:102D70000C9A4FF0000B07F10109109200914EE000
:102D80004FF000400097CDE9011004A90CA8FFF70F
:102D9000DBFCDDE90D020C9B0F994FF0000B914617
:102DA0001093009211B9791C00EB0109B7EB0900EF
:102DB00003D4C0F1FF3B07F10109A9EB0700019023
:102DC00042E0012F00DA01270021112F01DD11203F
:102DD00000E03846CDE9000104A90CA8FFF7B4FCD7
:102DE000DDE90D010C9A00914FF0000BB9461092ED
:102DF00021070FD4009A4A4503DA914601E0A9F170
:102E00000109B9F1010F05DD109AA9F10101515C29
:102E10003029F4D0B84202DA10F1040F03DA0121AC
:102E2000CDE9011010E0002803DC8344A9EB000188
:102E300002E0411C494500DD8946A0EB0B00401C27
:102E400001904FF000400290200705D401984845BA
:102E500002DB4FF0FF30019000208DF84B0002980C
:102E60000DF14B07B0F1004F25D002200C902B2024
:102E70000D90029800280CDA404202902D200D900F
:102E800007E00A210298FDF7D5FB3031029007F8E0
:102E9000011D0C99481E0C900029F2DC02980028B4
:102EA000EFD1791E0D980870307800F0200040F0C6
:102EB000450007F8020D11A8C01BC01D0290139811
:102EC000007800B1012000EB0901019801EBE071ED
:102ED000029801440398401A401E0390E00306D470
:102EE00053462146179A039800F05CF8054413985E
:102EF000007818B15246179990476D1CE00323D50E
:102F000053462146179A039800F04CF805441BE0FD
:102F1000BBF1000F07DB0098584504DD10981799A6
:102F200010F80B0001E017993020524690470198A5
:102F30000BF1010B401E05F10105019004D12E207B
:102F40005246179990476D1CB9F10001A9F101098A
:102F5000DEDC05E017F8010B5246179990476D1C0F
:102F60000299481E02900029F4DC53462146179A24
:102F700003989EE62D0000002B00000020000000BA
:102F80002DE9F041044600251E461746880404D466
:102F900005E039462020B0476D1C641EF9D528464F
:102FA000BDE8F0812DE9F041044600251E4690461B
:102FB000C80301D5302700E02027880404D505E0A8
:102FC00041463846B0476D1C641EF9D52846BDE819
:102FD000F081000002490A68C2630860704700007F
:102FE00000000020002802D000EB810082627047C0
:102FF0002DE9F04107460C4615461E46002C29D007
:1030000040212046FDF7F7F820223946201DFDF724
:10301000FDF814F8240F20F00300801C20F00C00B1
:1030200008300421617044F8245C66F305102070B8
:10303000A847217860F3871121700020A082608268
:103040002074243C204600F07CF82046BDE8F04186
:10305000FFF7C0BFBDE8F08170B504462068804727
:10306000014694F824000026B1EB901F19D0228F5E
:10307000521C92B22287052A13D361F3871084F879
:1030800024002687C0F301128A4205D120F00300F4
:1030900084F82400E68604E020F00300401C84F855
:1030A0002400E08E401C82B2E28694F824004FF0A7
:1030B000040510F0030302D0012B2CD10AE02D2AC5
:1030C00029D9B1EB901F26D1910724D1022184F890
:1030D000251020E094F82510022901D184F825500C
:1030E000232A08D210F00C0F05D194F83410491C93
:1030F00084F83410E686E18E23290CD9E68694F80C
:10310000341001291AD003D94FF0010184F8251099
:1031100084F83460E686014660F3830184F8241065
:1031200094F82500032808D204EB8000816A002966
:1031300003D02046884784F8255070BD84F8256068
:10314000E6E7704710B50548046803E02046FFF73E
:1031500083FFE46B002CF9D110BD000000000020BB
:1031600070B50446064DE1B22846FFF7C3FA802148
:103170002846FFF71BFA0028F9D0204670BD000052
:103180000010014010B5002821D0114B0022001F73
:10319000196803E0814203D80A4649680029F9D139
:1031A00052B11368841A9C4204D10068184410601C
:1031B000104602E0506000E0186039B102680B1A56
:1031C000934203D10B681A4402604968416010BD04
:1031D000C4000020002000F006B8012000F003B871
:1031E0000220AFF30080FDF70BBE000010B50446CF
:1031F00094F82500002824D001285BD002287CD137
:10320000042250A1201DFDF70DF8002876D00422DD
:103210004EA1201DFDF706F8002870D004224DA114
:10322000201DFCF7FFFF00286AD004224BA1201DBF
:10323000FCF7F8FF002860D1BDE8104049A0FFF777
:103240005FBA04223FA1201DFCF7ECFFB8B10422B5
:103250003EA1201DFCF7E6FFE0B104223DA1201DA8
:10326000FCF7E0FFF0B104223CA1201DFCF7DAFFDF
:10327000002866D1BDE810403FA0FFF741BA42A048
:10328000FFF73EFA0020FEF791F9BDE8104001205B
:10329000FEF7A4BA40A0FFF733FABDE810400320C0
:1032A000FEF79CBA40A0FFF72BFABDE810400520BE
:1032B000FEF794BA042223A1201DFCF7B3FFB8B196
:1032C000042222A1201DFCF7ADFFF0B1042221A1B0
:1032D000201DFCF7A7FF00B3042220A1201DFCF74E
:1032E000A1FF00282DD1BDE8104033A0FFF708BA98
:1032F00037A0FFF705FA022003E022E012E016E013
:103300001AE0BDE81040FEF769BA37A0FFF7F8F9F8
:10331000BDE810400420FEF761BABDE8104038A0B7
:10332000FFF7EEB9BDE810403BA0FFF7E9B9BDE8F3
:1033300010403EA0FFF7E4B9BDE8104040A0FFF701
:10334000DFB910BD4B455931000000004B455932E3
:10335000000000004B455933000000004B45593434
:10336000000000004B455934206C6F6E6720636C81
:1033700069636B65640D0A004B45593420636C69C1
:10338000636B65640D0A00004B45593120636C691D
:10339000636B65640D0A00004B45593220636C690C
:1033A000636B65640D0A00004B45593320636C69FB
:1033B000636B65640D0A00004B45593420646F75DA
:1033C000626C6520636C69636B65640D0A000000C4
:1033D0004B45593120646F75626C6520636C69637D
:1033E0006B65640D0A0000004B45593220646F750F
:1033F000626C6520636C69636B65640D0A00000094
:103400004B45593320646F75626C6520636C69634A
:103410006B65640D0A0000004B455931206C6F6EDE
:103420006720636C69636B65640D0A004B45593214
:10343000206C6F6E6720636C69636B65640D0A00B6
:103440004B455933206C6F6E6720636C69636B6505
:10345000640D0A0010B50123234A244924A0FFF774
:10346000C7FD254A00212148FFF7BCFD224A012162
:103470001E48FFF7B7FD204A02211C48FFF7B2FDA6
:103480001A4901231D4A40311DA0FFF7B1FD17481D
:10349000194A00214030FFF7A5FD1448164A0121C2
:1034A0004030FFF79FFD1148134A02214030FFF7DB
:1034B00099FD0E490123144A803114A0FFF798FDAD
:1034C0000A480D4A00218030FFF78CFD07480A4A60
:1034D00001218030FFF786FD04480221BDE810403D
:1034E000054A8030FFF77EBDD5310008E00400209A
:1034F0004B45593100000000ED310008DB31000878
:103500004B45593200000000E13100084B4559336A
:10351000000000004FF4A060FEF7E2F90020FEF783
:1035200021F8FEF737FE4FF47A715420FDF752FA76
:103530004FF4E1310020FEF755FF4FF41651012002
:10354000FEF750FF0020FDF7BBFA0120FDF7B8FAA7
:103550000220FDF7B5FAFFF77DFF2A4E2A4C032221
:103560003146E01CFDF774FD01210020FDF770FEDF
:1035700001210020FEF700FAFEF724F80020FEF7F4
:103580002DF922A0FFF7BCF8254D0520FEF7F2FE2D
:1035900070B323480A212838FDF73EFC95F8FF0058
:1035A00010B3002085F8FF001D491D480C39FDF7B8
:1035B0003FFA012818D11B49FEF726FD18490C399E
:1035C000A1F11000FEF72BFD15480C380178217091
:1035D00001796170007AA0703046FDF726FD032264
:1035E00031460948FDF749FD0520FEF7B9FECCE755
:1035F0000820FEF7BFFE0028C7D00820FEF7B0FE67
:10360000C3E7000000000108A4000020416C6C200A
:10361000496E697469616C206973204F4B0D0A0013
:10362000C805002066526845F0B50B30154D20F0F6
:1036300007010024144A0FE003688B420BD38B422E
:1036400005D95E1A43184768C3E9006700E043687C
:10365000136002C004E0021D10680028ECD120466F
:10366000002802D1286808B10020F0BD064A0748AA
:103670001060074A121A22F00702C0E90024012054
:103680002860D7E7C8000020C4000020CC06002036
:10369000C8080020FFFFFFFFFFFFFFFFFFFFFFFF46
:1036A000FFFFFFFFFFFFFFFFFFFFFFFFFFFFFFFF2A
:1036B000FFFFFFFFFFFFFFFFFFFFFFFFFFFFFFFF1A
:1036C000FFFFFFFFFFFFFFFFFFFFFFFFFFFFFFFF0A
:1036D000FFFFFFFFFFFFFFFFFFFF0F0F8F8FCFCF1A
:1036E000C7C7C7C3C3C3C3E3E3E3E3F3F3F1F1F134
:1036F0000101F8FCFC000101F1F1F1F3F3E3E3E374
:10370000C3C3C3C3C7C7C7C7CFCF8F0F0F1FFFFF29
:10371000FFFFFFFFFFFFFFFFFFFF0000FFFFFFFFB7
:10372000E3E3F3F3F3F1F1F1F171797979FBFFFF61
:103730000000FFFFFF000000FFFF7979797971F148
:10374000F1F1F1F3F3E3E3E3FFFFFF000000FFFF1C
:10375000FFFFFFFFFFFFFFFFFFFF0000FFFFFFFF77
:103760007179797878787C3C3C3C3C3C3CFDFFFFAF
:103770000000FFFFFF000000FFFF3C3C3C3C3C3CE6
:103780007C7C787879797171FFFFFF000000FFFF82
:10379000FFFFFFFFFFFFFFFFFFFF0000FFFFFFFF37
:1037A0003C3C3C3C3C3C3C3C3C3C3E1E1E3EFFFF0B
:1037B0000000FFFFFF000000FFFF1E1E3E3E3C3CDE
:1037C0003C3C3C3C3C3C3C3CFFFFFF000000FFFF1E
:1037D000FFFFFFFFFFFFFFFFFFFF00007F3F3F3FB7
:1037E0003C3E3E3E3E3E1E1E9E9F8F8F8F8FCFC71C
:1037F0000000FFFFFF000000CFCF8F8F8F8F9E1E36
:103800001E1E3E3E3E3E3C3C3F3F3F000000FFFF51
:10381000FFFFFFFFFFFFFFFFFFFF80808C8CCECEFE
:10382000C6C6C6C2C3C3C3E3E3E3E3F3F3F1F1F1F6
:10383000F0F8F9F9F9F8F0F0F1F1F3F3F3E3E3E379
:10384000C3C3C3C2C6C6C6C6CECC8C808080FFFFB1
:10385000FFFFFFFFFFFFFFFFFFFFFFFFFFFFFFFF78
:10386000FFFFFFFFFFFFFFFFFFFFFFFFFFFFFFFF68
:10387000FFFFFFFFFFFFFFFFFFFFFFFFFFFFFFFF58
:10388000FFFFFFFFFFFFFFFFFFFFFFFFFFFFFFFF48
:10389000FFFFFFFFFFFFFFFFFFFFFFFFFFFFFFFF38
:1038A000FFFFFFFFFFFFFFFFFFFFFFFFFFFFFFFF28
:1038B000FFFFFFFFFFFFFFFFFFFFFFFFFF3F3FFF98
:1038C000FFFFFFFFFFFFFFFFFFFFFFFFFFFFFFFF08
:1038D000FFFFFFFFFFFFFFFFFFFFFFFFFFFFFFFFF8
:1038E000FFFFFFFFFFFFFFFFFFFFFFFFFFFFFFFFE8
:1038F000FFFFFF3F1F0FCFCFCFCFC8C8C8C0C0C882
:10390000C8C8CFCFCFCF0F1F3FFFFFFFFFFFFFFF85
:10391000FFFFFFFFFFFFFFFFFFFFFFFFFFFFFFFFB7
:103920003F3F0F8FC7C7C3C7C7C70F1F3F7FFFFFEB
:10393000FFFFFFFCC0000747474747474747474748
:1039400047474747070100E0FFFFFFFFFFFFFFFF7B
:10395000FFFFFFFFFFFFFFFFFFFFFFFFFFFFFFF97D
:1039600000000F3F3F3F3F3F3F3F0F000000FFFF82
:10397000FFFFFFFFFFFEFC3C0000FCFCFCFCFCFC2E
:10398000FCFC0000FCFCFFFFFFFFFFFFFFFFFFFF51
:10399000FFFFFFFFFFFFFFFFFFFFFFFFFFFFFFFF37
:1039A000E0E0020202E2E2E2E20202E0E0F0FFFF17
:1039B000FFFFFFFFFFFF3F000000FFFFFFFFFFFFD4
:1039C000FFFF000001FFFFFFFFFFFFFFFFFFFFFF03
:1039D000FFFFFFFFFFFFFFFFFFFFFFFFFFFFFFFFF7
:1039E0007F1F0040787F7F7F7F7800001FFFFFFFF1
:1039F000FFFFFFFFFF3F0000203C3F3F3F3F3F3FB7
:103A00003F3F3C0000013FFFFFFFFFFFFFFFFFFFC5
:103A1000FFFFFFFFFFFFFFFFFFFFFFFFFFFF0F0F96
:103A2000C0C0CCCCCCCCCCCCCCCCCCC0C0000F1F3C
:103A3000FFFF0303E3E0E0E2E2E2E2E2E2E2E2E2ED
:103A4000E2E2E2E2E2E0E0030303FFFFFFFFFFFF49
:103A5000FFFFFFFFFFFFFFFFFFFFFFFFFFFFF8F884
:103A6000F9F9F9F9F9F9F9F9F9F9F9F9F9F8F8F8C9
:103A7000FFFFF8F8F9F9F9F9F9F9F9F9F9F9F9F9AC
:103A8000F9F9F9F9F9F9F9F8F8F8FFFFFFFFFFFF85
:103A9000FFFFFFFFFFFFFFFFFFFFFFFFFFFFFFFF36
:103AA000FFFF3F3F3F1F3F3FFFFFFFFF3F1F3F3FE6
:103AB0003F3FFFFFFFFFFFFFFFFF7F7F7F7F7F7F96
:103AC0007F7F7F7FFFFFFFFFFFFFFFFFFFFFFFFF06
:103AD000FFFFFFFFFFFFFFFFFFFFFFFFFFFFBF0332
:103AE0000100FCFCFE8000001F1F1F1F000080FE65
:103AF000FCFC000103FFFFFFFFFF8000001C3C3CBB
:103B00003C0000F0FFFFFFFFFFFFFFFFFFFFFFFF95
:103B1000FFFFFFFFFFFFFFFFFFFFFFFFFFFFFFFCB8
:103B2000F0E0C3C78F8F1F1F3FFFFF3F3F1F8F8FE7
:103B3000C7C3E0F0FCFFFFFFFFFFFFFEFEFE00003B
:103B4000FEFEFEFFFFFFFFFFFFFFFFFFFFFFFFFF88
:103B5000FFFFFFFFFFFFFFFFFFFFFFFFFFFFFFFF75
:103B6000FFFFFFFFFFFF000000FFFF000000FFFF5F
:103B7000FFFFFFFFFFFFFFFFFFFFFFFFFFFF000053
:103B8000FFFFFFFFFFFFFFFFFFFFFFFFFFFFFFFF45
:103B9000FFFFFFFFFFFFFFFFFFFFFFFFFFFFFFFF35
:103BA000FFFFFFFFFFFF000000FFFF000000FFFF1F
:103BB000FFFFFFFFFFFF8F8F8F8F0F0F0F8F808013
:103BC0008F8F0F0F8F8F8FFFFFFFFFFFFFFFFFFF15
:103BD000FFFFFFFFFFFFFFFFFFFFFFFFFFFFFF3FB5
:103BE0000F07C3F1F1F8FCFCFCFFFFFCFCFCF8F153
:103BF000F1C1030F3FFFFFFFFFFF000000FFFFFFCA
:103C0000FFFF0000FFFFFFFFFFFFFFFFFFFFFFFFC2
:103C1000FFFFFFFFFFFFFFFFFFFFFFFFFFFFFCE0D6
:103C2000C0801F3F3F000000FCFCFCFC0000017F47
:103C30003F3F00C0C0FFFFFFFFFF000000FFFFFF8E
:103C4000FF7F0000FFFFFFFFFFFFFFFFFFFFFFFF02
:103C5000FFFFFFFFFFFFFFFFFFFFFFFFFFFFFFFF74
:103C6000FFFFFEFCFCFCFCFCFFFFFFFFFCFCFCFC80
:103C7000FCFEFFFFFFFFFFFFFFFFFEFCFCF8F9F972
:103C8000F8F8FCFEFFFFFFFFFFFFFFFFFFFFFFFF56
:103C9000FFFFFFFFFFFFFFFFFFFFFFFFFFFFFFFF34
:103CA000FFFFFFFFFFFFFFFFFFFFFFFFFFFFFFFF24
:103CB000FFFFFFFFFFFFFFFFFFFFFFFFFFFFFFFF14
:103CC000FFFFFFFFFFFFFFFFFFFFFFFFFFFFFFFF04
:103CD000FFFFFFFFFFFFFFFFFFFFFFFFFFFFFFFFF4
:103CE000FFFFFFFFFFFF7F7F3F3F3F1F1F1F9F9F84
:103CF0009F9F9F9F9F9F9F9F9F9F1F1F1F3F3F3F74
:103D00007F7FFFFFFFFFFFFFFFFFFFFFFFFFFFFFC3
:103D1000FFFFFFFFFFFFFFFFFFFFFFFFFFFFFFFFB3
:103D2000FFFF3F070301F0F8FCFCFEFFFFFFFFFF72
:103D3000FFFFFFFFFFFFFFFFFFFFFFFFFFFEFCFC9A
:103D4000F8F001030FFFFFFFFFFFFFFFFFFFFFFF83
:103D5000FFFFFFFFFFFFFFFFFFFFFF7F3F3F3F3FF3
:103D60003F3F000000003FFFFFFFFFFFFFFFFFFF9F
:103D7000FFFFFF3F3F7FFFFFFFFFFFFFFFFFFFFF53
:103D80003F3F0000003F3F3F3F3F3F3F7FFFFFFF80
:103D9000FFFFFFFFFFFFFFFFFFFF000000FCFEFF34
:103DA000FFFFFFFF000000FFFFFFFFFF7F3F1F1F20
:103DB0009F8F00000000F8F8F9F9FBFFFFFFFFFFFD
:103DC000000000FFFFFFFFFFFFFEFC000000FFFF01
:103DD000FFFFFFFFFFFFFFFFFFFF0000007FFFFF70
:103DE0000303FFFF000000FFFFFFFFF9E0C0868F25
:103DF0008F8F8FC0C0C0FFFFFFFFFFFFFFFFFFFFE0
:103E0000000000FFFF030303FFFF3F000000FFFF70
:103E1000FFFFFFFFFFFFFFFFFFFFFEFCFCFCF8F8CA
:103E2000F8F8F8F8F8F8FCFFFFFFFFFFFFFFFFFFCF
:103E3000FFFFFFFFFFFFFFFFFFFFFFFFFFFFFFFF92
:103E4000FCFCF8F8F8F8F8F8F8F8FCFCFCFFFFFFC9
:103E5000FFFFFFFFFFFFFFFFFFFFFFFFFFFFFFFF72
:103E6000FFFFFFFFFFFFFFFFFFFFFFFFFFFFFFFF62
:103E7000FFFFFFFFFFFFFFFFFFFFFFFFFFFFFFFF52
:103E8000FFFFFFFFFFFFFFFFFFFFFFFFFFFFFFFF42
:103E9000FFFFFFFFFFFFFFFFFFFFFFFFFFFFFFFF32
:103EA000FF7F7F3F3F1F1F1F1F3F3F7F7FFFFF7F22
:103EB0003F3F1F1F1F1F3F3F7FFFFF7F7F3F3F1F72
:103EC0001F1F1F3F3F7F7FFFFFFFFFFFFFFFFFFF22
:103ED000FFFFFFFFFFFFFFFFFFFFFFFFFFFFFF03EE
:103EE0000000F8FEFEFFFFFFFFFEFEF8E0000010FE
:103EF000FCFEFFFFFFFFFEFC100000E0F8FCFEFFF1
:103F0000FFFFFFFEFEF8000003FFFFFFFFFFFFFFC4
:103F1000FFFFFFFFFFFFFFFFFFFFFFFFFFFFFFFEB2
:103F2000F080010F7FFFFFFFFFFFFFFFFF0000009A
:103F3000FFFFFFFFFFFFFFFF000000FFFFFFFFFF8E
:103F4000FFFFFF7F0F0180F0FEFFFFFFFFFFFFFF7E
:103F5000FFFFFFFFFFFFFFFFFFFFFFFFFFFFFFFF71
:103F6000FFFFFCF080010F7FFFFFFFFFFFFE00005F
:103F70001FFFFFFFFFFFFF1F0000FEFFFFFFFFFF10
:103F80007F0F0180F0FCFFFFFFFFFFFFFFFFFFFF40
:103F9000FFFFFFFFFFFFFFFFFFFFFFFFFFFFFFFF31
:103FA000FFFFFFFFFFFCE080071FFFFFFFFFE000B8
:103FB00000FFFFFFFFFFFF0000E0FFFFFFFF1F0705
:103FC00080E0FCFFFFFFFFFFFFFFFFFFFFFFFFFFA2
:103FD000FFFFFFFFFFFFFFFFFFFFFFFFFFFFFFFFF1
:103FE000FFFFFFFFFFFFFFFF000000111111111085
:103FF00010111111111111101011111111000000E7
:10400000FFFFFFFFFFFFFFFFFFFFFFFFFFFFFFFFC0
:10401000FFFFFFFFFFFFFFFFFFFFFFFFFFFFFFFFB0
:10402000FFFFFFFFFFFFFFFFFEF0C0800F1F3361A8
:1040300047478F8F8FFFFF7F7F3F1F0F81C0F0FFAC
:10404000FFFFFFFFFFFFFFFFFFFFFFFFFFFFFFFF80
:10405000FFFFFFFFFFFFFFFFFFFFFFFFFFFFFFFF70
:10406000FFFFFFFFFFFFFFFFFFFFFFFFFFFEFEFC65
:10407000FCF8F8F8F8F8F8FCFCFEFEFFFFFFFFFF85
:10408000FFFFFFFFFFFFFFFFFFFFFFFFFFFFFFFF40
:10409000FFFFFFFFFFFFFFFFFFFFFFFFFFFFFFFF30
:1040A000FFFF7F7F7F7F7F7F7F7F7F7F7F7F7F7F20
:1040B0007F7F7F7F7F7F7F7F7F7F7F7F7F7F7F7F10
:1040C0007F7F7F7F7F7FFFFFFFFFFFFFFFFFFFFF00
:1040D000FFFFFFFFFFFFFFFFFFFFFFFFFFFFFFFFF0
:1040E000FFFF000000FEFEFE000000FEFEFEFE3EA2
:1040F0000E06C6E2E2E6060E1EFEFEFEFE00000012
:10410000FEFEFE000000FFFFFFFFFFFFFFFFFFFFBF
:10411000FFFFFFFFFFFFFFFFFFFFFFFFFFFFFFFFAF
:10412000FFFF000000FFFFFFF8F0E0E3E7E7E3E058
:10413000F0FCFFFFFFFFC000003F7F7F7F0000001B
:10414000FFFFFF000000FFFFFFFFFFFFFFFFFFFF7C
:10415000FFFFFFFFFFFFFFFFFFFFFFFFFFFFFFFF6F
:104160000F0700C0C0C7C7C7C7C7C7C7C7C7C7C72C
:10417000C7C7C7C7C7C7C7C7C6C4C4C4C4C4C6C7E0
:10418000C7C7C7C0C000070FFFFFFFFFFFFFFFFF4C
:10419000FFFFFFFFFFFFFFFFFFFFFFFFFFFFFFFF2F
:1041A000C0C0C0C7070707C7C7C7C7C7C7C7C7C7F4
:1041B000C7C7C7C7C7C7C7C7C7C7C7C7C7C7C7C78F
:1041C000C7070707C7C0C0C0FFFFFFFFFFFFFFFF14
:1041D000FFFFFFFFFFFFFFFFFFFFFFFFFFFFFFFFEF
:1041E000FFFFFFFFFCF0E0E3C7C7C7C7C7C707076C
:1041F0000FFFFFFFFFFFFF0F0707C7C7C7C7C7C7EF
:10420000E3E0F0FCFFFFFFFFFFFFFFFFFFFFFFFF0B
:10421000FFFFFFFFFFFFFFFFFFFFFFFFFFFFFFFFAE
:10422000FFFFFFFFFFFFFFFFFFFFFFFFFF07000094
:10423000FFFFFFFFFFFFFFFE000007FFFFFFFFFF85
:10424000FFFFFFFFFFFFFFFFFFFFFFFFFFFFFFFF7E
:10425000FFFFFFFFFFFFFFFFFFFFFFFFFFFFFFFF6E
:10426000FFFFFFFFFFFFFFFFFFFFFFFFFDF8F8F875
:10427000F8F8F8F8F8F8F8F8F8F8F8FCFFFFFFFF9E
:10428000FFFFFFFFFFFFFFFFFFFFFFFFFFFFFFFF3E
:10429000FFFFFFFFFFFFFFFFFFFFFFFFFFFFFFFF2E
:1042A0007F3F3F3F3F7F7FFFFFFFFFFFFFFFFFFF9E
:1042B000FFFFFFFFFFFFFFFFFFFFFFFFFFFFFFFF0E
:1042C000FFFFFFFFFFFFFFFFFFFFFFFFFFFFFFFFFE
:1042D000FFFFFFFFFFFFFFFFFFFFFFFFFF0F0707CE
:1042E0006060606666646060676767676767676786
:1042F000676767676767676767676767676707070E
:104300009FFFFFFFFFFFFFFFFFFFFFFFFFFFFFFF1D
:10431000FFFFFFFFFFFFFFFFFF070707E7E7E6E6F7
:10432000E6E6E6E6E0E0E0E6E6E6E6E6E6E6E6E63F
:10433000E6E6E6E6E6E6E6E6E0E0E0E6E6E6E6E62F
:10434000E7E7E7E7E707070FFFFFFFFFFFFFFFFFD5
:10435000FFFFFFFFFFFFFFFFFF000000FFFFFF0366
:104360000303F3F3F3F3F3F3030303F3F3F3F3F3CD
:10437000F3F3F3F3030303FFFF03010131313131A1
:104380003131313131303038FFFFFFFFFFFFFFFFA8
:10439000FFFFFFFFFFFFFFFFFF000000FFFFFFE049
:1043A000E0E0E3E3E3E3E3E3E0E0E0E3E3E3E3E3EC
:1043B000E3E3E3E3E0E0E0FFFF000000FEFEFEFEDB
:1043C000FE0000003E3E3C382003070F1FFFFFFFAA
:1043D000FFFFFFFFFFFFFFFFFF000000FFFFFFFFEA
:1043E0007F3F3F1F1F1F1F1F3F3F7FFFFFFFFFFF3D
:1043F000FFFFFFFFFFFFFFFFFF000000FFFF7F3F0A
:104400003F1F1E1E1E3E3E7EFEFEFE0000FFFFFF03
:10441000FFFFFFFFFFFFFFFFFFF0F0F0F1F1F18181
:1044200000187CFEFFFFFFFF7E380000C1F1F1F1B4
:10443000F1F1F1F1F1F1F1F1F1F0F0F08100003C76
:10444000FEFFFFFFFFFE7C000081F1F0F0FFFFFFA9
:10445000FFFFFFFFFFFFFFFFFFFFFFFFFFFFFFFF6C
:10446000FEFCF8F8F8F1F1F8F8FCFCFFFFFFFFFFA5
:10447000FFFFFFFFFFFFFFFFFFFFFFFFFFFEFCFC53
:10448000F8F8F1F1F8F8F8FCFEFFFFFFFFFFFFFF7F
:10449000FFFFFFFFFFFFFFFFFFFFFFFFFFFFFFFF2C
:1044A000FFFFFFFFFFFFFFFFFFFFFFFFFFFFFFFF1C
:1044B000FFFFFFFFFFFFFFFFFFFFFFFFFFFFFFFF0C
:1044C000FFFFFFFFFFFFFFFFFFFFFFFFFFFFFFFFFC
:1044D000FFFFFFFFFFFFFFFFFFFFFFFFFFFFFFFFEC
:1044E000FFFFFFFFFFFFFFFFFFFFFFFFFFFFFFFFDC
:1044F000FFFFFFFFFFFFFFFFFFFFFFFFFFFFFFFFCC
:10450000FFFFFFFFFFFFFFFFFFFFFFFFFFFFFFFFBB
:10451000FFFFFFFFFFFFFFFFFFC701011038383823
:104520000101C7FFFFFFFFFFFFFFFFFFFFFFFFFFCF
:10453000FFFFFFFFFFFFFFFF7F7F7F3F3F1F1F1F2B
:10454000BFFFFFFFFFFFFFFFFFFFFFFFFFFFFFFFBB
:10455000FFFFFFFFFFFFFFFFFFFFFFFEFE0000006A
:10456000FEFFFFFFFFFFFFFFFF7F7F3F1F0F8F87D4
:10457000C7E3E3F3F1F1F0F0F0F0F0F0F0F2E3E391
:10458000C7878F0F1F3F7F3F1F0F8F070307FFFF57
:10459000FFFFFFFFFFFFFFFFFFFFFFFFFF00000028
:1045A000FFFFFFFFFFFFE7C38000183C7EFFF7E33C
:1045B000E3E7FFFFFF010101FFFFFFFFFFFFFFFF39
:1045C000FFFFFFFF7E3C0000003F7F000000FFFF79
:1045D000FFFFFFFFFFFFFFFFFFFFFFFFFF000000E8
:1045E000FFFFFFFFFFFF070F1F3F7EFCF8F8F0F112
:1045F000E3E3C7C7CF8080808F8F8F8FCFC7C7E39C
:10460000E3F1F0F8F8FCFEFFFCF8F0F0E0F0FFFF5B
:10461000FFFFFFFFFFFFFFFFFFFFFFFFFFC00000E7
:104620001F3F3F3F3F1F0080E0F8F0F0F9FFFFFF22
:10463000FFFFFFFFFFFFFFFFFFFFFFFFFFFFFFFF8A
:10464000FFFFFFFFFFFFFFFFFFFFFFFFFFFFFFFF7A
:10465000FFFFFFFFFFFFFFFFFFFFFFFFFFFFFFFF6A
:10466000FEFEFEFEFEFEFFFFFFFFFFFFFFFFFFFF60
:10467000FFFFFFFFFFFFFFFFFFFFFFFFFFFFFFFF4A
:10468000FFFFFFFFFFFFFFFFFFFFFFFFFFFFFFFF3A
:10469000FFFFFFFFFFFFFFFFFFFFFFFFFFFFFFFF2A
:1046A000FFFFFFFFFFFFFFFFFFFFFFFFFFFFFFFF1A
:1046B000FFFFFFFFFFFFFFFFFFFFFFFFFFFFFFFF0A
:1046C000FFFFFFFFFFFFFFFFFFFFFFFFFFFFFFFFFA
:1046D000FFFFFFFFFFFFFFFFFFFFFFFFFFFFFFFFEA
:1046E000FFFFFFFFFFFFFFFFFFFFFF8703013078A2
:1046F00078700101077F7F7F7F7F7F7F7F7F7F7F54
:104700007F7F7F7F7F7F7F7FFFFFFFFFFFFFFFFFB9
:10471000FFFFFFFFFFFFFFFFFFFFFFFFFFFFFFFFA9
:10472000FFFFFFFFFFFFFFFFFFFFFFFFFFFEFCFCA0
:10473000FCFC000000FCFCFCFCFCFCFCFCFCFCFCAD
:10474000FCFCFCFCFCFCFCFCFFFFFFFFFFFFFFFF91
:10475000FFFFFFFFFFFFFFFFFFFFFF3F0F07C7E365
:10476000F1F1F1F1F1F1F1F1F1F1F10101011111C9
:1047700011111010101111111111010101F1F1F1BC
:10478000F1F1F1F1F1F1F1F1E3C7070F3FFFFFFFA5
:10479000FFFFFFFFFFFFFFFFFFFF000000FFFFFF26
:1047A0001F1F1F0101011F1F1FFFFFFFFFFFFFFF53
:1047B000FFFFFFFFFFFFFFFFFFFFFFFFFFFF1F1FC9
:1047C0001F1FE1E1E11F1F1FFFFFFF000000FFFFB0
:1047D000FFFFFFFFFFFFFFFFFFFF000000FFFFFFE6
:1047E000FFFFFFF8F8F8FFFFFFFF3F0F0F8F8F88E5
:1047F00088888F8F8F8F8888888F8F0F0F3FFFFF5C
:10480000FFFFF0F0F0FFFFFFFFFFFF000000FFFFE2
:10481000FFFFFFFFFFFFFFFFFFFFFCF0E0C1878FFF
:104820000F1F1F1F1F1F1F8F87C3E0F0F8FFFFFF21
:10483000FFFFFFFFFFFFFFFFFFFFFFF8F0E0C38771
:104840000F1F1F1F1F1F1F0F8F87C1E0F0FCFFFFEF
:10485000FFFFFFFFFFFFFFFFFFFFFFFFFFFFFFFF68
:10486000FFFFFFFFFFFFFFFFFFFFFFFFFFFFFFFF58
:10487000FFFFFFFFFFFFFFFFFFFFFFFFFFFFFFFF48
:10488000FFFFFFFFFFFFFFFFFFFFFFFFFFFFFFFF38
:10489000FFFFFFFFFFFFFFFFFFFFFFFFFFFFFFFF28
:1048A000FFFFFFFFFFFFFFFFFFFFFFFFFFFFFFFF18
:1048B000FFFFFFFFFFFFFFFFFFFFFFFFFFFFFFFF08
:1048C000FFFFFFFFFFFFFFFFFFFFFFFFFFFFFFFFF8
:1048D000FFFFFFFFFFFFFFFFFFFFFFFFFFFFFFFFE8
:1048E0003F1F1F3F3F3FFFFFFFFFFFFFFFFFFFFF98
:1048F000010101FFFFFFFFFFFFFFFFFFFFFFFFFFC2
:10490000FFFF7F7F7FFFFFFFFFFFFFFFFFFFFFFF37
:10491000FFFFFFFFFFFFFFFFFFFFFFFFFF8381019F
:10492000100080C6FEFE7F7F3F1F1F8F0F0000809C
:10493000000000C08000000F0F1F1F3F7F7FFFFFA0
:10494000FFFFFCFCFCFFFFFFFFFFFFFFFFFFFFFF80
:10495000FFFFFFFFFFFFFFFFFFFFFFFFFFFFFFFF67
:10496000FF3F0F07412030181E0E0300808CCECF72
:10497000000000CFCFCF8C8000030E1E1C383041CA
:10498000070F3FFFFFFFFFFFF9F9FFFFFFFFFFFFEB
:10499000FFFFFFFFFFFFFFFFFFFFFFFFFFFFFFFF27
:1049A000010000008C8C8E8F0100008E8F8F8F8F06
:1049B0000000008F8F8F8F8F8C0000038F8E8E8C66
:1049C00000000001FFFFFFFFFFFFFFFFFFFFFFFFF2
:1049D000FFFFFFFFFFFFFFFFFFFFFFFF7F7F7FFF67
:1049E000FCF0C000001171E3E4C000030FCF8F8F13
:1049F0000000008F8F8FCF0F0000C0E3E363310012
:104A000000C0F0FEFFFF3F3F3F7F7FFFFFFFFFFF44
:104A1000FFFFFFFFFFFFFFFFFFFFFFFFFCFCFCFFAF
:104A2000FFFF7F7F7EFCF8F0F1E3E2C0C0C0838728
:104A30008080808F878380C0C4E3E3F1F0F8FCFEC0
:104A4000FFFF87030131000080FCFCFFFFFFFFFF39
:104A5000FFFFFFFFFFFFFFFFFFFFFFFFFFFFFFFF66
:104A6000FFFFFEFEFEFFFFFFFFFFFFFFFFFFFFFF59
:104A7000FFFFFFFFFFFFFFFFFFFFFFFFFFFFFFFF46
:104A8000FFFFFFFFFEFEFEFFFFFFFFFFFFFFFFFF39
:104A9000FFFFFFFFFFFFFFFFFFFFFFFFFFFFFFFF26
:104AA000FFFFFFFFFFFFFFFFFFFFFFFFFFFFFFFF16
:104AB000FFFFFFFFFF7F7F3F3F1F1F1F1F1F1F3F86
:104AC0003F3F7FFFFFFFFFFFFFFFFFFFFFFFFFFFF6
:104AD000FFFFFFFFFFFFFFFFFFFFFFFFFFFFFFFFE6
:104AE000FFFFFFFFFFFFFFFFFFFFFFFFFFFFFF7F56
:104AF0000F07C1F030180C8EC6E7E3E3E3E3E3C62B
:104B0000860C1838F0C1070F7FFFFFFFFFFFFFFF84
:104B1000FFFFFFFFFFFFFFFFFFFFFFFFFFFFFFFFA5
:104B2000FFFFFFFFFFFFFFFFFF3F1F1F3F3F3F0054
:104B300000001F0100003E3F3F3F3F1F1F1F3F3F40
:104B40003F3E0000011F0000003F3F3F1F1F3FFF8F
:104B5000FFFFFFFFFFFFFFFFFFFFFFFFFFFF7F7F65
:104B60007F7F7F7F7F7F7F7F7F0000007E7E7E7ED6
:104B70007E7E7F7F7E7E7E7EFEFEFEFFFFFEFEFE51
:104B8000FEFEFEFEFFFFFE0000FEFEFE000000FF38
:104B9000FFFFFFFFFFFFFFFFFFFFFFFF030000F826
:104BA0007C1E0E8E8E0E0E1EFEFEFEFEFEFE3E1EB7
:104BB0000E8E0E0E1EFCFC000003FFFFFFFFFFFF2A
:104BC000FFFFFFFFFFFFFF0000FFFFFF000000FFF0
:104BD000FFFFFFFFFFFFFFFFFFFFFF030000FCFFE2
:104BE000FFFCF800010078FCFFFFFFFFFFFFFCF86F
:104BF000000180F8FCFFFFFF000007FFFFFFFFFF41
:104C0000FFFFFFFFFFFFFF0000FFFFFF000000FFAF
:104C1000FFFFFFFFFFFFFFFFFFFF0F0000F0FFFFA1
:104C2000FFFFFFFFFEF8F8F0F1F3E3E3F3F1F1F03B
:104C3000F8FEFFFFFFFFFFFFE000001FFFFFFFFF89
:104C4000FFFFFFFFFFFFFF0000FF7F1F0000C0FF0F
:104C5000FFFFFFFFFFFFFFFFFFFFFEF8F8F0F1F19E
:104C6000F1F1F1F1F1F1F1F1F1F1F1F1F1F1F1F134
:104C7000F1F1F1F1F1F1F1F1F0F0F0F0F1F1F1F128
:104C8000F1F1F1F1F1F1F1F0F0F8F8FCFEFFFFFFC6
:104C9000FFFFFFFFFFFFFFFFFFFFFFFFFFFFFFFF24
:104CA000FFFFFFFFFFFFFFFFFFFFFFFFFFFFFFFF14
:104CB000FFFFFFFFFFFFFFFFFFFFFFFFFFFFFFFF04
:104CC000FFFFFFFFFFFFFFFFFFFFFFFFFFFFFFFFF4
:104CD000FFFFFFFFFFFFFFFFFFFFFFFFFFFFFF7F64
:104CE0003F1F1F1F8F8F8F8F8F8F8FCFCFCFC7C744
:104CF000C7C7C7E7E7E7E3E3E3E3F3F3F3F3F1F36E
:104D0000E3E3C3870F0F3F7FFFFFFFFFFFFFFFFFBF
:104D1000FFFFFFFFFFFFFFFFFFFFFFFF1F0300E09D
:104D2000FCFEFFFFFFFFFFFF0F0703F1F1F1F1F1C1
:104D3000F1F1F1F8F8F8F8F8F8F001030F3F3F3F10
:104D40003F1F1F1F1F1800009FFFFFFFFFFFFFFFF8
:104D5000FFFFFFFFFFFFFFFFFFFFFFFFFFF0E0E0B0
:104D6000F3F3010101F1F1F1F0F0F81F1F1F1F1F14
:104D70001F1F3FFFFFFFFFFFFFFFFEFEFE3E1E1E49
:104D80001E1F1F1F1FFFFFFFFFFFFFFFFFFFFFFF94
:104D9000FFFFFFFFFFFFFFFFFFFF0F0303F1F1F135
:104DA000F9F8F8FCFEFF0F0381F1F1F0F0F0F1F1FA
:104DB000F07030311111818181811111113070F049
:104DC000F1F1F0F0F0F1F181030FFFFFFFFFFFFFC2
:104DD000FFFFFFFFFFFFFFFFFFFFFEF8F8F0F1F11D
:104DE000F1F1F1F1010000F0FFFFFFFFFFFFFF0312
:104DF00000703C3E3971F0F8F8F87F0F0E0C70002F
:104E000003FFFFFFFFFFFFFFF000000FFFFFFFFFAB
:104E1000FFFFFFFFFFFFFFFFFFFFFFFFFFFFFFFFA2
:104E2000FFFF1F0100E0FEFFFFFFFFFFFFFFFFFC92
:104E3000F0E0E3C4C888808D8F8F8CC8C4E3E0F0B5
:104E4000FCFFFFFFFFFFFFFFFFFEE000011FFFFF72
:104E5000FFFFFFFFFFFFFFFFFFFFFFFFFFFFFFFF62
:104E6000FFFFFFFCF8F8F8F8F8F8F8F8F8F8F8F8A9
:104E7000F8F8F8F8F8F8F8F8F8F8F8F8F8F8F8F8B2
:104E8000F8F8F8F8F8F8F8F8F8F8F8F8FCFFFFFF89
:104E9000FFFFFFFFFFFFFFFFFFFFFFFFFFFFFFFF22
:104EA000BF1F1F1F1F1F1F1F1F1F1F1F1F1F1F1F72
:104EB0001F3FFFFFFFFF3F1F1F1F1F1F1F1F1F1F42
:104EC0001F1F1F1F1F1F1FBFFFFFFFFFFFFFFFFF52
:104ED000FFFFFFFFFFFFFFFFFFFFFFFFFFFFFFFFE2
:104EE000FFE0E00007E7E7E7E7E7E7E7E7070700B6
:104EF000E0F8FFFFFFFFF8E0000707E7E7E7E7E775
:104F0000E7E7E70700E0E0FFFFFFFFFFFFFFFFFF2E
:104F1000FFFFFFFFFFFFFFFFFFFFFFFFFFFF7F3FE1
:104F20003F1F1F00001F1F1F1F1F1F1F1F0000000C
:104F30001F1F1F1F1F1F1F1F0000001F1F1F1F1FDE
:104F40001F1F1F00001F1F3F3F7FFFFFFFFFFFFFCF
:104F5000FFFFFFFFFFFFFFFFFFFFFFFFFF0100005D
:104F60008E8F8F8F8F8F8F8FFFFFFFFFFFFFFFFFD2
:104F7000FFFFFFFFFFFFFFFFFFFFFFFFFFFFFF9FA1
:104F80008F8F8F8F8F8F8F8E000001FFFFFFFFFFAE
:104F9000FFFFFFFFFFFFFFFFFFFFFFFF0100001EFE
:104FA0001F1F1F1F1F1F1F1F1F1F1F1F1F1F1F1F11
:104FB0001F1F1F1F1F1F1F1F1F1F1F1F1F1F1F1F01
:104FC0001F1F1F1F1F1F1F1F1E000001FFFFFFFFCE
:104FD000FFFFFFFFFFFFFFFFFFFFFFFF3F0000C0DE
:104FE000FFFFFFFFFFFFFFFFFFFFFFFFE000001FCE
:104FF000FFFFFFFFFFFFFFFF1F0000E0FFFFFFFFBE
:10500000FFFFFFFFFFFFFFFFC000003FFFFFFFFFAD
:10501000FFFFFFFFFFFFFFFFFFFF1F0F00C0C0C725
:10502000C7C7C7C7C7C7C7C7C7C7C7C7C7C0C000E5
:105030000F1FFFFFFFFF1F0F00C0C0C7C7C7C7C7B5
:10504000C7C7C7C7C7C7C7C7C7C0C0000F1FFFFFB5
:10505000FFFFFFFFFFFFFFFFFFFFFCF8F8F8F1F194
:10506000F1F1F1F1F1F1F1F1F1F1F1F1F1F1F1F829
:10507000F8FEFFFFFFFFFEFCF8F8F1F1F1F1F1F1AE
:10508000F1F1F1F1F1F1F1F1F1F1F8F8F8FCFFFFD4
:10509000FFFFFFFFFFFF7F3F1F0FC7C3E3E3F1F9F0
:1050A000F8F8FCFCFCFCF8F8F9F1E3E3C3C70F1FC8
:1050B0003F7FFFFF0F03C0F8FCFFFFFF7F3F3F3F35
:1050C0003F3F3F3F3F2303070F1F3F7FFFFFFFFC93
:1050D000F8C0030FF0C0031F3FFFFFFFFEFCFCFC06
:1050E000FCFCFCFCFCC4C0E0F0F8FCFEFFFFFF3F52
:1050F0001F03C0F0FFFFFEFCF8F0E3C3C7C78F9F9C
:105100001F1F3F3F3F3F1F1F9F8FC7C7C3E3F0F8DD
:10511000FCFEFFFFFFFF7F3F1F0FC7C3E3E3F1F973
:10512000F8F8FCFCFCFCF8F8F9F1E3E3C3C70F1F47
:105130003F7FFFFF0F03C0F8FCFFFFFF7F3F1F0F04
:105140000703233F3F3F3F3F3F3F3F7FFFFFFFFCC2
:10515000F8C0030FF0C0031F3FFFFFFFFEFCF8F095
:10516000E0C0C4FCFCFCFCFCFCFCFCFEFFFFFF3FC1
:105170001F03C0F0FFFFFEFCF8F0E3C3C7C78F9F1B
:105180001F1F3F3F3F3F1F1F9F8FC7C7C3E3F0F85D
:10519000FCFEFFFF943C0008944600089438000889
:1051A0009444000894480008943E0008943600088F
:1051B000943A00089440000894420008944A000879
:1051C000944C0008944E0008010000000A00000002
:1051D00014000000280000003200000064000000FD
:1051E000C8000000F4010000E80300000400070705
:1051F0002526010102030100000200010040404099
:105200004040404040404141414141404040404099
:105210004040404040404040404040404005020245
:105220000202020202020202020202020220202004
:105230002020202020202002020202020202909060
:10524000909090901010101010101010101010105E
:1052500010101010101010100202020202028888B2
:1052600088888888080808080808080808080808BE
:1052700008080808080808080202020240000000A6
:10528000FD5100084974656D322D31004974656D1A
:10529000310000004974656D322D32004974656D2E
:1052A000320000004974656D322D33004974656D1C
:1052B000330000004974656D322D34004974656D0A
:1052C000340000004974656D322D35004974656DF8
:1052D00035000000F452000800000020D00000005B
:1052E00028270008C4530008D0000020F817000049
:1052F0003827000800000000000000000000000047
:10530000000000008C520008B91000089C520008F0
:10531000DD100008AC520008F9100008BC5200086B
:10532000FB100008CC520008FD1000088452000851
:10533000112100089452000813210008A45200080B
:1053400015210008B452000817210008C4520008B3
:1053500019210008000000000000000000040240C5
:105360000000000000000240000C0240001001405C
:105370000044004000040240000402400054004089
:1053800000580040000002400008024000080240AF
:10539000000000000000000000000000000000000D
:1053A00000000102030401020304060708090000CB
:1053B00000000000000000000000000000000000ED
:0453C00000000000E9
:040000050800018965
:00000001FF
