:020000040800F2
:10000000600C0020A1010008430F0008C50E000885
:10001000410F0008FD090008F51A00080000000063
:100020000000000000000000000000009111000826
:10003000AD0C0008000000006510000869120008FF
:10004000BB010008BB010008BB010008BB010008A0
:10005000BB010008BB010008BB010008BB01000890
:10006000BB010008BB010008BB010008BB01000880
:10007000BB010008BB010008BB010008BB01000870
:10008000BB010008BB010008BB010008BB01000860
:10009000BB010008BB010008BB010008BB01000850
:1000A000BB010008BB010008BB010008BB01000840
:1000B000BB0100089D130008BB010008BB0100083C
:1000C000BB010008BB010008BB010008BB01000820
:1000D000BB010008BB010008A1180008BB01000813
:1000E000BB010008BB010008BB010008BB01000800
:1000F000BB010008BB010008BB010008BB010008F0
:10010000BB010008BB010008BB010008BB010008DF
:10011000BB010008BB0100085D140008BB0100081A
:10012000BB010008BB010008BB010008BB010008BF
:10013000BB010008BB010008BB010008BB010008AF
:10014000BB010008BB010008BB010008BB0100089F
:10015000BB010008BB010008BB010008BB0100088F
:10016000BB010008BB010008BB010008BB0100087F
:10017000BB010008BB010008BB010008BB0100086F
:10018000BB010008BB010008DFF810D000F084FBC1
:10019000004800476D240008AFF30080600C002089
:1001A0000648804706480047FEE7FEE7FEE7FEE711
:1001B000FEE7FEE7FEE7FEE7FEE7FEE76D1200085A
:1001C0008901000830B505462A460B4612F8010B96
:1001D00013F8014B08B1A042F8D01CB1002802D09E
:1001E0006D1CF1E7284630BD70B50F4D00B9286889
:1001F000002412E00A4602E09E4203D0521C13780B
:10020000002BF9D1DAB2224305D02BB124B1002161
:1002100000F8011B04E00446401C0678002EE9D1DA
:100220002860204670BD00004800002070B50646DA
:1002300001F084FC046805460A220021304600F0E3
:100240002EFA2C6070BD2DE9FE4F804681EA030036
:10025000C00F0C46009021F0004123F00045B8EBA0
:100260000200A94105D24046214690461C460B4655
:10027000024623F00040104347D0270DC7F30A0081
:10028000C3F30A510290401A019040286BDAC3F37D
:10029000130040F4801B0098924620B10023D2EB5B
:1002A000030A63EB0B0B01985946C0F1400250461C
:1002B00000F0D4F906460D4650465946019A00F022
:1002C000DCF910EB08006141002487EA115284EA4E
:1002D000E7731A4340D0009A62B3019A012A4FEAA9
:1002E000075215DC001B61EB02014FF0004202EAED
:1002F0000752CDE90042001C41F5801132462B46E1
:1003000000F04BFA03B0BDE8F08F40462146F9E714
:10031000001B61EB0201001C41F5801300185B41DA
:100320002018A2F5001747EB030140EAD570B61973
:100330006D4111E06D084FEA360645EAC0754FEA97
:100340000752001B61EB0201001C41F580114908B6
:100350004FEA30000019514132462B4603B0BDE848
:10036000F04F00F00BBA0098012240000023D0EBC0
:10037000020263EBE073009821464FEAE074B8EBA9
:10038000000061EB0401E9E783F000435BE781F0E3
:10039000004158E72DE9FE4F81EA030404F00044D0
:1003A00021F0004100944FF0000B23F0004350EA8D
:1003B00001045ED052EA03045BD0C3F30A54C1F3D4
:1003C0000A552C44A4F2F3340194A0FB0254C1F367
:1003D000130141F48011C3F3130343F4801301FBB1
:1003E000024400FB034E840A970A44EA815447EA18
:1003F0008357A4FB076802958D0A05FB07854FEA22
:10040000932C04FB0C542705029D4FEA065847EA3B
:100410001637B5EB08056EEB070C870E920E47EA10
:10042000811742EA8312A7FB0201B6EB0B0164EBD2
:1004300000042B0D43EA0C335E1844EB1C50DA46E3
:100440005146E7FB0201C5F313044FEA0B3343EABD
:1004500014534FEA0432019C43EA0603A4F10C044E
:100460000294009CCDE900B400F097F903B0BDE818
:10047000F08F00200146F9E72DE9F04D81EA0304F1
:1004800004F0004B21F0004514464FF0000A23F021
:10049000004150EA050220D054EA01021DD0C5F304
:1004A0000A570246C5F31303C1F31300C1F30A56FA
:1004B00040F4801543F48013A7EB0608101BD646C2
:1004C00008F2FD3873EB050002D308F1010801E0E2
:1004D00092185B41B8F1000F03DA00200146BDE835
:1004E000F08D00204FF48011064684460EE0171B65
:1004F00073EB050705D3121B63EB050306434CEAB8
:10050000010C49084FEA300092185B4150EA01079C
:10051000EDD152EA030012D082EA040083EA050119
:10052000084305D0101BAB4106D20122002306E090
:1005300000224FF0004302E06FF0010253101AEB6B
:1005400006004CEB085110EB0A0041EB0B01BDE833
:10055000F04D00F013B90EB540F233410291002185
:10056000CDE900110A460B4600F017F903B000BDB3
:1005700000F0004230F000400AD0C10D01F560717A
:10058000C0F3160042EA0151C20840071143704708
:1005900000200146704701F0004330B421F00041D3
:1005A00050EA010206D00A0DA2F56072C1F31301F0
:1005B000002A02DC30BC00207047440F44EAC1042A
:1005C000C100E01830BC00EBC25000F0A0B830B55C
:1005D0000B46014600202022012409E021FA02F501
:1005E0009D4205D303FA02F5491B04FA02F528449B
:1005F000151EA2F10102F1DC30BD2DE9F05F0546C8
:10060000002092469B4688460646814640241BE0D1
:10061000284641464746224600F050F953465A467E
:10062000C01A914110D311461846224600F016F820
:100630002D1A67EB01084F4622460120002100F0E9
:100640000DF817EB00094E41201EA4F10104DFDC78
:10065000484631462A464346BDE8F09F202A04DB3F
:10066000203A00FA02F1002070479140C2F12003C5
:1006700020FA03F3194390407047202A06DBCB177A
:10068000203A41FA02F043EAE07306E041FA02F34D
:10069000D040C2F1200291400843194670472DE92D
:1006A000F04791460F4680460446002614F8015B49
:1006B0002DB100F013F90068405DC007F6D12B2D75
:1006C00002D02D2D18D0641E4A463946204600F02F
:1006D00009F927B13968A14201D1C7F80080710535
:1006E0004FF002040BD54042002803DD01F026FA4A
:1006F0000460A007BDE8F08746F48066E4E70028C0
:10070000F8DA01F01BFA04606FF00040F2E700290C
:10071000A8BF7047401C490008BF20F00100704787
:1007200010B4B0FA80FC00FA0CF050EA010404BFE7
:1007300010BC704749B1CCF1200421FA04F411FA3D
:100740000CF118BF012121430843A3EB0C01CB1D81
:100750004FEA00614FEA102042BF002010BC7047F2
:1007600000EBC35010440029A4BF10BC7047401CCC
:10077000490008BF20F0010010BC704710B5141EDE
:1007800073F1000408DA401C41F1000192185B414A
:100790001A4301D120F0010010BD2DE9F04D924621
:1007A0009B4611B1B1FA81F202E0B0FA80F2203238
:1007B0009046FFF753FF04460F4640EA0A0041EA1D
:1007C0000B0153465A46084313D0114653EA010021
:1007D00019D0C8F14002504600F070F805460E46A8
:1007E000504659464246FFF739FF084305D00120DD
:1007F00004E020463946BDE8F08D0020054346EA76
:10080000E0762C4337430A986305E40AA0EB08001E
:100810000022FD0A44EA47540A3002D5002001466E
:10082000E9E7010510196941DDE908450019694149
:10083000BDE8F04DA2E7C1F30A52C1F3130140F243
:10084000FF3341F480119A4202DA002001467047DA
:1008500040F233439A42A2F2334202DC524200F0A9
:100860002DB8FFF7FBBE000030B5041E71F1000487
:1008700004DB4FF00044404264EB0101141E73F1AD
:10088000000405DB1C464FF00043524263EB0403B7
:10089000994208BF904230BD064C074D06E0E06823
:1008A00040F0010394E8070098471034AC42F6D3B7
:1008B000FFF76EFCEC2600080C270008202A04DB5A
:1008C000203A21FA02F00021704721FA02F3D040C9
:1008D000C2F1200291400843194670470048704712
:1008E000E82600082DE9F05F8246007800271546CB
:1008F0008B460AF10104B946302801D09DB113E0BE
:1009000014F8010B0127782803D0582801D045B1ED
:100910000AE00DB1102D07D10027102514F8010BA6
:1009200002E0082500E00A250026B0460EE005FB9F
:10093000080005FB06F1012701EB10461FFA80F8BD
:10094000B6F5803F00D3B94614F8010B294600F0F4
:1009500018F80028EBDABBF1000F05D00FB1641EC8
:1009600000E05446CBF80040B9F1000F06D001F08A
:10097000E5F802210160C81EBDE8F09F48EA064084
:10098000FAE73A2800D2303820F02002412A01D379
:10099000A2F13700884201D34FF0FF3070470000CA
:1009A0007FB504460D460121102000F06BFB0026A8
:1009B000ADF806606D1E0295641EADF804400E4C45
:1009C00001A9204600F05CFE01221146204600F0FD
:1009D000E3FD36218DF8001001218DF803108DF80C
:1009E00001108DF80260684600F0ACFA0121204643
:1009F00000F057FD7FBD000000100040FEE7000042
:100A00001CB50446002C03D10121084600F02CFB44
:100A1000064830F81400009000208DF804000448C7
:100A2000694650F8240000F067F91CBD62260008F2
:100A30003000002070B505462DED048B052001F037
:100A4000C5FD0446200039D000F0F6F8267860781D
:100A5000A278E37831181A4411442279914226D1C0
:100A6000FFF779FD9FED199B53EC192BFFF704FD60
:100A700041EC180B3046FFF76EFD53EC182BFFF7D7
:100A8000E2FBFFF788FD2860E078FFF764FD53EC98
:100A9000192BFFF7F1FC41EC180BA078FFF75BFD79
:100AA00053EC182BFFF7CFFBFFF775FD686020466E
:100AB000BDEC048BBDE8704001F0B0BCBDEC048B14
:100AC00004A0BDE8704001F017B80000000000006D
:100AD000000024404D656D6F727920616C6C6F630E
:100AE0006174696F6E206661696C65640D0A00004F
:100AF00070B5002400F02AF8134D04E0641CE4B241
:100B0000012000F0E7F80421284600F043F901280D
:100B100001D1502CF2D3502C01D3002070BD002401
:100B200004E0641CE4B2012000F0D4F8042128465B
:100B300000F030F908B9642CF3D3642C01D3012000
:100B400070BD022070BD0000000002401CB50121F4
:100B5000084600F089FA0420009000208DF8040077
:100B60006946024800F0C8F81CBD000000000240C1
:100B70001CB50121084600F077FA042000900120FE
:100B80008DF8040000208DF8060003208DF8050084
:100B900002208DF80700054C6946204600F0ACF8AD
:100BA00001220421204600F001F91CBD0000024092
:100BB00070B50024184D04E0641CA4B2012000F0BC
:100BC00089F80421284600F0E5F808B1642CF3D335
:100BD000002404E0641CA4B2012000F07BF804218E
:100BE000284600F0D7F8012801D0642CF2D3412028
:100BF00000F070F80421284600F0CCF8012806D057
:100C00000421284600F0C6F818B1032070BD012069
:100C100070BD002070BD00000000024070B50024CF
:100C200000204006050EFFF7C3FF2843641CA4B252
:100C3000082CF6D370BD000070B50546002400F006
:100C40001DF8FFF755FF022804D0BDE8704005A04D
:100C500000F052BFFFF7E2FF2855641CE4B2052CF8
:100C6000F8D370BD44485431315F496E697469618D
:100C70006C5F4661696C65640D0A000010B5FFF792
:100C800077FF094C00220421204600F08FF8142041
:100C900000F00DF801220421204600F087F8BDE89D
:100CA00010401E2000F016B80000024070474FF0C0
:100CB000E02100220A6140F6412358434B1703EB21
:100CC000C00048618A61012008610869C003FCD541
:100CD0000A6170474FF0E02100220A61C0EBC000BA
:100CE00000EB4000401E48618A61012008610869EC
:100CF000C003FCD50A6170472DE9F04100220127AD
:100D00004FF0030C07FA02F50B682B40AB422CD1D5
:100D1000066853000CFA03F4A64306600E79D0F877
:100D200000809E4046EA080606600E79012E01D03A
:100D3000022E12D18668A64386604E79D0F80880CC
:100D40009E4046EA080686604668AE4346604568AF
:100D50008E799640B6B235434560C568A543C560F7
:100D6000CC799C40C3681C43C460521C102AC9D370
:100D7000BDE8F08110B54B07DB0E9A40C90800EBC7
:100D80008100016A0F249C40A1430162016A114362
:100D9000016210BD0246002012690A4200D0012003
:100DA000704709048161704781617047002A01D052
:100DB00081617047090481617047000070B586B099
:100DC00006460D4600F0B8FB0024ADF81440ADF81F
:100DD0000E406D1E0495761EADF80C600F4D03A9F4
:100DE000284600F04DFCADF80040ADF80840ADF8E5
:100DF0000240ADF806400121ADF8041069462846CE
:100E000000F069FB01220321284600F0C5FB012107
:100E1000284600F046FB06B070BD0000000400400C
:100E200010B59FED150A15490878000622D50878F7
:100E300000F03F00C0EB0040114A1288104480B21D
:100E400000220A70FFF787FB9FED0E1B53EC112B5E
:100E5000FFF712FB9FED0D1B53EC112BFFF79AFAD6
:100E60009FED0C1B53EC112BFFF794FAFFF793FB4C
:100E700000EE100A10BD0000000000003400002049
:100E80003A0000200000000080842E410000000095
:100E900000406540000000000000594010B5084CBB
:100EA000012202212046FFF781FF1420FFF712FFE5
:100EB00020460022BDE810400221FFF777BF000066
:100EC00000000240FEE700001CB50446002C03D1E0
:100ED0000121022000F0C8F80B4830F814000090FF
:100EE00001208DF8040000208DF8060003208DF805
:100EF000050002208DF807000448694650F82400D8
:100F0000FFF7FAFE1CBD000058260008180000205C
:100F10000349044A31F8101052F82000FFF741BF8E
:100F200058260008180000200349044A31F8101020
:100F300052F82000FFF738BF58260008180000209C
:100F4000FEE7704730B50F23C27801250178002AEB
:100F50001FD0154A126802F4E062C2F5E062C2F3E3
:100F60000722C2F10404D3404278A24084781C4096
:100F70001443220101F1E02181F80024007800F0FF
:100F80001F018D404009800000F1E020C0F80051B1
:100F900030BD01F01F0085404809800000F1E020CD
:100FA000C0F8805130BD00000CED00E0024908435C
:100FB00002490860704700000000FA050CED00E0EF
:100FC00030B589B005460C4600F02CF801210846E2
:100FD00000F058F80794ADF818500024ADF81A4006
:100FE0004FF0804506A9284600F04AFB6021ADF885
:100FF00004100121ADF806100394ADF8104001A9CA
:10100000284600F0D3FA0821284600F009FB012108
:10101000284600F037FA0121284600F042FA09B0CC
:1010200030BD00001CB50121084600F01DF820204D
:10103000009002208DF8040001208DF805000020AA
:101040008DF806008DF80700054C69462046FFF72D
:1010500053FE012205212046FFF78CFE1CBD000037
:101060000000024070470000054A002903D01168C3
:10107000014311607047116881431160704700009F
:1010800030380240054A002903D01168014311603D
:10109000704711688143116070470000403802407A
:1010A000054A002903D01168014311607047116897
:1010B00081431160704700004438024070B5244BF2
:1010C000196801F00C01234C00291ED06610042978
:1010D0001DD008291DD00460196801F0F00109092C
:1010E0001D4A545C0168E14041601C6804F4E0540E
:1010F000A40A145D21FA04F484601B6803F46043BD
:101100005B0BD25CD140C16070BD0460E4E7066057
:10111000E2E70F4A121F1168C1F38055116801F010
:101120003F0135B1B6FBF1F11468C4F38814614393
:1011300005E0B4FBF1F11468C4F38814614312684C
:10114000C2F30142521C5200B1FBF2F10160C3E74D
:10115000083802400024F400000000201CB50121E2
:101160000846FFF781FF0220009000218DF806104D
:1011700001218DF8041003218DF805108DF807006A
:1011800069460248FFF7B8FD1CBD000000000240A0
:10119000704700000CB500220192009227490868B0
:1011A00040F4803008604FF4A043086800F4003039
:1011B00000900198401C0190009810B90198984245
:1011C000F3D10868800302D50120009000E000926E
:1011D0000098012831D119484030026842F080520D
:1011E00002601748026842F4404202601348083027
:1011F00002680260026842F400420260026842F43F
:10120000A0520260021F0F4B13600A6842F0807206
:101210000A600A689201FCD50B4A40F20571116020
:10122000016821F003010160016841F002010160E1
:101230000168C1F381010229FAD10CBD00380240D6
:101240000070004008544007003C02404FF0E0218D
:10125000042804D0086920F0040008617047086978
:1012600040F00400086170477047000010B5124854
:10127000016841F4700101601048016841F001010A
:1012800001600E4A00210832116002680C4B1A40BE
:101290000260031D0B4A1A60026822F48022026079
:1012A00006480C300160FFF775FF03494FF00060FE
:1012B0008039086010BD000088ED00E00038024071
:1012C000FFFFF6FE103000246FF00400FFF7BEBFF2
:1012D00070B5048C24F001040484058B048C25F083
:1012E000F3054FF6FF7606EA031313432B4324F06E
:1012F0000A020A4342F001010383018470BD70B504
:10130000048C24F010040484058B068C4FF6FF74C3
:1013100004EA011125F4734504EA03332B4304EA7C
:1013200002221A4326F0A0030B4343F0100102836C
:10133000018470BDF0B5048C24F480740484868B21
:10134000058C4FF6FF7707EA012426F0F30607EA3B
:1013500003111143314325F42062224342F4807289
:1013600081830284F0BD70B5048C24F4805404841D
:10137000858B068C4FF6FF7404EA013125F4734522
:1013800004EA02222A4304EA0333134326F42042E8
:101390000A4342F480518383018470BD70B52D4CA3
:1013A00020782D4D00064ED40121284600F087F804
:1013B000012809D12078400606D52078C043800650
:1013C00009D02178491C21700221284600F077F8C5
:1013D000012812D037E020482030018821F0020196
:1013E00001800021284600F015F9207840F08000A7
:1013F00020704FF6FF70E080E6E7207840060CD5BD
:10140000207840F080002070284600F056F8E080F8
:101410000021284600F0FEF815E000212170E1804F
:10142000207840F040002070284600F03AF8002173
:10143000284600F0FBF80221284600F0EBF80121D5
:10144000284600F02EF82846BDE87040032100F041
:1014500025B80000340000200004004010B5084CFE
:101460000121204600F02BF8012807D100F062F995
:101470002046BDE81040012100F010B810BD00006A
:1014800000100040002904D0018841F08001018053
:101490007047018821F0800101807047C9430182B3
:1014A0007047002904D0018841F001010180704794
:1014B000018821F0010101807047406B70470246AE
:1014C0000020138A0B4092890A40002B02D0002A88
:1014D00000D00120704770B506460C46258861880B
:1014E000A2882389002D0CD0042D13D0082D1AD0EA
:1014F0003046FFF738FFE1883046BDE8704000F025
:10150000B3B83046FFF7E4FEE1883046BDE87040EE
:1015100000F08EB83046FFF7F2FEE1883046BDE8B5
:10152000704000F08DB83046FFF704FFE188304688
:10153000BDE8704000F090B83EB501210846FFF7C5
:1015400093FD01210220FFF79DFD40200190002026
:101550008DF80A0002208DF8080003218DF809108B
:101560008DF80B000B4C01A92046FFF7C5FB0222AA
:1015700006212046FFF7FEFB1D208DF8000001200C
:101580008DF803008DF801008DF802006846FFF722
:10159000D9FC3EBD00000240002A03D082890A43E4
:1015A0008281704782898A438281704730B5028C7C
:1015B00022F001020284058C8388028B22F07002E3
:1015C00022F003020C88144325F002028D89154392
:1015D0004A882A430D4DA84202D00D4DA8420FD192
:1015E00022F00805CA892A4322F004058A882A4382
:1015F00023F4807323F400730D8A1D434B8A2B431D
:101600008380048389684163028430BD0000014007
:1016100000040140028C22F002020A430284704757
:10162000028B22F008020A4302837047416270472E
:10163000028B22F00C020283028B0A430283704762
:10164000028B22F440620283028B4FF6FF7303EA9F
:1016500001210A4302837047828B22F00C028283AD
:10166000828B0A4382837047828B22F4406282839A
:10167000828B4FF6FF7303EA01210A43828370478E
:1016800030B50288164C174DA0420DD0A8420BD0A1
:10169000B0F1804F08D0144B984205D0134B9842BC
:1016A00002D0134B984203D122F070034A881A43A8
:1016B000104B984206D0104B984203D022F440734E
:1016C0000A891A4302804A68C2620A880285A042D7
:1016D00001D0A84201D1897A01860121818230BDE1
:1016E00000000140000401400004004000080040E8
:1016F000000C004000100040001400400121814017
:10170000024802788A4302707047000010000020EF
:1017100001218140014800780840704710000020F6
:101720000121814002480278114301707047000096
:101730001000002010B50D4B5868401C5860002068
:1017400058700B4C0EE05878596854F82000B1FBE3
:10175000F0F200FB121010B95878FFF7E1FF58784B
:10176000401C587058780828EDD310BD1000002098
:10177000382600082DE9F04188B004460F46002CB9
:1017800002D0012C05D008E001210846FFF76CFCCF
:1017900003E001210820FFF767FC14B1012C05D0FC
:1017A00008E001211020FFF77BFC03E00121480441
:1017B000FFF768FC14B1012C04D005E04FF4C060C1
:1017C000069001E06020069002208DF81C000320A6
:1017D0008DF81D0000258DF81E508DF81F502E4EDF
:1017E00006A956F82400FFF787FADFF8B08014B195
:1017F000012C0DD018E098F8002009213068FFF77F
:10180000B9FA98F800200A213068FFF7B3FA0BE024
:1018100098F8012005217068FFF7ACFA98F80120CC
:1018200006217068FFF7A6FA0297ADF814500C2055
:10183000ADF81200ADF81050ADF80E50ADF80C50E8
:10184000154D02A9083555F8240000F0B9F8012C0F
:101850001AD1012240F22551686800F096F80F482D
:10186000801C40788DF8040001208DF807000B489B
:10187000001D40788DF805000848801D40788DF8DF
:10188000060001A8FFF75EFB55F82400012100F0D7
:1018900049F808B0BDE8F081200000205A26000871
:1018A00070B5174C40F225552946204600F04DF8FA
:1018B000002815D02946204600F02CF8204600F0DC
:1018C000F5F8C0B20F4A0123D17851B101290CD0EB
:1018D000022905D1242803D193700020D070107103
:1018E00070BD5328FCD1D37070BD452805D0064B80
:1018F00011795854491C117170BD0220D07070BD0F
:1019000000440040340000205B0100208A05C943E8
:101910000180704740F66A120A0A01219140C943CA
:1019200001807047002904D0818941F400518181F0
:101930007047818921F4005181817047024600205F
:1019400012880A4200D00120704770B5002440F68A
:101950006A12C1F3421301F01F05012606FA05F2CF
:10196000012B0CD0022B0DD0838A1340090A8E4024
:10197000008830400BB100B10124204670BD83893E
:101980001340F3E7038A1340F0E710B540F66A13FB
:10199000C1F3421301F01F040121A140012B07D024
:1019A000022B07D014303AB102680A43026010BD1E
:1019B0000C30F8E71030F6E702688A43026010BD89
:1019C0007FB504460D46208A20F44051E88808433C
:1019D0002082A08941F20C618843A9882A89114399
:1019E0006A8902431143A181A08A20F44071A88929
:1019F0000843A0826846FFF761FB1E48844202D07C
:101A00001D48844201D1039800E00298A18909048D
:101A100008D500EBC00101EB001029684900B0FBBC
:101A2000F1F007E000EBC00101EB0010296889002C
:101A3000B0FBF1F06422B0FBF2F109010B096FF089
:101A400018056B4300EB8300A3891D044FF032039C
:101A500007D503EBC000B0FBF2F000F0070008432D
:101A600006E003EB0010B0FBF2F000F00F000843BB
:101A700020817FBD00100140001401400FB470B5FB
:101A80000546084C06AA22600748059900F044F86C
:101A9000002121600449284600F010F870BC5DF870
:101AA00014FB00001C0000205C0000208088C0F3B4
:101AB00008007047C1F308018180704770B5054682
:101AC0000C4680212846FFF721FF0DE0641C2846C4
:101AD000FFF7F0FF80212846FFF730FF0028F9D0FC
:101AE00080212846FFF712FF002C02D02178002920
:101AF000ECD170BDFEE700000FB4054B10B503A993
:101B0000044A029800F0F0F810BC5DF814FB0000E5
:101B1000F92300084C00002037B514460846064B50
:101B20006A46214600F0E0F804466946002000F0CD
:101B30005EFC20463EBD0000EF23000800487047D1
:101B40005800002002E008C8121F08C1002AFAD17C
:101B500070477047002001E001C1121F002AFBD12D
:101B6000704700002DE9FF5F82B00021DDE90430FD
:101B7000020DDDF840B0034318D044F61050A2F235
:101B8000FF3242431514119801281FD0A5EB0B001A
:101B9000401C5FEA000A4FF000064E4FDFF8389114
:101BA000B046504615D5CAF1000413E0119801243F
:101BB0004AA3012801D16FEA0B010298119AC0E9EA
:101BC0000031C0E9024206B0BDE8F09FCBF1000051
:101BD000DFE704460021404A491842EB0450CDE9B2
:101BE000001012E0E00707D032463B464046494627
:101BF000FEF7D0FB8046894632463B4610461946E2
:101C0000FEF7C8FB06460F466410002CEAD1DDE95A
:101C10000401DDE90023BAF1000F06DAFEF7BAFB92
:101C200042464B46FEF7B6FB05E0FEF725FC424672
:101C30004B46FEF721FC04460E460022284BFEF7D9
:101C400013FE03D84FF0FF30014607E00022254B7A
:101C500020463146FEF7F7FAFEF7EDFD102409E0C5
:101C6000002C0ADB0A220023FEF7C7FC039B30325C
:101C70001A55641E50EA0102F2D1641C039AC4F1A1
:101C800011031444119A012A03D0012208430DD1F3
:101C90000AE0084304D000204FF0110B119072E7C6
:101CA000A3EB0B056D1E0DE05B4504DD4FF000025C
:101CB00005F1010504E003DA4FF00002A5F101058A
:101CC000002AECD002981199C0E90231C0E9004520
:101CD00079E70000000014400000F03F30000000F1
:101CE0000000F0430000E03F2DE9FF4F95B09A4619
:101CF000884606460025EEE1252877D100242746B0
:101D0000F94A0121039400E0044316F8013F203B07
:101D100001FA03F01042F7D130782A2811D06FF081
:101D20002F033078A0F13002092A16D8039A44F024
:101D3000020402EB820203EB42021044761C039081
:101D4000EFE758F8042B0392002A03DA504244F4D8
:101D50000054039044F00204761C30782E2816D1EB
:101D600016F8010F44F004042A280DD06FF02F025A
:101D70003078A0F13003092B09D807EB870302EB79
:101D80004303C718761CF3E758F8047B761C3078B9
:101D90006C280FD006DC4C2817D068280DD06A2894
:101DA00014D104E0742810D07A280FD10DE044F447
:101DB00000140AE044F4801401E044F44014727802
:101DC000824202D104F58014761C761C3078662895
:101DD0000BD013DC582877D009DC002875D04528B3
:101DE000F6D04628F4D047281AD193E118E06328AA
:101DF00035D0642879D0652812D18BE1702873D052
:101E000008DC6728F1D069286FD06E280DD06F28C4
:101E100006D1ACE073282CD0752874D0782853D024
:101E20005246179990476D1C54E1C4F302500228A2
:101E300009D003280DD0D8F8001004280DD00D606B
:101E400008F1040846E1D8F80010EA17C1E9005289
:101E5000F6E7D8F800100D80F2E70D70F0E718F8FB
:101E6000041B8DF8001000208DF80100EB460120C6
:101E700003E058F804BB4FF0FF3061074FF000015A
:101E800002D40DE009F101018946B9420FDA81451A
:101E9000F8DB1BF809100029F4D108E009F1010171
:101EA00089468142FADB1BF809100029F6D1039814
:101EB0005346A0EB090721463846179A00F080FAEE
:101EC000284400EB090507E044E008E10DE01BF8B9
:101ED000010B524617999047B9F10109F7D25346C1
:101EE00021463846179AF2E039E00A21C4F302523B
:101EF0004FF0000B0091022A06D058F8040BC117CE
:101F0000032A09D00AE023E008F1070020F00702C5
:101F1000F2E80201904605E000B2C117042A01D19F
:101F200040B2C117002906DA0A460021404261EB9F
:101F300002012D2202E0220504D52B228DF8042077
:101F4000012203E0E20701D02022F7E7914657E0A3
:101F50000A2100E010214FF0000B00910BE010214E
:101F60004FF0000B44F004040827009103E0082020
:101F70004FF0000B0090C4F30252022A05D058F82B
:101F8000040B0021032A08D008E008F1070020F024
:101F90000702F2E80201904603E080B2042A00D171
:101FA000C0B24FF0000922072AD53278702A07D034
:101FB000DDF800C08CF0100C5CEA0B0C05D00EE0D4
:101FC00040228DF80420012208E050EA010306D0E7
:101FD00030238DF804308DF8052002229146009BB5
:101FE00083F0080353EA0B030AD150EA010201D13E
:101FF000620705D530228DF804204FF001097F1EBD
:102000003278582A04D039A20C920CAA02920BE022
:102010003BA2F9E75B46009AFEF7EFFA0C9B9B5C4C
:10202000029A521E0292137050EA0102F2D10298F3
:1020300004A9081A00F1200B600702D524F48034AB
:1020400000E001275F4502DDA7EB0B0000E0002068
:1020500000EB0B01009003984944401A0390E00301
:1020600006D453462146179A039800F0A9F905446F
:10207000002706E001A85246C05D179990476D1CE5
:102080007F1C4F45F6DBE0030CD553462146179ADB
:10209000039800F095F9054404E030205246179962
:1020A00090476D1C0099481E00900029F5DC08E05F
:1020B0000298029952460078491C0291179990475C
:1020C0006D1CBBF10001ABF1010BF1DC5BE100F039
:1020D00065F90544761C307800287FF40DAE19B000
:1020E0002846BDE8F08F0000092801003031323366
:1020F0003435363738396162636465660000000044
:10210000303132333435363738394142434445462D
:1021100000000000600700D4062708F1070020F047
:102120000700F0E80223804603F0004C5FEA0C0051
:1021300001D097A009E0200501D596A005E0E007B1
:1021400001D095A001E0AFF24C001390307823F05D
:10215000004365280CD006DC452809D046281DD050
:1021600047287FD13BE0662818D067287AD136E02F
:102170000021112F01DB112000E0781CCDE90001C6
:1021800004A90CA8FFF7EEFCDDE90D010C9A4FF055
:10219000000B07F10109109200914EE04FF0004052
:1021A0000097CDE9011004A90CA8FFF7DBFCDDE9DD
:1021B0000D020C9B0F994FF0000B9146109300926B
:1021C00011B9791C00EB0109B7EB090003D4C0F188
:1021D000FF3B07F10109A9EB0700019042E0012F45
:1021E00000DA01270021112F01DD112000E038461F
:1021F000CDE9000104A90CA8FFF7B4FCDDE90D014D
:102200000C9A00914FF0000BB946109221070FD4A1
:10221000009A4A4503DA914601E0A9F10109B9F1B2
:10222000010F05DD109AA9F10101515C3029F4D0AC
:10223000B84202DA10F1040F03DA0121CDE90110EE
:1022400010E0002803DC8344A9EB000102E0411CFC
:10225000494500DD8946A0EB0B00401C01904FF082
:1022600000400290200705D40198484502DB4FF05A
:10227000FF30019000208DF84B0002980DF14B07C4
:10228000B0F1004F25D002200C902B200D90029829
:1022900000280CDA404202902D200D9007E00A2120
:1022A0000298FEF794F93031029007F8011D0C995D
:1022B000481E0C900029F2DC02980028EFD1791E0C
:1022C0000D980870307800F0200040F0450007F8C5
:1022D000020D11A8C01BC01D02901398007800B118
:1022E000012000EB0901019801EBE0710298014423
:1022F0000398401A401E0390E00306D4534621463B
:10230000179A039800F05CF805441398007818B108
:102310005246179990476D1CE00323D5534621463A
:10232000179A039800F04CF805441BE0BBF1000F2E
:1023300007DB0098584504DD1098179910F80B003A
:1023400001E0179930205246904701980BF1010B9C
:10235000401E05F10105019004D12E205246179927
:1023600090476D1CB9F10001A9F10109DEDC05E01F
:1023700017F8010B5246179990476D1C0299481E99
:1023800002900029F4DC53462146179A03989EE6F2
:102390002D0000002B000000200000002DE9F0417E
:1023A000044600251E461746880404D405E0394635
:1023B0002020B0476D1C641EF9D52846BDE8F08189
:1023C0002DE9F041044600251E469046C80301D57C
:1023D000302700E02027880404D505E04146384630
:1023E000B0476D1C641EF9D52846BDE8F0810A6827
:1023F000531C0B601070704770B50446064DE1B277
:102400002846FFF757FB40212846FFF797FA002898
:10241000F9D0204670BD00000010014010B5002822
:1024200021D0114B0022001F196803E0814203D81C
:102430000A4649680029F9D152B11368841A9C42AE
:1024400004D1006818441060104602E0506000E0BB
:10245000186039B102680B1A934203D10B681A4411
:1024600002604968416010BD500000201CB54FF467
:10247000C060FEF79BFD0020FEF726FD0020FEF762
:10248000BFFAFEF721FF4FF47A715420FEF788FA65
:1024900064215420FEF794FD4FF416542146002089
:1024A000FFF768F921460120FFF764F9FEF756FEB1
:1024B0004FF480315420FEF781FC30A0FFF71CFB65
:1024C000334E00270420FFF723F960B30420FFF701
:1024D00015F9FEF7A5FC86ED020A2D480C30FEF733
:1024E000A9FA707808B1FEF7D9FCB078D8B129A163
:1024F0002A48FDF767FE2AA1FDF776FE28A10020F5
:10250000FDF772FEFDF792FE04460A2C04D101206D
:1025100070700020FEF708FD0B2C03D177700020AF
:10252000FEF7F6FCB7700720FFF7F2F80028C9D0D5
:102530000720FFF7E3F8DFF8588008F10C08D8F817
:102540000400FEF715F804460D46D8F80000FEF723
:102550000FF841EC100B13A053EC102BCDE9004504
:10256000FFF7CAFAB068FEF703F841EC100B13A1AD
:1025700053EC102B1448FFF781FAA3E7416C6C2051
:10258000496E697469616C206973204F4B0D0A00B4
:1025900034000020536F6E69630000005B0100206F
:1025A0003D00000048756D693A256625253B546558
:1025B0006D703A2566430D0A00000000536F6E6986
:1025C000634469733A25660000440040F0B50B305F
:1025D000154D20F007010024144A0FE003688B42D8
:1025E0000BD38B4205D95E1A43184768C3E90067CD
:1025F00000E04368136002C004E0021D1068002878
:10260000ECD12046002802D1286808B10020F0BD96
:10261000064A07481060074A121A22F00702C0E96A
:10262000002401202860D7E754000020500000203B
:102630006402002060040020010000000A00000085
:10264000140000003200000064000000C800000018
:10265000F4010000E803000004000707252601013B
:1026600002030100004040404040404040404141A2
:102670004141414040404040404040404040404057
:1026800040404040400502020202020202020202F1
:1026900002020202022020202020202020202002EE
:1026A000020202020202909090909090101010107E
:1026B000101010101010101010101010101010101A
:1026C00002020202020288888888888808080808AE
:1026D000080808080808080808080808080808087A
:1026E0000202020240000000652600080C270008D4
:1026F000000000205C000000441B00086827000860
:102700005C000020040C0000541B000800000000C6
:102710000102030401020304060708090000000087
:102720000000000000040240000000000000024021
:10273000000C024000100140004400400000024034
:102740000000000000000000000000000000000089
:102750000000000000000000000000000000000079
:08276000000000000000000071
:040000050800018965
:00000001FF
