:020000040800F2
:10000000F0130020A1010008351D00084916000862
:10001000C51C00081D100008413000080000000049
:100020000000000000000000000000009126000811
:100030001D11000800000000811E0008A127000813
:10004000BB010008BB010008BB01000849250008EE
:10005000BB010008BB010008BB010008BB01000890
:10006000BB010008BB010008BB010008BB01000880
:10007000BB010008BB010008BB010008BB01000870
:10008000BB010008BB010008BB010008BB01000860
:10009000BB010008BB010008BB010008BB01000850
:1000A000BB010008BB010008BB010008BB01000840
:1000B000BB010008D5280008BB010008BB010008EF
:1000C000BB010008BB010008BB010008BB01000820
:1000D000BB010008BB010008E92D0008BB010008B6
:1000E000BB01000869200008BB010008BB01000833
:1000F000BB010008BB010008BB010008BB010008F0
:10010000BB010008BB010008BB010008BB010008DF
:10011000BB010008BB01000895290008BB010008CD
:10012000BB010008BB010008BB010008BB010008BF
:10013000BB010008BB010008BB010008BB010008AF
:10014000BB010008BB010008BB010008BB0100089F
:10015000BB010008BB010008BB010008BB0100088F
:10016000BB010008BB010008BB010008BB0100087F
:10017000BB010008BB010008BB010008BB0100086F
:10018000BB010008BB010008DFF810D000F0A0FBA5
:1001900000480047D93D0008AFF30080F01300206D
:1001A0000648804706480047FEE7FEE7FEE7FEE711
:1001B000FEE7FEE7FEE7FEE7FEE7FEE7A52700080D
:1001C00089010008D2B201E000F8012B491EFBD2E0
:1001D00070470022F6E710B513460A460446194652
:1001E000FFF7F0FF204610BD10B5044604E00B7881
:1001F00000F8013B03B1491C521EF8D2204610BD45
:1002000030B505460020034600E05B1C934205D252
:10021000EC5CC85C201A01D1002CF6D130BD000086
:1002200070B50F4D00B92868002412E00A4602E0BC
:100230009E4203D0521C1378002BF9D1DAB222432C
:1002400005D02BB124B1002100F8011B04E00446C5
:10025000401C0678002EE9D12860204670BD0000C1
:100260005400002070B5064602F032FF04680546CF
:100270000A220021304600F02EFA2C6070BD2DE9D4
:10028000FE4F804681EA0300C00F0C46009021F02B
:10029000004123F00045B8EB0200A94105D24046D9
:1002A000214690461C460B46024623F00040104370
:1002B00047D0270DC7F30A00C3F30A510290401A32
:1002C000019040286BDAC3F3130040F4801B0098C0
:1002D000924620B10023D2EB030A63EB0B0B01988B
:1002E0005946C0F14002504600F0D4F906460D468A
:1002F00050465946019A00F0DCF910EB08006141C4
:10030000002487EA115284EAE7731A4340D0009A26
:1003100062B3019A012A4FEA075215DC001B61EB18
:1003200002014FF0004202EA0752CDE90042001CF0
:1003300041F5801132462B4600F04BFA03B0BDE880
:10034000F08F40462146F9E7001B61EB0201001CDB
:1003500041F5801300185B412018A2F5001747EB08
:10036000030140EAD570B6196D4111E06D084FEAFE
:10037000360645EAC0754FEA0752001B61EB0201E1
:10038000001C41F5801149084FEA30000019514125
:1003900032462B4603B0BDE8F04F00F00BBA009890
:1003A000012240000023D0EB020263EBE0730098CF
:1003B00021464FEAE074B8EB000061EB0401E9E785
:1003C00083F000435BE781F0004158E72DE9FE4FE1
:1003D00081EA030404F0004421F0004100944FF04E
:1003E000000B23F0004350EA01045ED052EA0304FC
:1003F0005BD0C3F30A54C1F30A552C44A4F2F3347E
:100400000194A0FB0254C1F3130141F48011C3F322
:10041000130343F4801301FB024400FB034E840AE0
:10042000970A44EA815447EA8357A4FB0768029578
:100430008D0A05FB07854FEA932C04FB0C54270516
:10044000029D4FEA065847EA1637B5EB08056EEBF2
:10045000070C870E920E47EA811742EA8312A7FB28
:100460000201B6EB0B0164EB00042B0D43EA0C33E5
:100470005E1844EB1C50DA465146E7FB0201C5F317
:1004800013044FEA0B3343EA14534FEA0432019C3E
:1004900043EA0603A4F10C040294009CCDE900B4E5
:1004A00000F097F903B0BDE8F08F00200146F9E7AE
:1004B0002DE9F04D81EA030404F0004B21F00045E2
:1004C00014464FF0000A23F0004150EA050220D004
:1004D00054EA01021DD0C5F30A570246C5F31303BF
:1004E000C1F31300C1F30A5640F4801543F480139E
:1004F000A7EB0608101BD64608F2FD3873EB050083
:1005000002D308F1010801E092185B41B8F1000F35
:1005100003DA00200146BDE8F08D00204FF4801181
:10052000064684460EE0171B73EB050705D3121B26
:1005300063EB050306434CEA010C49084FEA30001F
:1005400092185B4150EA0107EDD152EA030012D044
:1005500082EA040083EA0501084305D0101BAB4181
:1005600006D20122002306E000224FF0004302E001
:100570006FF0010253101AEB06004CEB085110EB20
:100580000A0041EB0B01BDE8F04D00F013B90EB5C8
:1005900040F2334102910021CDE900110A460B4699
:1005A00000F017F903B000BD00F0004230F0004049
:1005B0000AD0C10D01F56071C0F3160042EA015185
:1005C000C20840071143704700200146704701F000
:1005D000004330B421F0004150EA010206D00A0D78
:1005E000A2F56072C1F31301002A02DC30BC0020C6
:1005F0007047440F44EAC104C100E01830BC00EB6E
:10060000C25000F0A0B830B50B46014600202022B1
:10061000012409E021FA02F59D4205D303FA02F50F
:10062000491B04FA02F52844151EA2F10102F1DC6F
:1006300030BD2DE9F05F0546002092469B46884676
:100640000646814640241BE028464146474622464E
:1006500000F050F953465A46C01A914110D3114642
:100660001846224600F016F82D1A67EB01084F468F
:1006700022460120002100F00DF817EB00094E4141
:10068000201EA4F10104DFDC484631462A464346D9
:10069000BDE8F09F202A04DB203A00FA02F1002096
:1006A00070479140C2F1200320FA03F319439040B0
:1006B0007047202A06DBCB17203A41FA02F043EAC2
:1006C000E07306E041FA02F3D040C2F1200291400B
:1006D0000843194670472DE9F04791460F4680467A
:1006E0000446002614F8015B2DB100F013F90068F0
:1006F000405DC007F6D12B2D02D02D2D18D0641EE1
:100700004A463946204600F009F927B13968A14226
:1007100001D1C7F8008071054FF002040BD54042AB
:10072000002803DD02F0D4FC0460A007BDE8F087D8
:1007300046F48066E4E70028F8DA02F0C9FC0460B9
:100740006FF00040F2E70029A8BF7047401C490045
:1007500008BF20F00100704710B4B0FA80FC00FA26
:100760000CF050EA010404BF10BC704749B1CCF151
:10077000200421FA04F411FA0CF118BF01212143DD
:100780000843A3EB0C01CB1D4FEA00614FEA102098
:1007900042BF002010BC704700EBC350104400293A
:1007A000A4BF10BC7047401C490008BF20F00100E6
:1007B00010BC704710B5141E73F1000408DA401C19
:1007C00041F1000192185B411A4301D120F0010070
:1007D00010BD2DE9F04D92469B4611B1B1FA81F260
:1007E00002E0B0FA80F220329046FFF753FF044651
:1007F0000F4640EA0A0041EA0B0153465A460843B5
:1008000013D0114653EA010019D0C8F140025046F6
:1008100000F070F805460E46504659464246FFF72E
:1008200039FF084305D0012004E020463946BDE8E1
:10083000F08D0020054346EAE0762C4337430A98C2
:100840006305E40AA0EB08000022FD0A44EA4754CD
:100850000A3002D500200146E9E701051019694177
:10086000DDE9084500196941BDE8F04DA2E7C1F393
:100870000A52C1F3130140F2FF3341F480119A424E
:1008800002DA00200146704740F233439A42A2F256
:10089000334202DC524200F02DB8FFF7FBBE0000ED
:1008A00030B5041E71F1000404DB4FF000444042F7
:1008B00064EB0101141E73F1000405DB1C464FF0CC
:1008C0000043524263EB0403994208BF904230BD9B
:1008D000064C074D06E0E06840F0010394E807008D
:1008E00098471034AC42F6D3FFF752FC944000080E
:1008F000B4400008202A04DB203A21FA02F000214B
:10090000704721FA02F3D040C2F12002914008431F
:100910001946704700487047904000082DE9F05F85
:1009200082460078002715468B460AF10104B94635
:10093000302801D09DB113E014F8010B012778286D
:1009400003D0582801D045B10AE00DB1102D07D1D0
:100950000027102514F8010B02E0082500E00A2505
:100960000026B0460EE005FB080005FB06F1012756
:1009700001EB10461FFA80F8B6F5803F00D3B94668
:1009800014F8010B294600F018F80028EBDABBF147
:10099000000F05D00FB1641E00E05446CBF80040B4
:1009A000B9F1000F06D002F093FB02210160C81ECE
:1009B000BDE8F09F48EA0640FAE73A2800D230380E
:1009C00020F02002412A01D3A2F13700884201D34E
:1009D0004FF0FF307047002904D0816841F00101D9
:1009E00081607047816821F00101816070470000DB
:1009F00010B5074C226807490A40D0E90013194393
:100A0000D0E90230034319431143216010BD0000B7
:100A100004230140E030FCFF002904D0816841F448
:100A2000807181607047816821F4807181607047B6
:100A3000002904D0816841F40071816070478168A9
:100A400021F40071816070471CB50121084601F056
:100A500019FA0820009003208DF8040000208DF87A
:100A600007006946014800F064FC1CBD000002401C
:100A700030B542680F4B1A400C790B6842EA0422E9
:100A80001343436083680C4A1340D1E90342224375
:100A90004D798C6844EA450422431A438260C26A55
:100AA00022F47002097D491EC9B242EA0151C162B5
:100AB00030BD0000FFFEFFFCFDF7FFC070B507264C
:100AC00009290AD9C568A1F10A0404EB4404A64027
:100AD000B543A3401D43C56007E0056901EB410430
:100AE000A640B543A3401D4305611F23072A09D231
:100AF000446B521E02EB820293409C4391400C4394
:100B0000446370BD0D2A09D2046BD21F02EB82022E
:100B100093409C4391400C43046370BDC46A0D3AFA
:100B200002EB820293409C4391400C43C46270BD2F
:100B3000816841F0804181607047000008490028C9
:100B400006D0D1F8040340F40000C1F80403704754
:100B5000D1F8040320F40000C1F80403704700003A
:100B6000002001407FB5082295030021284601F0AE
:100B7000AAF801220221292001F01CF96C1200219F
:100B8000204601F043FA104AD3788DF800301379EB
:100B90008DF8013050798DF80200E00501906A4629
:100BA0002146002001F092FB0121080301F03AFBED
:100BB0000121204601F02AFA204601F0A7FA284632
:100BC00000F0D2FA7FBD00003C0000202DE9F04784
:100BD00007460E4614469846DDF820900FE0082C94
:100BE00001D3082500E025464B46424631463846AB
:100BF00000F092F82F44701986B2601B84B2002C6A
:100C0000EDD1BDE8F08700002DE9F041064614461D
:100C100001294DD03D4D012155F8240000F042FD41
:100C20003B4F2046394600F009FE55F824000022CB
:100C3000A02100F0B0FD3749204600F0FFFDF1B2E1
:100C400055F8240000F0B0FD32492046891C00F020
:100C5000F5FD55F82400012100F024FD3946204619
:100C600000F0ECFD55F824000122A02100F093FDD6
:100C7000791C204600F0E2FD55F82400002100F028
:100C8000E4FC55F82400012100F018FD204920461D
:100C90003F3100F0D3FD55F8240000F079FD064601
:100CA00055F82400012100F0D0FC3046BDE8F08169
:100CB000204600F015FF2146A02000F0CDFE204682
:100CC00000F060FF0128FAD1F0B2214600F0C4FE26
:100CD000204600F057FF0128FAD1204600F000FF1F
:100CE0002146A12000F0B8FE204600F04BFF01286D
:100CF000FAD1204600F07CFE06462146002000F096
:100D00003DFE204600F014FFCFE700002800002041
:100D100001000300820007002DE9F04105460E4660
:100D2000174698460024301980B242463946FFF7EC
:100D30006BFF2855641C082CF5DBBDE8F0812DE91C
:100D4000F84F07460A9C0E469A4606F00700C0F187
:100D50000808C2F3C70502F0070B002817D006F0F9
:100D60000700C0F1080006EB000975B3A2EB08000C
:100D7000C0F3C70500F0070B5346424631463846DC
:100D8000009400F0BDF81FFA89F6474444E08DB99D
:100D9000534631463846009400F0B2F8BDE8F88F6B
:100DA0005346082231463846009400F0A9F8083628
:100DB000B6B208376D1EEDB2F2D253465A463146EE
:100DC0003846009400F09CF8E8E7C34513D9ABEB34
:100DD0000800C5B25346424631463846009400F0FA
:100DE0008FF81FFA89F107EB080053462A46009452
:100DF00000F086F8D2E7534631463846009400F0BA
:100E00007FF8CBE75346082231463846009400F07D
:100E100077F80836B6B208376D1EEDB2F2D2BBF1E4
:100E2000000FBBD053465A4631463846009400F076
:100E300067F8B3E72DE9F04107460E461C46012A44
:100E400031D02C4D012155F8240000F02BFC2A490B
:100E5000204600F0F3FC55F824000022A02100F009
:100E60009AFC2649204600F0E9FCF1B255F824002E
:100E700000F09AFC21492046891E00F0DFFC55F85D
:100E80002400394600F090FC1C492046891C00F0E3
:100E9000D5FC55F82400012100F010FCBDE8F0411C
:100EA000022000F03CB9204600F01AFE2146A020A6
:100EB00000F0D2FD204600F065FE0128FAD1F0B224
:100EC000214600F0C9FD204600F05CFE0128FAD161
:100ED0002146384600F0C0FD204600F053FE0128B0
:100EE000FAD1204600F024FEBDE8F041022000F0D7
:100EF00016B900002800002001000300820007004E
:100F00002DE9F0410546DDF818800E4614461F46CF
:100F1000082C0AD9082408E015F8010B43463A4684
:100F20003146FFF787FF761CB6B2641EA4B2F3D237
:100F3000BDE8F0817FB504460D460121102000F088
:100F4000AFFF0026ADF806606D1E0295641EADF879
:100F500004400E4C01A9204601F02EFE012211464C
:100F6000204601F0B5FD36218DF8001001218DF8E5
:100F700003108DF801108DF80260684600F0DCFE69
:100F80000121204601F029FD7FBD00000010004036
:100F90003EB505460C46092219A12846FFF730F94F
:100FA00020B11AA002F072F800203EBD082205F11F
:100FB00009016846FFF718F900208DF8080012A112
:100FC0006846FFF72DF9A0B1FFF74CF920600EA19C
:100FD0000020FFF725F970B1FFF744F960600AA11E
:100FE0000020FFF71DF940B1FFF73CF9A060012098
:100FF0003EBD00203EBD00203EBD00203EBD0000A5
:101000007365742D74696D653A00000054686973E6
:1010100020736574204461790D0A0000FEE700002A
:101020001CB50446002C03D10121084600F02AFF1C
:10103000064830F81400009000208DF804000448A1
:10104000694650F8240000F074F91CBDFE3F00080A
:101050002C000020002904D0016841F0010101604A
:101060007047016821F001010160704710B590B030
:101070000121880500F006FF022005900020019064
:1010800004900E4903910E904FF400510991C9103C
:10109000079189100A910A4902910F90C914089189
:1010A000069088010B90074C01A9204600F00CF82F
:1010B00001212046FFF7CEFF10B010BDA80100208F
:1010C0004C2001401064024030B50368124A1340BE
:1010D000CC680A682243D1E905452C432243CC69F8
:1010E00022430C6A22434C6A22438C6A22434C6B93
:1010F00022438C6B22431A430260426922F00703A9
:10110000D1E90B2422431A4342610A6942604A68CA
:1011100082608968C16030BD3F801CF070474FF02D
:10112000E02100220A6140F6412358434B1703EBAC
:10113000C00048618A61012008610869C003FCD5CC
:101140000A6170474FF0E02100220A61C0EBC00045
:1011500000EB4000401E48618A6101200861086977
:10116000C003FCD50A617047014908607047000060
:10117000143C014030B51B4A83790168002B2AD00A
:1011800013688B431360111D0B680468A3430B6045
:10119000017911440B68046823430B60114C083437
:1011A0002168036899432160231D19680568A943D4
:1011B00019604179102905D011440A68006802437A
:1011C0000A6030BD21680268114321601968006817
:1011D0000143196030BD0079104402688A430260FF
:1011E00030BD0000003C014001490860704700002C
:1011F0000C3C024070B506460025002905D00129A7
:1012000027D0022928D04FF4407500F081F8092832
:101210001ED1134C206820F44070206020682843C1
:101220002060206820F0F8002060206846F002016D
:1012300008432060206840F48030206000F068F8A7
:10124000216821F002012160216821F0F80121606C
:1012500070BD4FF48075D8E74FF40075D5E70000F6
:10126000103C024009200D490A68D20301D5012033
:1012700070470A68D20601D5062070470A68D20571
:1012800001D5022070470A6812F0E00F01D0072054
:10129000704709688907FBD5082070470C3C02405D
:1012A0000248016841F0004101607047103C024073
:1012B00070B505460E4600F02BF8092813D10A4CEC
:1012C000206820F440702060206840F400702060A6
:1012D000206840F0010020602E6000F019F82168BD
:1012E00021F00101216070BD103C024005480068FA
:1012F000002805DA034804490C38016003490160FD
:1013000070470000103C024023016745AB89EFCDD8
:1013100008B509200090FFF7A5FF009002E0FFF755
:10132000A1FF00909DF800000128F8D09DF8000072
:1013300008BD2DE9F041002201274FF0030C07FA08
:1013400002F50B682B40AB422CD1066853000CFA17
:1013500003F4A64306600E79D0F800809E4046EA6A
:10136000080606600E79012E01D0022E12D1866881
:10137000A64386604E79D0F808809E4046EA08066B
:1013800086604668AE43466045688E799640B6B240
:1013900035434560C568A543C560CC799C40C368AA
:1013A0001C43C460521C102AC9D3BDE8F08110B59B
:1013B0004B07DB0E9A40C90800EB8100016A0F243D
:1013C0009C40A1430162016A1143016210BD0246C3
:1013D000002012690A4200D00120704742694A4049
:1013E00042617047002A01D0816170470904816120
:1013F0007047000070B586B006460D4601F038FB18
:101400000024ADF81440ADF80E406D1E0495761E14
:10141000ADF80C600F4D03A9284601F0CDFBADF8E7
:101420000040ADF80840ADF80240ADF8064001219B
:10143000ADF804106946284601F0E9FA01220321BB
:10144000284601F045FB0121284601F0C6FA06B006
:1014500070BD00000004004001460020A1F10062C0
:101460004FF480439A4204D3164A0A449A4201D266
:1014700008207047144A0A449A4201D2102070474B
:10148000124A0A449A4201D218207047104A0A446C
:10149000B2F5803F01D2202070470E4A4FF400334E
:1014A0000A449A4201D2282070470B4A0A449A42C1
:1014B00001D230207047094A11449942FAD23820AB
:1014C0007047000000C0FFF70080FFF70040FFF703
:1014D0000000FFF70000FEF70000FCF70000FAF73D
:1014E0000349044A31F8101052F82000FFF76FBF8B
:1014F000FE3F00082C00002010B50446002020808C
:1015000005E0228823891A442280401CC0B2884208
:10151000F7D3012904D92088B0FBF1F0608001E005
:10152000208860806088FFF732F89FED141B53EC31
:10153000112BFEF74BFF9FED131B53EC112BFEF706
:1015400045FF9FED121B53EC112BFEF739FF9FED6A
:10155000111B53EC112BFEF739FF9FED101B53ECC1
:10156000112BFEF7A5FF9FED0F1B53EC112BFEF780
:1015700086FEFFF72CF8606010BD00000000000040
:101580000000303F6666666666660A4052B81E8591
:10159000EB51E83F0000000000408F4000000000D9
:1015A00000000440000000000000394010B59FED2D
:1015B000140A14490878000621D5087800F03F0085
:1015C000C0EB00404A88104480B200220A70FEF747
:1015D000DEFF9FED0D1B53EC112BFEF769FF9FED16
:1015E0000C1B53EC112BFEF7F1FE9FED0B1B53EC84
:1015F000112BFEF7EBFEFEF7EAFF00EE100A10BD1E
:1016000000000000340000200000000080842E4113
:10161000000000000040654000000000000059404C
:1016200010B5084C012202212046FFF7DBFE1420F2
:10163000FFF788FD20460022BDE810400221FFF799
:10164000D1BE000000000240FEE7002904D001885E
:1016500041F4806101807047018821F4806101803C
:10166000704730B5034600209A8A02F0020422F047
:1016700010052C4308D01B8B1B041A4322F07F4219
:10168000914300D1012030BD002030BD002904D09D
:10169000018841F0010101807047018821F00101BA
:1016A00001807047002904D0018841F480710180D5
:1016B0007047018821F4807101807047002904D0AF
:1016C000018841F4007101807047018821F40071A4
:1016D000018070477FB504460D46A08820F03F0684
:1016E000684600F0F9FB02982749B0FBF1F189B296
:1016F0000E43A680228822F001022280234B2A6812
:101700009A4209D85200B0FBF2F080B2042800D20D
:101710000420491C218423E0EB88A3F53F46FF3ECB
:101720000BD002EBC20303EB0212B0FBF2F080B26B
:1017300040F48040020506D007E002EB4202B0FB15
:10174000F2F080B2F6E740F0010040F400404FF4C0
:10175000967251434FF47A72B1FBF2F1491C218425
:10176000A083208840F00100208020884FF6F531CA
:101770000840A9886A89114301432180A8892989E1
:10178000084320817FBD000040420F00A086010079
:10179000008AC0B27047002A02D041F0010101E086
:1017A00001F0FE01018270470182704710B5FFF71A
:1017B00053FE0446FFF79AFDF320FFF715FD0221C3
:1017C0002046FFF717FD00F013F8BDE81040FFF7C3
:1017D00067BD10B500290AD0002808D0002304E016
:1017E00051F8234040F823405B1C9342F8D310BDCE
:1017F00010B5FFF78DFD0928FBD110BD2DE9F04193
:1018000006460D461746FFF771FDF320FFF7ECFC87
:1018100000240CE056F8241005EB8400FFF748FD87
:10182000FFF7E6FFFFF71EFD092802D1641CBC424A
:10183000F0D3BDE8F041FFF733BD00002DE9F041E2
:1018400006460F4642F21074064D02E0641E002C5C
:1018500006D055F826003946FFF703FF0128F5D1D9
:10186000BDE8F081280000202DE9FC4104460D462A
:10187000002D03D10121022000F004FB4FF48077FA
:1018800015B9012C05D000970120012C05D03CB1E1
:1018900009E04FF440700090F6E78DF8040002E094
:1018A00002218DF8041003218DF805108DF8060033
:1018B00000208DF80700144E694656F82500FFF702
:1018C00038FD4FF4007884B97DB9CDF800806946C1
:1018D0003068FFF72EFD042208213068FFF767FD0E
:1018E000042209213068FFF762FD012C0AD1074C60
:1018F000012239462046FFF775FD01224146204668
:10190000FFF770FDBDE8FC812400002000040240C8
:101910007FB505460C4621462846FFF7A5FF002D5A
:1019200027D11CB90121480500F0BAFA4FF48060B4
:10193000ADF80A000001ADF80C000E4800904BF61F
:10194000FF70ADF806000020ADF80400BE20ADF831
:101950000800094D694655F82400FFF7BBFE55F80D
:1019600024000121FFF792FE55F824000121FFF722
:101970006CFE7FBDA0860100280000202DE9F0410B
:10198000044600292FD1194D4FF4807600223146AC
:101990002846FFF727FD6F15002239462846FFF736
:1019A00021FD012C19D0012239462846FFF71AFDE6
:1019B0000520FFF7C7FB012231462846FFF712FD3D
:1019C0000520FFF7BFFB002231462846FFF70AFD3E
:1019D000BDE8F0410520FFF7B5BB00223946284697
:1019E000FFF700FDE4E7BDE8F081000000040240DD
:1019F0002DE9F0470025174F4FF48078002241462B
:101A00003846FFF7EFFC00244FF4007A4FF001094D
:101A1000012241463846FFF7E5FC0520FFF792FB1F
:101A200051463846FFF7D3FC28B1C4F1070009FA44
:101A300000F62E43F5B2002241463846FFF7D2FCAD
:101A40000520FFF77FFB641CE4B2082CE0D3284696
:101A5000BDE8F087000402402DE9F0470546002963
:101A600039D11E4E4FF48077002239463046FFF7B9
:101A7000B9FC4FF40078002241463046FFF7B2FC33
:101A800000244FF00109C4F1070009FA00F22A42CC
:101A900005D0012241463046FFF7A4FC04E00022B5
:101AA00041463046FFF79EFC0520FFF74BFB012225
:101AB00039463046FFF796FC0520FFF743FB00222E
:101AC00039463046FFF78EFC0520FFF73BFB641CD0
:101AD000E4B2082CD7D3BDE8F08700000004024030
:101AE00070B5002821D10122104D1402214628464C
:101AF000FFF778FC0122560231462846FFF772FCB8
:101B00000520FFF71FFB002231462846FFF76AFC3D
:101B10000520FFF717FB002221462846FFF762FC4D
:101B2000BDE870400520FFF70DBB70BD000402400A
:101B300070B5002822D1124D4FF480740022214646
:101B40002846FFF74FFC6600002231462846FFF783
:101B500049FC0520FFF7F6FA012221462846FFF747
:101B600041FC0520FFF7EEFA012231462846FFF737
:101B700039FCBDE870400520FFF7E4BA70BD0000F5
:101B80000004024070B50024002821D1114D4FF40B
:101B90008076002231462846FFF724FC0520FFF717
:101BA000D1FA012231462846FFF71CFC0520FFF739
:101BB000C9FA69152846FFF70AFC012800D001245C
:101BC000002231462846FFF70DFC0520FFF7BAFA40
:101BD000204670BD000402401CB50446002C03D111
:101BE0000121022000F04EF90B4830F8140000905B
:101BF00001208DF8040000208DF8060003208DF8E8
:101C0000050002208DF807000448694650F82400BA
:101C1000FFF78FFB1CBD0000F43F00080C00002004
:101C20000349044A31F8101052F82000FFF7D6BBE0
:101C3000F43F00080C00002010B58AB0FEF704FF46
:101C4000FFF714FA0121080200F038F90024089483
:101C500006944FF480300790099406A8FEF7C8FE5A
:101C600001208DF805000494029402218DF81410CF
:101C700000948DF80400124C69462046FEF7F8FEE9
:101C80000323012210212046FEF718FF032302221E
:101C900019462046FEF712FF0120FEF74FFF0121F3
:101CA0002046FEF7C5FE01212046FEF7B5FE0121C4
:101CB0002046FEF790FE2046FEF73AFF0AB010BD20
:101CC00000200140FEE71CB503460C461846FFF70E
:101CD0004BFA00938DF804408DF8052001208DF813
:101CE00006006846FFF746FA1CBD000070B50446C2
:101CF0000D4600F0E8F9022C01D101F0A2F9012D06
:101D000001D1FEF72FFF012000F0D6FA08498842E2
:101D100003D0BDE8704000F0EBBB0121080700F0E4
:101D2000BFF8012000F0A6F8BDE8704000F022BC2A
:101D3000665268457047000030B50F23C278012510
:101D40000178002A1FD0154A126802F4E062C2F539
:101D5000E062C2F30722C2F10404D3404278A240F9
:101D600084781C401443220101F1E02181F8002411
:101D7000007800F01F018D404009800000F1E02054
:101D8000C0F8005130BD01F01F00854048098000B7
:101D900000F1E020C0F8805130BD00000CED00E003
:101DA0000249084302490860704700000000FA0534
:101DB0000CED00E008B58DF8000001208DF803005F
:101DC0008DF801108DF802206846FFF7B5FF08BDB9
:101DD00030B589B005460C4600F02CF801210846C4
:101DE00000F05EF80794ADF818500024ADF81A40E2
:101DF0004FF0804506A9284600F0DEFE6021ADF8D0
:101E000004100121ADF806100394ADF8104001A9AB
:101E1000284600F067FE0821284600F09DFE0121BB
:101E2000284600F0CBFD0121284600F0D6FD09B080
:101E300030BD00001CB50121084600F023F8202029
:101E4000009002208DF8040001208DF8050000208C
:101E50008DF806008DF80700054C69462046FFF70F
:101E600068FA012205212046FFF7A1FA1CBD0000F7
:101E700000000240014908627047000000000E4265
:101E800070470000054A002903D011680143116022
:101E9000704711688143116070470000303802407C
:101EA000054A002903D01168014311607047116889
:101EB000814311607047000040380240054A002904
:101EC00003D01168014311607047116881431160AC
:101ED000704700004438024070B5244B196801F087
:101EE0000C01234C00291ED0661004291DD008299E
:101EF0001DD00460196801F0F00109091D4A545C05
:101F00000168E14041601C6804F4E054A40A145DD7
:101F100021FA04F484601B6803F460435B0BD25C19
:101F2000D140C16070BD0460E4E70660E2E70F4A9B
:101F3000121F1168C1F38055116801F03F0135B1DE
:101F4000B6FBF1F11468C4F38814614305E0B4FBF7
:101F5000F1F11468C4F3881461431268C2F30142BA
:101F6000521C5200B1FBF2F10160C3E70838024095
:101F70000024F400420000200246002051090129FB
:101F80000BD002290DD00949096802F01F02012374
:101F900093400B4200D0012070470449743909680E
:101FA000F3E70249091F0968EFE7000074380240AF
:101FB000064900220A700A70012804D0042801D1C1
:101FC0000520087070470120087070477038024083
:101FD00001490860704700003C0E4742C0F30121F0
:101FE000032907D1074B196821F4F812064901406B
:101FF00011431960034A68321168C0F30B000143B2
:102000001160704708380240FFFCFF0F38B500220E
:102010000092144CCA22226053222260114A1C3AB8
:10202000002904D0116801431160012015E01168F6
:10203000814311600B4A183A9513116801EA102187
:10204000009B5B1C0093009BAB4201D00029F4D0A5
:10205000116811EA102F03D00120FF21216038BD43
:102060000020FAE72428004010B54FF480542046A1
:1020700000F092F828B1204600F056F86001FFF712
:1020800073F8BDE8104001A001F000B854696D6517
:102090005F4172726976650D0A000000010901EB6B
:1020A0008101490000F00F000844C0B270470021D0
:1020B00003E0491CC9B20A38C0B20A28F9D209079C
:1020C00040EA116070470EB501210807FFF7E8FEEE
:1020D0000120FFF7CFFE0120FFF76AFF4120FFF745
:1020E0004BFF0128FAD10002FFF778FF0120FFF72C
:1020F0006FFF00F03FFA7F200190FF200290002048
:102100000090684600F0B0F80EBD000080B240F0CC
:102110008000C1430348026802F08002114301605D
:10212000704700000C280040000980B240F0800099
:10213000C1430348026802F0800211430160704706
:102140000C28004008B5002000900E4908684006A1
:1021500015D44FF0FF3008608B13086800F0400082
:10216000009A521C0092009A9A4201D00028F4D0A2
:102170000868400601D5012008BD002008BD0120E7
:1021800008BD00000C2800400248016821F08001D1
:10219000016070470C28004010B500210D4A1268FC
:1021A00002F004020B4B383B1B6802EAD0340340B8
:1021B000234302EA10421343064A343A126802EA01
:1021C0001010002B03D00004000C00D001210846A1
:1021D00010BD00004028004010B502460C460F48D4
:1021E00001680F480140C1F305402070C1F3062388
:1021F000637001F07F03A37001F48001090CE170AA
:10220000002A0AD1FFF74AFF20706078FFF746FFE7
:102210006070A078FFF742FFA07010BD002800405A
:102220007F7F7F0030B50F4DCA222A6053222A607B
:102230000C4C0C4B1C3C20F004021C3300F004003E
:10224000002906D0216811432160196801431960F3
:1022500005E0216891432160196881431960FF20DE
:10226000286030BD2428004070B504460025114E7A
:10227000CA20306053203060FFF764FFA8B10D48DA
:102280001C38016821F04001016001682268114397
:1022900001600848A168143801600168A28841EA19
:1022A00002410160FFF770FF0125FF2030602846E2
:1022B00070BD00002428004008B5034901EB8000F0
:1022C00000900098006808BD5028004070B5054691
:1022D0000E46144600202B49002D06D009684906F9
:1022E00008D52078FFF7DAFE05E00968490607D42B
:1022F000E07005E0E070A068A8B1207BFFF7CEFE9B
:10230000ADB1A0782178E27840EA01406178090215
:1023100041EA02410843217B40EA0160A168084389
:10232000616808431CE0207BFFF7B8FEE8E72078EF
:10233000FFF7BDFE05046078FFF7B9FE45EA00250A
:10234000A078FFF7B4FE0543E07845EA0045207B1E
:10235000FFF7ADFEA16845EA0060084361680843E5
:102360000849CA221C310A6053220A60B6F5807FF0
:1023700004D00A1F1060FF20086070BD014A1432AB
:102380001060F8E70828004070B505460C460026A6
:10239000002D06D16078C10603D520F010000A3068
:1023A00060702DB16078FFF779FEA078FFF776FEB8
:1023B00055B1A078E17840EA0145607821780002C3
:1023C00040EA413005430FE0E078FFF770FE050476
:1023D0006078FFF76CFE45EA0025A078FFF767FEFE
:1023E0000543207845EA40350E4CCA202060532032
:1023F0002060FFF7A7FE88B10B4805400948203848
:102400000560FFF7C1FE07481C380068800604D449
:1024100000F0B0F810B1012600E00126FF20206096
:10242000304670BD242800403FFFFF002DE9F041F9
:1024300005460C4600260020244F002D06D03968A2
:10244000490608D52078FFF729FE05E039684906D6
:1024500002D4E07000E0E07055B1A078217840EA45
:1024600001456078E178000240EA014005430FE051
:102470002078FFF71CFE05046078FFF718FE45EA98
:102480000025A078FFF713FE0543E07845EA0045F4
:102490000E4CCA201C34206053202060FFF752FEEF
:1024A00078B10B480540094808380560FFF76CFE15
:1024B0003868800604D400F05DF810B1012600E011
:1024C0000126FF2020603046BDE8F081082800404A
:1024D0007F7F7F000549CA220A6053220A60034AAF
:1024E000103A1060FF200860704700002428004068
:1024F0007CB500208DF807000C208DF804000A241C
:102500008DF805408DF8064001A90020FFF78EFFE9
:102510000C4D0120294600F097F81F208DF802008D
:102520008DF8014004208DF8000018208DF803007C
:1025300069460020FFF728FF2946012000F084F8B3
:102540007CBD00006652684510B54FF480442046BB
:10255000FFF722FE00280AD0054901200870204616
:10256000FFF7E2FD2002BDE81040FEF7FDBD10BD03
:102570003000002018B500200090104BCA201860D1
:10258000532018600D491839086820F0A000086031
:102590004FF40034086800F02000009A521C0092AA
:1025A000009AA24201D00028F4D00868800601D524
:1025B000012000E00020FF21196018BD2428004000
:1025C000084ACA2111605321116006491C390B6861
:1025D00023F007030B600B6803430B60FF201060C0
:1025E000704700002428004018B500210091154BC9
:1025F000CA2119605321196012491C39002805D0DD
:10260000086840F480600860012017E0086820F442
:10261000806008600B4A183A9413106800F00400B8
:102620000099491C00910099A14201D00028F4D0E2
:102630001068400701D4002000E00120FF2119604C
:1026400018BD00002428004008B5034A02EB8000B2
:1026500000900098016008BD502800401CB5012181
:102660000846FFF70FFC0220009000218DF80610AD
:1026700001218DF8041003218DF805108DF8070055
:1026800069460248FEF755FE1CBD000000000240EE
:10269000704770B504460D464FF4807600213046F1
:1026A000FFF7B4FC2878207028796070287AA07031
:1026B000F0056060224631460020FFF707FE3046F5
:1026C000BDE870400121FFF7A1BC00000CB500225D
:1026D000019200922749086840F4803008604FF466
:1026E000A043086800F4003000900198401C01905D
:1026F000009810B901989842F3D10868800302D578
:102700000120009000E000920098012831D1194882
:102710004030026842F0805202601748026842F47A
:10272000404202601348083002680260026842F4C6
:1027300000420260026842F4A0520260021F0F4B86
:1027400013600A6842F080720A600A689201FCD540
:102750000B4A40F205711160016821F0030101602C
:10276000016841F0020101600168C1F381010229A1
:10277000FAD10CBD003802400070004008544007F8
:10278000003C02404FF0E021042804D0086920F00A
:10279000040008617047086940F004000861704750
:1027A0007047000010B51248016841F470010160E3
:1027B0001048016841F0010101600E4A0021083211
:1027C000116002680C4B1A400260031D0B4A1A602C
:1027D000026822F48022026006480C300160FFF794
:1027E00075FF03494FF000608039086010BD00009C
:1027F00088ED00E000380240FFFFF6FE10300024B4
:102800006FF00400FFF7BEBF70B5048C24F0010424
:102810000484058B048C25F0F3054FF6FF7606EA59
:10282000031313432B4324F00A020A4342F001012D
:102830000383018470BD70B5048C24F010040484FB
:10284000058B068C4FF6FF7404EA011125F47345DD
:1028500004EA03332B4304EA02221A4326F0A003BE
:102860000B4343F010010283018470BDF0B5048C6A
:1028700024F480740484868B058C4FF6FF7707EA76
:10288000012426F0F30607EA03111143314325F42E
:102890002062224342F4807281830284F0BD70B5CD
:1028A000048C24F480540484858B068C4FF6FF74CA
:1028B00004EA013125F4734504EA02222A4304EABA
:1028C0000333134326F420420A4342F480518383A6
:1028D000018470BD70B52D4C20782D4D00064ED46E
:1028E0000121284600F087F8012809D12078400608
:1028F00006D52078C043800609D02178491C217074
:102900000221284600F077F8012812D037E020484D
:102910002030018821F0020101800021284600F0CA
:1029200015F9207840F0800020704FF6FF7060802D
:10293000E6E7207840060CD5207840F08000207033
:10294000284600F056F860800021284600F0FEF886
:1029500015E0002121706180207840F04000207057
:10296000284600F03AF80021284600F0FBF8022142
:10297000284600F0EBF80121284600F02EF8284602
:10298000BDE87040032100F025B8000034000020AD
:102990000004004010B5084C0121204600F02BF83F
:1029A000012807D100F062F92046BDE8104001215E
:1029B00000F010B810BD000000100040002904D045
:1029C000018841F0800101807047018821F0800179
:1029D00001807047C94301827047002904D00188F3
:1029E00041F0010101807047018821F0010101805F
:1029F0007047406B704702460020138A0B40928953
:102A00000A40002B02D0002A00D00120704770B588
:102A100006460C4625886188A2882389002D0CD0A3
:102A2000042D13D0082D1AD03046FFF738FFE18867
:102A30003046BDE8704000F0B3B83046FFF7E4FE22
:102A4000E1883046BDE8704000F08EB83046FFF7B0
:102A5000F2FEE1883046BDE8704000F08DB83046A7
:102A6000FFF704FFE1883046BDE8704000F090B801
:102A70003EB501210846FFF705FA01210220FFF7C4
:102A80000FFA4020019000208DF80A0002208DF8F6
:102A9000080003218DF809108DF80B000B4C01A9DB
:102AA0002046FEF746FC022206212046FEF77FFC68
:102AB0001D208DF8000001208DF803008DF8010025
:102AC0008DF802006846FFF737F93EBD000002406E
:102AD000002A03D082890A438281704782898A430F
:102AE0008281704730B5028C22F001020284058C8D
:102AF0008388028B22F0700222F003020C881443B8
:102B000025F002028D8915434A882A430D4DA842BB
:102B100002D00D4DA8420FD122F00805CA892A43E0
:102B200022F004058A882A4323F4807323F4007377
:102B30000D8A1D434B8A2B4383800483896841633C
:102B4000028430BD0000014000040140028C22F0EC
:102B500002020A4302847047028B22F008020A43F1
:102B60000283704741627047028B22F00C0202839D
:102B7000028B0A4302837047028B22F44062028375
:102B8000028B4FF6FF7303EA01210A430283704769
:102B9000828B22F00C028283828B0A4382837047ED
:102BA000828B22F440628283828B4FF6FF7303EAAA
:102BB00001210A438283704730B50288164C174DB5
:102BC000A0420DD0A8420BD0B0F1804F08D0144BDA
:102BD000984205D0134B984202D0134B984203D130
:102BE00022F070034A881A43104B984206D0104BCB
:102BF000984203D022F440730A891A4302804A683B
:102C0000C2620A880285A04201D0A84201D1897A15
:102C100001860121818230BD000001400004014095
:102C20000004004000080040000C0040001000407C
:102C30000014004001218140024842888A434280BA
:102C400070470000040000200121814001484088B5
:102C5000084070470400002001218140024842885A
:102C600011434180704700000400002070B5104CF3
:102C70006068401C6060002020700E4D13E02078DA
:102C8000616855F82000B1FBF0F200FB121038B972
:102C90002078FFF7E1FF2078012801D100F02EFF16
:102CA0002078401C207020780928E8D370BD0000EF
:102CB00004000020D03F0008F0B587B00446002C87
:102CC00002D0012C05D008E001210846FFF7DAF810
:102CD00003E001210820FFF7D5F814B1012C05D03D
:102CE00008E001211020FFF7E9F803E00121480482
:102CF000FFF7D6F814B1012C04D005E04FF4C06002
:102D0000059001E06020059002208DF81800032056
:102D10008DF8190000258DF81A508DF81B50304E93
:102D200005A956F82400FEF704FB2E4F14B1012C20
:102D30000BD014E03A7809213068FEF738FB3A7876
:102D40000A213068FEF733FB09E07A7805217068C4
:102D5000FEF72DFB7A7806217068FEF728FB14B188
:102D6000012C04D006E04FF4E130019002E04FF472
:102D700016500190ADF810500C20ADF80E00ADF8D3
:102D80000C50ADF80A50ADF80850154D01A90835A2
:102D900055F8240000F0BAF8012C1AD1012240F2B3
:102DA0002551686800F097F80E48801C40788DF82F
:102DB000000001208DF803000A48001D40788DF8BE
:102DC00001000848801D40788DF802006846FEF733
:102DD000B3FF55F82400012100F04AF807B0F0BD18
:102DE00014000020F63F000870B5184C40F225553D
:102DF0002946204600F04FF8002817D029462046E3
:102E000000F02EF8204600F0F7F8C0B2104A012476
:102E1000517861B10F4B01290DD0022906D1242828
:102E200004D183F8FF4000205070907070BD53288B
:102E3000FCD1547070BD452804D091785854491C79
:102E4000917070BD0220507070BD000000440040C1
:102E500030000020EC0200208A05C9430180704741
:102E600040F66A120A0A01219140C9430180704765
:102E7000002904D0818941F4005181817047818902
:102E800021F40051818170470246002012880A42D5
:102E900000D00120704770B5002440F66A12C1F3DB
:102EA000421301F01F05012606FA05F2012B0CD092
:102EB000022B0DD0838A1340090A8E4000883040CF
:102EC0000BB100B10124204670BD83891340F3E7A4
:102ED000038A1340F0E710B540F66A13C1F34213BA
:102EE00001F01F040121A140012B07D0022B07D0C4
:102EF00014303AB102680A43026010BD0C30F8E7A2
:102F00001030F6E702688A43026010BD7FB50446C0
:102F10000D46208A20F44051E88808432082A08989
:102F200041F20C618843A9882A8911436A890243C6
:102F30001143A181A08A20F44071A8890843A0828E
:102F40006846FEF7C9FF1E48844202D01D488442ED
:102F500001D1039800E00298A189090408D500EB8B
:102F6000C00101EB001029684900B0FBF1F007E057
:102F700000EBC00101EB001029688900B0FBF1F003
:102F80006422B0FBF2F109010B096FF018056B43E5
:102F900000EB8300A3891D044FF0320307D503EB38
:102FA000C000B0FBF2F000F00700084306E003EBBE
:102FB0000010B0FBF2F000F00F00084320817FBD4D
:102FC00000100140001401400FB470B50546084CD4
:102FD00006AA22600748059900F068F800212160E0
:102FE0000449284600F010F870BC5DF814FB00009E
:102FF00010000020600000208088C0F308007047A7
:10300000C1F308018180704770B505460C468021E8
:103010002846FFF721FF0DE0641C2846FFF7F0FF6C
:1030200080212846FFF730FF0028F9D0802128466C
:10303000FFF712FF002C02D021780029ECD170BDDF
:10304000FEE770B50822D40400212046FEF73BFEBF
:10305000002202210320FEF7ADFE0020FFF7C4FA94
:103060000420FFF7ADFA0020FFF734FA0120FFF744
:10307000BBFA01218D032846FFF7D4F82846FFF755
:1030800053F82046BDE87040FEF76EB80FB4054B0C
:1030900010B503A9044A029800F0F0F810BC5DF8DE
:1030A00014FB0000193B00085800002037B51446F7
:1030B0000846064B6A46214600F0E0F80446694699
:1030C000002000F05EFC20463EBD00008339000871
:1030D000004870475C00002002E008C8121F08C1C9
:1030E000002AFAD170477047002001E001C1121F89
:1030F000002AFBD1704700002DE9FF5F82B000215C
:10310000DDE90430020DDDF840B0034318D044F689
:103110001050A2F2FF3242431514119801281FD01B
:10312000A5EB0B00401C5FEA000A4FF000064E4F73
:10313000DFF83891B046504615D5CAF1000413E0C7
:10314000119801244AA3012801D16FEA0B010298CA
:10315000119AC0E90031C0E9024206B0BDE8F09F13
:10316000CBF10000DFE704460021404A491842EB5A
:103170000450CDE9001012E0E00707D032463B468C
:1031800040464946FDF722F98046894632463B468D
:1031900010461946FDF71AF906460F466410002C32
:1031A000EAD1DDE90401DDE90023BAF1000F06DA16
:1031B000FDF70CF942464B46FDF708F905E0FDF72F
:1031C00077F942464B46FDF773F904460E46002256
:1031D000284BFDF765FB03D84FF0FF30014607E0B1
:1031E0000022254B20463146FDF749F8FDF73FFB0D
:1031F000102409E0002C0ADB0A220023FDF719FA4B
:10320000039B30321A55641E50EA0102F2D1641C4D
:10321000039AC4F111031444119A012A03D0012224
:1032200008430DD10AE0084304D000204FF0110BF1
:10323000119072E7A3EB0B056D1E0DE05B4504DDFD
:103240004FF0000205F1010504E003DA4FF000023F
:10325000A5F10105002AECD002981199C0E90231CC
:10326000C0E9004579E70000000014400000F03F8D
:10327000300000000000F0430000E03F2DE9FF4F68
:1032800095B09A46884606460025EEE1252877D176
:1032900000242746F94A0121039400E0044316F86C
:1032A000013F203B01FA03F01042F7D130782A2881
:1032B00011D06FF02F033078A0F13002092A16D810
:1032C000039A44F0020402EB820203EB4202104430
:1032D000761C0390EFE758F8042B0392002A03DAD8
:1032E000504244F40054039044F00204761C3078B9
:1032F0002E2816D116F8010F44F004042A280DD008
:103300006FF02F023078A0F13003092B09D807EBBA
:10331000870302EB4303C718761CF3E758F8047BD6
:10332000761C30786C280FD006DC4C2817D0682823
:103330000DD06A2814D104E0742810D07A280FD157
:103340000DE044F400140AE044F4801401E044F475
:1033500040147278824202D104F58014761C761CE7
:10336000307866280BD013DC582877D009DC002889
:1033700075D04528F6D04628F4D047281AD193E1D5
:1033800018E0632835D0642879D0652812D18BE104
:10339000702873D008DC6728F1D069286FD06E28B8
:1033A0000DD06F2806D1ACE073282CD0752874D0CE
:1033B000782853D05246179990476D1C54E1C4F3B6
:1033C0000250022809D003280DD0D8F80010042894
:1033D0000DD00D6008F1040846E1D8F80010EA1796
:1033E000C1E90052F6E7D8F800100D80F2E70D7041
:1033F000F0E718F8041B8DF8001000208DF801008C
:10340000EB46012003E058F804BB4FF0FF306107A2
:103410004FF0000102D40DE009F101018946B942E3
:103420000FDA8145F8DB1BF809100029F4D108E018
:1034300009F1010189468142FADB1BF809100029D4
:10344000F6D103985346A0EB090721463846179A50
:1034500000F080FA284400EB090507E044E008E1A9
:103460000DE01BF8010B524617999047B9F101097D
:10347000F7D2534621463846179AF2E039E00A213E
:10348000C4F302524FF0000B0091022A06D058F804
:10349000040BC117032A09D00AE023E008F1070052
:1034A00020F00702F2E80201904605E000B2C117E1
:1034B000042A01D140B2C117002906DA0A460021C8
:1034C000404261EB02012D2202E0220504D52B22AD
:1034D0008DF80420012203E0E20701D02022F7E763
:1034E000914657E00A2100E010214FF0000B0091B7
:1034F0000BE010214FF0000B44F00404082700916A
:1035000003E008204FF0000B0090C4F30252022A9F
:1035100005D058F8040B0021032A08D008E008F170
:10352000070020F00702F2E80201904603E080B2B3
:10353000042A00D1C0B24FF0000922072AD5327800
:10354000702A07D0DDF800C08CF0100C5CEA0B0C80
:1035500005D00EE040228DF80420012208E050EA58
:10356000010306D030238DF804308DF805200222A7
:103570009146009B83F0080353EA0B030AD150EAFB
:10358000010201D1620705D530228DF804204FF0E9
:1035900001097F1E3278582A04D039A20C920CAA55
:1035A00002920BE03BA2F9E75B46009AFDF741F877
:1035B0000C9B9B5C029A521E0292137050EA01020D
:1035C000F2D1029804A9081A00F1200B600702D575
:1035D00024F4803400E001275F4502DDA7EB0B00F7
:1035E00000E0002000EB0B01009003984944401AD2
:1035F0000390E00306D453462146179A039800F03F
:10360000A9F90544002706E001A85246C05D1799B4
:1036100090476D1C7F1C4F45F6DBE0030CD55346ED
:103620002146179A039800F095F9054404E03020EC
:103630005246179990476D1C0099481E009000292A
:10364000F5DC08E00298029952460078491C029184
:10365000179990476D1CBBF10001ABF1010BF1DC38
:103660005BE100F065F90544761C307800287FF4B2
:103670000DAE19B02846BDE8F08F00000928010002
:1036800030313233343536373839616263646566D8
:10369000000000003031323334353637383941429A
:1036A0004344454600000000600700D4062708F1A7
:1036B000070020F00700F0E80223804603F0004CEA
:1036C0005FEA0C0001D097A009E0200501D596A083
:1036D00005E0E00701D095A001E0AFF24C001390A7
:1036E000307823F0004365280CD006DC452809D04B
:1036F00046281DD047287FD13BE0662818D0672890
:103700007AD136E00021112F01DB112000E0781C76
:10371000CDE9000104A90CA8FFF7EEFCDDE90D01DD
:103720000C9A4FF0000B07F10109109200914EE046
:103730004FF000400097CDE9011004A90CA8FFF755
:10374000DBFCDDE90D020C9B0F994FF0000B91465D
:103750001093009211B9791C00EB0109B7EB090035
:1037600003D4C0F1FF3B07F10109A9EB0700019069
:1037700042E0012F00DA01270021112F01DD112085
:1037800000E03846CDE9000104A90CA8FFF7B4FC1D
:10379000DDE90D010C9A00914FF0000BB946109233
:1037A00021070FD4009A4A4503DA914601E0A9F1B6
:1037B0000109B9F1010F05DD109AA9F10101515C70
:1037C0003029F4D0B84202DA10F1040F03DA0121F3
:1037D000CDE9011010E0002803DC8344A9EB0001CF
:1037E00002E0411C494500DD8946A0EB0B00401C6E
:1037F00001904FF000400290200705D40198484501
:1038000002DB4FF0FF30019000208DF84B00029852
:103810000DF14B07B0F1004F25D002200C902B206A
:103820000D90029800280CDA404202902D200D9055
:1038300007E00A210298FCF7E6FE3031029007F813
:10384000011D0C99481E0C900029F2DC02980028FA
:10385000EFD1791E0D980870307800F0200040F00C
:10386000450007F8020D11A8C01BC01D0290139857
:10387000007800B1012000EB0901019801EBE07133
:10388000029801440398401A401E0390E00306D4B6
:1038900053462146179A039800F05CF805441398A4
:1038A000007818B15246179990476D1CE00323D554
:1038B00053462146179A039800F04CF805441BE044
:1038C000BBF1000F07DB0098584504DD10981799ED
:1038D00010F80B0001E017993020524690470198EC
:1038E0000BF1010B401E05F10105019004D12E20C2
:1038F0005246179990476D1CB9F10001A9F10109D1
:10390000DEDC05E017F8010B5246179990476D1C55
:103910000299481E02900029F4DC53462146179A6A
:1039200003989EE62D0000002B0000002000000000
:103930002DE9F041044600251E461746880404D4AC
:1039400005E039462020B0476D1C641EF9D5284695
:10395000BDE8F0812DE9F041044600251E46904661
:10396000C80301D5302700E02027880404D505E0EE
:1039700041463846B0476D1C641EF9D52846BDE85F
:10398000F0810A68531C0B601070704702490A6886
:10399000C26308607047000000000020002802D0C9
:1039A00000EB8100826270472DE9F04107460C462A
:1039B00015461E46002C29D040212046FCF709FC64
:1039C00020223946201DFCF70FFC14F8240F20F0AC
:1039D0000300801C20F00C0008300421617044F8C2
:1039E000245C66F305102070A847217860F38711E6
:1039F00021700020A08260822074243C204600F0C8
:103A00007CF82046BDE8F041FFF7C0BFBDE8F0817B
:103A100070B5044620688047014694F824000026CB
:103A2000B1EB901F19D0228F521C92B222870A2A22
:103A300013D361F3871084F824002687C0F30112A2
:103A40008A4205D120F0030084F82400E68604E0D1
:103A500020F00300401C84F82400E08E401C82B259
:103A6000E28694F824004FF0040510F0030302D01E
:103A7000012B2CD10AE0232A29D9B1EB901F26D1A2
:103A8000910724D1022184F8251020E094F8251014
:103A9000022901D184F82550192A08D210F00C0F00
:103AA00005D194F83410491C84F83410E686E18E70
:103AB00019290CD9E68694F8341001291AD003D9B3
:103AC0004FF0010184F8251084F83460E686014641
:103AD00060F3830184F8241094F82500032808D2A9
:103AE00004EB8000816A002903D02046884784F8CF
:103AF000255070BD84F82560E6E7704710B505488D
:103B0000046803E02046FFF783FFE46B002CF9D143
:103B100010BD00000000002070B50446064DE1B263
:103B20002846FFF76DFA80212846FFF7ADF90028F7
:103B3000F9D0204670BD0000001001400020AFF316
:103B40000080FDF7CDBC000010B5044694F82500B8
:103B5000002824D0012852D0022879D1042249A17A
:103B6000201DFCF74DFB00287BD0042247A1201D1F
:103B7000FCF746FB002879D0042246A1201DFCF763
:103B80003FFB002877D0042244A1201DFCF738FB1E
:103B9000002875D1BDE8104042A0FFF777BA042293
:103BA00038A1201DFCF72CFBB8B1042237A1201D41
:103BB000FCF726FBC8B1042236A1201DFCF720FB30
:103BC000C0B1042235A1201DFCF71AFB002857D1F3
:103BD000BDE8104038A0FFF759BA3BA0FFF756FAEE
:103BE000BDE810400020FEF71BB8BDE810403AA029
:103BF000FFF74CBABDE810403BA0FFF747BA0422DC
:103C000020A1201DFCF7FCFAB8B104221FA1201D41
:103C1000FCF7F6FAB0B104221EA1201DFCF7F0FA61
:103C2000A8B104221DA1201DFCF7EAFA002827D123
:103C3000BDE8104030A0FFF729BABDE8104034A01D
:103C4000FFF724BABDE8104037A0FFF71FBA03E022
:103C500016E006E00AE00EE0BDE8104038A0FFF7ED
:103C600015BABDE810403CA0FFF710BABDE81040FF
:103C70003EA0FFF70BBABDE8104041A0FFF706BA1F
:103C800010BD00004B455931000000004B45593232
:103C9000000000004B455933000000004B455934EB
:103CA000000000004B455934206C6F6E6720636C38
:103CB00069636B65640D0A004B45593420636C6978
:103CC000636B65640D0A00004B45593120636C69D4
:103CD000636B65640D0A00004B45593220636C69C3
:103CE000636B65640D0A00004B45593320636C69B2
:103CF000636B65640D0A00004B45593420646F7591
:103D0000626C6520636C69636B65640D0A0000007A
:103D10004B45593120646F75626C6520636C696333
:103D20006B65640D0A0000004B45593220646F75C5
:103D3000626C6520636C69636B65640D0A0000004A
:103D40004B45593320646F75626C6520636C696301
:103D50006B65640D0A0000004B455931206C6F6E95
:103D60006720636C69636B65640D0A004B455932CB
:103D7000206C6F6E6720636C69636B65640D0A006D
:103D80004B455933206C6F6E6720636C69636B65BC
:103D9000640D0A0010B501230A4A0B490BA0FFF776
:103DA00003FE0C4A00210848FFF7F8FD094A0121EB
:103DB0000548FFF7F3FDBDE81040064A022102481E
:103DC000FFF7ECBD3D3B0008600100204B45593139
:103DD00000000000493B00082DED028B82B09FEDF2
:103DE000648A4FF4A060FDF7DBFF0020FDF7F4FECE
:103DF000FEF706FD4FF47A715420FDF79BF864211D
:103E00005420FDF7E5FF4FF4E1310020FEF754FFA9
:103E10004FF416510120FEF74FFF0020FDF700F987
:103E2000FFF7B8FFFEF71AFC4FF480315420FDF77E
:103E3000E1FAFDF701FF4F4E4F4C03223146E01CE3
:103E4000FDF7C7FC01210220FDF750FF00210120F2
:103E5000FDF75EFD9FED490B4A4F87ED0C0B0025EA
:103E600001235022294607F130000095FCF767FF37
:103E700001235022002107F180000095FCF7A6FEE7
:103E800097ED200B40A053EC102BFFF7FFF8012318
:103E90000D2200213F480095FCF751FF07F1150066
:103EA00001230D22002107460095FCF78FFE3946BD
:103EB00039A0FFF7EBF83BA0FFF7E8F8DFF8F88050
:103EC000A4F10C07387828B13D702B490020091F58
:103ED000FEF782F90520FEF7B7FE98B3FDF7A0FBC9
:103EE000FDF764FBB0EE408A26480A211038FDF742
:103EF00003FB98F8FF0008B388F8FF502E492E48BE
:103F00000C39FDF745F8012818D12C49FEF79CFB28
:103F100029490C39A1F11000FEF7BBFB26480C38EB
:103F20000178217001796170007AA0703046FDF748
:103F30003DFC032231461048FDF760FC0520FEF7EA
:103F400079FEBFE7FFE70820FEF77EFE0028B9D024
:103F500018EE100AFCF728FB41EC110B18A153ECEA
:103F6000112B1A48FFF730F80820FEF763FEA9E787
:103F700000000000000001083C00002000000000DC
:103F800000001E40B0010020453250524F4D3A25EE
:103F9000660D0A0000400008453250524F4D3A2548
:103FA000730D0A00416C6C20496E697469616C2064
:103FB0006973204F4B0D0A00EC02002066526845E1
:103FC000536F6E69634469733A256600004400408C
:103FD000010000000A00000014000000280000009A
:103FE0003200000064000000C8000000F40100007E
:103FF000E803000004000707252601010203010071
:104000004A61636B544A48406E75616100004040EC
:10401000404040404040404141414141404040409B
:104020004040404040404040404040404040050209
:104030000202020202020202020202020202202024
:1040400020202020202020200202020202020290D2
:1040500090909090901010101010101010101010E0
:10406000101010101010101010020202020202882C
:104070008888888888080808080808080808080840
:1040800008080808080808080802020202400000A0
:104090000E400008B440000800000020600000004E
:1040A000D830000814410008600000209013000080
:1040B000E8300008000000000000000000000000E0
:1040C000000402400000000000000240000C02401A
:1040D0000010014000440040000402400054004031
:1040E000000002400000000000000000000000008E
:1040F00000000000000000000000010203040102B3
:10410000030406070809000000000000000000008A
:0441100000000000AB
:040000050800018965
:00000001FF
