:020000040800F2
:1000000020040020A101000847040008A5030008FF
:100010004504000845020008BD0B00080000000070
:100020000000000000000000000000006106000861
:100030004702000800000000690500086507000885
:10004000BB010008BB010008BB010008BB010008A0
:10005000BB010008BB01000849020008BB01000801
:10006000BB010008BB010008BB010008BB01000880
:10007000BB010008BB010008BB010008BB01000870
:10008000BB010008BB010008BB010008BB01000860
:10009000BB010008BB010008BB010008BB01000850
:1000A000BB010008BB010008BB010008BB01000840
:1000B000BB010008BB010008BB010008BB01000830
:1000C000BB010008BB010008BB010008BB01000820
:1000D000BB010008090A0008BB010008BB010008B9
:1000E000BB010008BB010008BB010008BB01000800
:1000F000BB010008BB010008BB010008BB010008F0
:10010000BB010008BB010008BB010008BB010008DF
:10011000BB010008BB010008CD070008BB010008B7
:10012000BB010008BB010008BB010008BB010008BF
:10013000BB010008BB010008BB010008BB010008AF
:10014000BB010008BB010008BB010008BB0100089F
:10015000BB010008BB010008BB010008BB0100088F
:10016000BB010008BB010008BB010008BB0100087F
:10017000BB010008BB010008BB010008BB0100086F
:10018000BB010008BB010008DFF810D000F01AF82E
:1001900000480047350C0008AFF300802004002021
:1001A0000648804706480047FEE7FEE7FEE7FEE711
:1001B000FEE7FEE7FEE7FEE7FEE7FEE76907000869
:1001C00089010008064C074D06E0E06840F0010395
:1001D00094E8070098471034AC42F6D3FFF7D8FFF5
:1001E000840C0008A40C00087FB504460D460121CC
:1001F000102000F0C9F90026ADF806606D1E0295CA
:10020000641EADF804400E4C01A9204600F068FBC6
:1002100001221146204600F01EFB36218DF8001009
:1002200001218DF803108DF801108DF802606846E9
:1002300000F00AF90121204600F0F5FA7FBD000028
:1002400000100040FEE7704710B5012000F014F8E0
:10025000012808D10421044800F0A0F8BDE81040AE
:10026000012000F003B810BD0004024001490860FD
:1002700070470000143C014001460020024A126809
:100280000A4200D001207047143C014030B51B4A9F
:1002900083790168002B2AD013688B431360111DEA
:1002A0000B680468A3430B60017911440B68046870
:1002B00023430B60114C0834216803689943216083
:1002C000231D19680568A94319604179102905D0D3
:1002D00011440A68006802430A6030BD2168026860
:1002E00011432160196800680143196030BD00792D
:1002F000104402688A43026030BD0000003C0140A7
:100300002DE9F041002201274FF0030C07FA02F516
:100310000B682B40AB422CD1066853000CFA03F457
:10032000A64306600E79D0F800809E4046EA080693
:1003300006600E79012E01D0022E12D18668A643E6
:1003400086604E79D0F808809E4046EA08068660AE
:100350004668AE43466045688E799640B6B23543EE
:100360004560C568A543C560CC799C40C3681C4303
:10037000C460521C102AC9D3BDE8F08110B54B07E8
:10038000DB0E9A40C90800EB8100016A0F249C40F3
:10039000A1430162016A1143016210BD42694A40F2
:1003A00042617047FEE700003EB51348016841F026
:1003B000010101600121880300F0F4F80124019497
:1003C0008DF80A4000208DF8080008208DF80900FB
:1003D00001A8FFF75BFF0021084600F043F9062063
:1003E0008DF800008DF803408DF801408DF8024033
:1003F000684600F029F83EBD303802401CB504467E
:10040000002C03D10121022000F0B0F80B4830F895
:100410001400009001208DF8040000208DF80600E3
:1004200003208DF8050002208DF807000448694676
:1004300050F82400FFF764FF1CBD0000800C00088A
:1004400010000020FEE7704730B50F23C278012569
:100450000178002A1FD0154A126802F4E062C2F542
:10046000E062C2F30722C2F10404D3404278A24002
:1004700084781C401443220101F1E02181F800241A
:10048000007800F01F018D404009800000F1E0205D
:10049000C0F8005130BD01F01F00854048098000C0
:1004A00000F1E020C0F8805130BD00000CED00E00C
:1004B0000249084302490860704700000000FA053D
:1004C0000CED00E030B589B005460C4600F02CF884
:1004D0000121084600F058F80794ADF818500024A0
:1004E000ADF81A404FF0804506A9284600F0F8F90B
:1004F0006021ADF804100121ADF806100394ADF8A9
:10050000104001A9284600F0B1F90821284600F062
:10051000E1F90121284600F077F90121284600F091
:1005200082F909B030BD00001CB50121084600F079
:100530001DF82020009002208DF8040001208DF885
:10054000050000208DF806008DF80700054C69466F
:100550002046FFF7D5FE012205212046FFF70EFFBA
:100560001CBD00000000024070470000054A002941
:1005700003D0116801431160704711688143116015
:100580007047000030380240054A002903D0116846
:10059000014311607047116881431160704700008A
:1005A00040380240054A002903D011680143116018
:1005B0007047116881431160704700004438024061
:1005C00070B5244B196801F00C01234C00291ED092
:1005D000661004291DD008291DD00460196801F097
:1005E000F00109091D4A545C0168E14041601C6842
:1005F00004F4E054A40A145D21FA04F484601B6836
:1006000003F460435B0BD25CD140C16070BD0460F9
:10061000E4E70660E2E70F4A121F1168C1F3805554
:10062000116801F03F0135B1B6FBF1F11468C4F374
:100630008814614305E0B4FBF1F11468C4F3881435
:1006400061431268C2F30142521C5200B1FBF2F145
:100650000160C3E7083802400024F40000000020D5
:100660007047000010B58A07120F0F23934021F046
:1006700003040649214401F608010C689C430C6000
:100680000B68904003430B6010BD00000030014038
:100690000CB50022019200922749086840F480308E
:1006A00008604FF4A043086800F4003000900198FF
:1006B000401C0190009810B901989842F3D1086845
:1006C000800302D50120009000E0009200980128EC
:1006D00031D119484030026842F080520260174818
:1006E000026842F440420260134808300268026027
:1006F000026842F400420260026842F4A0520260C2
:10070000021F0F4B13600A6842F080720A600A6889
:100710009201FCD50B4A40F205711160016821F08D
:1007200003010160016841F0020101600168C1F349
:1007300081010229FAD10CBD00380240007000404E
:1007400008544007003C02404FF0E021042804D048
:10075000086920F0040008617047086940F004004F
:10076000086170477047000010B51248016841F4F5
:10077000700101601048016841F0010101600E4AFA
:1007800000210832116002680C4B1A400260031D00
:100790000B4A1A60026822F48022026006480C307C
:1007A0000160FFF775FF03494FF000608039086072
:1007B00010BD000088ED00E000380240FFFFF6FEAB
:1007C000103000246FF00400FFF7BEBF10B50C4CD2
:1007D0000121204600F033F801280FD1094908888B
:1007E000401C80B20880B0F57A7F01D300200880D9
:1007F0002046BDE81040012100F012B810BD0000F5
:100800000010004014000020002904D0018841F0AD
:10081000800101807047018821F0800101807047CC
:10082000C94301827047002904D0018841F00101C9
:1008300001807047018821F0010101807047024664
:100840000020138A0B4092890A40002B02D0002A14
:1008500000D001207047002A03D082890A43828198
:10086000704782898A4382817047000030B5028CCC
:1008700022F001020284058C8388028B22F0700230
:1008800022F003020C88144325F002028D891543DF
:100890004A882A430D4DA84202D00D4DA8420FD1DF
:1008A00022F00805CA892A4322F004058A882A43CF
:1008B00023F4807323F400730D8A1D434B8A2B436A
:1008C0008380048389684163028430BD0000014055
:1008D00000040140028B22F008020A4302837047A1
:1008E00030B50288164C174DA0420DD0A8420BD04F
:1008F000B0F1804F08D0144B984205D0134B98426A
:1009000002D0134B984203D122F070034A881A4355
:10091000104B984206D0104B984203D022F44073FB
:100920000A891A4302804A68C2620A880285A04284
:1009300001D0A84201D1897A01860121818230BD8E
:100940000000014000040140000400400008004095
:10095000000C0040001000400014004070B588B04A
:10096000054601210846FFF701FE01211020FFF78F
:1009700019FE4FF4C060069002208DF81C00032081
:100980008DF81D0000248DF81E408DF81F401C4E70
:1009900006A93046FFF7B4FC072209213046FFF7CD
:1009A000EDFC07220A213046FFF7E8FC0295ADF87E
:1009B00014400C20ADF81200ADF81040ADF80E4018
:1009C000ADF80C400F4C02A9204600F091F801222E
:1009D00040F22551204600F070F825218DF80410D2
:1009E00001218DF807108DF805108DF8061001A86B
:1009F000FFF72AFD0121204600F02CF808B070BD59
:100A0000000002400010014070B50D4C40F2255529
:100A10002946204600F031F8002810D0294620460B
:100A200000F010F8204600F0C1F80146204600F022
:100A3000C1F88021204600F019F80028F9D070BDD7
:100A40000010014040F66A120A0A01219140C94390
:100A500001807047002904D0818941F400518181CF
:100A60007047818921F4005181817047024600203E
:100A700012880A4200D00120704770B5002440F669
:100A80006A12C1F3421301F01F05012606FA05F2AE
:100A9000012B0CD0022B0DD0838A1340090A8E4003
:100AA000008830400BB100B10124204670BD83891D
:100AB0001340F3E7038A1340F0E710B540F66A13DA
:100AC000C1F3421301F01F040121A140012B07D003
:100AD000022B07D014303AB102680A43026010BDFD
:100AE0000C30F8E71030F6E702688A43026010BD68
:100AF0007FB504460D46208A20F44051E88808431B
:100B00002082A08941F20C618843A9882A89114377
:100B10006A8902431143A181A08A20F44071A88907
:100B20000843A0826846FFF74BFD1E48844202D06E
:100B30001D48844201D1039800E00298A18909046C
:100B400008D500EBC00101EB001029684900B0FB9B
:100B5000F1F007E000EBC00101EB0010296889000B
:100B6000B0FBF1F06422B0FBF2F109010B096FF068
:100B700018056B4300EB8300A3891D044FF032037B
:100B800007D503EBC000B0FBF2F000F0070008430C
:100B900006E003EB0010B0FBF2F000F00F0008439A
:100BA00020817FBD00100140001401408088C0F307
:100BB00008007047C1F3080181807047FEE700001C
:100BC000014A024900F013B8110C00081800002077
:100BD00002E008C8121F08C1002AFAD17047704706
:100BE000002001E001C1121F002AFBD170472DE94E
:100BF000F04116460F460446002503E03946B0474B
:100C0000641C6D1C20780028F8D12846BDE8F081CE
:100C100070B50446064DE1B22846FFF7CBFF4021F0
:100C20002846FFF723FF0028F9D0204670BD0000BA
:100C3000001001404FF4C060FFF73AFC0020FFF7BE
:100C4000DDFBFFF7B1FBFFF7BDFD4FF47A715420D8
:100C5000FFF7CAFA64215420FFF734FC4FF4E13067
:100C6000FFF77CFE01A0FFF7ABFFFEE7416C6C20B5
:100C7000496E697469616C206973204F4B0D0A00DD
:100C800004000000A40C0008000000201C0000006C
:100C9000D00B0008C00C00081C0000200404000059
:100CA000E00B00080000000001020304010203043D
:100CB00006070809000402400000000000000000D0
:040000050800018965
:00000001FF
