:020000040800F2
:1000000030130020A1010008911B00089511000881
:10001000A11A00088D0C00089D2E000800000000A9
:100020000000000000000000000000003927000868
:100030008D0D000800000000DD1C000849280008A4
:10004000BB010008BB010008BB010008A523000894
:10005000BB010008BB010008BB010008BB01000890
:10006000BB010008BB010008BB010008BB01000880
:10007000BB010008BB010008BB010008BB01000870
:10008000BB010008BB010008BB010008BB01000860
:10009000BB010008BB010008BB010008BB01000850
:1000A000BB010008BB010008BB010008BB01000840
:1000B000BB010008B1280008BB010008BB01000813
:1000C000BB010008BB010008BB010008BB01000820
:1000D000BB010008BB010008B52C0008BB010008EB
:1000E000BB010008C51E0008BB010008BB010008D9
:1000F000BB010008BB010008BB010008BB010008F0
:10010000BB010008BB010008BB010008BB010008DF
:10011000BB010008BB01000871290008BB010008F1
:10012000BB010008BB010008BB010008BB010008BF
:10013000BB010008BB010008BB010008BB010008AF
:10014000BB010008BB010008BB010008BB0100089F
:10015000BB010008BB010008BB010008BB0100088F
:10016000BB010008BB010008BB010008BB0100087F
:10017000BB010008BB010008BB010008BB0100086F
:10018000BB010008BB010008DFF810D000F09CFBA9
:100190000048004735400008AFF3008030130020CE
:1001A0000648804706480047FEE7FEE7FEE7FEE711
:1001B000FEE7FEE7FEE7FEE7FEE7FEE74D28000864
:1001C00089010008D2B201E000F8012B491EFBD2E0
:1001D00070470022F6E710B513460A460446194652
:1001E000FFF7F0FF204610BD10B5044604E00B7881
:1001F00000F8013B03B1491C521EF8D2204610BD45
:1002000030B505460020034600E05B1C934205D252
:10021000EC5CC85C201A01D1002CF6D130BD000086
:1002200070B50F4D00B92868002412E00A4602E0BC
:100230009E4203D0521C1378002BF9D1DAB222432C
:1002400005D02BB124B1002100F8011B04E00446C5
:10025000401C0678002EE9D12860204670BD0000C1
:100260006800002070B5064603F064F8046805468F
:100270000A220021304600F043FA2C6070BD2DE9BF
:10028000FE4F804681EA0300C00F0C46009021F02B
:10029000004123F00045B8EB0200A94105D24046D9
:1002A000214690461C460B46024623F00040104370
:1002B00047D0270DC7F30A00C3F30A510290401A32
:1002C000019040286BDAC3F3130040F4801B0098C0
:1002D000924620B10023D2EB030A63EB0B0B01988B
:1002E0005946C0F14002504600F0D9F906460D4685
:1002F00050465946019A00F0F1F910EB08006141AF
:10030000002487EA115284EAE7731A4340D0009A26
:1003100062B3019A012A4FEA075215DC001B61EB18
:1003200002014FF0004202EA0752CDE90042001CF0
:1003300041F5801132462B4600F060FA03B0BDE86B
:10034000F08F40462146F9E7001B61EB0201001CDB
:1003500041F5801300185B412018A2F5001747EB08
:10036000030140EAD570B6196D4111E06D084FEAFE
:10037000360645EAC0754FEA0752001B61EB0201E1
:10038000001C41F5801149084FEA30000019514125
:1003900032462B4603B0BDE8F04F00F020BA00987B
:1003A000012240000023D0EB020263EBE0730098CF
:1003B00021464FEAE074B8EB000061EB0401E9E785
:1003C00083F000435BE781F0004158E72DE9FE4FE1
:1003D00081EA030404F0004421F0004100944FF04E
:1003E000000B23F0004350EA01045ED052EA0304FC
:1003F0005BD0C3F30A54C1F30A552C44A4F2F3347E
:100400000194A0FB0254C1F3130141F48011C3F322
:10041000130343F4801301FB024400FB034E840AE0
:10042000970A44EA815447EA8357A4FB0768029578
:100430008D0A05FB07854FEA932C04FB0C54270516
:10044000029D4FEA065847EA1637B5EB08056EEBF2
:10045000070C870E920E47EA811742EA8312A7FB28
:100460000201B6EB0B0164EB00042B0D43EA0C33E5
:100470005E1844EB1C50DA465146E7FB0201C5F317
:1004800013044FEA0B3343EA14534FEA0432019C3E
:1004900043EA0603A4F10C040294009CCDE900B4E5
:1004A00000F0ACF903B0BDE8F08F00200146F9E799
:1004B0002DE9F04D81EA030404F0004B21F00045E2
:1004C00014464FF0000A23F0004150EA050220D004
:1004D00054EA01021DD0C5F30A570246C5F31303BF
:1004E000C1F31300C1F30A5640F4801543F480139E
:1004F000A7EB0608101BD64608F2FD3873EB050083
:1005000002D308F1010801E092185B41B8F1000F35
:1005100003DA00200146BDE8F08D00204FF4801181
:10052000064684460EE0171B73EB050705D3121B26
:1005300063EB050306434CEA010C49084FEA30001F
:1005400092185B4150EA0107EDD152EA030012D044
:1005500082EA040083EA0501084305D0101BAB4181
:1005600006D20122002306E000224FF0004302E001
:100570006FF0010253101AEB06004CEB085110EB20
:100580000A0041EB0B01BDE8F04D00F028B90EB5B3
:1005900040F2334102910021CDE900110A460B4699
:1005A00000F02CF903B000BD30B5041E71F1000459
:1005B00004DB4FF00044404264EB0101141E73F170
:1005C000000405DB1C464FF00043524263EB04037A
:1005D000994208BF904230BD01F0004330B421F091
:1005E000004150EA010206D00A0DA2F56072C1F383
:1005F0001301002A02DC30BC00207047440F44EA9B
:10060000C104C100E01830BC00EBC25000F0B0B82B
:1006100030B50B46014600202022012409E021FAD2
:1006200002F59D4205D303FA02F5491B04FA02F5CF
:100630002844151EA2F10102F1DC30BD2DE9F05F66
:100640000546002092469B46884606468146402441
:100650001BE0284641464746224600F02FF8534605
:100660005A46C01A914110D311461846224600F04E
:1006700016F82D1A67EB01084F462246012000218B
:1006800000F00DF817EB00094E41201EA4F1010403
:10069000DFDC484631462A464346BDE8F09F202A23
:1006A00004DB203A00FA02F1002070479140C2F1C9
:1006B000200320FA03F3194390407047202A04DBFB
:1006C000203A21FA02F00021704721FA02F3D040CB
:1006D000C2F120029140084319467047202A06DBE8
:1006E000CB17203A41FA02F043EAE07306E041FA00
:1006F00002F3D040C2F120029140084319467047EE
:100700002DE9F04791460F4680460446002614F82E
:10071000015B2DB100F0EAF80068405DC007F6D13A
:100720002B2D02D02D2D18D0641E4A463946204666
:1007300000F0E0F827B13968A14201D1C7F8008084
:1007400071054FF002040BD54042002803DD02F092
:10075000F1FD0460A007BDE8F08746F48066E4E799
:100760000028F8DA02F0E6FD04606FF00040F2E7DE
:100770000029A8BF7047401C490008BF20F00100B5
:10078000704710B4B0FA80FC00FA0CF050EA010493
:1007900004BF10BC704749B1CCF1200421FA04F425
:1007A00011FA0CF118BF012121430843A3EB0C01FE
:1007B000CB1D4FEA00614FEA102042BF002010BC61
:1007C000704700EBC35010440029A4BF10BC704711
:1007D000401C490008BF20F0010010BC704710B554
:1007E000141E73F1000408DA401C41F10001921854
:1007F0005B411A4301D120F0010010BD2DE9F04DFD
:1008000092469B4611B1B1FA81F202E0B0FA80F251
:1008100020329046FFF743FF04460F4640EA0A00A5
:1008200041EA0B0153465A46084313D0114653EA96
:10083000010019D0C8F140025046FFF73FFF0546BE
:100840000E46504659464246FFF729FF084305D059
:10085000012004E020463946BDE8F08D0020054324
:1008600046EAE0762C4337430A986305E40AA0EB96
:1008700008000022FD0A44EA47540A3002D500204D
:100880000146E9E7010510196941DDE9084500194C
:100890006941BDE8F04DA2E7C1F30A52C1F313016B
:1008A00040F2FF3341F480119A4202DA00200146FF
:1008B000704740F233439A42A2F2334202DC524282
:1008C000FFF7FCBEFFF7EBBE064C074D06E0E06805
:1008D00040F0010394E8070098471034AC42F6D387
:1008E000FFF756FC1C4300083C43000800487047D3
:1008F000184300082DE9F05F82460078002715466E
:100900008B460AF10104B946302801D09DB113E0AD
:1009100014F8010B0127782803D0582801D045B1DD
:100920000AE00DB1102D07D10027102514F8010B96
:1009300002E0082500E00A250026B0460EE005FB8F
:10094000080005FB06F1012701EB10461FFA80F8AD
:10095000B6F5803F00D3B94614F8010B294600F0E4
:1009600018F80028EBDABBF1000F05D00FB1641EB8
:1009700000E05446CBF80040B9F1000F06D002F079
:10098000D9FC02210160C81EBDE8F09F48EA06407C
:10099000FAE73A2800D2303820F02002412A01D369
:1009A000A2F13700884201D34FF0FF307047002991
:1009B00004D0816841F0010181607047816821F0B5
:1009C000010181607047000010B5074C226807499B
:1009D0000A40D0E900131943D0E902300343194318
:1009E0001143216010BD000004230140E030FCFFF2
:1009F000002904D0816841F480718160704781686A
:100A000021F4807181607047002904D0816841F42D
:100A1000007181607047816821F4007181607047C6
:100A20001CB50121084601F05BF908200090032065
:100A30008DF8040000208DF807006946014800F099
:100A40009EFA1CBD0000024030B542680F4B1A40B0
:100A50000C790B6842EA04221343436083680C4A12
:100A60001340D1E9034222434D798C6844EA45049E
:100A700022431A438260C26A22F47002097D491E31
:100A8000C9B242EA0151C16230BD0000FFFEFFFC65
:100A9000FDF7FFC070B5072609290AD9C568A1F17D
:100AA0000A0404EB4404A640B543A3401D43C560BB
:100AB00007E0056901EB4104A640B543A3401D438F
:100AC00005611F23072A09D2446B521E02EB8202E2
:100AD00093409C4391400C43446370BD0D2A09D25E
:100AE000046BD21F02EB820293409C4391400C4363
:100AF000046370BDC46A0D3A02EB820293409C43CA
:100B000091400C43C46270BD816841F080418160B6
:100B1000704700000849002806D0D1F8040340F4CB
:100B20000000C1F804037047D1F8040320F400006A
:100B3000C1F8040370470000002001407FB508227F
:100B400095030021284600F0ACFF01220221292054
:100B500001F05EF86C120021204601F085F9104A80
:100B6000D3788DF8003013798DF8013050798DF8F5
:100B70000200E00501906A462146002001F0D4FA07
:100B80000121080301F07CFA0121204601F06CF9F3
:100B9000204601F0E9F9284600F00CF97FBD00007D
:100BA000500000207FB504460D460121102001F0C1
:100BB000A5F80026ADF806606D1E0295641EADF81E
:100BC00004400E4C01A9204601F05CFF01221146B1
:100BD000204601F00AFF36218DF8001001218DF822
:100BE00003108DF801108DF80260684600F0D2FF06
:100BF0000121204601F0DFFE7FBD00000010004013
:100C00003EB505460C46092219A12846FFF7F8FA19
:100C100020B11AA002F07EFB00203EBD082205F1A3
:100C200009016846FFF7E0FA00208DF8080012A1DC
:100C30006846FFF7F5FAA0B1FFF714FB20600EA19C
:100C40000020FFF7EDFA70B1FFF70CFB60600AA11E
:100C50000020FFF7E5FA40B1FFF704FBA060012098
:100C60003EBD00203EBD00203EBD00203EBD000038
:100C70007365742D74696D653A000000546869737A
:100C800020736574204461790D0A0000FEE70000BE
:100C90001CB50446002C03D10121084601F020F8C0
:100CA000064830F81400009000208DF80400044835
:100CB000694650F8240000F062F91CBD804200082B
:100CC00040000020002904D0016841F001010160CA
:100CD0007047016821F001010160704710B590B0C4
:100CE0000121880500F0FCFF022005900020019002
:100CF00004900E4903910E904FF400510991C910D0
:100D0000079189100A910A4902910F90C91408911C
:100D1000069088010B90074C01A9204600F00CF8C2
:100D200001212046FFF7CEFF10B010BDC00000200B
:100D30004C2001401064024030B50368124A134051
:100D4000CC680A682243D1E905452C432243CC698B
:100D500022430C6A22434C6A22438C6A22434C6B26
:100D600022438C6B22431A430260426922F007033C
:100D7000D1E90B2422431A4342610A6942604A685E
:100D800082608968C16030BD3F801CF070474FF0C1
:100D9000E02100220A61C0EBC00000EB4000401ED1
:100DA00048618A61012008610869C003FCD50A61B5
:100DB000704700000149086070470000143C014082
:100DC00030B51B4A83790168002B2AD013688B4306
:100DD0001360111D0B680468A3430B600179114473
:100DE0000B68046823430B60114C083421680368C6
:100DF00099432160231D19680568A9431960417949
:100E0000102905D011440A68006802430A6030BD09
:100E10002168026811432160196800680143196064
:100E200030BD0079104402688A43026030BD000082
:100E3000003C014001490860704700000C3C024042
:100E400070B506460025002905D0012927D00229C2
:100E500028D04FF4407500F081F809281ED1134CBA
:100E6000206820F4407020602068284320602068BB
:100E700020F0F8002060206846F00201084320605E
:100E8000206840F48030206000F068F8216821F08C
:100E900002012160216821F0F801216070BD4FF44A
:100EA0008075D8E74FF40075D5E70000103C02408C
:100EB00009200D490A68D20301D5012070470A684C
:100EC000D20601D5062070470A68D20501D5022056
:100ED00070470A6812F0E00F01D0072070470968D8
:100EE0008907FBD5082070470C3C02400248016886
:100EF00041F0004101607047103C024070B505466A
:100F00000E4600F02BF8092813D10A4C206820F473
:100F100040702060206840F400702060206840F03D
:100F2000010020602E6000F019F8216821F0010115
:100F3000216070BD103C024005480068002805DAB9
:100F4000034804490C380160034901607047000000
:100F5000103C024023016745AB89EFCD08B509205D
:100F60000090FFF7A5FF009002E0FFF7A1FF0090BF
:100F70009DF800000128F8D09DF8000008BD2DE97B
:100F8000F041002201274FF0030C07FA02F50B682D
:100F90002B40AB422CD1066853000CFA03F4A64355
:100FA00006600E79D0F800809E4046EA080606608A
:100FB0000E79012E01D0022E12D18668A6438660DA
:100FC0004E79D0F808809E4046EA0806866046685A
:100FD000AE43466045688E799640B6B2354345606B
:100FE000C568A543C560CC799C40C3681C43C460F8
:100FF000521C102AC9D3BDE8F08110B54B07DB0E97
:101000009A40C90800EB8100016A0F249C40A1436B
:101010000162016A1143016210BD0246002012699B
:101020000A4200D00120704742694A40426170473D
:10103000002A01D081617047090481617047000076
:1010400001460020A1F100624FF480439A4204D38C
:10105000164A0A449A4201D208207047144A0A44A8
:101060009A4201D210207047124A0A449A4201D291
:1010700018207047104A0A44B2F5803F01D2202060
:1010800070470E4A4FF400330A449A4201D2282096
:1010900070470B4A0A449A4201D230207047094AED
:1010A00011449942FAD238207047000000C0FFF77F
:1010B0000080FFF70040FFF70000FFF70000FEF799
:1010C0000000FCF70000FAF70349044A31F8101059
:1010D00052F82000FFF7A1BF804200084000002026
:1010E00010B504460020208005E0228823891A4498
:1010F0002280401CC0B28842F7D3012904D920883D
:10110000B0FBF1F0608001E0208860806088FFF72C
:101110003EFA9FED141B53EC112BFFF757F99FED8F
:10112000131B53EC112BFFF751F99FED121B53ECDE
:10113000112BFFF745F99FED111B53EC112BFFF716
:1011400045F99FED101B53EC112BFFF7B1F99FED03
:101150000F1B53EC112BFFF792F8FFF73DFA60607D
:1011600010BD0000000000000000303F66666666AB
:1011700066660A4052B81E85EB51E83F0000000049
:1011800000408F400000000000000440000000000C
:1011900000003940FEE710B5FFF752FF0446FFF7A5
:1011A000CBFEF320FFF746FE02212046FFF748FE64
:1011B00000F013F8BDE81040FFF798BE10B5002905
:1011C0000AD0002808D0002304E051F8234040F85A
:1011D00023405B1C9342F8D310BD10B5FFF7BEFE51
:1011E0000928FBD110BD2DE9F04106460D461746F2
:1011F000FFF7A2FEF320FFF71DFE00240CE056F8D7
:10120000241005EB8400FFF779FEFFF7E6FFFFF7F8
:101210004FFE092802D1641CBC42F0D3BDE8F04166
:10122000FFF764BE0520FFF7B2BD00002DE9FC41C9
:1012300080460C46002C02D0012C05D008E001218C
:10124000022000F04DFD03E00121022000F048FDE6
:101250002C4850F82400009001278DF804708DF878
:10126000057000258DF806508DF80750264E69460A
:1012700056F82400FFF783FEB8F1010F33D121485F
:10128000083050F8240000908DF804704FF00208E8
:101290008DF805808DF806508DF8075056F824001B
:1012A0006946FFF76CFE1748183050F8240000908C
:1012B0008DF804508DF8075056F824006946FFF762
:1012C0005EFE1048103050F8240000908DF8047035
:1012D0008DF805808DF806508DF8075056F82400DB
:1012E0006946FFF74CFE09483CB1012C03D10122AD
:1012F0008114FFF79DFEBDE8FC8101224021FFF72C
:1013000097FEF8E760420008300000200004024029
:1013100070B588B005460C4621462846FFF786FF83
:10132000002D6BD114B1012C03D005E038200690BC
:1013300002E04FF46040069002208DF81C0001206E
:101340008DF81D0000258DF81E508DF81F502C4E75
:1013500006A956F82400FFF712FE14B1012C10D094
:101360001EE0052203213068FFF747FE0522042115
:101370003068FFF742FE052211463068FFF73DFE58
:101380000EE005220D217068FFF737FE05220E21C1
:101390007068FFF732FE05220F217068FFF72DFEFF
:1013A00014B1012C05D008E00121080300F0B4FCC1
:1013B00003E00121880300F0A1FC1020ADF810002B
:1013C000ADF80C50ADF80A50ADF80850ADF8045027
:1013D000ADF812504FF48270ADF806004FF4007073
:1013E000ADF80E00064D01A9083555F8240001F0AE
:1013F0007AF855F82400012101F05EF808B070BDBC
:10140000300000201CB50446002C03D1012102202D
:1014100000F066FC0B4830F81400009001208DF8B5
:10142000040000208DF8060003208DF8050002203E
:101430008DF807000448694650F82400FFF79FFD27
:101440001CBD000054420008140000200349044A57
:1014500031F8101052F82000FFF7E6BD54420008A2
:101460001400002070B504460D462A46214614207B
:1014700000F024F9800707D12B462246BDE87040D2
:101480000321142000F097B970BD2DE9F04389B015
:10149000074688469146002408214B4642460846A6
:1014A00000F0A9F84B46424600210D2000F036FA24
:1014B0004B46424680210E2000F09DF893208DF887
:1014C000100020208DF8110008A88DE8010304AB5E
:1014D000022204A90C2000F082F9064630000CD14B
:1014E000002204A8855CBD546C40521CD2B2042A70
:1014F000F8D3805CA04200D002264B4642468021B1
:101500000E2000F058F909B03046BDE8F083F0B580
:1015100089B0DDE90E568DF810008DF8111000200D
:1015200004AC2718115CB970401CC0B20628F8D36F
:1015300000202218195C1172401CC0B20628F8D392
:1015400008A88DE8610004AB0C2204A90E2000F06D
:1015500046F9044634B932462946082000F0AEF870
:10156000000700D4022409B02046F0BD2DE9F04761
:101570008046089F894615461E463B463246042152
:10158000052000F038F83B4632460021012000F0EB
:1015900009FA3B46324680210A2000F00CF900246B
:1015A00008E018F804103B463246092000F0B6F96E
:1015B000641CE4B24C45F4D33B463246032101207F
:1015C00000F0ACF9FF243A463146052000F076F8E9
:1015D000641EE4B20CB14007F5D53A4631462220EC
:1015E00000F06CF828703A463146212000F066F889
:1015F0006870BDE8F0872DE9F04107460C461546B6
:101600001E4632462946384600F058F820EA0401C2
:1016100033462A463846BDE8F04100F07FB9000065
:1016200070B504460D462946204600F080F82A464B
:101630002146012000F042F8C006F8D42B4622468D
:101640003D21112000F06AF92B4622461E212D2053
:1016500000F064F92B46224600212C2000F05EF9B0
:101660002B4622468D212A2000F058F92B4622468F
:101670003E212B2000F052F92B4622464021152016
:1016800000F04CF92B4622467021262000F046F946
:1016900029462046FFF7E6FEBDE8704001A001F0B4
:1016A00039BE00004D4652433532325F496E69748F
:1016B000206973204F6B0D0A000000007E2303EAAF
:1016C000400040F0800000F031B9F0B589B0074625
:1016D0000C4616461D4608212B4632460846FFF7A3
:1016E0008AFF2B46324607210D2000F017F92B46C2
:1016F00032460321142000F05EF88DF81470CDE915
:10170000016504A8009005AB012205A90C2000F09A
:1017100066F8002809D1BDF81010102905D19DF8F0
:10172000141021709DF81510617009B0F0BD0B46C2
:1017300002460F21012000F0F1B870B588B00E46C6
:10174000154693218DF8101070218DF8111000218D
:101750008DF81610002204ACA318815C99709DF8D6
:101760001630815C4B408DF81630521CD2B2042AE0
:10177000F2D33346E21D072104A80095FFF7F6FED9
:1017800008212B4632460846FFF735FFCDE90165B3
:1017900003A8009004AB092204A90C2000F01FF854
:1017A00018B9BDF80C00182802D0002008B070BD90
:1017B0009DF81000FAE72DE9F04107460C46154662
:1017C0001E46324629463846FFF778FF40EA0401B4
:1017D00033462A463846BDE8F04100F09FB82DE96F
:1017E000F05F82460D469346984602270026B14692
:1017F000BAF10C0F06D0BAF10E0F06D112264FF037
:10180000100902E077264FF03009DDE90B2346F09E
:101810008001022000F082F8DDE90B238021042002
:10182000FFF7E9FEDDE90B2380210A20FFF7C3FF64
:10183000DDE90B230021012000F070F8002407E00F
:10184000295DDDE90B23092000F068F8641CA4B2CF
:101850005C45F5D3DDE90B235146012000F05EF82D
:10186000BAF10C0F05D1DDE90B2380210D20FFF724
:10187000A2FF4FF4FA64DDE90B120420FFF71EFF0C
:101880000546641EA4B224B1E80702D115EA090F87
:10189000F1D0DDE90B2380210D20FFF7ACFE44B130
:1018A000DDE90B120620FFF709FF10F01B0F03D034
:1018B00002273846BDE8F09F00273540E80700D0F2
:1018C0000127BAF10C0FF4D1DDE90B120A20FFF762
:1018D000F5FE0546DDE90B120C20FFF7EFFE00F0E8
:1018E000070028B1691E00EBC1000A99088002E0D8
:1018F0000A98E900018005B90125102D00D91025AD
:10190000002408E0DDE90B120920FFF7D7FE08F8F4
:101910000400641CA4B2AC42F4D3CAE730B47E2401
:1019200004EA400030BC00F03DB800002DE9F04171
:1019300080460D4614461A4EB714002C02D0012CD6
:1019400006D00AE0002240213046FFF771FB04E098
:10195000002239463046FFF76BFB224629464046B7
:1019600000F030FE3DB1204600F0DAFD05464CB1F6
:10197000012C0DD011E022462946002000F022FE65
:101980000546F4E7012240213046FFF751FB04E011
:10199000012239463046FFF74BFB2846BDE8F0816F
:1019A000000402402DE9F04781460F4690461C4650
:1019B000174DAE14002C02D0012C06D00AE00022F4
:1019C00040212846FFF734FB04E000223146284638
:1019D000FFF72EFB22464146484600F0F3FD224623
:1019E0004146384600F0EEFD44B1012C0DD13146A0
:1019F0002846BDE8F0470122FFF71ABB2846BDE89C
:101A0000F04701224021FFF713BBBDE8F08700003B
:101A10000004024010B58AB0FFF702F8FFF75EF944
:101A20000121080200F078F90024089406944FF48C
:101A300080300790099406A8FEF7C6FF01208DF8B4
:101A400005000494029402218DF8141000948DF87E
:101A50000400124C69462046FEF7F6FF03230122DC
:101A600010212046FFF716F80323022219462046CC
:101A7000FFF710F80120FFF74DF801212046FEF78F
:101A8000C3FF01212046FEF7B3FF01212046FEF7E8
:101A90008EFF2046FFF738F80AB010BD0020014045
:101AA000FEE71CB503460C461846FFF783F9009382
:101AB0008DF804408DF8052001208DF80600684659
:101AC000FFF77EF91CBD000070B504460D4600F01E
:101AD00028FA022C01D101F0F7FB012D01D1FFF70B
:101AE0002DF8012000F016FB0849884203D0BDE81C
:101AF000704000F02BBC0121080700F0FFF8012026
:101B000000F0E6F8BDE8704000F062BC665268453F
:101B1000F0B587B004460D4616461B4803AF90E863
:101B20000E00C0680EC7069004F1260133462A460F
:101B30000F465220FFF7C9FD84F82A0038B133461A
:101B40002A4639465220FFF7C0FD84F82A0094F84F
:101B50002A00002815D1324629463846FFF795FC61
:101B600000280ED1324629463846FFF7E6FD84F8B4
:101B70002B00CDE900563B46044A06216120FFF7C1
:101B8000C6FC07B0F0BD00002042000800000020A5
:101B90007047000030B50F23C27801250178002A74
:101BA0001FD0154A126802F4E062C2F5E062C2F387
:101BB0000722C2F10404D3404278A24084781C403A
:101BC0001443220101F1E02181F80024007800F0A3
:101BD0001F018D404009800000F1E020C0F8005155
:101BE00030BD01F01F0085404809800000F1E02071
:101BF000C0F8805130BD00000CED00E00249084300
:101C000002490860704700000000FA050CED00E092
:101C100008B58DF8000001208DF803008DF8011043
:101C20008DF802206846FFF7B5FF08BD30B589B0D2
:101C300005460C4600F02CF80121084600F05EF83D
:101C40000794ADF818500024ADF81A404FF08045C5
:101C500006A9284600F016FF6021ADF80410012106
:101C6000ADF806100394ADF8104001A9284600F025
:101C7000C7FE0821284600F0FDFE0121284600F09D
:101C80008BFE0121284600F096FE09B030BD000011
:101C90001CB50121084600F023F820200090022006
:101CA0008DF8040001208DF8050000208DF8060055
:101CB0008DF80700054C69462046FFF760F90122C0
:101CC00005212046FFF799F91CBD000000000240E5
:101CD000014908627047000000000E427047000092
:101CE000054A002903D0116801431160704711684B
:101CF000814311607047000030380240054A0029D6
:101D000003D011680143116070471168814311606D
:101D10007047000040380240054A002903D011688E
:101D200001431160704711688143116070470000E2
:101D30004438024070B5244B196801F00C01234C63
:101D400000291ED0661004291DD008291DD004606A
:101D5000196801F0F00109091D4A545C0168E1406D
:101D600041601C6804F4E054A40A145D21FA04F4F0
:101D700084601B6803F460435B0BD25CD140C1609C
:101D800070BD0460E4E70660E2E70F4A121F1168C5
:101D9000C1F38055116801F03F0135B1B6FBF1F197
:101DA0001468C4F38814614305E0B4FBF1F11468CE
:101DB000C4F3881461431268C2F30142521C5200FA
:101DC000B1FBF2F10160C3E7083802400024F400DF
:101DD0005600002002460020510901290BD002299B
:101DE0000DD00949096802F01F02012393400B42FC
:101DF00000D001207047044974390968F3E70249AB
:101E0000091F0968EFE70000743802400649002204
:101E10000A700A70012804D0042801D10520087036
:101E2000704701200870704770380240014908600F
:101E3000704700003C0E4742C0F30121032907D13F
:101E4000074B196821F4F812064901401143196043
:101E5000034A68321168C0F30B00014311607047F8
:101E600008380240FFFCFF0F38B500220092144CE6
:101E7000CA22226053222260114A1C3A002904D04F
:101E8000116801431160012015E011688143116060
:101E90000B4A183A9513116801EA1021009B5B1C4C
:101EA0000093009BAB4201D00029F4D0116811EAE5
:101EB000102F03D00120FF21216038BD0020FAE758
:101EC0002428004010B54FF48054204600F092F8CA
:101ED00028B1204600F056F86001FEF76BFFBDE820
:101EE000104001A001F016BA54696D655F4172722D
:101EF0006976650D0A000000010901EB81014900C6
:101F000000F00F000844C0B27047002103E0491CF4
:101F1000C9B20A38C0B20A28F9D2090740EA1160EA
:101F200070470EB501210807FFF7E8FE0120FFF713
:101F3000CFFE0120FFF76AFF4120FFF74BFF01288A
:101F4000FAD10002FFF778FF0120FFF76FFF00F0E2
:101F50003FFA7F200190FF20029000200090684609
:101F600000F0B0F80EBD000080B240F08000C14328
:101F70000348026802F080021143016070470000CC
:101F80000C280040000980B240F08000C1430348A3
:101F9000026802F080021143016070470C28004083
:101FA00008B5002000900E490868400615D44FF08F
:101FB000FF3008608B13086800F04000009A521C44
:101FC0000092009A9A4201D00028F4D00868400696
:101FD00001D5012008BD002008BD012008BD00007A
:101FE0000C2800400248016821F080010160704720
:101FF0000C28004010B500210D4A126802F00402BE
:102000000B4B383B1B6802EAD0340340234302EAFF
:1020100010421343064A343A126802EA1010002BA9
:1020200003D00004000C00D00121084610BD0000C0
:102030004028004010B502460C460F4801680F4882
:102040000140C1F305402070C1F30623637001F025
:102050007F03A37001F48001090CE170002A0AD10A
:10206000FFF74AFF20706078FFF746FF6070A078A6
:10207000FFF742FFA07010BD002800407F7F7F0067
:1020800030B50F4DCA222A6053222A600C4C0C4BEB
:102090001C3C20F004021C3300F00400002906D090
:1020A00021681143216019680143196005E0216826
:1020B00091432160196881431960FF20286030BD79
:1020C0002428004070B504460025114ECA20306017
:1020D00053203060FFF764FFA8B10D481C38016839
:1020E00021F0400101600168226811430160084845
:1020F000A168143801600168A28841EA02410160C8
:10210000FFF770FF0125FF203060284670BD0000FA
:102110002428004008B5034901EB80000090009896
:10212000006808BD5028004070B505460E461446AC
:1021300000202B49002D06D00968490608D52078D3
:10214000FFF7DAFE05E00968490607D4E07005E00C
:10215000E070A068A8B1207BFFF7CEFEADB1A078FB
:102160002178E27840EA01406178090241EA0241BF
:102170000843217B40EA0160A16808436168084385
:102180001CE0207BFFF7B8FEE8E72078FFF7BDFEF4
:1021900005046078FFF7B9FE45EA0025A078FFF74F
:1021A000B4FE0543E07845EA0045207BFFF7ADFE2D
:1021B000A16845EA00600843616808430849CA22EB
:1021C0001C310A6053220A60B6F5807F04D00A1FD2
:1021D0001060FF20086070BD014A14321060F8E7FB
:1021E0000828004070B505460C460026002D06D193
:1021F0006078C10603D520F010000A3060702DB160
:102200006078FFF779FEA078FFF776FE55B1A078E9
:10221000E17840EA014560782178000240EA4130E7
:1022200005430FE0E078FFF770FE05046078FFF7E4
:102230006CFE45EA0025A078FFF767FE054320788D
:1022400045EA40350E4CCA20206053202060FFF73D
:10225000A7FE88B10B480540094820380560FFF704
:10226000C1FE07481C380068800604D400F0B0F8AE
:1022700010B1012600E00126FF202060304670BD2D
:10228000242800403FFFFF002DE9F04105460C46A1
:1022900000260020244F002D06D03968490608D5B5
:1022A0002078FFF729FE05E03968490602D4E0707E
:1022B00000E0E07055B1A078217840EA01456078EF
:1022C000E178000240EA014005430FE02078FFF783
:1022D0001CFE05046078FFF718FE45EA0025A0788B
:1022E000FFF713FE0543E07845EA00450E4CCA208F
:1022F0001C34206053202060FFF752FE78B10B4859
:102300000540094808380560FFF76CFE386880060C
:1023100004D400F05DF810B1012600E00126FF2092
:1023200020603046BDE8F081082800407F7F7F00B4
:102330000549CA220A6053220A60034A103A106013
:10234000FF20086070470000242800407CB5002072
:102350008DF807000C208DF804000A248DF8054044
:102360008DF8064001A90020FFF78EFF0C4D0120DB
:10237000294600F097F81F208DF802008DF80140E3
:1023800004208DF8000018208DF803006946002015
:10239000FFF728FF2946012000F084F87CBD0000EB
:1023A0006652684510B54FF480442046FFF722FE80
:1023B00000280AD00549012008702046FFF7E2FDF9
:1023C0002002BDE81040FEF7F5BC10BD440000201F
:1023D00018B500200090104BCA20186053201860D8
:1023E0000D491839086820F0A00008604FF4003447
:1023F000086800F02000009A521C0092009AA24245
:1024000001D00028F4D00868800601D5012000E042
:102410000020FF21196018BD24280040084ACA2165
:1024200011605321116006491C390B6823F0070322
:102430000B600B6803430B60FF20106070470000C7
:102440002428004018B500210091154BCA211960BD
:102450005321196012491C39002805D0086840F43E
:1024600080600860012017E0086820F48060086040
:102470000B4A183A9413106800F004000099491CA4
:1024800000910099A14201D00028F4D010684007C3
:1024900001D4002000E00120FF21196018BD0000D8
:1024A0002428004008B5034A02EB80000090009801
:1024B000016008BD50280040002904D0018841F087
:1024C000400101807047018821F040010180704780
:1024D0000246002012890A4200D0012070478089FC
:1024E00070478181704730B5028802F441530A88F1
:1024F0004C88CD8822438C882C4322430C8922436C
:102500004C8922438C892243CC8922431A4302807E
:10251000828B22F400628283098A018230BD00002E
:102520002DE9F04700240126DFF89480002802D02E
:10253000012820D041E000253746012208214046ED
:10254000FEF776FDFEF76EFE10214046FEF765FDB4
:1025500028B1C5F1070007FA00F62643F4B20022BD
:1025600008214046FEF764FDFEF75CFE6D1CEDB2EF
:10257000082DE2D321E000254FF4804A4FF40059A2
:10258000012249464046FEF753FDFEF74BFE5146F9
:102590004046FEF742FD28B1C5F1070006FA00F7F4
:1025A0002743FCB2002249464046FEF741FDFEF7B4
:1025B00039FE6D1CEDB2082DE2D32046BDE8F08750
:1025C000000402402DE9F04705461446494E4FF4F9
:1025D0008058C6F80080002905D0474F0126A4B3D3
:1025E000012C5AD083E0434F0C3709E03268501E6B
:1025F000306005D2002000F081F8C0B2BDE8F0875D
:1026000057F824000221FFF763FF0128EED157F8A5
:1026100024002946FFF765FFC6F8008008E030680F
:10262000411E316004D2012000F068F8C0B2E5E735
:1026300057F824000121FFF74BFF0128EFD157F88D
:102640002400FFF74CFFC0B2D8E7FFE70024C4F135
:10265000070106FA01F0284205D001222021384660
:10266000FEF7E6FC04E0002220213846FEF7E0FCFD
:10267000FEF7D8FD012208213846FEF7D9FCFEF707
:10268000D1FD002208213846FEF7D2FCFEF7CAFD34
:10269000641CE4B2082CDAD329E000244FF400488B
:1026A0004FF40059C4F1070106FA01F0284205D0A1
:1026B000012241463846FEF7BBFC04E000224146B9
:1026C0003846FEF7B5FCFEF7ADFD01224946384617
:1026D000FEF7AEFCFEF7A6FD002249463846FEF79F
:1026E000A7FCFEF79FFD641CE4B2082CDAD300209F
:1026F00084E700002C0000200004024010B50146D1
:1027000002A000F007FE002010BD00003C3C2D534D
:1027100050492D4552524F522D3E3E205350495F55
:10272000576169744572726F72436F6465203D2012
:1027300025640D0A00000000704770B504460D4680
:102740004FF4807600213046FFF78EFB287820700A
:1027500028796070287AA070F005606022463146C2
:102760000020FFF7E1FC3046BDE870400121FFF793
:102770007BBB00000CB5002201920092274908683B
:1027800040F4803008604FF4A043086800F4003043
:1027900000900198401C0190009810B9019898424F
:1027A000F3D10868800302D50120009000E0009278
:1027B0000098012831D119484030026842F0805217
:1027C00002601748026842F4404202601348083031
:1027D00002680260026842F400420260026842F449
:1027E000A0520260021F0F4B13600A6842F0807211
:1027F0000A600A689201FCD50B4A40F2057111602B
:10280000016821F003010160016841F002010160EB
:102810000168C1F381010229FAD10CBD00380240E0
:102820000070004008544007003C02404FF0E02197
:10283000042804D0086920F0040008617047086982
:1028400040F00400086170477047000010B512485E
:10285000016841F4700101601048016841F0010114
:1028600001600E4A00210832116002680C4B1A40C8
:102870000260031D0B4A1A60026822F48022026083
:1028800006480C300160FFF775FF03494FF0006008
:102890008039086010BD000088ED00E0003802407B
:1028A000FFFFF6FE103000246FF00400FFF7BEBFFC
:1028B00070B52D4C20782D4D00064ED401212846B0
:1028C00000F087F8012809D12078400606D5207845
:1028D000C043800609D02178491C21700221284676
:1028E00000F077F8012812D037E020482030018826
:1028F00021F0020101800021284600F0B5F820787F
:1029000040F0800020704FF6FF706080E6E720788E
:1029100040060CD5207840F080002070284600F05A
:1029200056F860800021284600F09EF815E000214E
:1029300021706180207840F040002070284600F02F
:102940003AF80021284600F09BF80221284600F0C2
:102950008BF80121284600F02EF82846BDE870408B
:10296000032100F025B800004800002000040040CA
:1029700010B5084C0121204600F02BF8012807D1A2
:1029800000F0DAF82046BDE81040012100F010B850
:1029900010BD000000100040002904D0018841F063
:1029A000800101807047018821F08001018070471B
:1029B000C94301827047002904D0018841F0010118
:1029C00001807047018821F0010101807047406B50
:1029D000704702460020138A0B4092890A40002B60
:1029E00002D0002A00D001207047002A03D082893B
:1029F0000A438281704782898A438281704700003E
:102A000030B5028C22F001020284058C8388028B8F
:102A100022F0700222F003020C88144325F0020217
:102A20008D8915434A882A430D4DA84202D00D4D89
:102A3000A8420FD122F00805CA892A4322F00405D2
:102A40008A882A4323F4807323F400730D8A1D437C
:102A50004B8A2B438380048389684163028430BDA1
:102A60000000014000040140028C22F002020A43EF
:102A700002847047028B22F008020A4302837047E7
:102A80004162704730B50288164C174DA0420DD0F8
:102A9000A8420BD0B0F1804F08D0144B984205D01B
:102AA000134B984202D0134B984203D122F070038B
:102AB0004A881A43104B984206D0104B984203D0D4
:102AC00022F440730A891A4302804A68C2620A8863
:102AD0000285A04201D0A84201D1897A0186012154
:102AE000818230BD0000014000040140000400402C
:102AF00000080040000C004000100040001400409E
:102B000001218140024842888A4342807047000088
:102B10000C00002001218140014840880840704796
:102B20000C0000200121814002484288114341806D
:102B3000704700000C00002070B5104C6068401C0D
:102B40006060002020700E4D13E02078616855F819
:102B50002000B1FBF0F200FB121038B92078FFF72B
:102B6000E1FF2078012801D101F0F6F82078401C1F
:102B7000207020780928E8D370BD00000C000020E8
:102B800030420008F0B587B00446002C02D0012C7A
:102B900005D008E001210846FFF7A2F803E0012173
:102BA0000820FFF79DF814B1012C05D008E00121A1
:102BB0001020FFF7B1F803E001214804FFF79EF869
:102BC00014B1012C04D005E04FF4C060059001E081
:102BD0006020059002208DF8180003208DF8190060
:102BE00000258DF81A508DF81B50304E05A956F867
:102BF0002400FEF7C4F92E4F14B1012C0BD014E0C1
:102C00003A7809213068FEF7F8F93A780A213068F5
:102C1000FEF7F3F909E07A7805217068FEF7EDF91F
:102C20007A7806217068FEF7E8F914B1012C04D017
:102C300006E04FF4E130019002E04FF416500190AD
:102C4000ADF810500C20ADF80E00ADF80C50ADF8FA
:102C50000A50ADF80850154D01A9083555F8240063
:102C600000F0B6F8012C1AD1012240F22551686813
:102C700000F093F80E48801C40788DF80000012089
:102C80008DF803000A48001D40788DF801000848BF
:102C9000801D40788DF802006846FEF77BFF55F8EE
:102CA0002400012100F046F807B0F0BD1C00002010
:102CB0005642000870B5184C40F22555294620466A
:102CC00000F04BF8002817D02946204600F02AF8DB
:102CD000204600F0DBF8C0B2104A0124517861B1FF
:102CE0000F4B01290DD0022906D1242804D183F8E5
:102CF000FF4000205070907070BD5328FCD154707C
:102D000070BD452804D091785854491C917070BD0D
:102D10000220507070BD00000044004044000020BC
:102D20002C02002040F66A120A0A01219140C94390
:102D300001807047002904D0818941F400518181CC
:102D40007047818921F4005181817047024600203B
:102D500012880A4200D00120704770B5002440F666
:102D60006A12C1F3421301F01F05012606FA05F2AB
:102D7000012B0CD0022B0DD0838A1340090A8E4000
:102D8000008830400BB100B10124204670BD83891A
:102D90001340F3E7038A1340F0E710B540F66A13D7
:102DA000C1F3421301F01F040121A140012B07D000
:102DB000022B07D014303AB102680A43026010BDFA
:102DC0000C30F8E71030F6E702688A43026010BD65
:102DD0007FB504460D46208A20F44051E888084318
:102DE0002082A08941F20C618843A9882A89114375
:102DF0006A8902431143A181A08A20F44071A88905
:102E00000843A0826846FEF795FF1E48844202D020
:102E10001D48844201D1039800E00298A189090469
:102E200008D500EBC00101EB001029684900B0FB98
:102E3000F1F007E000EBC00101EB00102968890008
:102E4000B0FBF1F06422B0FBF2F109010B096FF065
:102E500018056B4300EB8300A3891D044FF0320378
:102E600007D503EBC000B0FBF2F000F00700084309
:102E700006E003EB0010B0FBF2F000F00F00084397
:102E800020817FBD00100140001401408088C0F304
:102E900008007047C1F3080181807047FEE7000019
:102EA0002DE9F0470446089E8A4615461F46DFF87E
:102EB0009C804FF48059002E02D0012E06D00AE0EB
:102EC000002240214046FEF7B3F804E000224946C4
:102ED0004046FEF7ADF8324639460320FFF772FB55
:102EE00032463946CAF30740FFF76CFB3246394693
:102EF000CAF30720FFF766FB0AF0FF0032463946A7
:102F0000FFF760FB05E08FB13046FFF709FB20704B
:102F1000641C6D1EADB2F6D27EB1012E14D14946AD
:102F20004046BDE8F0470122FEF782B832463946F6
:102F3000FF20FFF747FB2070EAE74046BDE8F04777
:102F400001224021FEF774B8BDE8F087000402407A
:102F50002DE9FF4F81B007460E9C0E46F0B241426C
:102F600001F0FF08150A02F0FF0B4FF4807A0028E9
:102F700015D0F0B24042C0B206EB00097DB3A2EB1F
:102F8000080080B2050A00F0FF0B0094424631466B
:102F90003846049B00F05AF807EB080647E09DB955
:102FA000009431463846049B00F050F805B0BDE867
:102FB000F08F0094524631463846049B00F046F8A4
:102FC00006F5807607F580776D1EEDB2F1D200949C
:102FD0005A4631463846049B00F038F8E6E7FFE7EA
:102FE000C34512D9ABEB0800C5B200944246314646
:102FF0003846049B00F02AF8494607EB0800009485
:103000002A46049B00F022F8D0E700943146384667
:10301000049B00F01BF8C9E700945246494630462D
:10302000049B00F013F809F5807906F580766D1E93
:10303000EDB2F1D2BBF1000FB8D000945A46494628
:103040003046049B00F002F8B0E700002DE9F0479D
:103050000546089E8A46144699463146484600F081
:1030600003F9284F4FF4805816B1012E06D00AE01C
:10307000002240213846FDF7DBFF04E000224146F4
:103080003846FDF7D5FF324649460220FFF79AFA47
:1030900032464946CAF30740FFF794FA324649469A
:1030A000CAF30720FFF78EFA0AF0FF0032464946BE
:1030B000FFF788FA4FF4807084420AD9044612A0C0
:1030C00000F028F905E0287832464946FFF77AFAF9
:1030D0006D1C641EA4B2F6D216B1012E06D00AE011
:1030E000012240213846FDF7A3FF04E001224146BA
:1030F0003846FDF79DFF31464846BDE8F04700F0F1
:1031000067B80000000402403C3C2D5350492D4557
:1031100052524F522D3E3E205732355158585F5033
:10312000616765577269746520746F6F206C617296
:103130006765210D0A0000002DE9F041054688462B
:1031400014462146404600F08FF82146404600F0E4
:103150003FF81E4EB71414B1012C06D00AE000222D
:1031600040213046FDF764FF04E000223946304636
:10317000FDF75EFF224641462020FFF723FA224654
:103180004146C5F30740FFF71DFA22464146C5F305
:103190000720FFF717FAE8B222464146FFF712FA76
:1031A00014B1012C06D00AE0012240213046FDF77F
:1031B0003FFF04E0012239463046FDF739FF214642
:1031C0004046BDE8F04100F003B8000000040240B2
:1031D0002DE9F04106460C46DFF884804FF4805715
:1031E000002C02D0012C06D00AE0002240214046EB
:1031F000FDF71EFF04E0002239464046FDF718FFA8
:10320000224631460520FFF7DDF9164D2F60BEB18D
:103210002046FFF785F929684A1E2A6004D2BDE8D6
:10322000F0410420FFF76ABAC007F0D174B1012C55
:1032300013D139464046BDE8F0410122FDF7F8BE02
:1032400022463146FF20FFF7BDF9E4E74046BDE8DE
:10325000F04101224021FDF7EBBEBDE8F081000006
:10326000000402402C0000202DE9F04107460C46E6
:10327000144DAE14002C02D0012C06D00AE000221E
:1032800040212846FDF7D4FE04E0002231462846BE
:10329000FDF7CEFE224639460620FFF793F944B1EA
:1032A000012C0DD131462846BDE8F0410122FDF741
:1032B000BFBE2846BDE8F04101224021FDF7B8BE5F
:1032C000BDE8F0810004024070B50822D40400215A
:1032D0002046FEF7E6FB002202210320FEF798FCC1
:1032E0000020FFF7AFF80420FFF798F80020FFF761
:1032F0001FF80120FFF7A6F801218D032846FEF7ED
:10330000BFFE2846FEF73EFE2046BDE87040FDF7B2
:1033100051BD00000FB4054B10B503A9044A029833
:1033200000F0DEF810BC5DF814FB0000753D0008ED
:103330006C000020004870477000002002E008C8C0
:10334000121F08C1002AFAD170477047002001E01F
:1033500001C1121F002AFBD1704700002DE9FF5F59
:1033600082B00021DDE90430020DDDF840B00343F6
:1033700018D044F61050A2F2FF32424315141198AF
:1033800001281FD0A5EB0B00401C5FEA000A4FF09C
:1033900000064E4FDFF83891B046504615D5CAF1B9
:1033A000000413E0119801244AA3012801D16FEA17
:1033B0000B010298119AC0E90031C0E9024206B03F
:1033C000BDE8F09FCBF10000DFE704460021404A52
:1033D000491842EB0450CDE9001012E0E00707D095
:1033E00032463B4640464946FCF7F0FF8046894658
:1033F00032463B4610461946FCF7E8FF06460F46A4
:103400006410002CEAD1DDE90401DDE90023BAF102
:10341000000F06DAFCF7DAFF42464B46FCF7D6FF10
:1034200005E0FDF745F842464B46FDF741F80446F6
:103430000E460022284BFDF7B7F803D84FF0FF30B7
:10344000014607E00022254B20463146FCF717FFD6
:10345000FDF722FA102409E0002C0ADB0A220023DF
:10346000FDF7ECF8039B30321A55641E50EA010256
:10347000F2D1641C039AC4F111031444119A012A75
:1034800003D0012208430DD10AE0084304D00020F4
:103490004FF0110B119072E7A3EB0B056D1E0DE0C1
:1034A0005B4504DD4FF0000205F1010504E003DA9D
:1034B0004FF00002A5F10105002AECD00298119905
:1034C000C0E90231C0E9004579E70000000014407E
:1034D0000000F03F300000000000F0430000E03F3B
:1034E0002DE9FF4F95B09A46884606460025EEE145
:1034F000252877D100242746F94A0121039400E0CA
:10350000044316F8013F203B01FA03F01042F7D1C3
:1035100030782A2811D06FF02F033078A0F13002D4
:10352000092A16D8039A44F0020402EB820203EB44
:1035300042021044761C0390EFE758F8042B0392E4
:10354000002A03DA504244F40054039044F0020489
:10355000761C30782E2816D116F8010F44F004049A
:103560002A280DD06FF02F023078A0F13003092BFC
:1035700009D807EB870302EB4303C718761CF3E770
:1035800058F8047B761C30786C280FD006DC4C2869
:1035900017D068280DD06A2814D104E0742810D000
:1035A0007A280FD10DE044F400140AE044F48014AA
:1035B00001E044F440147278824202D104F5801490
:1035C000761C761C307866280BD013DC582877D010
:1035D00009DC002875D04528F6D04628F4D04728C5
:1035E0001AD193E118E0632835D0642879D0652892
:1035F00012D18BE1702873D008DC6728F1D06928DC
:103600006FD06E280DD06F2806D1ACE073282CD077
:10361000752874D0782853D05246179990476D1C5E
:1036200054E1C4F30250022809D003280DD0D8F881
:10363000001004280DD00D6008F1040846E1D8F808
:103640000010EA17C1E90052F6E7D8F800100D8023
:10365000F2E70D70F0E718F8041B8DF80010002059
:103660008DF80100EB46012003E058F804BB4FF051
:10367000FF3061074FF0000102D40DE009F10101B4
:103680008946B9420FDA8145F8DB1BF80910002999
:10369000F4D108E009F1010189468142FADB1BF807
:1036A00009100029F6D103985346A0EB09072146DB
:1036B0003846179A00F080FA284400EB090507E025
:1036C00044E008E10DE01BF8010B524617999047C2
:1036D000B9F10109F7D2534621463846179AF2E06C
:1036E00039E00A21C4F302524FF0000B0091022A84
:1036F00006D058F8040BC117032A09D00AE023E0CA
:1037000008F1070020F00702F2E80201904605E008
:1037100000B2C117042A01D140B2C117002906DA4C
:103720000A460021404261EB02012D2202E02205FF
:1037300004D52B228DF80420012203E0E20701D0FA
:103740002022F7E7914657E00A2100E010214FF0D0
:10375000000B00910BE010214FF0000B44F004042B
:103760000827009103E008204FF0000B0090C4F3FD
:103770000252022A05D058F8040B0021032A08D06F
:1037800008E008F1070020F00702F2E80201904685
:1037900003E080B2042A00D1C0B24FF00009220732
:1037A0002AD53278702A07D0DDF800C08CF0100CD2
:1037B0005CEA0B0C05D00EE040228DF804200122BB
:1037C00008E050EA010306D030238DF804308DF86C
:1037D000052002229146009B83F0080353EA0B0365
:1037E0000AD150EA010201D1620705D530228DF8D5
:1037F00004204FF001097F1E3278582A04D039A2E4
:103800000C920CAA02920BE03BA2F9E75B46009AED
:10381000FCF714FF0C9B9B5C029A521E02921370E1
:1038200050EA0102F2D1029804A9081A00F1200B13
:10383000600702D524F4803400E001275F4502DDF3
:10384000A7EB0B0000E0002000EB0B0100900398B9
:103850004944401A0390E00306D453462146179A80
:10386000039800F0A9F90544002706E001A8524694
:10387000C05D179990476D1C7F1C4F45F6DBE00338
:103880000CD553462146179A039800F095F9054444
:1038900004E030205246179990476D1C0099481E4D
:1038A00000900029F5DC08E0029802995246007861
:1038B000491C0291179990476D1CBBF10001ABF1B7
:1038C000010BF1DC5BE100F065F90544761C307812
:1038D00000287FF40DAE19B02846BDE8F08F000037
:1038E00009280100303132333435363738396162D6
:1038F000636465660000000030313233343536379A
:10390000383941424344454600000000600700D476
:10391000062708F1070020F00700F0E802238046A0
:1039200003F0004C5FEA0C0001D097A009E02005ED
:1039300001D596A005E0E00701D095A001E0AFF227
:103940004C001390307823F0004365280CD006DC3F
:10395000452809D046281DD047287FD13BE066285E
:1039600018D067287AD136E00021112F01DB112011
:1039700000E0781CCDE9000104A90CA8FFF7EEFCDB
:10398000DDE90D010C9A4FF0000B07F101091092CF
:1039900000914EE04FF000400097CDE9011004A9DE
:1039A0000CA8FFF7DBFCDDE90D020C9B0F994FF033
:1039B000000B91461093009211B9791C00EB01099C
:1039C000B7EB090003D4C0F1FF3B07F10109A9EBF4
:1039D0000700019042E0012F00DA01270021112F9A
:1039E00001DD112000E03846CDE9000104A90CA852
:1039F000FFF7B4FCDDE90D010C9A00914FF0000BCC
:103A0000B946109221070FD4009A4A4503DA91462D
:103A100001E0A9F10109B9F1010F05DD109AA9F141
:103A20000101515C3029F4D0B84202DA10F1040FE0
:103A300003DA0121CDE9011010E0002803DC834402
:103A4000A9EB000102E0411C494500DD8946A0EBDD
:103A50000B00401C01904FF000400290200705D45D
:103A60000198484502DB4FF0FF30019000208DF8AF
:103A70004B0002980DF14B07B0F1004F25D002200A
:103A80000C902B200D90029800280CDA40420290F6
:103A90002D200D9007E00A210298FCF7B9FD303186
:103AA000029007F8011D0C99481E0C900029F2DCC9
:103AB00002980028EFD1791E0D980870307800F038
:103AC000200040F0450007F8020D11A8C01BC01DE2
:103AD00002901398007800B1012000EB09010198D1
:103AE00001EBE071029801440398401A401E0390D4
:103AF000E00306D453462146179A039800F05CF879
:103B000005441398007818B15246179990476D1CD8
:103B1000E00323D553462146179A039800F04CF84A
:103B200005441BE0BBF1000F07DB0098584504DD9E
:103B30001098179910F80B0001E0179930205246A1
:103B4000904701980BF1010B401E05F10105019012
:103B500004D12E205246179990476D1CB9F10001EF
:103B6000A9F10109DEDC05E017F8010B52461799AF
:103B700090476D1C0299481E02900029F4DC5346C0
:103B80002146179A03989EE62D0000002B000000A6
:103B9000200000002DE9F041044600251E4617468E
:103BA000880404D405E039462020B0476D1C641E0B
:103BB000F9D52846BDE8F0812DE9F04104460025FD
:103BC0001E469046C80301D5302700E02027880410
:103BD00004D505E041463846B0476D1C641EF9D552
:103BE0002846BDE8F081000002490A68C263086007
:103BF0007047000008000020002802D000EB810080
:103C0000826270472DE9F04107460C4615461E4674
:103C1000002C29D040212046FCF7DBFA202239462F
:103C2000201DFCF7E1FA14F8240F20F00300801C9B
:103C300020F00C0008300421617044F8245C66F325
:103C400005102070A847217860F3871121700020AB
:103C5000A08260822074243C204600F07CF820463C
:103C6000BDE8F041FFF7C0BFBDE8F08170B5044684
:103C700020688047014694F824000026B1EB901F8D
:103C800019D0228F521C92B222870A2A13D361F3D1
:103C9000871084F824002687C0F301128A4205D1D8
:103CA00020F0030084F82400E68604E020F00300FE
:103CB000401C84F82400E08E401C82B2E28694F816
:103CC00024004FF0040510F0030302D0012B2CD187
:103CD0000AE0232A29D9B1EB901F26D1910724D1DC
:103CE000022184F8251020E094F82510022901D142
:103CF00084F82550192A08D210F00C0F05D194F839
:103D00003410491C84F83410E686E18E19290CD948
:103D1000E68694F8341001291AD003D94FF0010136
:103D200084F8251084F83460E686014660F3830148
:103D300084F8241094F82500032808D204EB8000AE
:103D4000816A002903D02046884784F8255070BD39
:103D500084F82560E6E7704710B50548046803E07D
:103D60002046FFF783FFE46B002CF9D110BD000063
:103D70000800002070B50446064DE1B22846FFF762
:103D800089F880212846FEF7E1FF0028F9D0204677
:103D900070BD0000001001400020AFF30080FDF76F
:103DA00093B9000010B5044694F82500002824D0EB
:103DB000012852D0022879D1042249A1201DFCF704
:103DC0001FFA00287BD0042247A1201DFCF718FA17
:103DD000002879D0042246A1201DFCF711FA002802
:103DE00077D0042244A1201DFCF70AFA002875D1DF
:103DF000BDE8104042A0FFF78DBA042238A1201D73
:103E0000FCF7FEF9B8B1042237A1201DFCF7F8F940
:103E1000C8B1042236A1201DFCF7F2F9C0B104227A
:103E200035A1201DFCF7ECF9002857D1BDE8104062
:103E300038A0FFF76FBA3BA0FFF76CFABDE810405F
:103E40000020FDF703BBBDE810403AA0FFF762BABF
:103E5000BDE810403BA0FFF75DBA042220A1201D61
:103E6000FCF7CEF9B8B104221FA1201DFCF7C8F958
:103E7000B0B104221EA1201DFCF7C2F9A8B1042292
:103E80001DA1201DFCF7BCF9002827D1BDE810407A
:103E900030A0FFF73FBABDE8104034A0FFF73ABAB0
:103EA000BDE8104037A0FFF735BA03E016E006E0A2
:103EB0000AE00EE0BDE8104038A0FFF72BBABDE8DD
:103EC00010403CA0FFF726BABDE810403EA0FFF727
:103ED00021BABDE8104041A0FFF71CBA10BD000098
:103EE0004B455931000000004B455932000000009D
:103EF0004B455933000000004B4559340000000089
:103F00004B455934206C6F6E6720636C69636B6539
:103F1000640D0A004B45593420636C69636B65641A
:103F20000D0A00004B45593120636C69636B656471
:103F30000D0A00004B45593220636C69636B656460
:103F40000D0A00004B45593320636C69636B65644F
:103F50000D0A00004B45593420646F75626C652072
:103F6000636C69636B65640D0A0000004B45593151
:103F700020646F75626C6520636C69636B65640DAA
:103F80000A0000004B45593220646F75626C652051
:103F9000636C69636B65640D0A0000004B4559331F
:103FA00020646F75626C6520636C69636B65640D7A
:103FB0000A0000004B455931206C6F6E6720636C1E
:103FC00069636B65640D0A004B455932206C6F6E56
:103FD0006720636C69636B65640D0A004B45593358
:103FE000206C6F6E6720636C69636B65640D0A00FB
:103FF00010B501230A4A0B490BA0FFF703FE0C4A38
:1040000000210848FFF7F8FD094A01210548FFF79C
:10401000F3FDBDE81040064A02210248FFF7ECBD5F
:10402000993D0008740000204B4559310000000004
:10403000A53D000808B54FF4A060FDF7DFFD0020A6
:10404000FDF7E0F9FEF730FC4FF47A715420FCF7ED
:10405000A9FD64215420FDF7E9FD4FF4E131002072
:10406000FEF790FD4FF416510120FEF78BFD002066
:10407000FCF70EFEFFF7BCFFFDF7CCFC534F544C92
:1040800003223946E01CFDF799F801210220FDF7D3
:104090001BFD01210020FDF73BF99FED4E0B4F4E1C
:1040A00086ED0C0B002101220846FFF745F801259B
:1040B0004FF4807800235022414606F130000095ED
:1040C000FEF746FF00235022414606F1800000958E
:1040D000FEF7E6FE96ED200B41A053EC102BFFF708
:1040E00019F9002101220846FFF726F86E02002385
:1040F000142231463E480095FEF72AFF37480095C6
:1041000015300023142231460546FEF7C9FE294624
:1041100038A0FFF7FFF800210846FDF7F9F8002165
:104120000846FDF77DFA37A0FFF7F4F8DFF8E880DE
:10413000A4F10C050026287828B12E70244900200F
:10414000091FFDF777FF0520FEF7E4FC98B323482D
:104150000A213838FCF7C4FF2048002211462C38C9
:10416000FDF7D6FC98F8FF0008B388F8FF602A49ED
:1041700029480C39FCF744FD012818D12749FEF7DE
:1041800091F925490C39A1F11000FEF7D6FA224821
:104190000C380178217001796170007AA07038467E
:1041A000FCF7F9FF032239460948FDF71CF8052002
:1041B000FEF7A6FCBFE7FFE70820FEF7ABFC0028F0
:1041C000B9D00820FEF79CFCB5E70000000001080C
:1041D000500000200000000000002540F0000020FA
:1041E000573235515858446174613A25660D0A00BA
:1041F00082420008573235515858446174613A255B
:10420000730D0A00416C6C20496E697469616C2001
:104210006973204F4B0D0A002C020020665268453E
:104220000102030000000000000000000000000088
:10423000010000000A000000140000002800000037
:104240003200000064000000C8000000F40100001B
:10425000E80300000400070725260101020300000F
:1042600040000000001000000800000000200000D6
:10427000200000000080000010000000004000004E
:1042800001004A61636B544A48406E7561612E6556
:1042900064752E636E000040404040404040404006
:1042A0004141414141404040404040404040404009
:1042B0004040404040404005020202020202020229
:1042C00002020202020202202020202020202020C0
:1042D0002002020202020202909090909090101030
:1042E00010101010101010101010101010101010CE
:1042F0001010020202020202888888888888080852
:10430000080808080808080808080808080808082D
:104310000808020202024000974200083C430008DD
:1043200000000020740000003C330008B043000887
:1043300074000020BC1200004C330008FFFFFFFF98
:10434000FFFF00000000000000000000000000006F
:10435000000402400000000000000240000C024087
:10436000001001400044004000A000000004024092
:1043700000040240003001400038004000000240CC
:10438000000000000000000000000000000000002D
:1043900000000000000001020304010203040607FC
:1043A00008090000000000000000000000000000FC
:040000050800018965
:00000001FF
