:020000040800F2
:1000000008040020A101000863040008CD030008D3
:1000100061040008450200080D0900080000000006
:10002000000000000000000000000000DD050008E6
:10003000470200080000000085050008E1060008EE
:10004000BB010008BB010008BB010008BB010008A0
:10005000BB010008BB01000871020008BB010008D9
:10006000BB010008BB010008BB010008BB01000880
:10007000BB010008BB010008BB010008BB01000870
:10008000BB010008BB010008BB010008BB01000860
:10009000BB010008BB010008BB010008BB01000850
:1000A000BB010008BB010008BB010008BB01000840
:1000B000BB010008BB010008BB010008BB01000830
:1000C000BB010008BB010008BB010008BB01000820
:1000D000BB010008BB010008BB010008BB01000810
:1000E000BB010008BB010008BB010008BB01000800
:1000F000BB010008BB010008BB010008BB010008F0
:10010000BB010008BB010008BB010008BB010008DF
:10011000BB010008BB01000849070008BB0100083B
:10012000BB010008BB010008BB010008BB010008BF
:10013000BB010008BB010008BB010008BB010008AF
:10014000BB010008BB010008BB010008BB0100089F
:10015000BB010008BB010008BB010008BB0100088F
:10016000BB010008BB010008BB010008BB0100087F
:10017000BB010008BB010008BB010008BB0100086F
:10018000BB010008BB010008DFF810D000F01AF82E
:10019000004800472D090008AFF300800804002044
:1001A0000648804706480047FEE7FEE7FEE7FEE711
:1001B000FEE7FEE7FEE7FEE7FEE7FEE7E5060008EE
:1001C00089010008064C074D06E0E06840F0010395
:1001D00094E8070098471034AC42F6D3FFF7D8FFF5
:1001E00084090008A40900087FB504460D460121D2
:1001F000102000F0D7F90026ADF806606D1E0295BC
:10020000641EADF804400E4C01A9204600F040FBEE
:1002100001221146204600F0F4FA36218DF8001034
:1002200001218DF803108DF801108DF802606846E9
:1002300000F018F90121204600F0CBFA7FBD000044
:1002400000100040FEE770474FF0E02100220A61F5
:1002500040F6412358434B1703EBC00048618A61C5
:10026000012008610869C003FCD50A6170470000DD
:1002700010B5012000F014F8012808D10421044829
:1002800000F0A0F8BDE81040012000F003B810BD58
:10029000000402400149086070470000143C01401E
:1002A00001460020024A12680A4200D0012070472D
:1002B000143C014030B51B4A83790168002B2AD0D9
:1002C00013688B431360111D0B680468A3430B6014
:1002D000017911440B68046823430B60114C083406
:1002E0002168036899432160231D19680568A943A3
:1002F00019604179102905D011440A680068024349
:100300000A6030BD216802681143216019680068E5
:100310000143196030BD0079104402688A430260CD
:1003200030BD0000003C01402DE9F04100220127D2
:100330004FF0030C07FA02F50B682B40AB422CD1AF
:10034000066853000CFA03F4A64306600E79D0F851
:1003500000809E4046EA080606600E79012E01D014
:10036000022E12D18668A64386604E79D0F80880A6
:100370009E4046EA080686604668AE434660456889
:100380008E799640B6B235434560C568A543C560D1
:10039000CC799C40C3681C43C460521C102AC9D34A
:1003A000BDE8F08110B54B07DB0E9A40C90800EBA1
:1003B0008100016A0F249C40A1430162016A11433C
:1003C000016210BD42694A4042617047FEE7000089
:1003D0003EB51548016841F0010101600121880323
:1003E00000F0EEF8012401948DF80A4000208DF809
:1003F000080008208DF8090001A8FFF75BFF002125
:10040000084600F0EDF806208DF800008DF8034056
:100410008DF801408DF80240684600F023F84FF453
:10042000C06000F053F83EBD303802400A48016811
:1004300041F0020101600948016841F010010160CA
:1004400006480830016841F030010160001D016874
:1004500041F0200101607047303802400004024042
:10046000FEE7704730B50F23C27801250178002AD6
:100470001FD0154A126802F4E062C2F5E062C2F3CE
:100480000722C2F10404D3404278A24084781C4081
:100490001443220101F1E02181F80024007800F0EA
:1004A0001F018D404009800000F1E020C0F800519C
:1004B00030BD01F01F0085404809800000F1E020B8
:1004C000C0F8805130BD00000CED00E00249084347
:1004D00002490860704700000000FA050CED00E0DA
:1004E00030B589B005460C4600F02CF801210846CD
:1004F00000F058F80794ADF818500024ADF81A40F1
:100500004FF0804506A9284600F0C2F96021ADF8F9
:1005100004100121ADF806100394ADF8104001A9B4
:10052000284600F079F90821284600F0A9F90121B0
:10053000284600F03FF90121284600F04AF909B0A9
:1005400030BD00001CB50121084600F01DF8202038
:10055000009002208DF8040001208DF80500002095
:100560008DF806008DF80700054C69462046FFF718
:10057000DBFE012205212046FFF714FF1CBD000011
:100580000000024070470000054A002903D01168AE
:10059000014311607047116881431160704700008A
:1005A00030380240054A002903D011680143116028
:1005B0007047116881431160704700004038024065
:1005C000054A002903D01168014311607047116882
:1005D00081431160704700004438024070470000BA
:1005E00010B58A07120F0F23934021F00304064928
:1005F000214401F608010C689C430C600B68904094
:1006000003430B6010BD0000003001400CB5002218
:10061000019200922749086840F4803008604FF446
:10062000A043086800F4003000900198401C01903D
:10063000009810B901989842F3D10868800302D558
:100640000120009000E000920098012831D1194863
:100650004030026842F0805202601748026842F45B
:10066000404202601348083002680260026842F4A7
:1006700000420260026842F4A0520260021F0F4B67
:1006800013600A6842F080720A600A689201FCD521
:100690000B4A40F205711160016821F0030101600D
:1006A000016841F0020101600168C1F38101022982
:1006B000FAD10CBD003802400070004008544007D9
:1006C000003C02404FF0E021042804D0086920F0EB
:1006D000040008617047086940F004000861704731
:1006E0007047000010B51248016841F470010160C4
:1006F0001048016841F0010101600E4A00210832F2
:10070000116002680C4B1A400260031D0B4A1A600C
:10071000026822F48022026006480C300160FFF774
:1007200075FF03494FF000608039086010BD00007C
:1007300088ED00E000380240FFFFF6FE1030002494
:100740006FF00400FFF7BEBF70B5174D01212846BA
:1007500000F04BF8012825D1144C6088401C81B270
:100760006180B1F57A7F17D304211148FFF72AFE83
:10077000207830B16168143961606068642804D001
:1007800005E0606814306060F7E701202070616860
:10079000002001B9207060802846BDE8704001212A
:1007A00000F014B870BD00000010004000000020F0
:1007B00000040240002904D0018841F0800101803A
:1007C0007047018821F0800101807047C943018290
:1007D0007047002904D0018841F001010180704771
:1007E000018821F001010180704702460020138A30
:1007F0000B4092890A40002B02D0002A00D0012031
:100800007047002A03D082890A4382817047828917
:100810008A4382817047000030B5028C22F00102C9
:100820000284058C8388028B22F0700222F003027E
:100830000C88144325F002028D8915434A882A4307
:100840000D4DA84202D00D4DA8420FD122F008054F
:10085000CA892A4322F004058A882A4323F4807334
:1008600023F400730D8A1D434B8A2B43838004833A
:1008700089684163028430BD0000014000040140EA
:10088000028B22F008020A430283704741637047DB
:1008900030B50288164C174DA0420DD0A8420BD09F
:1008A000B0F1804F08D0144B984205D0134B9842BA
:1008B00002D0134B984203D122F070034A881A43A6
:1008C000104B984206D0104B984203D022F440734C
:1008D0000A891A4302804A68C2620A880285A042D5
:1008E00001D0A84201D1897A01860121818230BDDF
:1008F00000000140000401400004004000080040E6
:10090000000C00400010004000140040FEE702E030
:1009100008C8121F08C1002AFAD17047704700208A
:1009200001E001C1121F002AFBD17047FFF77EFDD5
:10093000FFF74EFDFFF704FF4FF47A715420FFF7E5
:1009400053FC64215420FFF7CBFD4FF080454FF45A
:100950009676002421462846FFF798FF3046FFF799
:1009600073FC0A34E4B2642CF4D364242146284690
:10097000FFF78CFF3046FFF767FC0A3CE4B2002C1F
:10098000F4D1E6E7A40900080000002008000000F8
:100990000E090008AC09000808000020000400004F
:0C09A0001E09000800000000000000001C
:040000050800018965
:00000001FF
